{
  "address": "0x5Fc776485fBA587d350c95d765BEe6cb04A5a0b6",
  "abi": [
    {
      "inputs": [
        {
          "internalType": "address",
          "name": "_owner",
          "type": "address"
        },
        {
          "components": [
            {
              "internalType": "address",
              "name": "tokenAddress",
              "type": "address"
            },
            {
              "internalType": "uint256",
              "name": "tokenId",
              "type": "uint256"
            }
          ],
          "internalType": "struct TradeableShares.SharesSubject",
          "name": "_sharesSubject",
          "type": "tuple"
        },
        {
          "internalType": "address",
          "name": "_protocolFeeDestination",
          "type": "address"
        },
        {
          "internalType": "uint64",
          "name": "_protocolFeePercent",
          "type": "uint64"
        },
        {
          "internalType": "contract HoldersRewardsDistributor",
          "name": "_holdersFeeDestination",
          "type": "address"
        },
        {
          "internalType": "uint64",
          "name": "_holdersFeePercent",
          "type": "uint64"
        },
        {
          "internalType": "uint64",
          "name": "_subjectFeePercent",
          "type": "uint64"
        },
        {
          "internalType": "uint256",
          "name": "_amount",
          "type": "uint256"
        },
        {
          "internalType": "address",
          "name": "_beneficiary",
          "type": "address"
        },
        {
          "internalType": "contract ERC1363",
          "name": "_paymentToken",
          "type": "address"
        }
      ],
      "stateMutability": "nonpayable",
      "type": "constructor"
    },
    {
      "anonymous": false,
      "inputs": [
        {
          "indexed": false,
          "internalType": "uint256",
          "name": "oldProtocolFeePercent",
          "type": "uint256"
        },
        {
          "indexed": false,
          "internalType": "uint256",
          "name": "newProtocolFeePercent",
          "type": "uint256"
        }
      ],
      "name": "HoldersFeeDisabled",
      "type": "event"
    },
    {
      "anonymous": false,
      "inputs": [
        {
          "indexed": false,
          "internalType": "address",
          "name": "oldProtocolFeeDestination",
          "type": "address"
        },
        {
          "indexed": false,
          "internalType": "address",
          "name": "newProtocolFeeDestination",
          "type": "address"
        }
      ],
      "name": "ProtocolFeeDestinationUpdated",
      "type": "event"
    },
    {
      "anonymous": false,
      "inputs": [
        {
          "indexed": true,
          "internalType": "address",
          "name": "operator",
          "type": "address"
        },
        {
          "indexed": false,
          "internalType": "uint256",
          "name": "requested",
          "type": "uint256"
        },
        {
          "indexed": false,
          "internalType": "uint256",
          "name": "assigned",
          "type": "uint256"
        }
      ],
      "name": "RoleUpdated",
      "type": "event"
    },
    {
      "anonymous": false,
      "inputs": [
        {
          "components": [
            {
              "internalType": "address",
              "name": "tokenAddress",
              "type": "address"
            },
            {
              "internalType": "uint256",
              "name": "tokenId",
              "type": "uint256"
            }
          ],
          "indexed": false,
          "internalType": "struct TradeableShares.SharesSubject",
          "name": "oldSubject",
          "type": "tuple"
        },
        {
          "components": [
            {
              "internalType": "address",
              "name": "tokenAddress",
              "type": "address"
            },
            {
              "internalType": "uint256",
              "name": "tokenId",
              "type": "uint256"
            }
          ],
          "indexed": false,
          "internalType": "struct TradeableShares.SharesSubject",
          "name": "newSubject",
          "type": "tuple"
        },
        {
          "indexed": false,
          "internalType": "contract SharesFactory",
          "name": "factory",
          "type": "address"
        }
      ],
      "name": "SharesSubjectUpdated",
      "type": "event"
    },
    {
      "anonymous": false,
      "inputs": [
        {
          "indexed": true,
          "internalType": "address",
          "name": "beneficiary",
          "type": "address"
        },
        {
          "indexed": true,
          "internalType": "address",
          "name": "issuer",
          "type": "address"
        },
        {
          "indexed": true,
          "internalType": "bool",
          "name": "isBuy",
          "type": "bool"
        },
        {
          "indexed": false,
          "internalType": "uint256",
          "name": "sharesAmount",
          "type": "uint256"
        },
        {
          "indexed": false,
          "internalType": "uint256",
          "name": "paidAmount",
          "type": "uint256"
        },
        {
          "indexed": false,
          "internalType": "uint256",
          "name": "protocolFeeAmount",
          "type": "uint256"
        },
        {
          "indexed": false,
          "internalType": "uint256",
          "name": "holdersFeeAmount",
          "type": "uint256"
        },
        {
          "indexed": false,
          "internalType": "uint256",
          "name": "subjectFeeAmount",
          "type": "uint256"
        },
        {
          "indexed": false,
          "internalType": "uint256",
          "name": "supply",
          "type": "uint256"
        }
      ],
      "name": "Trade",
      "type": "event"
    },
    {
      "inputs": [],
      "name": "ROLE_ACCESS_MANAGER",
      "outputs": [
        {
          "internalType": "uint256",
          "name": "",
          "type": "uint256"
        }
      ],
      "stateMutability": "view",
      "type": "function"
    },
    {
      "inputs": [],
      "name": "ROLE_HOLDERS_FEE_MANAGER",
      "outputs": [
        {
          "internalType": "uint32",
          "name": "",
          "type": "uint32"
        }
      ],
      "stateMutability": "view",
      "type": "function"
    },
    {
      "inputs": [],
      "name": "ROLE_PROTOCOL_FEE_MANAGER",
      "outputs": [
        {
          "internalType": "uint32",
          "name": "",
          "type": "uint32"
        }
      ],
      "stateMutability": "view",
      "type": "function"
    },
    {
      "inputs": [],
      "name": "ROLE_SHARES_SUBJECT_MANAGER",
      "outputs": [
        {
          "internalType": "uint32",
          "name": "",
          "type": "uint32"
        }
      ],
      "stateMutability": "view",
      "type": "function"
    },
    {
      "inputs": [],
      "name": "ROLE_UPGRADE_MANAGER",
      "outputs": [
        {
          "internalType": "uint256",
          "name": "",
          "type": "uint256"
        }
      ],
      "stateMutability": "view",
      "type": "function"
    },
    {
      "inputs": [
        {
          "internalType": "uint256",
          "name": "amount",
          "type": "uint256"
        }
      ],
      "name": "buyKeys",
      "outputs": [],
      "stateMutability": "payable",
      "type": "function"
    },
    {
      "inputs": [
        {
          "internalType": "uint256",
          "name": "amount",
          "type": "uint256"
        }
      ],
      "name": "buyShares",
      "outputs": [],
      "stateMutability": "payable",
      "type": "function"
    },
    {
      "inputs": [
        {
          "internalType": "uint256",
          "name": "amount",
          "type": "uint256"
        },
        {
          "internalType": "address",
          "name": "beneficiary",
          "type": "address"
        }
      ],
      "name": "buySharesTo",
      "outputs": [],
      "stateMutability": "payable",
      "type": "function"
    },
    {
      "inputs": [],
      "name": "disableHoldersFee",
      "outputs": [],
      "stateMutability": "nonpayable",
      "type": "function"
    },
    {
      "inputs": [],
      "name": "features",
      "outputs": [
        {
          "internalType": "uint256",
          "name": "",
          "type": "uint256"
        }
      ],
      "stateMutability": "view",
      "type": "function"
    },
    {
      "inputs": [
        {
          "internalType": "uint256",
          "name": "_amount",
          "type": "uint256"
        }
      ],
      "name": "getBuyPrice",
      "outputs": [
        {
          "internalType": "uint256",
          "name": "",
          "type": "uint256"
        }
      ],
      "stateMutability": "view",
      "type": "function"
    },
    {
      "inputs": [
        {
          "internalType": "uint256",
          "name": "_supply",
          "type": "uint256"
        },
        {
          "internalType": "uint256",
          "name": "_amount",
          "type": "uint256"
        }
      ],
      "name": "getBuyPrice",
      "outputs": [
        {
          "internalType": "uint256",
          "name": "",
          "type": "uint256"
        }
      ],
      "stateMutability": "pure",
      "type": "function"
    },
    {
      "inputs": [
        {
          "internalType": "uint256",
          "name": "_supply",
          "type": "uint256"
        },
        {
          "internalType": "uint256",
          "name": "_amount",
          "type": "uint256"
        },
        {
          "internalType": "uint256",
          "name": "_protocolFeePercent",
          "type": "uint256"
        },
        {
          "internalType": "uint256",
          "name": "_holdersFeePercent",
          "type": "uint256"
        },
        {
          "internalType": "uint256",
          "name": "_subjectFeePercent",
          "type": "uint256"
        }
      ],
      "name": "getBuyPriceAfterFee",
      "outputs": [
        {
          "internalType": "uint256",
          "name": "",
          "type": "uint256"
        }
      ],
      "stateMutability": "pure",
      "type": "function"
    },
    {
      "inputs": [
        {
          "internalType": "uint256",
          "name": "_amount",
          "type": "uint256"
        }
      ],
      "name": "getBuyPriceAfterFee",
      "outputs": [
        {
          "internalType": "uint256",
          "name": "",
          "type": "uint256"
        }
      ],
      "stateMutability": "view",
      "type": "function"
    },
    {
      "inputs": [],
      "name": "getHoldersFeeDestination",
      "outputs": [
        {
          "internalType": "contract HoldersRewardsDistributor",
          "name": "",
          "type": "address"
        }
      ],
      "stateMutability": "view",
      "type": "function"
    },
    {
      "inputs": [],
      "name": "getHoldersFeeInfo",
      "outputs": [
        {
          "internalType": "contract HoldersRewardsDistributor",
          "name": "feeDestination",
          "type": "address"
        },
        {
          "internalType": "uint256",
          "name": "feePercent",
          "type": "uint256"
        }
      ],
      "stateMutability": "view",
      "type": "function"
    },
    {
      "inputs": [],
      "name": "getHoldersFeePercent",
      "outputs": [
        {
          "internalType": "uint256",
          "name": "",
          "type": "uint256"
        }
      ],
      "stateMutability": "view",
      "type": "function"
    },
    {
      "inputs": [],
      "name": "getPaymentToken",
      "outputs": [
        {
          "internalType": "contract ERC1363",
          "name": "",
          "type": "address"
        }
      ],
      "stateMutability": "view",
      "type": "function"
    },
    {
      "inputs": [
        {
          "internalType": "uint256",
          "name": "supply",
          "type": "uint256"
        },
        {
          "internalType": "uint256",
          "name": "amount",
          "type": "uint256"
        }
      ],
      "name": "getPrice",
      "outputs": [
        {
          "internalType": "uint256",
          "name": "",
          "type": "uint256"
        }
      ],
      "stateMutability": "pure",
      "type": "function"
    },
    {
      "inputs": [],
      "name": "getProtocolFeeDestination",
      "outputs": [
        {
          "internalType": "address",
          "name": "",
          "type": "address"
        }
      ],
      "stateMutability": "view",
      "type": "function"
    },
    {
      "inputs": [],
      "name": "getProtocolFeeInfo",
      "outputs": [
        {
          "internalType": "address",
          "name": "feeDestination",
          "type": "address"
        },
        {
          "internalType": "uint256",
          "name": "feePercent",
          "type": "uint256"
        }
      ],
      "stateMutability": "view",
      "type": "function"
    },
    {
      "inputs": [],
      "name": "getProtocolFeePercent",
      "outputs": [
        {
          "internalType": "uint256",
          "name": "",
          "type": "uint256"
        }
      ],
      "stateMutability": "view",
      "type": "function"
    },
    {
      "inputs": [
        {
          "internalType": "address",
          "name": "operator",
          "type": "address"
        }
      ],
      "name": "getRole",
      "outputs": [
        {
          "internalType": "uint256",
          "name": "",
          "type": "uint256"
        }
      ],
      "stateMutability": "view",
      "type": "function"
    },
    {
      "inputs": [
        {
          "internalType": "uint256",
          "name": "_supply",
          "type": "uint256"
        },
        {
          "internalType": "uint256",
          "name": "_amount",
          "type": "uint256"
        }
      ],
      "name": "getSellPrice",
      "outputs": [
        {
          "internalType": "uint256",
          "name": "",
          "type": "uint256"
        }
      ],
      "stateMutability": "pure",
      "type": "function"
    },
    {
      "inputs": [
        {
          "internalType": "uint256",
          "name": "_amount",
          "type": "uint256"
        }
      ],
      "name": "getSellPrice",
      "outputs": [
        {
          "internalType": "uint256",
          "name": "",
          "type": "uint256"
        }
      ],
      "stateMutability": "view",
      "type": "function"
    },
    {
      "inputs": [
        {
          "internalType": "uint256",
          "name": "_amount",
          "type": "uint256"
        }
      ],
      "name": "getSellPriceAfterFee",
      "outputs": [
        {
          "internalType": "uint256",
          "name": "",
          "type": "uint256"
        }
      ],
      "stateMutability": "view",
      "type": "function"
    },
    {
      "inputs": [
        {
          "internalType": "uint256",
          "name": "_supply",
          "type": "uint256"
        },
        {
          "internalType": "uint256",
          "name": "_amount",
          "type": "uint256"
        },
        {
          "internalType": "uint256",
          "name": "_protocolFeePercent",
          "type": "uint256"
        },
        {
          "internalType": "uint256",
          "name": "_holdersFeePercent",
          "type": "uint256"
        },
        {
          "internalType": "uint256",
          "name": "_subjectFeePercent",
          "type": "uint256"
        }
      ],
      "name": "getSellPriceAfterFee",
      "outputs": [
        {
          "internalType": "uint256",
          "name": "",
          "type": "uint256"
        }
      ],
      "stateMutability": "pure",
      "type": "function"
    },
    {
      "inputs": [
        {
          "internalType": "address",
          "name": "_holder",
          "type": "address"
        }
      ],
      "name": "getSharesBalance",
      "outputs": [
        {
          "internalType": "uint256",
          "name": "balance",
          "type": "uint256"
        }
      ],
      "stateMutability": "view",
      "type": "function"
    },
    {
      "inputs": [],
      "name": "getSharesIssuer",
      "outputs": [
        {
          "internalType": "address",
          "name": "nftOwner",
          "type": "address"
        }
      ],
      "stateMutability": "view",
      "type": "function"
    },
    {
      "inputs": [],
      "name": "getSharesSubject",
      "outputs": [
        {
          "components": [
            {
              "internalType": "address",
              "name": "tokenAddress",
              "type": "address"
            },
            {
              "internalType": "uint256",
              "name": "tokenId",
              "type": "uint256"
            }
          ],
          "internalType": "struct TradeableShares.SharesSubject",
          "name": "",
          "type": "tuple"
        }
      ],
      "stateMutability": "view",
      "type": "function"
    },
    {
      "inputs": [],
      "name": "getSharesSupply",
      "outputs": [
        {
          "internalType": "uint256",
          "name": "supply",
          "type": "uint256"
        }
      ],
      "stateMutability": "view",
      "type": "function"
    },
    {
      "inputs": [],
      "name": "getSubjectFeeInfo",
      "outputs": [
        {
          "internalType": "address",
          "name": "feeDestination",
          "type": "address"
        },
        {
          "internalType": "uint256",
          "name": "feePercent",
          "type": "uint256"
        }
      ],
      "stateMutability": "view",
      "type": "function"
    },
    {
      "inputs": [],
      "name": "getSubjectFeePercent",
      "outputs": [
        {
          "internalType": "uint256",
          "name": "",
          "type": "uint256"
        }
      ],
      "stateMutability": "view",
      "type": "function"
    },
    {
      "inputs": [],
      "name": "getTradeVolume",
      "outputs": [
        {
          "internalType": "uint256",
          "name": "",
          "type": "uint256"
        }
      ],
      "stateMutability": "view",
      "type": "function"
    },
    {
      "inputs": [
        {
          "internalType": "uint256",
          "name": "required",
          "type": "uint256"
        }
      ],
      "name": "isFeatureEnabled",
      "outputs": [
        {
          "internalType": "bool",
          "name": "",
          "type": "bool"
        }
      ],
      "stateMutability": "view",
      "type": "function"
    },
    {
      "inputs": [
        {
          "internalType": "address",
          "name": "operator",
          "type": "address"
        },
        {
          "internalType": "uint256",
          "name": "required",
          "type": "uint256"
        }
      ],
      "name": "isOperatorInRole",
      "outputs": [
        {
          "internalType": "bool",
          "name": "",
          "type": "bool"
        }
      ],
      "stateMutability": "view",
      "type": "function"
    },
    {
      "inputs": [
        {
          "internalType": "uint256",
          "name": "required",
          "type": "uint256"
        }
      ],
      "name": "isSenderInRole",
      "outputs": [
        {
          "internalType": "bool",
          "name": "",
          "type": "bool"
        }
      ],
      "stateMutability": "view",
      "type": "function"
    },
    {
      "inputs": [
        {
          "internalType": "address",
          "name": "_owner",
          "type": "address"
        },
        {
          "components": [
            {
              "internalType": "address",
              "name": "tokenAddress",
              "type": "address"
            },
            {
              "internalType": "uint256",
              "name": "tokenId",
              "type": "uint256"
            }
          ],
          "internalType": "struct TradeableShares.SharesSubject",
          "name": "_sharesSubject",
          "type": "tuple"
        },
        {
          "internalType": "address",
          "name": "_protocolFeeDestination",
          "type": "address"
        },
        {
          "internalType": "uint64",
          "name": "_protocolFeePercent",
          "type": "uint64"
        },
        {
          "internalType": "contract HoldersRewardsDistributor",
          "name": "_holdersFeeDestination",
          "type": "address"
        },
        {
          "internalType": "uint64",
          "name": "_holdersFeePercent",
          "type": "uint64"
        },
        {
          "internalType": "uint64",
          "name": "_subjectFeePercent",
          "type": "uint64"
        },
        {
          "internalType": "uint256",
          "name": "_amount",
          "type": "uint256"
        },
        {
          "internalType": "address",
          "name": "_beneficiary",
          "type": "address"
        },
        {
          "internalType": "contract ERC1363",
          "name": "_paymentToken",
          "type": "address"
        }
      ],
      "name": "postConstruct",
      "outputs": [],
      "stateMutability": "nonpayable",
      "type": "function"
    },
    {
      "inputs": [
        {
          "internalType": "uint256",
          "name": "amount",
          "type": "uint256"
        }
      ],
      "name": "sellKeys",
      "outputs": [],
      "stateMutability": "nonpayable",
      "type": "function"
    },
    {
      "inputs": [
        {
          "internalType": "uint256",
          "name": "amount",
          "type": "uint256"
        }
      ],
      "name": "sellShares",
      "outputs": [],
      "stateMutability": "nonpayable",
      "type": "function"
    },
    {
      "inputs": [
        {
          "internalType": "uint256",
          "name": "amount",
          "type": "uint256"
        },
        {
          "internalType": "address payable",
          "name": "beneficiary",
          "type": "address"
        }
      ],
      "name": "sellSharesTo",
      "outputs": [],
      "stateMutability": "nonpayable",
      "type": "function"
    },
    {
      "inputs": [
        {
          "internalType": "uint256",
          "name": "_mask",
          "type": "uint256"
        }
      ],
      "name": "updateFeatures",
      "outputs": [],
      "stateMutability": "nonpayable",
      "type": "function"
    },
    {
      "inputs": [
        {
          "internalType": "address",
          "name": "_protocolFeeDestination",
          "type": "address"
        }
      ],
      "name": "updateProtocolFeeDestination",
      "outputs": [],
      "stateMutability": "nonpayable",
      "type": "function"
    },
    {
      "inputs": [
        {
          "internalType": "address",
          "name": "operator",
          "type": "address"
        },
        {
          "internalType": "uint256",
          "name": "role",
          "type": "uint256"
        }
      ],
      "name": "updateRole",
      "outputs": [],
      "stateMutability": "nonpayable",
      "type": "function"
    },
    {
      "inputs": [
        {
          "components": [
            {
              "internalType": "address",
              "name": "tokenAddress",
              "type": "address"
            },
            {
              "internalType": "uint256",
              "name": "tokenId",
              "type": "uint256"
            }
          ],
          "internalType": "struct TradeableShares.SharesSubject",
          "name": "_sharesSubject",
          "type": "tuple"
        }
      ],
      "name": "updateSharesSubject",
      "outputs": [],
      "stateMutability": "nonpayable",
      "type": "function"
    },
    {
      "inputs": [
        {
          "components": [
            {
              "internalType": "address",
              "name": "tokenAddress",
              "type": "address"
            },
            {
              "internalType": "uint256",
              "name": "tokenId",
              "type": "uint256"
            }
          ],
          "internalType": "struct TradeableShares.SharesSubject",
          "name": "_sharesSubject",
          "type": "tuple"
        },
        {
          "internalType": "contract SharesFactory",
          "name": "_factory",
          "type": "address"
        }
      ],
      "name": "updateSharesSubject",
      "outputs": [],
      "stateMutability": "nonpayable",
      "type": "function"
    }
  ],
  "transactionHash": "0x08633e142633abf0599cc33a708ca7f64b491995bd5424c1d73820d810c1c964",
  "args": [
    "0x0000000000000000000000000000000000000000",
    {
      "tokenAddress": "0x0000000000000000000000000000000000000000",
      "tokenId": "0"
    },
    "0x0000000000000000000000000000000000000000",
    0,
    "0x0000000000000000000000000000000000000000",
    0,
    0,
    0,
    "0x0000000000000000000000000000000000000000",
    "0x0000000000000000000000000000000000000000"
  ],
  "numDeployments": 1,
  "solcInputHash": "579c7556a7c00d23ecd29fca4cc3470d",
  "bytecode": "0x60806040523480156200001157600080fd5b50604051620033f8380380620033f8833981016040819052620000349162000e83565b89898989898989898989600060019054906101000a900460ff16620000605760005460ff16156200006a565b6200006a62000127565b620000c25760405162461bcd60e51b815260206004820152602e6024820152600080516020620033b883398151915260448201526d191e481a5b9a5d1a585b1a5e995960921b60648201526084015b60405180910390fd5b600054610100900460ff16158015620000e5576000805461ffff19166101011790555b620000f98b8b8b8b8b8b8b8b8b8b62000145565b80156200010c576000805461ff00191690555b5050505050505050505050505050505050505050506200111e565b60006200013f306200024260201b620013611760201c565b15905090565b600054610100900460ff16620001625760005460ff16156200016c565b6200016c62000127565b620001c05760405162461bcd60e51b815260206004820152602e6024820152600080516020620033b883398151915260448201526d191e481a5b9a5d1a585b1a5e995960921b6064820152608401620000b9565b600054610100900460ff16158015620001e3576000805461ffff19166101011790555b620001f48b8b8b8b8b8b8b62000248565b603b80546001600160a01b0319166001600160a01b0384161790558315620002225762000222848462000338565b801562000235576000805461ff00191690555b5050505050505050505050565b3b151590565b600054610100900460ff16620002a45760405162461bcd60e51b815260206004820152602b6024820152600080516020620033d883398151915260448201526a6e697469616c697a696e6760a81b6064820152608401620000b9565b620002af876200058a565b8551603380546001600160a01b0319166001600160a01b03928316179055602090960151603455603580549587166001600160e01b031996871617600160a01b6001600160401b039687168102919091179091556036805494909716939095169290921790831690930292909217909255603780546001600160401b0319169190921617905550565b3415620003985760405162461bcd60e51b815260206004820152602760248201527f6f6e6c79207061796d656e7420696e20455243323020746f6b656e20697320656044820152661e1c1958dd195960ca1b6064820152608401620000b9565b6000620003a460385490565b6001600160a01b038316600090815260396020526040812080549293508592909190620003d390849062000fb9565b90915550620003e59050838262000fb9565b6038556000620003f68285620005f8565b9050600062000406338362000626565b925050506000620004223384600189896200073c60201b60201c565b925050506000806200043b33866200088960201b60201c565b92505091508460001480620004c95750603b546040516323b872dd60e01b8152336004820152306024820152604481018790526001600160a01b03909116906323b872dd906064016020604051808303816000875af1158015620004a3573d6000803e3d6000fd5b505050506040513d601f19601f82011682018060405250810190620004c9919062000fd4565b620005085760405162461bcd60e51b815260206004820152600e60248201526d1c185e5b595b9d0819985a5b195960921b6044820152606401620000b9565b620005138562000998565b603854604080518a815260208101889052908101869052606081018590526080810183905260a08101919091526001906001600160a01b0380851691908a16907f952ff8d90add9fdeaeb478102d54441cf0cc0cbe53b1d99e51f747cdc8379e549060c00160405180910390a45050505050505050565b600054610100900460ff16620005e65760405162461bcd60e51b815260206004820152602b6024820152600080516020620033d883398151915260448201526a6e697469616c697a696e6760a81b6064820152608401620000b9565b620005f58160001980620009b4565b50565b600062000611838362000a0e60201b620013671760201c565b6200061f9061c35062000ff8565b9392505050565b600080806200063462000b5d565b9093509150670de0b6b3a76400006200064e838662000ff8565b6200065a91906200101a565b9050801580620006e75750603b546040516323b872dd60e01b81526001600160a01b038781166004830152858116602483015260448201849052909116906323b872dd906064016020604051808303816000875af1158015620006c1573d6000803e3d6000fd5b505050506040513d601f19601f82011682018060405250810190620006e7919062000fd4565b620007355760405162461bcd60e51b815260206004820152601b60248201527f70726f746f636f6c20666565207061796d656e74206661696c656400000000006044820152606401620000b9565b9250925092565b600080806200074a62000bae565b9093509150670de0b6b3a764000062000764838962000ff8565b6200077091906200101a565b90506001600160a01b038316158015906200078a57508415155b156200087e57604080516001600160a01b038681166020830152881515828401526060808301899052835180840390910181526080830193849052603b5463c1d34b8960e01b9094529260009291169063c1d34b8990620007f6908d9089908890889060840162001070565b6020604051808303816000875af115801562000816573d6000803e3d6000fd5b505050506040513d601f19601f820116820180604052508101906200083c919062000fd4565b9050806200087b5760405162461bcd60e51b815260206004820152600b60248201526a1cde5b98c819985a5b195960aa1b6044820152606401620000b9565b50505b955095509592505050565b600080806200089762000bf0565b9093509150670de0b6b3a7640000620008b1838662000ff8565b620008bd91906200101a565b90508015806200094a5750603b546040516323b872dd60e01b81526001600160a01b038781166004830152858116602483015260448201849052909116906323b872dd906064016020604051808303816000875af115801562000924573d6000803e3d6000fd5b505050506040513d601f19601f820116820180604052508101906200094a919062000fd4565b620007355760405162461bcd60e51b815260206004820152601a60248201527f7375626a65637420666565207061796d656e74206661696c65640000000000006044820152606401620000b9565b80603a6000828254620009ac919062000fb9565b909155505050565b6001600160a01b03831660008181526001602090815260409182902084905581518581529081018490527fe9be537308880e0f56b7d7cfd7abf85f14c4934486d138f848b92a0cbaf659b4910160405180910390a2505050565b600080831562000a7957600662000a27600186620010c6565b62000a3490600262000ff8565b62000a4190600162000fb9565b8562000a4f600182620010c6565b62000a5b919062000ff8565b62000a67919062000ff8565b62000a7391906200101a565b62000a7c565b60005b905060008415801562000a90575060018411155b62000b1b576006600162000aa5868862000fb9565b62000ab19190620010c6565b62000abe90600262000ff8565b62000acb90600162000fb9565b62000ad7868862000fb9565b600162000ae5888a62000fb9565b62000af19190620010c6565b62000afd919062000ff8565b62000b09919062000ff8565b62000b1591906200101a565b62000b1e565b60005b9050600062000b2e8383620010c6565b9050613e8062000b4782670de0b6b3a764000062000ff8565b62000b5391906200101a565b9695505050505050565b60008062000b736035546001600160a01b031690565b91506001600160a01b0382161562000ba55762000b9f603554600160a01b90046001600160401b031690565b62000ba8565b60005b90509091565b60008062000bc46036546001600160a01b031690565b91506001600160a01b0382161562000ba55762000b9f603654600160a01b90046001600160401b031690565b60008062000bfd62000c21565b91506001600160a01b0382161562000ba5576037546001600160401b031662000ba8565b604080518082019091526033546001600160a01b0316815260345460208083019190915260009162000c5c916200148962000c61821b17901c565b905090565b80516000903b1562000e3b5760008083600001516001600160a01b0316611324634f558e7960e01b866020015160405160240162000ca191815260200190565b60408051601f198184030181529181526020820180516001600160e01b03166001600160e01b031990941693909317909252905162000ce19190620010e0565b6000604051808303818686fa925050503d806000811462000d1f576040519150601f19603f3d011682016040523d82523d6000602084013e62000d24565b606091505b5091509150811562000d55578080602001905181019062000d46919062000fd4565b62000d55575060009392505050565b505060008083600001516001600160a01b0316611324636352211e60e01b866020015160405160240162000d8b91815260200190565b60408051601f198184030181529181526020820180516001600160e01b03166001600160e01b031990941693909317909252905162000dcb9190620010e0565b6000604051808303818686fa925050503d806000811462000e09576040519150601f19603f3d011682016040523d82523d6000602084013e62000e0e565b606091505b5091509150811562000e38578080602001905181019062000e309190620010fe565b949350505050565b50505b506000919050565b6001600160a01b0381168114620005f557600080fd5b805162000e668162000e43565b919050565b80516001600160401b038116811462000e6657600080fd5b6000806000806000806000806000808a8c0361016081121562000ea557600080fd5b8b5162000eb28162000e43565b9a506040601f198201121562000ec757600080fd5b50604080519081016001600160401b038111828210171562000ef957634e487b7160e01b600052604160045260246000fd5b60405260208c015162000f0c8162000e43565b815260408c01516020820152985062000f2860608c0162000e59565b975062000f3860808c0162000e6b565b965062000f4860a08c0162000e59565b955062000f5860c08c0162000e6b565b945062000f6860e08c0162000e6b565b93506101008b0151925062000f816101208c0162000e59565b915062000f926101408c0162000e59565b90509295989b9194979a5092959850565b634e487b7160e01b600052601160045260246000fd5b6000821982111562000fcf5762000fcf62000fa3565b500190565b60006020828403121562000fe757600080fd5b815180151581146200061f57600080fd5b600081600019048311821515161562001015576200101562000fa3565b500290565b6000826200103857634e487b7160e01b600052601260045260246000fd5b500490565b60005b838110156200105a57818101518382015260200162001040565b838111156200106a576000848401525b50505050565b600060018060a01b038087168352808616602084015250836040830152608060608301528251806080840152620010af8160a08501602087016200103d565b601f01601f19169190910160a00195945050505050565b600082821015620010db57620010db62000fa3565b500390565b60008251620010f48184602087016200103d565b9190910192915050565b6000602082840312156200111157600080fd5b81516200061f8162000e43565b61228a806200112e6000396000f3fe60806040526004361061027d5760003560e01c80639477d85d1161014f578063ba730e53116100c1578063d41c3a651161007a578063d41c3a65146107c1578063d5bb7f67146107df578063d7c94230146107ff578063d992f1ab1461081f578063ef0c256914610834578063fcc2c0781461085457600080fd5b8063ba730e5314610714578063be1125b514610734578063c157253d14610749578063c688d69314610769578063cd3f29e914610789578063d1a93d18146107ae57600080fd5b8063adc8d09d11610113578063adc8d09d1461067a578063ae5b102e1461069a578063ae60bda4146106ba578063ae682e2e146106d2578063b1c6ffcf146106ea578063b32820e91461070157600080fd5b80639477d85d146105de578063974236cb146105fe5780639ccb89e2146106155780639e59e2f214610635578063a58379a11461065a57600080fd5b806344276733116101f35780635f100c5c116101ac5780635f100c5c14610526578063695639b7146105465780636b4ed02a1461055b578063725f36261461057b5780637573af8e146105ab5780638db462fc146105c057600080fd5b806344276733146104515780634526bc3f146104875780634ba8ae811461049c57806353b73799146104bc57806358ab4e90146104da5780635cf4ee911461050657600080fd5b80632035732111610245578063203573211461037f578063252a1ccb146103945780632b521416146103b6578063357d7ec9146103d857806337e36f831461040c578063427e36181461043e57600080fd5b806306ae0df91461028257806308d4db14146102db57806308f97dd81461030957806319224cb41461032957806319786af814610349575b600080fd5b34801561028e57600080fd5b506040805180820182526000808252602091820152815180830183526033546001600160a01b03168082526034549183019182528351908152905191810191909152015b60405180910390f35b3480156102e757600080fd5b506102fb6102f6366004611d38565b610874565b6040519081526020016102d2565b34801561031557600080fd5b506102fb610324366004611d38565b61088e565b34801561033557600080fd5b506102fb610344366004611d51565b6108d4565b34801561035557600080fd5b506102fb610364366004611db1565b6001600160a01b031660009081526039602052604090205490565b34801561038b57600080fd5b506038546102fb565b3480156103a057600080fd5b506103b46103af366004611db1565b610974565b005b3480156103c257600080fd5b50306000908152600160205260409020546102fb565b3480156103e457600080fd5b506103ed610a13565b604080516001600160a01b0390931683526020830191909152016102d2565b34801561041857600080fd5b506036546001600160a01b03165b6040516001600160a01b0390911681526020016102d2565b6103b461044c366004611dce565b610a49565b34801561045d57600080fd5b506102fb61046c366004611db1565b6001600160a01b031660009081526001602052604090205490565b34801561049357600080fd5b506103b4610ad9565b3480156104a857600080fd5b506103b46104b7366004611d38565b610c33565b3480156104c857600080fd5b506037546001600160401b03166102fb565b3480156104e657600080fd5b506104f16202000081565b60405163ffffffff90911681526020016102d2565b34801561051257600080fd5b506102fb610521366004611dfe565b610c40565b34801561053257600080fd5b506103b4610541366004611e38565b610c5f565b34801561055257600080fd5b506103ed610c6a565b34801561056757600080fd5b506102fb610576366004611d38565b610ca8565b34801561058757600080fd5b5061059b610596366004611d38565b610ce5565b60405190151581526020016102d2565b3480156105b757600080fd5b50610426610d01565b3480156105cc57600080fd5b506035546001600160a01b0316610426565b3480156105ea57600080fd5b506102fb6105f9366004611dfe565b610d2d565b34801561060a57600080fd5b506104f16208000081565b34801561062157600080fd5b506103b4610630366004611e6b565b610d42565b34801561064157600080fd5b50603654600160a01b90046001600160401b03166102fb565b34801561066657600080fd5b506102fb610675366004611d51565b610e3f565b34801561068657600080fd5b506103b4610695366004611d38565b610ed1565b3480156106a657600080fd5b506103b46106b5366004611f76565b610eda565b3480156106c657600080fd5b506102fb600160fe1b81565b3480156106de57600080fd5b506102fb600160ff1b81565b3480156106f657600080fd5b506104f16201000081565b6103b461070f366004611d38565b610f5f565b34801561072057600080fd5b506102fb61072f366004611d38565b610f68565b34801561074057600080fd5b50603a546102fb565b34801561075557600080fd5b506102fb610764366004611dfe565b610f7c565b34801561077557600080fd5b5061059b610784366004611f76565b610f88565b34801561079557600080fd5b50603554600160a01b90046001600160401b03166102fb565b6103b46107bc366004611d38565b610faa565b3480156107cd57600080fd5b50603b546001600160a01b0316610426565b3480156107eb57600080fd5b506103b46107fa366004611d38565b610fb4565b34801561080b57600080fd5b506103b461081a366004611dce565b610fbe565b34801561082b57600080fd5b506103ed61123e565b34801561084057600080fd5b506103b461084f366004611fa2565b61127c565b34801561086057600080fd5b5061059b61086f366004611d38565b611355565b600061088861088260385490565b83610f7c565b92915050565b600080610899610c6a565b91505060006108a661123e565b91505060006108b3610a13565b9150506108cb6108c260385490565b86858585610e3f565b95945050505050565b6000806108e18787610f7c565b90506000670de0b6b3a76400006108f88784611fe5565b6109029190612004565b90506000670de0b6b3a76400006109198785611fe5565b6109239190612004565b90506000670de0b6b3a764000061093a8786611fe5565b6109449190612004565b905080826109528587612026565b61095c9190612026565b6109669190612026565b9a9950505050505050505050565b61098062010000611355565b6109a55760405162461bcd60e51b815260040161099c9061203e565b60405180910390fd5b603554604080516001600160a01b03928316815291831660208301527f56193c420686fede45e4df7337054c2c9d6e74ea3d4773ab0d4f18197b08142d910160405180910390a1603580546001600160a01b0319166001600160a01b0392909216919091179055565b905090565b600080610a1e610d01565b91506001600160a01b03821615610a40576037546001600160401b0316610a43565b60005b90509091565b6000610a5460385490565b1180610a6f575033610a64610d01565b6001600160a01b0316145b610acb5760405162461bcd60e51b815260206004820152602760248201527f6f6e6c7920746865206973737565722063616e206275792074686520666972736044820152667420736861726560c81b606482015260840161099c565b610ad58282611659565b5050565b610ae562020000611355565b610b015760405162461bcd60e51b815260040161099c9061203e565b6036546001600160a01b0316151580610b2b5750603654600160a01b90046001600160401b031615155b610b655760405162461bcd60e51b815260206004820152600b60248201526a1b9bdd08195b98589b195960aa1b604482015260640161099c565b6035546036547fbf3d73ac4d2b03dfb17b5ef50c84465692647f0843b94f9ebc4062034a6f8e0b916001600160401b03600160a01b91829004811692610bae9290041682612065565b604080516001600160401b0393841681529290911660208301520160405180910390a1603654603580546001600160401b03600160a01b93849004811693601492610bfe92869290910416612065565b82546001600160401b039182166101009390930a928302919092021990911617905550603680546001600160e01b0319169055565b610c3d8133610fbe565b50565b6000610c4c8383611367565b610c589061c350611fe5565b9392505050565b610c3d81600061127c565b600080610c7f6035546001600160a01b031690565b91506001600160a01b03821615610a4057603554600160a01b90046001600160401b0316610a43565b600080610cb3610c6a565b9150506000610cc061123e565b9150506000610ccd610a13565b9150506108cb610cdc60385490565b868585856108d4565b30600090815260016020526040812054610888905b8316831490565b604080518082019091526033546001600160a01b031681526034546020820152600090610a0e90611489565b6000610c58610d3c8385612090565b83610c40565b600054610100900460ff16610d5d5760005460ff1615610d61565b303b155b610dc45760405162461bcd60e51b815260206004820152602e60248201527f496e697469616c697a61626c653a20636f6e747261637420697320616c72656160448201526d191e481a5b9a5d1a585b1a5e995960921b606482015260840161099c565b600054610100900460ff16158015610de6576000805461ffff19166101011790555b610df58b8b8b8b8b8b8b611888565b603b80546001600160a01b0319166001600160a01b0384161790558315610e2057610e208484611659565b8015610e32576000805461ff00191690555b5050505050505050505050565b600080610e4c8787610d2d565b90506000670de0b6b3a7640000610e638784611fe5565b610e6d9190612004565b90506000670de0b6b3a7640000610e848785611fe5565b610e8e9190612004565b90506000670de0b6b3a7640000610ea58786611fe5565b610eaf9190612004565b90508082610ebd8587612090565b610ec79190612090565b6109669190612090565b610c3d81610c33565b610ee7600160ff1b611355565b610f035760405162461bcd60e51b815260040161099c9061203e565b610ad58282610f5a33610f2b876001600160a01b031660009081526001602052604090205490565b6001600160a01b0391909116600090815260016020526040902054600019808818821618908716919091171690565b611942565b610c3d81610faa565b6000610888610f7660385490565b83610d2d565b6000610c588383610c40565b6001600160a01b038216600090815260016020526040812054610c5890610cfa565b610c3d8133610a49565b610c3d3082610eda565b6000610fc960385490565b905082811161101a5760405162461bcd60e51b815260206004820152601a60248201527f63616e6e6f742073656c6c20746865206c617374207368617265000000000000604482015260640161099c565b33600090815260396020526040902054838110156110705760405162461bcd60e51b8152602060048201526013602482015272696e73756666696369656e742073686172657360681b604482015260640161099c565b61107a8482612090565b336000908152603960205260409020556110948483612090565b60388190556000906110a69086610c40565b905060006110b4308361199c565b9250505060006110c8308460008a33611aa7565b925050506000806110d93086611be6565b603b549294509250506001600160a01b031663a9059cbb8983866110fd898b612090565b6111079190612090565b6111119190612090565b6040516001600160e01b031960e085901b1681526001600160a01b03909216600483015260248201526044016020604051808303816000875af115801561115c573d6000803e3d6000fd5b505050506040513d601f19601f8201168201806040525081019061118091906120a7565b6111bd5760405162461bcd60e51b815260206004820152600e60248201526d1c185e5b595b9d0819985a5b195960921b604482015260640161099c565b6111c685611cea565b603854604080518b815260208101889052908101869052606081018590526080810183905260a08101919091526000906001600160a01b0380851691908b16907f952ff8d90add9fdeaeb478102d54441cf0cc0cbe53b1d99e51f747cdc8379e549060c00160405180910390a4505050505050505050565b6000806112536036546001600160a01b031690565b91506001600160a01b03821615610a4057603654600160a01b90046001600160401b0316610a43565b61128862080000611355565b6112a45760405162461bcd60e51b815260040161099c9061203e565b7f4b356af3260ac232dff1ad2c4ce0f2d58640a02df64c6b965db54e527ce40c88603383836040516112d8939291906120c9565b60405180910390a18160336112ed8282612116565b50506001600160a01b03811615610ad557806001600160a01b0316637b80be6b6040518163ffffffff1660e01b8152600401600060405180830381600087803b15801561133957600080fd5b505af115801561134d573d6000803e3d6000fd5b505050505050565b60006108883383610f88565b3b151590565b60008083156113c257600661137d600186612090565b611388906002611fe5565b611393906001612026565b8561139f600182612090565b6113a99190611fe5565b6113b39190611fe5565b6113bd9190612004565b6113c5565b60005b90506000841580156113d8575060018411155b61144d57600660016113ea8688612026565b6113f49190612090565b6113ff906002611fe5565b61140a906001612026565b6114148688612026565b6001611420888a612026565b61142a9190612090565b6114349190611fe5565b61143e9190611fe5565b6114489190612004565b611450565b60005b9050600061145e8383612090565b9050613e8061147582670de0b6b3a7640000611fe5565b61147f9190612004565b9695505050505050565b80516000903b156116515760008083600001516001600160a01b0316611324634f558e7960e01b86602001516040516024016114c791815260200190565b60408051601f198184030181529181526020820180516001600160e01b03166001600160e01b0319909416939093179092529051611505919061217c565b6000604051808303818686fa925050503d8060008114611541576040519150601f19603f3d011682016040523d82523d6000602084013e611546565b606091505b50915091508115611573578080602001905181019061156591906120a7565b611573575060009392505050565b505060008083600001516001600160a01b0316611324636352211e60e01b86602001516040516024016115a891815260200190565b60408051601f198184030181529181526020820180516001600160e01b03166001600160e01b03199094169390931790925290516115e6919061217c565b6000604051808303818686fa925050503d8060008114611622576040519150601f19603f3d011682016040523d82523d6000602084013e611627565b606091505b5091509150811561164e57808060200190518101906116469190612198565b949350505050565b50505b506000919050565b34156116b75760405162461bcd60e51b815260206004820152602760248201527f6f6e6c79207061796d656e7420696e20455243323020746f6b656e20697320656044820152661e1c1958dd195960ca1b606482015260840161099c565b60006116c260385490565b6001600160a01b0383166000908152603960205260408120805492935085929091906116ef908490612026565b909155506116ff90508382612026565b603855600061170e8285610c40565b9050600061171c338361199c565b925050506000611730338460018989611aa7565b925050506000806117413386611be6565b925050915084600014806117cb5750603b546040516323b872dd60e01b8152336004820152306024820152604481018790526001600160a01b03909116906323b872dd906064016020604051808303816000875af11580156117a7573d6000803e3d6000fd5b505050506040513d601f19601f820116820180604052508101906117cb91906120a7565b6118085760405162461bcd60e51b815260206004820152600e60248201526d1c185e5b595b9d0819985a5b195960921b604482015260640161099c565b61181185611cea565b603854604080518a815260208101889052908101869052606081018590526080810183905260a08101919091526001906001600160a01b0380851691908a16907f952ff8d90add9fdeaeb478102d54441cf0cc0cbe53b1d99e51f747cdc8379e549060c00160405180910390a45050505050505050565b600054610100900460ff166118af5760405162461bcd60e51b815260040161099c906121b5565b6118b887611d04565b8551603380546001600160a01b0319166001600160a01b03928316179055602090960151603455603580549587166001600160e01b031996871617600160a01b6001600160401b0396871681029190911790915560368054949097169390951692909217908316909302929092179092556037805467ffffffffffffffff19169190921617905550565b6001600160a01b03831660008181526001602090815260409182902084905581518581529081018490527fe9be537308880e0f56b7d7cfd7abf85f14c4934486d138f848b92a0cbaf659b4910160405180910390a2505050565b60008060006119a9610c6a565b9093509150670de0b6b3a76400006119c18386611fe5565b6119cb9190612004565b9050801580611a545750603b546040516323b872dd60e01b81526001600160a01b038781166004830152858116602483015260448201849052909116906323b872dd906064016020604051808303816000875af1158015611a30573d6000803e3d6000fd5b505050506040513d601f19601f82011682018060405250810190611a5491906120a7565b611aa05760405162461bcd60e51b815260206004820152601b60248201527f70726f746f636f6c20666565207061796d656e74206661696c65640000000000604482015260640161099c565b9250925092565b6000806000611ab461123e565b9093509150670de0b6b3a7640000611acc8389611fe5565b611ad69190612004565b90506001600160a01b03831615801590611aef57508415155b15611bdb57604080516001600160a01b038681166020830152881515828401526060808301899052835180840390910181526080830193849052603b5463c1d34b8960e01b9094529260009291169063c1d34b8990611b58908d90899088908890608401612200565b6020604051808303816000875af1158015611b77573d6000803e3d6000fd5b505050506040513d601f19601f82011682018060405250810190611b9b91906120a7565b905080611bd85760405162461bcd60e51b815260206004820152600b60248201526a1cde5b98c819985a5b195960aa1b604482015260640161099c565b50505b955095509592505050565b6000806000611bf3610a13565b9093509150670de0b6b3a7640000611c0b8386611fe5565b611c159190612004565b9050801580611c9e5750603b546040516323b872dd60e01b81526001600160a01b038781166004830152858116602483015260448201849052909116906323b872dd906064016020604051808303816000875af1158015611c7a573d6000803e3d6000fd5b505050506040513d601f19601f82011682018060405250810190611c9e91906120a7565b611aa05760405162461bcd60e51b815260206004820152601a60248201527f7375626a65637420666565207061796d656e74206661696c6564000000000000604482015260640161099c565b80603a6000828254611cfc9190612026565b909155505050565b600054610100900460ff16611d2b5760405162461bcd60e51b815260040161099c906121b5565b610c3d8160001980611942565b600060208284031215611d4a57600080fd5b5035919050565b600080600080600060a08688031215611d6957600080fd5b505083359560208501359550604085013594606081013594506080013592509050565b6001600160a01b0381168114610c3d57600080fd5b8035611dac81611d8c565b919050565b600060208284031215611dc357600080fd5b8135610c5881611d8c565b60008060408385031215611de157600080fd5b823591506020830135611df381611d8c565b809150509250929050565b60008060408385031215611e1157600080fd5b50508035926020909101359150565b600060408284031215611e3257600080fd5b50919050565b600060408284031215611e4a57600080fd5b610c588383611e20565b80356001600160401b0381168114611dac57600080fd5b6000806000806000806000806000808a8c03610160811215611e8c57600080fd5b8b35611e9781611d8c565b9a506040601f1982011215611eab57600080fd5b50604051604081018181106001600160401b0382111715611edc57634e487b7160e01b600052604160045260246000fd5b60405260208c0135611eed81611d8c565b815260408c013560208201529850611f0760608c01611da1565b9750611f1560808c01611e54565b9650611f2360a08c01611da1565b9550611f3160c08c01611e54565b9450611f3f60e08c01611e54565b93506101008b01359250611f566101208c01611da1565b9150611f656101408c01611da1565b90509295989b9194979a5092959850565b60008060408385031215611f8957600080fd5b8235611f9481611d8c565b946020939093013593505050565b60008060608385031215611fb557600080fd5b611fbf8484611e20565b91506040830135611df381611d8c565b634e487b7160e01b600052601160045260246000fd5b6000816000190483118215151615611fff57611fff611fcf565b500290565b60008261202157634e487b7160e01b600052601260045260246000fd5b500490565b6000821982111561203957612039611fcf565b500190565b6020808252600d908201526c1858d8d95cdcc819195b9a5959609a1b604082015260600190565b60006001600160401b0380831681851680830382111561208757612087611fcf565b01949350505050565b6000828210156120a2576120a2611fcf565b500390565b6000602082840312156120b957600080fd5b81518015158114610c5857600080fd5b83546001600160a01b0390811682526001850154602083015260a082019084356120f281611d8c565b81811660408501525060208501356060840152808416608084015250949350505050565b813561212181611d8c565b81546001600160a01b0319166001600160a01b03919091161781556020919091013560019190910155565b60005b8381101561216757818101518382015260200161214f565b83811115612176576000848401525b50505050565b6000825161218e81846020870161214c565b9190910192915050565b6000602082840312156121aa57600080fd5b8151610c5881611d8c565b6020808252602b908201527f496e697469616c697a61626c653a20636f6e7472616374206973206e6f74206960408201526a6e697469616c697a696e6760a81b606082015260800190565b600060018060a01b03808716835280861660208401525083604083015260806060830152825180608084015261223d8160a085016020870161214c565b601f01601f19169190910160a0019594505050505056fea2646970667358221220ad344098a3a7d5cdfcc345c6bb730ce4192a04fa3f5ba0bcbae95a77116a51d864736f6c634300080f0033496e697469616c697a61626c653a20636f6e747261637420697320616c726561496e697469616c697a61626c653a20636f6e7472616374206973206e6f742069",
  "devdoc": {
    "kind": "dev",
    "methods": {
      "buyShares(uint256)": {
        "details": "Depending on the implementation, ERC20 token payment may be required instead of ETH.      In such a case, implementation must through if ETH is sent, effectively overriding      the function definition as non-payable",
        "params": {
          "amount": "amount of the shares to buy"
        }
      },
      "buySharesTo(uint256,address)": {
        "details": "Depending on the implementation, ERC20 token payment may be required instead of ETH.      In such a case, implementation must through if ETH is sent, effectively overriding      the function definition as non-payable",
        "params": {
          "amount": "amount of the shares to buy",
          "beneficiary": "an address receiving the shares"
        }
      },
      "features()": {
        "details": "Effectively reads userRoles role for the contract itself",
        "returns": {
          "_0": "256-bit bitmask of the features enabled"
        }
      },
      "getBuyPrice(uint256)": {
        "params": {
          "amount": "number of shares to buy"
        },
        "returns": {
          "_0": "the price of the shares to buy"
        }
      },
      "getBuyPrice(uint256,uint256)": {
        "params": {
          "amount": "number of shares to buy",
          "supply": "total shares supply"
        },
        "returns": {
          "_0": "the price of the shares to buy"
        }
      },
      "getBuyPriceAfterFee(uint256)": {
        "params": {
          "amount": "number of shares to buy"
        },
        "returns": {
          "_0": "the price of the shares to buy"
        }
      },
      "getBuyPriceAfterFee(uint256,uint256,uint256,uint256,uint256)": {
        "params": {
          "amount": "number of shares to buy",
          "holdersFeePercent": "shares holders fee percent",
          "protocolFeePercent": "protocol fee percent",
          "subjectFeePercent": "protocol fee percent",
          "supply": "total shares supply"
        },
        "returns": {
          "_0": "the price of the shares to buy"
        }
      },
      "getHoldersFeeDestination()": {
        "details": "Immutable, client applications may cache this value; holders fee destination is not      an arbitrary address capable of receiving ETH or ERC20, but a HoldersRewardsDistributor      smart contract, which not only receives the fees but also receives updated on the      trading activity in the shares contract",
        "returns": {
          "_0": "the contract where the holders fee is sent to"
        }
      },
      "getHoldersFeeInfo()": {
        "details": "Implementation must always return zero fee percent if fee destination is zero",
        "returns": {
          "feeDestination": "shares holders fee destination",
          "feePercent": "shares holders fee percent, zero if holders fee destination is zero"
        }
      },
      "getHoldersFeePercent()": {
        "details": "Immutable, client applications may cache this value",
        "returns": {
          "_0": "shares holders fee percent with the 18 decimals (10^18 is 100%)"
        }
      },
      "getPaymentToken()": {
        "returns": {
          "_0": "ERC1363 payment token, immutable"
        }
      },
      "getPrice(uint256,uint256)": {
        "params": {
          "amount": "number of shares to buy/sell",
          "supply": "total shares supply"
        },
        "returns": {
          "_0": "the price of the shares (all `amount` amount)"
        }
      },
      "getProtocolFeeDestination()": {
        "details": "Mutable, can be changed by the protocol fee manager",
        "returns": {
          "_0": "the address where the protocol fee is sent to"
        }
      },
      "getProtocolFeeInfo()": {
        "details": "Implementation must always return zero fee percent if fee destination is zero address",
        "returns": {
          "feeDestination": "protocol fee destination",
          "feePercent": "protocol fee percent, zero if protocol fee destination is zero"
        }
      },
      "getProtocolFeePercent()": {
        "details": "Immutable, client applications may cache this value",
        "returns": {
          "_0": "protocol fee percent with the 18 decimals (10^18 is 100%)"
        }
      },
      "getRole(address)": {
        "details": "Having a simple getter instead of making the mapping public      allows enforcing the encapsulation of the mapping and protects from      writing to it directly in the inheriting smart contracts",
        "params": {
          "operator": "address of a user to read permissions for,      or self address to read global features of the smart contract"
        }
      },
      "getSellPrice(uint256)": {
        "params": {
          "amount": "number of shares to sell"
        },
        "returns": {
          "_0": "the price of the shares to sell"
        }
      },
      "getSellPrice(uint256,uint256)": {
        "params": {
          "amount": "number of shares to sell",
          "supply": "total shares supply"
        },
        "returns": {
          "_0": "the price of the shares to sell"
        }
      },
      "getSellPriceAfterFee(uint256)": {
        "params": {
          "amount": "number of shares to sell"
        },
        "returns": {
          "_0": "the price of the shares to sell"
        }
      },
      "getSellPriceAfterFee(uint256,uint256,uint256,uint256,uint256)": {
        "params": {
          "amount": "number of shares to sell",
          "holdersFeePercent": "shares holders fee percent",
          "protocolFeePercent": "protocol fee percent",
          "subjectFeePercent": "protocol fee percent",
          "supply": "total shares supply"
        },
        "returns": {
          "_0": "the price of the shares to sell"
        }
      },
      "getSharesBalance(address)": {
        "params": {
          "holder": "the address to check the balance for"
        },
        "returns": {
          "balance": "number of shares the holder has"
        }
      },
      "getSharesIssuer()": {
        "details": "Mutable, changes (potentially frequently and unpredictably) when the NFT owner changes;      subject to the front-run attacks, off-chain client applications must not rely on this address      in anyway",
        "returns": {
          "nftOwner": "subject issuer, the owner of the NFT"
        }
      },
      "getSharesSubject()": {
        "details": "Immutable, client applications may cache this value",
        "returns": {
          "_0": "Shares subject as a SharesSubject struct, this is an NFT if all currently known implementations"
        }
      },
      "getSharesSupply()": {
        "returns": {
          "supply": "total shares supply"
        }
      },
      "getSubjectFeeInfo()": {
        "details": "Implementation must always return zero fee percent if fee destination is zero address",
        "returns": {
          "feeDestination": "protocol fee destination",
          "feePercent": "protocol fee percent, zero if subject fee destination is zero"
        }
      },
      "getSubjectFeePercent()": {
        "details": "Immutable, client applications may cache this value",
        "returns": {
          "_0": "subject fee percent with the 18 decimals (10^18 is 100%)"
        }
      },
      "getTradeVolume()": {
        "details": "This value cannot decrease over time; it can increase or remain constant      if no trades are happening",
        "returns": {
          "_0": "Sum of the modulo of all trading operations"
        }
      },
      "isFeatureEnabled(uint256)": {
        "params": {
          "required": "set of features to check against"
        },
        "returns": {
          "_0": "true if all the features requested are enabled, false otherwise"
        }
      },
      "isOperatorInRole(address,uint256)": {
        "params": {
          "operator": "address of the user to check role for",
          "required": "set of permissions (role) to check"
        },
        "returns": {
          "_0": "true if all the permissions requested are enabled, false otherwise"
        }
      },
      "isSenderInRole(uint256)": {
        "details": "Used in smart contracts only. Off-chain clients should use `isOperatorInRole`.",
        "params": {
          "required": "set of permissions (role) to check against"
        },
        "returns": {
          "_0": "true if all the permissions requested are enabled, false otherwise"
        }
      },
      "postConstruct(address,(address,uint256),address,uint64,address,uint64,uint64,uint256,address,address)": {
        "details": "\"Constructor replacement\" for initializable, must be execute during or immediately after deployment      see https://docs.openzeppelin.com/upgrades-plugins/1.x/writing-upgradeable#initializers",
        "params": {
          "_amount": "how many shares to buy immediately upon \"post-construction\", can be zero",
          "_beneficiary": "the address receiving the shares bought immediately (must be set      if `_amount` is not zero)",
          "_holdersFeeDestination": "shares holders fee destination, the HoldersRewardsDistributor contract      the shares holders fee is sent to",
          "_holdersFeePercent": "shares holders fee percent, applied to all the buy and sell operations,      the fee percent is defined with the 18 decimals, 10^18 corresponds to 100%",
          "_owner": "the address receiving all the RBAC permissions on the contract",
          "_paymentToken": "ERC20 token used as a payment token instead of ETH",
          "_protocolFeeDestination": "protocol fee destination, the address protocol fee is sent to",
          "_protocolFeePercent": "protocol fee percent, applied to all the buy and sell operations;      the fee percent is defined with the 18 decimals, 10^18 corresponds to 100%",
          "_sharesSubject": "shares subject, usually defined as NFT (ERC721 contract address + NFT ID)",
          "_subjectFeePercent": "subject fee percent, applied to all the buy and sell operations,      the fee percent is defined with the 18 decimals, 10^18 corresponds to 100%"
        }
      },
      "sellShares(uint256)": {
        "details": "Depending on the implementation, ERC20 token may be payed instead of ETH.",
        "params": {
          "amount": "amount of the shares to sell"
        }
      },
      "sellSharesTo(uint256,address)": {
        "details": "Depending on the implementation, ERC20 token may be payed instead of ETH.",
        "params": {
          "amount": "amount of the shares to sell",
          "beneficiary": "an address receiving the funds from the sale"
        }
      },
      "updateFeatures(uint256)": {
        "details": "Requires transaction sender to have `ROLE_ACCESS_MANAGER` permissionFunction is left for backward compatibility with older versions",
        "params": {
          "_mask": "bitmask representing a set of features to enable/disable"
        }
      },
      "updateProtocolFeeDestination(address)": {
        "details": "This is a restricted access function which should be accessible only from the      MultiSig wallet controlling the protocol, so that its usage is not scalable",
        "params": {
          "_protocolFeeDestination": "new protocol fee destination address to set"
        }
      },
      "updateRole(address,uint256)": {
        "details": "Setting role to zero is equivalent to removing an all permissionsSetting role to `FULL_PRIVILEGES_MASK` is equivalent to      copying senders' permissions (role) to the userRequires transaction sender to have `ROLE_ACCESS_MANAGER` permission",
        "params": {
          "operator": "address of a user to alter permissions for,       or self address to alter global features of the smart contract",
          "role": "bitmask representing a set of permissions to      enable/disable for a user specified"
        }
      },
      "updateSharesSubject((address,uint256))": {
        "details": "This is a restricted access function which should be accessible only from the      MultiSig wallet controlling the protocol, so that its usage is not scalable",
        "params": {
          "_sharesSubject": "new subject to set"
        }
      },
      "updateSharesSubject((address,uint256),address)": {
        "details": "This is a restricted access function which should be accessible only from the      MultiSig wallet controlling the protocol, so that its usage is not scalable",
        "params": {
          "_factory": "shares factory contract to notify about the update, optional      if set to zero, the notification is not done",
          "_sharesSubject": "new subject to set"
        }
      }
    },
    "title": "ERC20 Keys Alias",
    "version": 1
  },
  "userdoc": {
    "kind": "user",
    "methods": {
      "ROLE_ACCESS_MANAGER()": {
        "notice": "Access manager is responsible for assigning the roles to users,      enabling/disabling global features of the smart contractAccess manager can add, remove and update user roles,      remove and update global features"
      },
      "ROLE_HOLDERS_FEE_MANAGER()": {
        "notice": "Holders fee [disable] manager can disable the shares holders fee functionality;      the manager cannot enable it back"
      },
      "ROLE_PROTOCOL_FEE_MANAGER()": {
        "notice": "Protocol fee destination manager is responsible for updating the address collecting the      protocol fee destination, that is `protocolFeeDestination`; the manager cannot update the fee percent"
      },
      "ROLE_SHARES_SUBJECT_MANAGER()": {
        "notice": "Shares subject manager is responsible for updating the \"shares subject\"      in case of emergency, for example if underlying NFT was stolen"
      },
      "ROLE_UPGRADE_MANAGER()": {
        "notice": "Upgrade manager is responsible for smart contract upgrades,      see https://docs.openzeppelin.com/contracts/4.x/api/proxy#UUPSUpgradeable      see https://docs.openzeppelin.com/contracts/4.x/upgradeable"
      },
      "buyKeys(uint256)": {
        "notice": "buyShares alias"
      },
      "buyShares(uint256)": {
        "notice": "Buy `amount` of shares. Sender has to supply `getBuyPriceAfterFee(amount)` ETH.      First share can be bought only by current subject issuer."
      },
      "buySharesTo(uint256,address)": {
        "notice": "Buy `amount` of shares in the favor of the address specified (beneficiary).      Sender has to supply `getBuyPriceAfterFee(amount)` ETH.      First share can be bought only by current subject issuer."
      },
      "disableHoldersFee()": {
        "notice": "Disables shares holders fee functionality; detaches shares contract from      the HoldersRewardsDistributor, stops sending fees, stops sending syncsIncreases the protocol fee by the value of the disabled shares holders fee,      so that the sum of all the fees remains the sameOnce disabled, the holders fee functionality cannot be enabled back"
      },
      "features()": {
        "notice": "Retrieves globally set of features enabled"
      },
      "getBuyPrice(uint256)": {
        "notice": "Current price of the `amount` of shares to buy; calculated based on      the current total shares supply"
      },
      "getBuyPrice(uint256,uint256)": {
        "notice": "The price of the `amount` of shares to buy calculated based on      the specified total shares supply"
      },
      "getBuyPriceAfterFee(uint256)": {
        "notice": "Current price of the `amount` of shares to buy, including all fees;      calculated based on the current total shares supply and fees percentages"
      },
      "getBuyPriceAfterFee(uint256,uint256,uint256,uint256,uint256)": {
        "notice": "The price of the `amount` of shares to buy, including all fees;      calculated based on the specified total shares supply and fees percentages"
      },
      "getHoldersFeeDestination()": {
        "notice": "Shares holders reward distributor contract attached to the shares contract      in order to receive its portion of the fees to be distributed among the shares holders"
      },
      "getHoldersFeeInfo()": {
        "notice": "Shares holders fee destination and shares holders fee percent as a tuple;      the fee percent is defined with the 18 decimals, 10^18 corresponds to 100%"
      },
      "getHoldersFeePercent()": {
        "notice": "Shares holders fee percent, applied to all the buy and sell operations;      the fee percent is defined with the 18 decimals, 10^18 corresponds to 100%Shares holders fee is sent to the holders fee destination (see `getHoldersFeeDestination`)"
      },
      "getPaymentToken()": {
        "notice": "ERC1363 payment token getter"
      },
      "getPrice(uint256,uint256)": {
        "notice": "Shifts the curve by multiplying the result by 50,000"
      },
      "getProtocolFeeDestination()": {
        "notice": "Protocol fee destination, the address protocol fee is sent to"
      },
      "getProtocolFeeInfo()": {
        "notice": "Protocol fee destination and protocol fee percent as a tuple;      the fee percent is defined with the 18 decimals, 10^18 corresponds to 100%"
      },
      "getProtocolFeePercent()": {
        "notice": "Protocol fee percent, applied to all the buy and sell operations;      the fee percent is defined with the 18 decimals, 10^18 corresponds to 100%Protocol fee is sent to the protocol fee destination (see `getProtocolFeeDestination`)"
      },
      "getRole(address)": {
        "notice": "Reads the permissions (role) for a given user from the `userRoles` mapping      (privileged addresses with defined roles/permissions)In the context of ERC20/ERC721 tokens these can be permissions to      allow minting or burning tokens, transferring on behalf and so on"
      },
      "getSellPrice(uint256)": {
        "notice": "Current price of the `amount` of shares to sell; calculated based on      the current total shares supply"
      },
      "getSellPrice(uint256,uint256)": {
        "notice": "The price of the `amount` of shares to sell calculated based on      the specified total shares supply"
      },
      "getSellPriceAfterFee(uint256)": {
        "notice": "Current price of the `amount` of shares to sell, including all fees;      calculated based on the current total shares supply and fees percentages"
      },
      "getSellPriceAfterFee(uint256,uint256,uint256,uint256,uint256)": {
        "notice": "The price of the `amount` of shares to sell, including all fees;      calculated based on the specified total shares supply and fees percentages"
      },
      "getSharesBalance(address)": {
        "notice": "Shares balance of the given holder; this function is similar to ERC20.balanceOf()"
      },
      "getSharesIssuer()": {
        "notice": "Shares issuer, the receiver of the shares fees"
      },
      "getSharesSubject()": {
        "notice": "Shares subject, usually defined as NFT (ERC721 contract address + NFT ID)"
      },
      "getSharesSupply()": {
        "notice": "Total amount of the shares in existence, the sum of all individual shares balances;      this function is similar to ERC20.totalSupply()"
      },
      "getSubjectFeeInfo()": {
        "notice": "Subject fee destination and subject fee percent as a tuple;      subject fee destination is shares issuer address;      the fee percent is defined with the 18 decimals, 10^18 corresponds to 100%;"
      },
      "getSubjectFeePercent()": {
        "notice": "Subject fee percent, applied to all the buy and sell operations,      the fee percent is defined with the 18 decimals, 10^18 corresponds to 100%Subject fee is sent to the subject fee issuer (see `getSharesIssuer`)"
      },
      "getTradeVolume()": {
        "notice": "Cumulative value of all trades; allows to derive cumulative fees paid"
      },
      "isFeatureEnabled(uint256)": {
        "notice": "Checks if requested set of features is enabled globally on the contract"
      },
      "isOperatorInRole(address,uint256)": {
        "notice": "Checks if operator has all the permissions (role) required"
      },
      "isSenderInRole(uint256)": {
        "notice": "Checks if transaction sender `msg.sender` has all the permissions required"
      },
      "sellKeys(uint256)": {
        "notice": "sellShares alias"
      },
      "sellShares(uint256)": {
        "notice": "Sell `amount` of shares. Sender gets `getSellPriceAfterFee(amount)` of ETH.      Last share cannot be sold."
      },
      "sellSharesTo(uint256,address)": {
        "notice": "Sell `amount` of shares in the favor of the address specified (beneficiary).      The beneficiary gets `getSellPriceAfterFee(amount)` of ETH.      Last share cannot be sold."
      },
      "updateFeatures(uint256)": {
        "notice": "Updates set of the globally enabled features (`features`),      taking into account sender's permissions"
      },
      "updateProtocolFeeDestination(address)": {
        "notice": "Updates the protocol fee destination address `protocolFeeDestination`"
      },
      "updateRole(address,uint256)": {
        "notice": "Updates set of permissions (role) for a given user,      taking into account sender's permissions."
      },
      "updateSharesSubject((address,uint256))": {
        "notice": "Updates the shares subject"
      },
      "updateSharesSubject((address,uint256),address)": {
        "notice": "Updates the shares subject and optionally notifies the factory about the update;      update fails if the factory notification fails"
      }
    },
    "notice": "Displays the function names using the \"keys\" word instead of \"shares\"      in MetaMask, Etherscan, etc.",
    "version": 1
  },
  "storageLayout": {
    "storage": [
      {
        "astId": 1858,
        "contract": "contracts/bonding_curves/Aliases.sol:ERC20Keys",
        "label": "_initialized",
        "offset": 0,
        "slot": "0",
        "type": "t_bool"
      },
      {
        "astId": 1861,
        "contract": "contracts/bonding_curves/Aliases.sol:ERC20Keys",
        "label": "_initializing",
        "offset": 1,
        "slot": "0",
        "type": "t_bool"
      },
      {
        "astId": 30084,
        "contract": "contracts/bonding_curves/Aliases.sol:ERC20Keys",
        "label": "userRoles",
        "offset": 0,
        "slot": "1",
        "type": "t_mapping(t_address,t_uint256)"
      },
      {
        "astId": 30089,
        "contract": "contracts/bonding_curves/Aliases.sol:ERC20Keys",
        "label": "__gap",
        "offset": 0,
        "slot": "2",
        "type": "t_array(t_uint256)49_storage"
      },
      {
        "astId": 5587,
        "contract": "contracts/bonding_curves/Aliases.sol:ERC20Keys",
        "label": "sharesSubject",
        "offset": 0,
        "slot": "51",
        "type": "t_struct(SharesSubject)11137_storage"
      },
      {
        "astId": 5590,
        "contract": "contracts/bonding_curves/Aliases.sol:ERC20Keys",
        "label": "protocolFeeDestination",
        "offset": 0,
        "slot": "53",
        "type": "t_address"
      },
      {
        "astId": 5593,
        "contract": "contracts/bonding_curves/Aliases.sol:ERC20Keys",
        "label": "protocolFeePercent",
        "offset": 20,
        "slot": "53",
        "type": "t_uint64"
      },
      {
        "astId": 5597,
        "contract": "contracts/bonding_curves/Aliases.sol:ERC20Keys",
        "label": "holdersFeeDestination",
        "offset": 0,
        "slot": "54",
        "type": "t_contract(HoldersRewardsDistributor)7736"
      },
      {
        "astId": 5600,
        "contract": "contracts/bonding_curves/Aliases.sol:ERC20Keys",
        "label": "holdersFeePercent",
        "offset": 20,
        "slot": "54",
        "type": "t_uint64"
      },
      {
        "astId": 5603,
        "contract": "contracts/bonding_curves/Aliases.sol:ERC20Keys",
        "label": "subjectFeePercent",
        "offset": 0,
        "slot": "55",
        "type": "t_uint64"
      },
      {
        "astId": 5606,
        "contract": "contracts/bonding_curves/Aliases.sol:ERC20Keys",
        "label": "sharesSupply",
        "offset": 0,
        "slot": "56",
        "type": "t_uint256"
      },
      {
        "astId": 5611,
        "contract": "contracts/bonding_curves/Aliases.sol:ERC20Keys",
        "label": "sharesBalances",
        "offset": 0,
        "slot": "57",
        "type": "t_mapping(t_address,t_uint256)"
      },
      {
        "astId": 5614,
        "contract": "contracts/bonding_curves/Aliases.sol:ERC20Keys",
        "label": "tradeVolume",
        "offset": 0,
        "slot": "58",
        "type": "t_uint256"
      },
      {
        "astId": 6455,
        "contract": "contracts/bonding_curves/Aliases.sol:ERC20Keys",
        "label": "paymentToken",
        "offset": 0,
        "slot": "59",
        "type": "t_contract(ERC1363)11668"
      }
    ],
    "types": {
      "t_address": {
        "encoding": "inplace",
        "label": "address",
        "numberOfBytes": "20"
      },
      "t_array(t_uint256)49_storage": {
        "base": "t_uint256",
        "encoding": "inplace",
        "label": "uint256[49]",
        "numberOfBytes": "1568"
      },
      "t_bool": {
        "encoding": "inplace",
        "label": "bool",
        "numberOfBytes": "1"
      },
      "t_contract(ERC1363)11668": {
        "encoding": "inplace",
        "label": "contract ERC1363",
        "numberOfBytes": "20"
      },
      "t_contract(HoldersRewardsDistributor)7736": {
        "encoding": "inplace",
        "label": "contract HoldersRewardsDistributor",
        "numberOfBytes": "20"
      },
      "t_mapping(t_address,t_uint256)": {
        "encoding": "mapping",
        "key": "t_address",
        "label": "mapping(address => uint256)",
        "numberOfBytes": "32",
        "value": "t_uint256"
      },
      "t_struct(SharesSubject)11137_storage": {
        "encoding": "inplace",
        "label": "struct TradeableShares.SharesSubject",
        "members": [
          {
            "astId": 11133,
            "contract": "contracts/bonding_curves/Aliases.sol:ERC20Keys",
            "label": "tokenAddress",
            "offset": 0,
            "slot": "0",
            "type": "t_address"
          },
          {
            "astId": 11136,
            "contract": "contracts/bonding_curves/Aliases.sol:ERC20Keys",
            "label": "tokenId",
            "offset": 0,
            "slot": "1",
            "type": "t_uint256"
          }
        ],
        "numberOfBytes": "64"
      },
      "t_uint256": {
        "encoding": "inplace",
        "label": "uint256",
        "numberOfBytes": "32"
      },
      "t_uint64": {
        "encoding": "inplace",
        "label": "uint64",
        "numberOfBytes": "8"
      }
    }
  }
}