{
  "address": "0xa132F9aFe42797f5C43BFA30dF99069B6Cb32a15",
  "abi": [
    {
      "inputs": [
        {
          "internalType": "address",
          "name": "_owner",
          "type": "address"
        },
        {
          "internalType": "address",
          "name": "_sharesContractAddress",
          "type": "address"
        },
        {
          "internalType": "address",
          "name": "_paymentToken",
          "type": "address"
        }
      ],
      "stateMutability": "nonpayable",
      "type": "constructor"
    },
    {
      "anonymous": false,
      "inputs": [
        {
          "indexed": false,
          "internalType": "uint256",
          "name": "feeAmount",
          "type": "uint256"
        }
      ],
      "name": "FeeReceived",
      "type": "event"
    },
    {
      "anonymous": false,
      "inputs": [
        {
          "indexed": true,
          "internalType": "address",
          "name": "holder",
          "type": "address"
        },
        {
          "indexed": false,
          "internalType": "uint256",
          "name": "rewardAmount",
          "type": "uint256"
        }
      ],
      "name": "RewardClaimed",
      "type": "event"
    },
    {
      "anonymous": false,
      "inputs": [
        {
          "indexed": true,
          "internalType": "address",
          "name": "operator",
          "type": "address"
        },
        {
          "indexed": false,
          "internalType": "uint256",
          "name": "requested",
          "type": "uint256"
        },
        {
          "indexed": false,
          "internalType": "uint256",
          "name": "assigned",
          "type": "uint256"
        }
      ],
      "name": "RoleUpdated",
      "type": "event"
    },
    {
      "anonymous": false,
      "inputs": [
        {
          "indexed": true,
          "internalType": "address",
          "name": "trader",
          "type": "address"
        },
        {
          "indexed": true,
          "internalType": "bool",
          "name": "isBuy",
          "type": "bool"
        },
        {
          "indexed": false,
          "internalType": "uint256",
          "name": "sharesAmount",
          "type": "uint256"
        }
      ],
      "name": "SharesTraded",
      "type": "event"
    },
    {
      "stateMutability": "payable",
      "type": "fallback"
    },
    {
      "inputs": [],
      "name": "ROLE_ACCESS_MANAGER",
      "outputs": [
        {
          "internalType": "uint256",
          "name": "",
          "type": "uint256"
        }
      ],
      "stateMutability": "view",
      "type": "function"
    },
    {
      "inputs": [],
      "name": "ROLE_UPGRADE_MANAGER",
      "outputs": [
        {
          "internalType": "uint256",
          "name": "",
          "type": "uint256"
        }
      ],
      "stateMutability": "view",
      "type": "function"
    },
    {
      "inputs": [],
      "name": "accRewardPerShare",
      "outputs": [
        {
          "internalType": "uint256",
          "name": "",
          "type": "uint256"
        }
      ],
      "stateMutability": "view",
      "type": "function"
    },
    {
      "inputs": [],
      "name": "claimTheReward",
      "outputs": [],
      "stateMutability": "nonpayable",
      "type": "function"
    },
    {
      "inputs": [],
      "name": "features",
      "outputs": [
        {
          "internalType": "uint256",
          "name": "",
          "type": "uint256"
        }
      ],
      "stateMutability": "view",
      "type": "function"
    },
    {
      "inputs": [],
      "name": "getPaymentToken",
      "outputs": [
        {
          "internalType": "address",
          "name": "",
          "type": "address"
        }
      ],
      "stateMutability": "view",
      "type": "function"
    },
    {
      "inputs": [
        {
          "internalType": "address",
          "name": "operator",
          "type": "address"
        }
      ],
      "name": "getRole",
      "outputs": [
        {
          "internalType": "uint256",
          "name": "",
          "type": "uint256"
        }
      ],
      "stateMutability": "view",
      "type": "function"
    },
    {
      "inputs": [
        {
          "internalType": "address",
          "name": "_sharesContractAddress",
          "type": "address"
        }
      ],
      "name": "initializeSharesContractAddressIfRequired",
      "outputs": [],
      "stateMutability": "nonpayable",
      "type": "function"
    },
    {
      "inputs": [
        {
          "internalType": "uint256",
          "name": "required",
          "type": "uint256"
        }
      ],
      "name": "isFeatureEnabled",
      "outputs": [
        {
          "internalType": "bool",
          "name": "",
          "type": "bool"
        }
      ],
      "stateMutability": "view",
      "type": "function"
    },
    {
      "inputs": [
        {
          "internalType": "address",
          "name": "operator",
          "type": "address"
        },
        {
          "internalType": "uint256",
          "name": "required",
          "type": "uint256"
        }
      ],
      "name": "isOperatorInRole",
      "outputs": [
        {
          "internalType": "bool",
          "name": "",
          "type": "bool"
        }
      ],
      "stateMutability": "view",
      "type": "function"
    },
    {
      "inputs": [
        {
          "internalType": "uint256",
          "name": "required",
          "type": "uint256"
        }
      ],
      "name": "isSenderInRole",
      "outputs": [
        {
          "internalType": "bool",
          "name": "",
          "type": "bool"
        }
      ],
      "stateMutability": "view",
      "type": "function"
    },
    {
      "inputs": [
        {
          "internalType": "address",
          "name": "operator",
          "type": "address"
        },
        {
          "internalType": "address",
          "name": "",
          "type": "address"
        },
        {
          "internalType": "uint256",
          "name": "value",
          "type": "uint256"
        },
        {
          "internalType": "bytes",
          "name": "data",
          "type": "bytes"
        }
      ],
      "name": "onTransferReceived",
      "outputs": [
        {
          "internalType": "bytes4",
          "name": "",
          "type": "bytes4"
        }
      ],
      "stateMutability": "nonpayable",
      "type": "function"
    },
    {
      "inputs": [
        {
          "internalType": "address",
          "name": "holder",
          "type": "address"
        }
      ],
      "name": "pendingReward",
      "outputs": [
        {
          "internalType": "uint256",
          "name": "",
          "type": "uint256"
        }
      ],
      "stateMutability": "view",
      "type": "function"
    },
    {
      "inputs": [
        {
          "internalType": "address",
          "name": "_owner",
          "type": "address"
        },
        {
          "internalType": "address",
          "name": "_sharesContractAddress",
          "type": "address"
        },
        {
          "internalType": "address",
          "name": "_paymentToken",
          "type": "address"
        }
      ],
      "name": "postConstruct",
      "outputs": [],
      "stateMutability": "nonpayable",
      "type": "function"
    },
    {
      "inputs": [],
      "name": "sharesContractAddress",
      "outputs": [
        {
          "internalType": "address",
          "name": "",
          "type": "address"
        }
      ],
      "stateMutability": "view",
      "type": "function"
    },
    {
      "inputs": [],
      "name": "totalShares",
      "outputs": [
        {
          "internalType": "uint256",
          "name": "",
          "type": "uint256"
        }
      ],
      "stateMutability": "view",
      "type": "function"
    },
    {
      "inputs": [
        {
          "internalType": "uint256",
          "name": "_mask",
          "type": "uint256"
        }
      ],
      "name": "updateFeatures",
      "outputs": [],
      "stateMutability": "nonpayable",
      "type": "function"
    },
    {
      "inputs": [
        {
          "internalType": "address",
          "name": "operator",
          "type": "address"
        },
        {
          "internalType": "uint256",
          "name": "role",
          "type": "uint256"
        }
      ],
      "name": "updateRole",
      "outputs": [],
      "stateMutability": "nonpayable",
      "type": "function"
    },
    {
      "inputs": [
        {
          "internalType": "address",
          "name": "",
          "type": "address"
        }
      ],
      "name": "userInfo",
      "outputs": [
        {
          "internalType": "uint256",
          "name": "shares",
          "type": "uint256"
        },
        {
          "internalType": "uint256",
          "name": "rewardDebt",
          "type": "uint256"
        },
        {
          "internalType": "uint256",
          "name": "claimedAmount",
          "type": "uint256"
        },
        {
          "internalType": "uint256",
          "name": "unclaimedAmount",
          "type": "uint256"
        }
      ],
      "stateMutability": "view",
      "type": "function"
    },
    {
      "stateMutability": "payable",
      "type": "receive"
    }
  ],
  "transactionHash": "0x6283d0437867ecc431c21a981c70c4382fa5ab0d5ea48e690a56bf97dc34157e",
  "args": [
    "0x0000000000000000000000000000000000000000",
    "0x0000000000000000000000000000000000000000",
    "0x0000000000000000000000000000000000000000"
  ],
  "numDeployments": 1,
  "solcInputHash": "579c7556a7c00d23ecd29fca4cc3470d",
  "bytecode": "0x60806040523480156200001157600080fd5b50604051620018503803806200185083398101604081905262000034916200030c565b600054610100900460ff16620000515760005460ff16156200005b565b6200005b62000100565b620000b35760405162461bcd60e51b815260206004820152602e60248201526000805160206200183083398151915260448201526d191e481a5b9a5d1a585b1a5e995960921b60648201526084015b60405180910390fd5b600054610100900460ff16158015620000d6576000805461ffff19166101011790555b620000e38484846200011e565b8015620000f6576000805461ff00191690555b5050505062000356565b600062000118306200021060201b62000b481760201c565b15905090565b600054610100900460ff166200013b5760005460ff161562000145565b6200014562000100565b620001995760405162461bcd60e51b815260206004820152602e60248201526000805160206200183083398151915260448201526d191e481a5b9a5d1a585b1a5e995960921b6064820152608401620000aa565b600054610100900460ff16158015620001bc576000805461ffff19166101011790555b620001c78462000216565b603480546001600160a01b038086166001600160a01b031992831617909255603380549285169290911691909117905580156200020a576000805461ff00191690555b50505050565b3b151590565b600054610100900460ff16620002835760405162461bcd60e51b815260206004820152602b60248201527f496e697469616c697a61626c653a20636f6e7472616374206973206e6f74206960448201526a6e697469616c697a696e6760a81b6064820152608401620000aa565b62000292816000198062000295565b50565b6001600160a01b03831660008181526001602090815260409182902084905581518581529081018490527fe9be537308880e0f56b7d7cfd7abf85f14c4934486d138f848b92a0cbaf659b4910160405180910390a2505050565b80516001600160a01b03811681146200030757600080fd5b919050565b6000806000606084860312156200032257600080fd5b6200032d84620002ef565b92506200033d60208501620002ef565b91506200034d60408501620002ef565b90509250925092565b6114ca80620003666000396000f3fe6080604052600436106101185760003560e01c8063ae60bda4116100a0578063d7380ea611610064578063d7380ea61461046e578063e023fd4214610483578063e7db4d81146104a3578063f40f0f52146104c3578063fcc2c078146104e35761016a565b8063ae60bda4146103cc578063ae682e2e146103e4578063c688d693146103fc578063d41c3a651461041c578063d5bb7f671461044e5761016a565b8063725f3626116100e7578063725f36261461030d57806388a7ca5c1461033d578063939d6237146103765780639ba81bed1461038c578063ae5b102e146103ac5761016a565b80631959a0021461022e5780632b521416146102955780633a98ef39146102c157806344276733146102d75761016a565b3661016a576033546001600160a01b03161561014f5760405162461bcd60e51b8152600401610146906111aa565b60405180910390fd5b6101683460405180602001604052806000815250610503565b005b6033546001600160a01b0316156101c35760405162461bcd60e51b815260206004820152601d60248201527f6e6f7420616e2045544820726577617264206469737472696275746f720000006044820152606401610146565b6034546001600160a01b031633146101ed5760405162461bcd60e51b8152600401610146906111aa565b610168346000368080601f01602080910402602001604051908101604052809392919081815260200183838082843760009201919091525061050392505050565b34801561023a57600080fd5b506102706102493660046111e4565b60376020526000908152604090208054600182015460028301546003909301549192909184565b6040805194855260208501939093529183015260608201526080015b60405180910390f35b3480156102a157600080fd5b50306000908152600160205260409020545b60405190815260200161028c565b3480156102cd57600080fd5b506102b360365481565b3480156102e357600080fd5b506102b36102f23660046111e4565b6001600160a01b031660009081526001602052604090205490565b34801561031957600080fd5b5061032d610328366004611201565b610525565b604051901515815260200161028c565b34801561034957600080fd5b5061035d610358366004611230565b610547565b6040516001600160e01b0319909116815260200161028c565b34801561038257600080fd5b506102b360355481565b34801561039857600080fd5b506101686103a73660046111e4565b6105ec565b3480156103b857600080fd5b506101686103c7366004611310565b610671565b3480156103d857600080fd5b506102b3600160fe1b81565b3480156103f057600080fd5b506102b3600160ff1b81565b34801561040857600080fd5b5061032d610417366004611310565b610716565b34801561042857600080fd5b506033546001600160a01b03165b6040516001600160a01b03909116815260200161028c565b34801561045a57600080fd5b50610168610469366004611201565b61073f565b34801561047a57600080fd5b5061016861074c565b34801561048f57600080fd5b5061016861049e36600461133c565b6108c9565b3480156104af57600080fd5b50603454610436906001600160a01b031681565b3480156104cf57600080fd5b506102b36104de3660046111e4565b6109be565b3480156104ef57600080fd5b5061032d6104fe366004611201565b610b3c565b60365460000361051b576105178282610b4e565b5050565b6105178282610cc4565b30600090815260016020526040812054610541905b8316831490565b92915050565b6033546000906001600160a01b031633146105a45760405162461bcd60e51b815260206004820152601f60248201527f7265636569766564206576656e742066726f6d2077726f6e6720746f6b656e006044820152606401610146565b6034546001600160a01b038681169116146105d15760405162461bcd60e51b8152600401610146906111aa565b6105db8383610503565b50632229f29760e21b949350505050565b6034546001600160a01b031615801561060d57506001600160a01b03811615155b61064f5760405162461bcd60e51b8152602060048201526013602482015272185b1c9958591e481a5b9a5d1a585b1a5e9959606a1b6044820152606401610146565b603480546001600160a01b0319166001600160a01b0392909216919091179055565b61067e600160ff1b610b3c565b6106ba5760405162461bcd60e51b815260206004820152600d60248201526c1858d8d95cdcc819195b9a5959609a1b6044820152606401610146565b6105178282610711336106e2876001600160a01b031660009081526001602052604090205490565b6001600160a01b0391909116600090815260016020526040902054600019808818821618908716919091171690565b610da0565b6001600160a01b0382166000908152600160205260408120546107389061053a565b9392505050565b6107493082610671565b50565b6000610757336109be565b90506000811161079c5760405162461bcd60e51b815260206004820152601060248201526f4e6f7468696e6720746f20636c61696d60801b6044820152606401610146565b33600090815260376020526040812060038101829055600281018054919284926107c790849061139d565b90915550506035548154670de0b6b3a7640000916107e4916113b5565b6107ee91906113d4565b60018201556033546001600160a01b03166108125761080d3383610dfa565b610890565b60335460405163a9059cbb60e01b8152336004820152602481018490526001600160a01b039091169063a9059cbb906044016020604051808303816000875af1158015610863573d6000803e3d6000fd5b505050506040513d601f19601f82011682018060405250810190610887919061140b565b61089057600080fd5b60405182815233907f106f923f993c2149d49b4255ff723acafa1f2d94393f561d3eda32ae348f72419060200160405180910390a25050565b600054610100900460ff166108e45760005460ff16156108e8565b303b155b61094b5760405162461bcd60e51b815260206004820152602e60248201527f496e697469616c697a61626c653a20636f6e747261637420697320616c72656160448201526d191e481a5b9a5d1a585b1a5e995960921b6064820152608401610146565b600054610100900460ff1615801561096d576000805461ffff19166101011790555b61097684610e47565b603480546001600160a01b038086166001600160a01b031992831617909255603380549285169290911691909117905580156109b8576000805461ff00191690555b50505050565b6001600160a01b03811660009081526037602090815260408083208151608081018352815480825260018301549482018590526002830154938201939093526003909101546060820152603554909284929091670de0b6b3a764000091610a2591906113b5565b610a2f91906113d4565b8360600151610a3e919061139d565b610a489190611426565b6033549091506000906001600160a01b031615610ad0576033546040516370a0823160e01b81523060048201526001600160a01b03909116906370a0823190602401602060405180830381865afa158015610aa7573d6000803e3d6000fd5b505050506040513d601f19601f82011682018060405250810190610acb919061143d565b610ad2565b475b9050610ae281633b9aca0061139d565b8210610b245760405162461bcd60e51b81526020600482015260116024820152703234b9b1b932b830b731bc9032b93937b960791b6044820152606401610146565b808211610b315781610b33565b805b95945050505050565b60006105413383610716565b3b151590565b8051600003610b975760405162461bcd60e51b81526020600482015260156024820152741cde5b98c81b595cdcd859d948195e1c1958dd1959605a1b6044820152606401610146565b8051606014610be15760405162461bcd60e51b81526020600482015260166024820152756d616c666f726d65642073796e63206d65737361676560501b6044820152606401610146565b600080600083806020019051810190610bfa9190611456565b925092509250818015610c0e575060018110155b610c4a5760405162461bcd60e51b815260206004820152600d60248201526c696e76616c696420737461746560981b6044820152606401610146565b610c55836001610ebf565b6001811115610c7b57610c6785610f96565b610c7b83610c76600184611426565b610ebf565b6040518181526001906001600160a01b038516907fbd737de9fda35bf54b4f4a52ea425f0d646b85bafdc736be7fd40cc50dd9ed92906020015b60405180910390a35050505050565b610ccd82610f96565b8051600003610cda575050565b8051606014610d245760405162461bcd60e51b81526020600482015260166024820152756d616c666f726d65642073796e63206d65737361676560501b6044820152606401610146565b600080600083806020019051810190610d3d9190611456565b9250925092508115610d5857610d538382610ebf565b610d62565b610d628382611016565b811515836001600160a01b03167fbd737de9fda35bf54b4f4a52ea425f0d646b85bafdc736be7fd40cc50dd9ed9283604051610cb591815260200190565b6001600160a01b03831660008181526001602090815260409182902084905581518581529081018490527fe9be537308880e0f56b7d7cfd7abf85f14c4934486d138f848b92a0cbaf659b4910160405180910390a2505050565b610e048282611148565b6105175760405162461bcd60e51b81526020600482015260146024820152733330b4b632b2103a379039b2b7321032ba3432b960611b6044820152606401610146565b600054610100900460ff16610eb25760405162461bcd60e51b815260206004820152602b60248201527f496e697469616c697a61626c653a20636f6e7472616374206973206e6f74206960448201526a6e697469616c697a696e6760a81b6064820152608401610146565b6107498160001980610da0565b6001600160a01b0382166000908152603760205260409020805415610f385760008160010154670de0b6b3a76400006035548460000154610f0091906113b5565b610f0a91906113d4565b610f149190611426565b90508015610f365780826003016000828254610f30919061139d565b90915550505b505b81816000016000828254610f4c919061139d565b925050819055508160366000828254610f65919061139d565b90915550506035548154670de0b6b3a764000091610f82916113b5565b610f8c91906113d4565b6001909101555050565b801580610fa35750603654155b15610fab5750565b603654610fc082670de0b6b3a76400006113b5565b610fca91906113d4565b60356000828254610fdb919061139d565b90915550506040518181527f86c46efee0a638b418fa0952cd587c78b75b8bc989e7a7c13a86d448ec34a0849060200160405180910390a150565b6001600160a01b03821660009081526037602052604090205481111561108a5760405162461bcd60e51b815260206004820152602360248201527f616d6f756e74206d757374206265203c3d207265676973746572656420616d6f6044820152621d5b9d60ea1b6064820152608401610146565b6001600160a01b038216600090815260376020526040812060018101546035548254929392670de0b6b3a7640000916110c2916113b5565b6110cc91906113d4565b6110d69190611426565b905080156110f857808260030160008282546110f2919061139d565b90915550505b8154611105908490611426565b8255603654611115908490611426565b6036556035548254670de0b6b3a764000091611130916113b5565b61113a91906113d4565b826001018190555050505050565b600080836001600160a01b031661132484604051600060405180830381858888f193505050503d806000811461119a576040519150601f19603f3d011682016040523d82523d6000602084013e61119f565b606091505b509095945050505050565b6020808252600b908201526a1b9bdd08185b1b1bddd95960aa1b604082015260600190565b6001600160a01b038116811461074957600080fd5b6000602082840312156111f657600080fd5b8135610738816111cf565b60006020828403121561121357600080fd5b5035919050565b634e487b7160e01b600052604160045260246000fd5b6000806000806080858703121561124657600080fd5b8435611251816111cf565b93506020850135611261816111cf565b925060408501359150606085013567ffffffffffffffff8082111561128557600080fd5b818701915087601f83011261129957600080fd5b8135818111156112ab576112ab61121a565b604051601f8201601f19908116603f011681019083821181831017156112d3576112d361121a565b816040528281528a60208487010111156112ec57600080fd5b82602086016020830137600060208483010152809550505050505092959194509250565b6000806040838503121561132357600080fd5b823561132e816111cf565b946020939093013593505050565b60008060006060848603121561135157600080fd5b833561135c816111cf565b9250602084013561136c816111cf565b9150604084013561137c816111cf565b809150509250925092565b634e487b7160e01b600052601160045260246000fd5b600082198211156113b0576113b0611387565b500190565b60008160001904831182151516156113cf576113cf611387565b500290565b6000826113f157634e487b7160e01b600052601260045260246000fd5b500490565b8051801515811461140657600080fd5b919050565b60006020828403121561141d57600080fd5b610738826113f6565b60008282101561143857611438611387565b500390565b60006020828403121561144f57600080fd5b5051919050565b60008060006060848603121561146b57600080fd5b8351611476816111cf565b9250611484602085016113f6565b915060408401519050925092509256fea26469706673582212208505ef4aba9e0a6b77723ea42f05af8133a61932101f8d05595bc75fde0d47fc64736f6c634300080f0033496e697469616c697a61626c653a20636f6e747261637420697320616c726561",
  "devdoc": {
    "details": "Apart from the `accept(uint256,address)` function designed to accept the fees from the      curve contract, the implementation must implement receive(), fallback(), and onTransferReceived()      functions to accept direct payments in both ETH and/or ERC20 payment tokenreceive() and onTransferReceived() with an empty data field must accept the fee in the same way      as an accept() function would do, but in a passive way (without ERC20 transfer)The fallback() and onTransferReceived() with non-empty data field must accept the fee and the trading event;      trading event encoded in the bytes data field contains the information      on the trade which resulted in the fee being sent:      - address trader - shares holder/trader      - bool isBuy - true if shares were bought, false if shares were sold      - uint256 sharesAmount - amount of shares bought or sold      the values above are packed as data = abi.encode(trader, isBuy, sharesAmount)      and can be unpacked as (trader, isBuy, sharesAmount) = abi.decode(data, (address, bool, uint256))      if specified, the data field must be parsed by the implementation and its containing data applied;      standard logic applies, if the data is malformed implementation should throw",
    "kind": "dev",
    "methods": {
      "claimTheReward()": {
        "details": "Holder can verify pending reward amount with the `pendingReward` function"
      },
      "constructor": {
        "details": "Deploys the distributor contract",
        "params": {
          "_owner": "contract, optional (can be zero address), since there are no admin functions",
          "_paymentToken": "ERC1363 payment token to bind to, optional (can be zero address),      zero address means distributor works with the plain ETH",
          "_sharesContractAddress": "TradeableShares contract to bind the distributor to,      optional (can be zero address), this can be set up later with the      `initializeSharesContractAddressIfRequired` function"
        }
      },
      "features()": {
        "details": "Effectively reads userRoles role for the contract itself",
        "returns": {
          "_0": "256-bit bitmask of the features enabled"
        }
      },
      "getPaymentToken()": {
        "returns": {
          "_0": "ERC20 payment token address the contract is bound to,      or zero zero address if it operates with the plain ETH"
        }
      },
      "getRole(address)": {
        "details": "Having a simple getter instead of making the mapping public      allows enforcing the encapsulation of the mapping and protects from      writing to it directly in the inheriting smart contracts",
        "params": {
          "operator": "address of a user to read permissions for,      or self address to read global features of the smart contract"
        }
      },
      "initializeSharesContractAddressIfRequired(address)": {
        "details": "TradeableShares contract can be set only once; fails if it is already set",
        "params": {
          "_sharesContractAddress": "TradeableShares contract to bind the distributor to"
        }
      },
      "isFeatureEnabled(uint256)": {
        "params": {
          "required": "set of features to check against"
        },
        "returns": {
          "_0": "true if all the features requested are enabled, false otherwise"
        }
      },
      "isOperatorInRole(address,uint256)": {
        "params": {
          "operator": "address of the user to check role for",
          "required": "set of permissions (role) to check"
        },
        "returns": {
          "_0": "true if all the permissions requested are enabled, false otherwise"
        }
      },
      "isSenderInRole(uint256)": {
        "details": "Used in smart contracts only. Off-chain clients should use `isOperatorInRole`.",
        "params": {
          "required": "set of permissions (role) to check against"
        },
        "returns": {
          "_0": "true if all the permissions requested are enabled, false otherwise"
        }
      },
      "onTransferReceived(address,address,uint256,bytes)": {
        "details": "Non-empty `data` executes trade updates and therefore is restricted to be sent only      by `sharesContractAddress`",
        "params": {
          "data": "bytes Additional data with no specified format",
          "from": "address The address which are token transferred from",
          "operator": "address The address which called `transferAndCall` or `transferFromAndCall` function",
          "value": "uint256 The amount of tokens transferred"
        },
        "returns": {
          "_0": "`bytes4(keccak256(\"onTransferReceived(address,address,uint256,bytes)\"))`      unless throwing"
        }
      },
      "pendingReward(address)": {
        "params": {
          "holder": "the holder address to query the reward for"
        },
        "returns": {
          "_0": "pending reward amount\\"
        }
      },
      "postConstruct(address,address,address)": {
        "details": "\"Constructor replacement\" for initializable, must be execute during or immediately after deployment      see https://docs.openzeppelin.com/upgrades-plugins/1.x/writing-upgradeable#initializers",
        "params": {
          "_owner": "contract, optional (can be zero address), since there are no admin functions",
          "_paymentToken": "ERC1363 payment token to bind to, optional (can be zero address),      zero address means distributor works with the plain ETH",
          "_sharesContractAddress": "TradeableShares contract to bind the distributor to,      optional (can be zero address), this can be set up later with the      `initializeSharesContractAddressIfRequired` function"
        }
      },
      "updateFeatures(uint256)": {
        "details": "Requires transaction sender to have `ROLE_ACCESS_MANAGER` permissionFunction is left for backward compatibility with older versions",
        "params": {
          "_mask": "bitmask representing a set of features to enable/disable"
        }
      },
      "updateRole(address,uint256)": {
        "details": "Setting role to zero is equivalent to removing an all permissionsSetting role to `FULL_PRIVILEGES_MASK` is equivalent to      copying senders' permissions (role) to the userRequires transaction sender to have `ROLE_ACCESS_MANAGER` permission",
        "params": {
          "operator": "address of a user to alter permissions for,       or self address to alter global features of the smart contract",
          "role": "bitmask representing a set of permissions to      enable/disable for a user specified"
        }
      }
    },
    "title": "Bonding Curve Holder Reward Distributor",
    "version": 1
  },
  "userdoc": {
    "kind": "user",
    "methods": {
      "ROLE_ACCESS_MANAGER()": {
        "notice": "Access manager is responsible for assigning the roles to users,      enabling/disabling global features of the smart contractAccess manager can add, remove and update user roles,      remove and update global features"
      },
      "ROLE_UPGRADE_MANAGER()": {
        "notice": "Upgrade manager is responsible for smart contract upgrades,      see https://docs.openzeppelin.com/contracts/4.x/api/proxy#UUPSUpgradeable      see https://docs.openzeppelin.com/contracts/4.x/upgradeable"
      },
      "accRewardPerShare()": {
        "notice": "accumulated reward per share, times 1e18 (with 18 decimal precision)"
      },
      "claimTheReward()": {
        "notice": "Executed by the holder to claim entire pending reward"
      },
      "features()": {
        "notice": "Retrieves globally set of features enabled"
      },
      "getPaymentToken()": {
        "notice": "ERC20 payment token distributor is bound to"
      },
      "getRole(address)": {
        "notice": "Reads the permissions (role) for a given user from the `userRoles` mapping      (privileged addresses with defined roles/permissions)In the context of ERC20/ERC721 tokens these can be permissions to      allow minting or burning tokens, transferring on behalf and so on"
      },
      "initializeSharesContractAddressIfRequired(address)": {
        "notice": "Sets the TradeableShares contract to bind the distributor to"
      },
      "isFeatureEnabled(uint256)": {
        "notice": "Checks if requested set of features is enabled globally on the contract"
      },
      "isOperatorInRole(address,uint256)": {
        "notice": "Checks if operator has all the permissions (role) required"
      },
      "isSenderInRole(uint256)": {
        "notice": "Checks if transaction sender `msg.sender` has all the permissions required"
      },
      "onTransferReceived(address,address,uint256,bytes)": {
        "notice": "Anyone can send some additional rewards  just use empty `data` for a callback"
      },
      "pendingReward(address)": {
        "notice": "Pending (claimable) reward. This is the amount which can be claimed using `claimTheReward`"
      },
      "sharesContractAddress()": {
        "notice": "bonding curve contract address"
      },
      "totalShares()": {
        "notice": "total number of share registered"
      },
      "updateFeatures(uint256)": {
        "notice": "Updates set of the globally enabled features (`features`),      taking into account sender's permissions"
      },
      "updateRole(address,uint256)": {
        "notice": "Updates set of permissions (role) for a given user,      taking into account sender's permissions."
      }
    },
    "notice": "Holder reward distributor keeps track of every trade event happening in the curve,      and based on the amount of shares the holder has, alters the holders' reward weight,      which directly affects the amount of the distributed rewards between the holdersHolder reward distributor accepts the fees from the curve and distributes these fees      across shares holders proportionally to their weights",
    "version": 1
  },
  "storageLayout": {
    "storage": [
      {
        "astId": 1858,
        "contract": "contracts/bonding_curves/HoldersRewardsDistributorV1.sol:HoldersRewardsDistributorV1",
        "label": "_initialized",
        "offset": 0,
        "slot": "0",
        "type": "t_bool"
      },
      {
        "astId": 1861,
        "contract": "contracts/bonding_curves/HoldersRewardsDistributorV1.sol:HoldersRewardsDistributorV1",
        "label": "_initializing",
        "offset": 1,
        "slot": "0",
        "type": "t_bool"
      },
      {
        "astId": 30084,
        "contract": "contracts/bonding_curves/HoldersRewardsDistributorV1.sol:HoldersRewardsDistributorV1",
        "label": "userRoles",
        "offset": 0,
        "slot": "1",
        "type": "t_mapping(t_address,t_uint256)"
      },
      {
        "astId": 30089,
        "contract": "contracts/bonding_curves/HoldersRewardsDistributorV1.sol:HoldersRewardsDistributorV1",
        "label": "__gap",
        "offset": 0,
        "slot": "2",
        "type": "t_array(t_uint256)49_storage"
      },
      {
        "astId": 7757,
        "contract": "contracts/bonding_curves/HoldersRewardsDistributorV1.sol:HoldersRewardsDistributorV1",
        "label": "paymentToken",
        "offset": 0,
        "slot": "51",
        "type": "t_address"
      },
      {
        "astId": 7760,
        "contract": "contracts/bonding_curves/HoldersRewardsDistributorV1.sol:HoldersRewardsDistributorV1",
        "label": "sharesContractAddress",
        "offset": 0,
        "slot": "52",
        "type": "t_address"
      },
      {
        "astId": 7763,
        "contract": "contracts/bonding_curves/HoldersRewardsDistributorV1.sol:HoldersRewardsDistributorV1",
        "label": "accRewardPerShare",
        "offset": 0,
        "slot": "53",
        "type": "t_uint256"
      },
      {
        "astId": 7766,
        "contract": "contracts/bonding_curves/HoldersRewardsDistributorV1.sol:HoldersRewardsDistributorV1",
        "label": "totalShares",
        "offset": 0,
        "slot": "54",
        "type": "t_uint256"
      },
      {
        "astId": 7771,
        "contract": "contracts/bonding_curves/HoldersRewardsDistributorV1.sol:HoldersRewardsDistributorV1",
        "label": "userInfo",
        "offset": 0,
        "slot": "55",
        "type": "t_mapping(t_address,t_struct(UserInfo)7755_storage)"
      }
    ],
    "types": {
      "t_address": {
        "encoding": "inplace",
        "label": "address",
        "numberOfBytes": "20"
      },
      "t_array(t_uint256)49_storage": {
        "base": "t_uint256",
        "encoding": "inplace",
        "label": "uint256[49]",
        "numberOfBytes": "1568"
      },
      "t_bool": {
        "encoding": "inplace",
        "label": "bool",
        "numberOfBytes": "1"
      },
      "t_mapping(t_address,t_struct(UserInfo)7755_storage)": {
        "encoding": "mapping",
        "key": "t_address",
        "label": "mapping(address => struct HoldersRewardsDistributorV1.UserInfo)",
        "numberOfBytes": "32",
        "value": "t_struct(UserInfo)7755_storage"
      },
      "t_mapping(t_address,t_uint256)": {
        "encoding": "mapping",
        "key": "t_address",
        "label": "mapping(address => uint256)",
        "numberOfBytes": "32",
        "value": "t_uint256"
      },
      "t_struct(UserInfo)7755_storage": {
        "encoding": "inplace",
        "label": "struct HoldersRewardsDistributorV1.UserInfo",
        "members": [
          {
            "astId": 7748,
            "contract": "contracts/bonding_curves/HoldersRewardsDistributorV1.sol:HoldersRewardsDistributorV1",
            "label": "shares",
            "offset": 0,
            "slot": "0",
            "type": "t_uint256"
          },
          {
            "astId": 7750,
            "contract": "contracts/bonding_curves/HoldersRewardsDistributorV1.sol:HoldersRewardsDistributorV1",
            "label": "rewardDebt",
            "offset": 0,
            "slot": "1",
            "type": "t_uint256"
          },
          {
            "astId": 7752,
            "contract": "contracts/bonding_curves/HoldersRewardsDistributorV1.sol:HoldersRewardsDistributorV1",
            "label": "claimedAmount",
            "offset": 0,
            "slot": "2",
            "type": "t_uint256"
          },
          {
            "astId": 7754,
            "contract": "contracts/bonding_curves/HoldersRewardsDistributorV1.sol:HoldersRewardsDistributorV1",
            "label": "unclaimedAmount",
            "offset": 0,
            "slot": "3",
            "type": "t_uint256"
          }
        ],
        "numberOfBytes": "128"
      },
      "t_uint256": {
        "encoding": "inplace",
        "label": "uint256",
        "numberOfBytes": "32"
      }
    }
  }
}