{
  "address": "0x07158416Ad67530b21fc3de4809f99998CBFb22F",
  "abi": [
    {
      "anonymous": false,
      "inputs": [
        {
          "indexed": false,
          "internalType": "address",
          "name": "previousAdmin",
          "type": "address"
        },
        {
          "indexed": false,
          "internalType": "address",
          "name": "newAdmin",
          "type": "address"
        }
      ],
      "name": "AdminChanged",
      "type": "event"
    },
    {
      "anonymous": false,
      "inputs": [
        {
          "indexed": true,
          "internalType": "address",
          "name": "beacon",
          "type": "address"
        }
      ],
      "name": "BeaconUpgraded",
      "type": "event"
    },
    {
      "anonymous": false,
      "inputs": [
        {
          "indexed": true,
          "internalType": "address",
          "name": "rewardToken",
          "type": "address"
        },
        {
          "indexed": true,
          "internalType": "address",
          "name": "user",
          "type": "address"
        },
        {
          "indexed": false,
          "internalType": "uint256",
          "name": "amount",
          "type": "uint256"
        }
      ],
      "name": "ERC20RewardClaimed",
      "type": "event"
    },
    {
      "anonymous": false,
      "inputs": [
        {
          "indexed": true,
          "internalType": "address",
          "name": "user",
          "type": "address"
        },
        {
          "indexed": false,
          "internalType": "uint256",
          "name": "amount",
          "type": "uint256"
        }
      ],
      "name": "EthRewardClaimed",
      "type": "event"
    },
    {
      "anonymous": false,
      "inputs": [
        {
          "indexed": false,
          "internalType": "uint256",
          "name": "value",
          "type": "uint256"
        }
      ],
      "name": "PaymentReceived",
      "type": "event"
    },
    {
      "anonymous": false,
      "inputs": [
        {
          "indexed": true,
          "internalType": "address",
          "name": "operator",
          "type": "address"
        },
        {
          "indexed": false,
          "internalType": "uint256",
          "name": "requested",
          "type": "uint256"
        },
        {
          "indexed": false,
          "internalType": "uint256",
          "name": "assigned",
          "type": "uint256"
        }
      ],
      "name": "RoleUpdated",
      "type": "event"
    },
    {
      "anonymous": false,
      "inputs": [
        {
          "indexed": true,
          "internalType": "address",
          "name": "by",
          "type": "address"
        },
        {
          "indexed": false,
          "internalType": "bytes32",
          "name": "root",
          "type": "bytes32"
        }
      ],
      "name": "RootChanged",
      "type": "event"
    },
    {
      "anonymous": false,
      "inputs": [
        {
          "indexed": true,
          "internalType": "address",
          "name": "implementation",
          "type": "address"
        }
      ],
      "name": "Upgraded",
      "type": "event"
    },
    {
      "inputs": [],
      "name": "FEATURE_CLAIM_ACTIVE",
      "outputs": [
        {
          "internalType": "uint32",
          "name": "",
          "type": "uint32"
        }
      ],
      "stateMutability": "view",
      "type": "function"
    },
    {
      "inputs": [],
      "name": "ROLE_ACCESS_MANAGER",
      "outputs": [
        {
          "internalType": "uint256",
          "name": "",
          "type": "uint256"
        }
      ],
      "stateMutability": "view",
      "type": "function"
    },
    {
      "inputs": [],
      "name": "ROLE_DATA_ROOT_MANAGER",
      "outputs": [
        {
          "internalType": "uint32",
          "name": "",
          "type": "uint32"
        }
      ],
      "stateMutability": "view",
      "type": "function"
    },
    {
      "inputs": [],
      "name": "ROLE_UPGRADE_MANAGER",
      "outputs": [
        {
          "internalType": "uint256",
          "name": "",
          "type": "uint256"
        }
      ],
      "stateMutability": "view",
      "type": "function"
    },
    {
      "inputs": [
        {
          "internalType": "address payable",
          "name": "_to",
          "type": "address"
        },
        {
          "internalType": "uint256",
          "name": "_totalReward",
          "type": "uint256"
        },
        {
          "internalType": "bytes32[]",
          "name": "_proof",
          "type": "bytes32[]"
        }
      ],
      "name": "claimReward",
      "outputs": [],
      "stateMutability": "nonpayable",
      "type": "function"
    },
    {
      "inputs": [
        {
          "internalType": "address",
          "name": "",
          "type": "address"
        }
      ],
      "name": "claimedReward",
      "outputs": [
        {
          "internalType": "uint256",
          "name": "",
          "type": "uint256"
        }
      ],
      "stateMutability": "view",
      "type": "function"
    },
    {
      "inputs": [],
      "name": "erc20RewardToken",
      "outputs": [
        {
          "internalType": "contract ERC20",
          "name": "",
          "type": "address"
        }
      ],
      "stateMutability": "view",
      "type": "function"
    },
    {
      "inputs": [],
      "name": "features",
      "outputs": [
        {
          "internalType": "uint256",
          "name": "",
          "type": "uint256"
        }
      ],
      "stateMutability": "view",
      "type": "function"
    },
    {
      "inputs": [],
      "name": "getImplementation",
      "outputs": [
        {
          "internalType": "address",
          "name": "",
          "type": "address"
        }
      ],
      "stateMutability": "view",
      "type": "function"
    },
    {
      "inputs": [
        {
          "internalType": "address",
          "name": "operator",
          "type": "address"
        }
      ],
      "name": "getRole",
      "outputs": [
        {
          "internalType": "uint256",
          "name": "",
          "type": "uint256"
        }
      ],
      "stateMutability": "view",
      "type": "function"
    },
    {
      "inputs": [
        {
          "internalType": "address",
          "name": "_to",
          "type": "address"
        },
        {
          "internalType": "uint256",
          "name": "_totalReward",
          "type": "uint256"
        },
        {
          "internalType": "bytes32[]",
          "name": "_proof",
          "type": "bytes32[]"
        }
      ],
      "name": "isClaimValid",
      "outputs": [
        {
          "internalType": "bool",
          "name": "",
          "type": "bool"
        }
      ],
      "stateMutability": "view",
      "type": "function"
    },
    {
      "inputs": [
        {
          "internalType": "uint256",
          "name": "required",
          "type": "uint256"
        }
      ],
      "name": "isFeatureEnabled",
      "outputs": [
        {
          "internalType": "bool",
          "name": "",
          "type": "bool"
        }
      ],
      "stateMutability": "view",
      "type": "function"
    },
    {
      "inputs": [
        {
          "internalType": "address",
          "name": "operator",
          "type": "address"
        },
        {
          "internalType": "uint256",
          "name": "required",
          "type": "uint256"
        }
      ],
      "name": "isOperatorInRole",
      "outputs": [
        {
          "internalType": "bool",
          "name": "",
          "type": "bool"
        }
      ],
      "stateMutability": "view",
      "type": "function"
    },
    {
      "inputs": [
        {
          "internalType": "uint256",
          "name": "required",
          "type": "uint256"
        }
      ],
      "name": "isSenderInRole",
      "outputs": [
        {
          "internalType": "bool",
          "name": "",
          "type": "bool"
        }
      ],
      "stateMutability": "view",
      "type": "function"
    },
    {
      "inputs": [
        {
          "internalType": "address",
          "name": "_erc20RewardToken",
          "type": "address"
        }
      ],
      "name": "postConstruct",
      "outputs": [],
      "stateMutability": "nonpayable",
      "type": "function"
    },
    {
      "inputs": [],
      "name": "rewardSystemType",
      "outputs": [
        {
          "internalType": "bool",
          "name": "",
          "type": "bool"
        }
      ],
      "stateMutability": "view",
      "type": "function"
    },
    {
      "inputs": [],
      "name": "root",
      "outputs": [
        {
          "internalType": "bytes32",
          "name": "",
          "type": "bytes32"
        }
      ],
      "stateMutability": "view",
      "type": "function"
    },
    {
      "inputs": [
        {
          "internalType": "bytes32",
          "name": "_root",
          "type": "bytes32"
        }
      ],
      "name": "setInputDataRoot",
      "outputs": [],
      "stateMutability": "nonpayable",
      "type": "function"
    },
    {
      "inputs": [],
      "name": "totalClaimedReward",
      "outputs": [
        {
          "internalType": "uint256",
          "name": "",
          "type": "uint256"
        }
      ],
      "stateMutability": "view",
      "type": "function"
    },
    {
      "inputs": [
        {
          "internalType": "uint256",
          "name": "_mask",
          "type": "uint256"
        }
      ],
      "name": "updateFeatures",
      "outputs": [],
      "stateMutability": "nonpayable",
      "type": "function"
    },
    {
      "inputs": [
        {
          "internalType": "address",
          "name": "operator",
          "type": "address"
        },
        {
          "internalType": "uint256",
          "name": "role",
          "type": "uint256"
        }
      ],
      "name": "updateRole",
      "outputs": [],
      "stateMutability": "nonpayable",
      "type": "function"
    },
    {
      "inputs": [
        {
          "internalType": "address",
          "name": "newImplementation",
          "type": "address"
        }
      ],
      "name": "upgradeTo",
      "outputs": [],
      "stateMutability": "nonpayable",
      "type": "function"
    },
    {
      "inputs": [
        {
          "internalType": "address",
          "name": "newImplementation",
          "type": "address"
        },
        {
          "internalType": "bytes",
          "name": "data",
          "type": "bytes"
        }
      ],
      "name": "upgradeToAndCall",
      "outputs": [],
      "stateMutability": "payable",
      "type": "function"
    },
    {
      "stateMutability": "payable",
      "type": "receive"
    }
  ],
  "transactionHash": "0xdfba2c5e56abd6cb54f68d430a8ce8baa4d7d6efcd3aa49f305ed426bb2d138c",
  "args": [],
  "numDeployments": 1,
  "solcInputHash": "579c7556a7c00d23ecd29fca4cc3470d",
  "bytecode": "0x60a0604052306080523480156200001557600080fd5b50600054610100900460ff16620000335760005460ff16156200003d565b6200003d620000e2565b620000a55760405162461bcd60e51b815260206004820152602e60248201527f496e697469616c697a61626c653a20636f6e747261637420697320616c72656160448201526d191e481a5b9a5d1a585b1a5e995960921b606482015260840160405180910390fd5b600054610100900460ff16158015620000c8576000805461ffff19166101011790555b8015620000db576000805461ff00191690555b5062000106565b6000620000fa306200010060201b62000b821760201c565b15905090565b3b151590565b6080516115d96200013760003960008181610857015281816108970152818161091f015261095f01526115d96000f3fe6080604052600436106101445760003560e01c8063aaf10f42116100b6578063d10c26711161006f578063d10c26711461043a578063d5bb7f671461045a578063e84adccd1461047a578063ebf0c71714610491578063f51b07ed146104a7578063fcc2c078146104c757600080fd5b8063aaf10f4214610373578063ae5b102e146103a0578063ae60bda4146103c0578063ae682e2e146103d8578063bd3e01d1146103f0578063c688d6931461041a57600080fd5b8063442767331161010857806344276733146102a55780634f1ef286146102db5780634fbdea4d146102ee5780636f8a751314610304578063725f3626146103245780637b130a941461035457600080fd5b806309823cde146101e15780631e6f3d8a146102035780632b5214161461024357806331576ad5146102655780633659cfe61461028557600080fd5b366101dc576099546001600160a01b0316156101a75760405162461bcd60e51b815260206004820152601a60248201527f455448207061796d656e7473206e6f7420737570706f7274656400000000000060448201526064015b60405180910390fd5b6040513481527f1a07f76ee25d689f09f51951e5b4594bb2e440b7935111a41ba06afeb50ff0149060200160405180910390a1005b600080fd5b3480156101ed57600080fd5b506102016101fc366004611249565b6104e7565b005b34801561020f57600080fd5b5061023061021e3660046112a2565b60986020526000908152604090205481565b6040519081526020015b60405180910390f35b34801561024f57600080fd5b5030600090815260016020526040902054610230565b34801561027157600080fd5b506102016102803660046112a2565b61076f565b34801561029157600080fd5b506102016102a03660046112a2565b61084d565b3480156102b157600080fd5b506102306102c03660046112a2565b6001600160a01b031660009081526001602052604090205490565b6102016102e93660046112bf565b610915565b3480156102fa57600080fd5b50610230609a5481565b34801561031057600080fd5b5061020161031f366004611367565b6109ca565b34801561033057600080fd5b5061034461033f366004611367565b610a2f565b604051901515815260200161023a565b34801561036057600080fd5b506099546001600160a01b031615610344565b34801561037f57600080fd5b50610388610a51565b6040516001600160a01b03909116815260200161023a565b3480156103ac57600080fd5b506102016103bb366004611380565b610a5b565b3480156103cc57600080fd5b50610230600160fe1b81565b3480156103e457600080fd5b50610230600160ff1b81565b3480156103fc57600080fd5b50610405600181565b60405163ffffffff909116815260200161023a565b34801561042657600080fd5b50610344610435366004611380565b610ae0565b34801561044657600080fd5b50610344610455366004611249565b610b09565b34801561046657600080fd5b50610201610475366004611367565b610b6c565b34801561048657600080fd5b506104056201000081565b34801561049d57600080fd5b5061023060975481565b3480156104b357600080fd5b50609954610388906001600160a01b031681565b3480156104d357600080fd5b506103446104e2366004611367565b610b76565b6104f16001610a2f565b6105345760405162461bcd60e51b81526020600482015260146024820152731c995919595b5cc8185c9948191a5cd8589b195960621b604482015260640161019e565b61053f838383610b09565b61057d5760405162461bcd60e51b815260206004820152600f60248201526e1a5b9d985b1a59081c995c5d595cdd608a1b604482015260640161019e565b6001600160a01b03831660009081526098602052604090205482116105d75760405162461bcd60e51b815260206004820152601060248201526f6e6f7468696e6720746f20636c61696d60801b604482015260640161019e565b6001600160a01b0383166000908152609860205260408120546105fa90846113c2565b6001600160a01b0385166000908152609860205260408120805492935083929091906106279084906113d9565b9250508190555080609a600082825461064091906113d9565b90915550506099546001600160a01b03166106a75761065f8482610b88565b836001600160a01b03167f4aa8284851f048567f1f61cfbb9af3b050a0fd5455f01c5de8416ca0564f20a38260405161069a91815260200190565b60405180910390a2610764565b60995460405163a9059cbb60e01b81526001600160a01b038681166004830152602482018490529091169063a9059cbb906044016020604051808303816000875af11580156106fa573d6000803e3d6000fd5b505050506040513d601f19601f8201168201806040525081019061071e91906113f1565b506099546040518281526001600160a01b038681169216907f617dc33bfe6c05895429aa10442ff5716e0040e90d0c04faa92ced6a4d0ae7879060200160405180910390a35b50505050565b905090565b600054610100900460ff1661078a5760005460ff161561078e565b303b155b6107f15760405162461bcd60e51b815260206004820152602e60248201527f496e697469616c697a61626c653a20636f6e747261637420697320616c72656160448201526d191e481a5b9a5d1a585b1a5e995960921b606482015260840161019e565b600054610100900460ff16158015610813576000805461ffff19166101011790555b61081c33610bd5565b609980546001600160a01b0319166001600160a01b0384161790558015610849576000805461ff00191690555b5050565b6001600160a01b037f00000000000000000000000000000000000000000000000000000000000000001630036108955760405162461bcd60e51b815260040161019e90611413565b7f00000000000000000000000000000000000000000000000000000000000000006001600160a01b03166108c7610c4d565b6001600160a01b0316146108ed5760405162461bcd60e51b815260040161019e9061145f565b6108f681610c7b565b6040805160008082526020820190925261091291839190610ca4565b50565b6001600160a01b037f000000000000000000000000000000000000000000000000000000000000000016300361095d5760405162461bcd60e51b815260040161019e90611413565b7f00000000000000000000000000000000000000000000000000000000000000006001600160a01b031661098f610c4d565b6001600160a01b0316146109b55760405162461bcd60e51b815260040161019e9061145f565b6109be82610c7b565b61084982826001610ca4565b6109d662010000610b76565b6109f25760405162461bcd60e51b815260040161019e906114ab565b609781905560405181815233907f714dceb37ab5c7fb26ab805d3dc0423f5d90c3dac9f6702a2ea1402ea847851c9060200160405180910390a250565b30600090815260016020526040812054610a4b905b8316831490565b92915050565b600061076a610c4d565b610a68600160ff1b610b76565b610a845760405162461bcd60e51b815260040161019e906114ab565b6108498282610adb33610aac876001600160a01b031660009081526001602052604090205490565b6001600160a01b0391909116600090815260016020526040902054600019808818821618908716919091171690565b610def565b6001600160a01b038216600090815260016020526040812054610b0290610a44565b9392505050565b6040516bffffffffffffffffffffffff19606085901b166020820152603481018390526000908190605401604051602081830303815290604052805190602001209050610b636097548285610e499092919063ffffffff16565b95945050505050565b6109123082610a5b565b6000610a4b3383610ae0565b3b151590565b610b928282610e5f565b6108495760405162461bcd60e51b81526020600482015260146024820152733330b4b632b2103a379039b2b7321032ba3432b960611b604482015260640161019e565b600054610100900460ff16610c405760405162461bcd60e51b815260206004820152602b60248201527f496e697469616c697a61626c653a20636f6e7472616374206973206e6f74206960448201526a6e697469616c697a696e6760a81b606482015260840161019e565b6109128160001980610def565b7f360894a13ba1a3210667c828492db98dca3e2076cc3735a920a3ca505d382bbc546001600160a01b031690565b610c88600160fe1b610b76565b6109125760405162461bcd60e51b815260040161019e906114ab565b6000610cae610c4d565b9050610cb984610ec1565b600083511180610cc65750815b15610cd757610cd58484610f66565b505b7f4910fdfa16fed3260ed0e7147f7cc6da11a60208b5b9406d12a635614ffd9143805460ff16610de857805460ff191660011781556040516001600160a01b0383166024820152610d5690869060440160408051601f198184030181529190526020810180516001600160e01b0316631b2ce7f360e11b179052610f66565b50805460ff19168155610d67610c4d565b6001600160a01b0316826001600160a01b031614610ddf5760405162461bcd60e51b815260206004820152602f60248201527f45524331393637557067726164653a207570677261646520627265616b73206660448201526e75727468657220757067726164657360881b606482015260840161019e565b610de885611048565b5050505050565b6001600160a01b03831660008181526001602090815260409182902084905581518581529081018490527fe9be537308880e0f56b7d7cfd7abf85f14c4934486d138f848b92a0cbaf659b4910160405180910390a2505050565b600082610e568584611088565b14949350505050565b600080836001600160a01b031661132484604051600060405180830381858888f193505050503d8060008114610eb1576040519150601f19603f3d011682016040523d82523d6000602084013e610eb6565b606091505b509095945050505050565b803b610f255760405162461bcd60e51b815260206004820152602d60248201527f455243313936373a206e657720696d706c656d656e746174696f6e206973206e60448201526c1bdd08184818dbdb9d1c9858dd609a1b606482015260840161019e565b7f360894a13ba1a3210667c828492db98dca3e2076cc3735a920a3ca505d382bbc80546001600160a01b0319166001600160a01b0392909216919091179055565b6060823b610fc55760405162461bcd60e51b815260206004820152602660248201527f416464726573733a2064656c65676174652063616c6c20746f206e6f6e2d636f6044820152651b9d1c9858dd60d21b606482015260840161019e565b600080846001600160a01b031684604051610fe091906114fe565b600060405180830381855af49150503d806000811461101b576040519150601f19603f3d011682016040523d82523d6000602084013e611020565b606091505b5091509150610b63828260405180606001604052806027815260200161157d60279139611134565b61105181610ec1565b6040516001600160a01b038216907fbc7cd75a20ee27fd9adebab32041f755214dbc6bffa90cc0225b39da2e5c2d3b90600090a250565b600081815b845181101561112c5760008582815181106110aa576110aa61151a565b602002602001015190508083116110ec576040805160208101859052908101829052606001604051602081830303815290604052805190602001209250611119565b60408051602081018390529081018490526060016040516020818303038152906040528051906020012092505b508061112481611530565b91505061108d565b509392505050565b60608315611143575081610b02565b8251156111535782518084602001fd5b8160405162461bcd60e51b815260040161019e9190611549565b6001600160a01b038116811461091257600080fd5b634e487b7160e01b600052604160045260246000fd5b604051601f8201601f1916810167ffffffffffffffff811182821017156111c1576111c1611182565b604052919050565b600082601f8301126111da57600080fd5b8135602067ffffffffffffffff8211156111f6576111f6611182565b8160051b611205828201611198565b928352848101820192828101908785111561121f57600080fd5b83870192505b8483101561123e57823582529183019190830190611225565b979650505050505050565b60008060006060848603121561125e57600080fd5b83356112698161116d565b925060208401359150604084013567ffffffffffffffff81111561128c57600080fd5b611298868287016111c9565b9150509250925092565b6000602082840312156112b457600080fd5b8135610b028161116d565b600080604083850312156112d257600080fd5b82356112dd8161116d565b915060208381013567ffffffffffffffff808211156112fb57600080fd5b818601915086601f83011261130f57600080fd5b81358181111561132157611321611182565b611333601f8201601f19168501611198565b9150808252878482850101111561134957600080fd5b80848401858401376000848284010152508093505050509250929050565b60006020828403121561137957600080fd5b5035919050565b6000806040838503121561139357600080fd5b823561139e8161116d565b946020939093013593505050565b634e487b7160e01b600052601160045260246000fd5b6000828210156113d4576113d46113ac565b500390565b600082198211156113ec576113ec6113ac565b500190565b60006020828403121561140357600080fd5b81518015158114610b0257600080fd5b6020808252602c908201527f46756e6374696f6e206d7573742062652063616c6c6564207468726f7567682060408201526b19195b1959d85d1958d85b1b60a21b606082015260800190565b6020808252602c908201527f46756e6374696f6e206d7573742062652063616c6c6564207468726f7567682060408201526b6163746976652070726f787960a01b606082015260800190565b6020808252600d908201526c1858d8d95cdcc819195b9a5959609a1b604082015260600190565b60005b838110156114ed5781810151838201526020016114d5565b838111156107645750506000910152565b600082516115108184602087016114d2565b9190910192915050565b634e487b7160e01b600052603260045260246000fd5b600060018201611542576115426113ac565b5060010190565b60208152600082518060208401526115688160408501602087016114d2565b601f01601f1916919091016040019291505056fe416464726573733a206c6f772d6c6576656c2064656c65676174652063616c6c206661696c6564a264697066735822122054f42f79e33eb91a9a14dadd13632c7442ac2be2af13787842e25c08a9462f7464736f6c634300080f0033",
  "devdoc": {
    "events": {
      "ERC20RewardClaimed(address,address,uint256)": {
        "details": "Fired in claimErc20Reward()",
        "params": {
          "amount": "amount of reward transferred",
          "rewardToken": "erc20 reward token address",
          "user": "user address"
        }
      },
      "EthRewardClaimed(address,uint256)": {
        "details": "Fired in claimEthReward()",
        "params": {
          "amount": "amount of reward transferred",
          "user": "user address"
        }
      },
      "PaymentReceived(uint256)": {
        "details": "Fired in the default receive()",
        "params": {
          "value": "amount received "
        }
      },
      "RootChanged(address,bytes32)": {
        "details": "Fired in setInputDataRoot()",
        "params": {
          "by": "an address which executed the operation",
          "root": "new Merkle root value"
        }
      }
    },
    "kind": "dev",
    "methods": {
      "claimReward(address,uint256,bytes32[])": {
        "details": "Merkle tree and proof can be constructed using the `web3-utils`, `merkletreejs`,      and `keccak256` npm packages:      1. Hash the original array data elements (_to, _totalReward) via `web3.utils.soliditySha3`,         making sure the packing order.      2. Create a sorted MerkleTree (`merkletreejs`) from the hashed array, use `keccak256`         from the `keccak256` npm package as a hashing function, do not hash leaves         (already hashed in step 1); Ex. MerkleTree options: {hashLeaves: false, sortPairs: true}      3. For any given data element (_to, _totalReward) the proof is constructed by hashing it         (as in step 1) and querying the MerkleTree for a proof, providing the hashed element         as a leafThrows is the data or merkle proof supplied is not valid",
        "params": {
          "_proof": "Merkle proof for the (_to, _totalReward) pair supplied",
          "_to": "an address to whom reward to be sent",
          "_totalReward": "total reward accumulated by a user across all competitions"
        }
      },
      "features()": {
        "details": "Effectively reads userRoles role for the contract itself",
        "returns": {
          "_0": "256-bit bitmask of the features enabled"
        }
      },
      "getImplementation()": {
        "returns": {
          "_0": "the current implementation address"
        }
      },
      "getRole(address)": {
        "details": "Having a simple getter instead of making the mapping public      allows enforcing the encapsulation of the mapping and protects from      writing to it directly in the inheriting smart contracts",
        "params": {
          "operator": "address of a user to read permissions for,      or self address to read global features of the smart contract"
        }
      },
      "isClaimValid(address,uint256,bytes32[])": {
        "details": "Merkle tree and proof can be constructed using the `web3-utils`, `merkletreejs`,      and `keccak256` npm packages:      1. Hash the original array data elements (_to, _totalReward) via `web3.utils.soliditySha3`,         making sure the packing order.      2. Create a sorted MerkleTree (`merkletreejs`) from the hashed array, use `keccak256`         from the `keccak256` npm package as a hashing function, do not hash leaves         (already hashed in step 1); Ex. MerkleTree options: {hashLeaves: false, sortPairs: true}      3. For any given data element (_to, _totalReward) the proof is constructed by hashing it         (as in step 1) and querying the MerkleTree for a proof, providing the hashed element         as a leaf",
        "params": {
          "_proof": "Merkle proof for the (_to, _totalReward) pair supplied",
          "_to": "an address to whom reward to be sent",
          "_totalReward": "total reward accumulated by a user across all competitions"
        },
        "returns": {
          "_0": "true if Merkle proof is valid (data belongs to the original array), false otherwise"
        }
      },
      "isFeatureEnabled(uint256)": {
        "params": {
          "required": "set of features to check against"
        },
        "returns": {
          "_0": "true if all the features requested are enabled, false otherwise"
        }
      },
      "isOperatorInRole(address,uint256)": {
        "params": {
          "operator": "address of the user to check role for",
          "required": "set of permissions (role) to check"
        },
        "returns": {
          "_0": "true if all the permissions requested are enabled, false otherwise"
        }
      },
      "isSenderInRole(uint256)": {
        "details": "Used in smart contracts only. Off-chain clients should use `isOperatorInRole`.",
        "params": {
          "required": "set of permissions (role) to check against"
        },
        "returns": {
          "_0": "true if all the permissions requested are enabled, false otherwise"
        }
      },
      "postConstruct(address)": {
        "details": "\"Constructor replacement\" for a smart contract with a delayed initialization (post-deployment initialization)",
        "params": {
          "_erc20RewardToken": "ERC20 reward token address      zero address means contract supports ETH reward      non-zero address means contract supports ERC20 reward"
        }
      },
      "rewardSystemType()": {
        "returns": {
          "_0": "true if contract supports ETH reward         false if contract supports ERC20 reward"
        }
      },
      "setInputDataRoot(bytes32)": {
        "details": "Requires executor to have `ROLE_DATA_MANAGER` permission",
        "params": {
          "_root": "Merkle tree root for the input data array"
        }
      },
      "updateFeatures(uint256)": {
        "details": "Requires transaction sender to have `ROLE_ACCESS_MANAGER` permissionFunction is left for backward compatibility with older versions",
        "params": {
          "_mask": "bitmask representing a set of features to enable/disable"
        }
      },
      "updateRole(address,uint256)": {
        "details": "Setting role to zero is equivalent to removing an all permissionsSetting role to `FULL_PRIVILEGES_MASK` is equivalent to      copying senders' permissions (role) to the userRequires transaction sender to have `ROLE_ACCESS_MANAGER` permission",
        "params": {
          "operator": "address of a user to alter permissions for,       or self address to alter global features of the smart contract",
          "role": "bitmask representing a set of permissions to      enable/disable for a user specified"
        }
      },
      "upgradeTo(address)": {
        "details": "Upgrade the implementation of the proxy to `newImplementation`. Calls {_authorizeUpgrade}. Emits an {Upgraded} event."
      },
      "upgradeToAndCall(address,bytes)": {
        "details": "Upgrade the implementation of the proxy to `newImplementation`, and subsequently execute the function call encoded in `data`. Calls {_authorizeUpgrade}. Emits an {Upgraded} event."
      }
    },
    "stateVariables": {
      "FEATURE_CLAIM_ACTIVE": {
        "details": "Feature FEATURE_CLAIM_ACTIVE must be enabled in order to      allow user to claim pending reward"
      },
      "ROLE_DATA_ROOT_MANAGER": {
        "details": "Role ROLE_DATA_ROOT_MANAGER allows setting the Merkle tree root via setInputDataRoot()"
      }
    },
    "title": "Leaderboard Reward System",
    "version": 1
  },
  "userdoc": {
    "kind": "user",
    "methods": {
      "FEATURE_CLAIM_ACTIVE()": {
        "notice": "Enables the airdrop, redeeming the tokens"
      },
      "ROLE_ACCESS_MANAGER()": {
        "notice": "Access manager is responsible for assigning the roles to users,      enabling/disabling global features of the smart contractAccess manager can add, remove and update user roles,      remove and update global features"
      },
      "ROLE_DATA_ROOT_MANAGER()": {
        "notice": "Data Root manager is responsible for supplying the valid input data array      Merkle root which then can be used to check total reward won by user."
      },
      "ROLE_UPGRADE_MANAGER()": {
        "notice": "Upgrade manager is responsible for smart contract upgrades,      see https://docs.openzeppelin.com/contracts/4.x/api/proxy#UUPSUpgradeable      see https://docs.openzeppelin.com/contracts/4.x/upgradeable"
      },
      "claimReward(address,uint256,bytes32[])": {
        "notice": "total amount of token `_totalReward` to an address `_to`, verifying the validity      of a `(_to, _totalReward)` pair via the Merkle proof `_proof`"
      },
      "features()": {
        "notice": "Retrieves globally set of features enabled"
      },
      "getImplementation()": {
        "notice": "Returns an address of the implementation smart contract,      see ERC1967Upgrade._getImplementation()"
      },
      "getRole(address)": {
        "notice": "Reads the permissions (role) for a given user from the `userRoles` mapping      (privileged addresses with defined roles/permissions)In the context of ERC20/ERC721 tokens these can be permissions to      allow minting or burning tokens, transferring on behalf and so on"
      },
      "isClaimValid(address,uint256,bytes32[])": {
        "notice": "Verifies the validity of a `(_to, _totalReward)` pair supplied based on the Merkle root      of the entire `(_to, _totalReward)` data array (pre-stored in the contract), and the Merkle      proof `_proof` for the particular `(_to, _totalReward)` pair supplied"
      },
      "isFeatureEnabled(uint256)": {
        "notice": "Checks if requested set of features is enabled globally on the contract"
      },
      "isOperatorInRole(address,uint256)": {
        "notice": "Checks if operator has all the permissions (role) required"
      },
      "isSenderInRole(uint256)": {
        "notice": "Checks if transaction sender `msg.sender` has all the permissions required"
      },
      "rewardSystemType()": {
        "notice": "Reward system type"
      },
      "setInputDataRoot(bytes32)": {
        "notice": "Restricted access function to update input data root (Merkle tree root),      and to define, effectively, the tokens to be created by this smart contract"
      },
      "updateFeatures(uint256)": {
        "notice": "Updates set of the globally enabled features (`features`),      taking into account sender's permissions"
      },
      "updateRole(address,uint256)": {
        "notice": "Updates set of permissions (role) for a given user,      taking into account sender's permissions."
      }
    },
    "notice": "leaderboard reward system designated to release reward for all leaderboard winnerreward system uses merkle root to maintain list of winners and reward amounts,      once new winner list is announced, merkle root will be update which include      new winner list and past winners and tier respective won reward amount.leaderboard reward system is proxy upgradeable.",
    "version": 1
  },
  "storageLayout": {
    "storage": [
      {
        "astId": 1858,
        "contract": "contracts/bonding_curves/RewardSystem.sol:RewardSystem",
        "label": "_initialized",
        "offset": 0,
        "slot": "0",
        "type": "t_bool"
      },
      {
        "astId": 1861,
        "contract": "contracts/bonding_curves/RewardSystem.sol:RewardSystem",
        "label": "_initializing",
        "offset": 1,
        "slot": "0",
        "type": "t_bool"
      },
      {
        "astId": 30084,
        "contract": "contracts/bonding_curves/RewardSystem.sol:RewardSystem",
        "label": "userRoles",
        "offset": 0,
        "slot": "1",
        "type": "t_mapping(t_address,t_uint256)"
      },
      {
        "astId": 30089,
        "contract": "contracts/bonding_curves/RewardSystem.sol:RewardSystem",
        "label": "__gap",
        "offset": 0,
        "slot": "2",
        "type": "t_array(t_uint256)49_storage"
      },
      {
        "astId": 1840,
        "contract": "contracts/bonding_curves/RewardSystem.sol:RewardSystem",
        "label": "__gap",
        "offset": 0,
        "slot": "51",
        "type": "t_array(t_uint256)50_storage"
      },
      {
        "astId": 2035,
        "contract": "contracts/bonding_curves/RewardSystem.sol:RewardSystem",
        "label": "__gap",
        "offset": 0,
        "slot": "101",
        "type": "t_array(t_uint256)50_storage"
      },
      {
        "astId": 8907,
        "contract": "contracts/bonding_curves/RewardSystem.sol:RewardSystem",
        "label": "root",
        "offset": 0,
        "slot": "151",
        "type": "t_bytes32"
      },
      {
        "astId": 8911,
        "contract": "contracts/bonding_curves/RewardSystem.sol:RewardSystem",
        "label": "claimedReward",
        "offset": 0,
        "slot": "152",
        "type": "t_mapping(t_address,t_uint256)"
      },
      {
        "astId": 8914,
        "contract": "contracts/bonding_curves/RewardSystem.sol:RewardSystem",
        "label": "erc20RewardToken",
        "offset": 0,
        "slot": "153",
        "type": "t_contract(ERC20)11788"
      },
      {
        "astId": 8916,
        "contract": "contracts/bonding_curves/RewardSystem.sol:RewardSystem",
        "label": "totalClaimedReward",
        "offset": 0,
        "slot": "154",
        "type": "t_uint256"
      }
    ],
    "types": {
      "t_address": {
        "encoding": "inplace",
        "label": "address",
        "numberOfBytes": "20"
      },
      "t_array(t_uint256)49_storage": {
        "base": "t_uint256",
        "encoding": "inplace",
        "label": "uint256[49]",
        "numberOfBytes": "1568"
      },
      "t_array(t_uint256)50_storage": {
        "base": "t_uint256",
        "encoding": "inplace",
        "label": "uint256[50]",
        "numberOfBytes": "1600"
      },
      "t_bool": {
        "encoding": "inplace",
        "label": "bool",
        "numberOfBytes": "1"
      },
      "t_bytes32": {
        "encoding": "inplace",
        "label": "bytes32",
        "numberOfBytes": "32"
      },
      "t_contract(ERC20)11788": {
        "encoding": "inplace",
        "label": "contract ERC20",
        "numberOfBytes": "20"
      },
      "t_mapping(t_address,t_uint256)": {
        "encoding": "mapping",
        "key": "t_address",
        "label": "mapping(address => uint256)",
        "numberOfBytes": "32",
        "value": "t_uint256"
      },
      "t_uint256": {
        "encoding": "inplace",
        "label": "uint256",
        "numberOfBytes": "32"
      }
    }
  }
}