{
  "address": "0xeeEE3B45405C28712b76D0C64E4f0d824198AF30",
  "abi": [
    {
      "inputs": [
        {
          "internalType": "string",
          "name": "_name",
          "type": "string"
        },
        {
          "internalType": "string",
          "name": "_symbol",
          "type": "string"
        }
      ],
      "stateMutability": "nonpayable",
      "type": "constructor"
    },
    {
      "anonymous": false,
      "inputs": [
        {
          "indexed": true,
          "internalType": "address",
          "name": "_owner",
          "type": "address"
        },
        {
          "indexed": true,
          "internalType": "address",
          "name": "_approved",
          "type": "address"
        },
        {
          "indexed": true,
          "internalType": "uint256",
          "name": "_tokenId",
          "type": "uint256"
        }
      ],
      "name": "Approval",
      "type": "event"
    },
    {
      "anonymous": false,
      "inputs": [
        {
          "indexed": true,
          "internalType": "address",
          "name": "_owner",
          "type": "address"
        },
        {
          "indexed": true,
          "internalType": "address",
          "name": "_operator",
          "type": "address"
        },
        {
          "indexed": false,
          "internalType": "bool",
          "name": "_approved",
          "type": "bool"
        }
      ],
      "name": "ApprovalForAll",
      "type": "event"
    },
    {
      "anonymous": false,
      "inputs": [
        {
          "indexed": true,
          "internalType": "address",
          "name": "_by",
          "type": "address"
        },
        {
          "indexed": false,
          "internalType": "string",
          "name": "_oldVal",
          "type": "string"
        },
        {
          "indexed": false,
          "internalType": "string",
          "name": "_newVal",
          "type": "string"
        }
      ],
      "name": "BaseURIUpdated",
      "type": "event"
    },
    {
      "anonymous": false,
      "inputs": [
        {
          "indexed": true,
          "internalType": "address",
          "name": "_by",
          "type": "address"
        },
        {
          "indexed": false,
          "internalType": "string",
          "name": "_value",
          "type": "string"
        }
      ],
      "name": "ContractURIUpdated",
      "type": "event"
    },
    {
      "anonymous": false,
      "inputs": [
        {
          "indexed": true,
          "internalType": "address",
          "name": "_by",
          "type": "address"
        },
        {
          "indexed": true,
          "internalType": "address",
          "name": "_oldVal",
          "type": "address"
        },
        {
          "indexed": true,
          "internalType": "address",
          "name": "_newVal",
          "type": "address"
        }
      ],
      "name": "OwnerUpdated",
      "type": "event"
    },
    {
      "anonymous": false,
      "inputs": [
        {
          "indexed": true,
          "internalType": "address",
          "name": "previousOwner",
          "type": "address"
        },
        {
          "indexed": true,
          "internalType": "address",
          "name": "newOwner",
          "type": "address"
        }
      ],
      "name": "OwnershipTransferred",
      "type": "event"
    },
    {
      "anonymous": false,
      "inputs": [
        {
          "indexed": true,
          "internalType": "address",
          "name": "_by",
          "type": "address"
        },
        {
          "indexed": true,
          "internalType": "address",
          "name": "_to",
          "type": "address"
        },
        {
          "indexed": false,
          "internalType": "uint256",
          "name": "_requested",
          "type": "uint256"
        },
        {
          "indexed": false,
          "internalType": "uint256",
          "name": "_actual",
          "type": "uint256"
        }
      ],
      "name": "RoleUpdated",
      "type": "event"
    },
    {
      "anonymous": false,
      "inputs": [
        {
          "indexed": true,
          "internalType": "address",
          "name": "_by",
          "type": "address"
        },
        {
          "indexed": true,
          "internalType": "address",
          "name": "_receiver",
          "type": "address"
        },
        {
          "indexed": false,
          "internalType": "uint16",
          "name": "_percentage",
          "type": "uint16"
        }
      ],
      "name": "RoyaltyInfoUpdated",
      "type": "event"
    },
    {
      "anonymous": false,
      "inputs": [
        {
          "indexed": true,
          "internalType": "address",
          "name": "_by",
          "type": "address"
        },
        {
          "indexed": false,
          "internalType": "uint256",
          "name": "_tokenId",
          "type": "uint256"
        },
        {
          "indexed": false,
          "internalType": "string",
          "name": "_oldVal",
          "type": "string"
        },
        {
          "indexed": false,
          "internalType": "string",
          "name": "_newVal",
          "type": "string"
        }
      ],
      "name": "TokenURIUpdated",
      "type": "event"
    },
    {
      "anonymous": false,
      "inputs": [
        {
          "indexed": true,
          "internalType": "address",
          "name": "_from",
          "type": "address"
        },
        {
          "indexed": true,
          "internalType": "address",
          "name": "_to",
          "type": "address"
        },
        {
          "indexed": true,
          "internalType": "uint256",
          "name": "_tokenId",
          "type": "uint256"
        }
      ],
      "name": "Transfer",
      "type": "event"
    },
    {
      "inputs": [],
      "name": "BATCH_SIZE_MULTIPLIER",
      "outputs": [
        {
          "internalType": "uint8",
          "name": "",
          "type": "uint8"
        }
      ],
      "stateMutability": "view",
      "type": "function"
    },
    {
      "inputs": [],
      "name": "DOMAIN_SEPARATOR",
      "outputs": [
        {
          "internalType": "bytes32",
          "name": "",
          "type": "bytes32"
        }
      ],
      "stateMutability": "view",
      "type": "function"
    },
    {
      "inputs": [],
      "name": "DOMAIN_TYPEHASH",
      "outputs": [
        {
          "internalType": "bytes32",
          "name": "",
          "type": "bytes32"
        }
      ],
      "stateMutability": "view",
      "type": "function"
    },
    {
      "inputs": [],
      "name": "FEATURE_BURNS_ON_BEHALF",
      "outputs": [
        {
          "internalType": "uint32",
          "name": "",
          "type": "uint32"
        }
      ],
      "stateMutability": "view",
      "type": "function"
    },
    {
      "inputs": [],
      "name": "FEATURE_OPERATOR_PERMITS",
      "outputs": [
        {
          "internalType": "uint32",
          "name": "",
          "type": "uint32"
        }
      ],
      "stateMutability": "view",
      "type": "function"
    },
    {
      "inputs": [],
      "name": "FEATURE_OWN_BURNS",
      "outputs": [
        {
          "internalType": "uint32",
          "name": "",
          "type": "uint32"
        }
      ],
      "stateMutability": "view",
      "type": "function"
    },
    {
      "inputs": [],
      "name": "FEATURE_PERMITS",
      "outputs": [
        {
          "internalType": "uint32",
          "name": "",
          "type": "uint32"
        }
      ],
      "stateMutability": "view",
      "type": "function"
    },
    {
      "inputs": [],
      "name": "FEATURE_TRANSFERS",
      "outputs": [
        {
          "internalType": "uint32",
          "name": "",
          "type": "uint32"
        }
      ],
      "stateMutability": "view",
      "type": "function"
    },
    {
      "inputs": [],
      "name": "FEATURE_TRANSFERS_ON_BEHALF",
      "outputs": [
        {
          "internalType": "uint32",
          "name": "",
          "type": "uint32"
        }
      ],
      "stateMutability": "view",
      "type": "function"
    },
    {
      "inputs": [],
      "name": "PERMIT_FOR_ALL_TYPEHASH",
      "outputs": [
        {
          "internalType": "bytes32",
          "name": "",
          "type": "bytes32"
        }
      ],
      "stateMutability": "view",
      "type": "function"
    },
    {
      "inputs": [],
      "name": "PERMIT_TYPEHASH",
      "outputs": [
        {
          "internalType": "bytes32",
          "name": "",
          "type": "bytes32"
        }
      ],
      "stateMutability": "view",
      "type": "function"
    },
    {
      "inputs": [],
      "name": "ROLE_ACCESS_MANAGER",
      "outputs": [
        {
          "internalType": "uint256",
          "name": "",
          "type": "uint256"
        }
      ],
      "stateMutability": "view",
      "type": "function"
    },
    {
      "inputs": [],
      "name": "ROLE_OWNER_MANAGER",
      "outputs": [
        {
          "internalType": "uint32",
          "name": "",
          "type": "uint32"
        }
      ],
      "stateMutability": "view",
      "type": "function"
    },
    {
      "inputs": [],
      "name": "ROLE_ROYALTY_MANAGER",
      "outputs": [
        {
          "internalType": "uint32",
          "name": "",
          "type": "uint32"
        }
      ],
      "stateMutability": "view",
      "type": "function"
    },
    {
      "inputs": [],
      "name": "ROLE_TOKEN_CREATOR",
      "outputs": [
        {
          "internalType": "uint32",
          "name": "",
          "type": "uint32"
        }
      ],
      "stateMutability": "view",
      "type": "function"
    },
    {
      "inputs": [],
      "name": "ROLE_TOKEN_DESTROYER",
      "outputs": [
        {
          "internalType": "uint32",
          "name": "",
          "type": "uint32"
        }
      ],
      "stateMutability": "view",
      "type": "function"
    },
    {
      "inputs": [],
      "name": "ROLE_URI_MANAGER",
      "outputs": [
        {
          "internalType": "uint32",
          "name": "",
          "type": "uint32"
        }
      ],
      "stateMutability": "view",
      "type": "function"
    },
    {
      "inputs": [],
      "name": "TOKEN_UID",
      "outputs": [
        {
          "internalType": "uint256",
          "name": "",
          "type": "uint256"
        }
      ],
      "stateMutability": "view",
      "type": "function"
    },
    {
      "inputs": [
        {
          "internalType": "address",
          "name": "_approved",
          "type": "address"
        },
        {
          "internalType": "uint256",
          "name": "_tokenId",
          "type": "uint256"
        }
      ],
      "name": "approve",
      "outputs": [],
      "stateMutability": "nonpayable",
      "type": "function"
    },
    {
      "inputs": [
        {
          "internalType": "address",
          "name": "_owner",
          "type": "address"
        }
      ],
      "name": "balanceOf",
      "outputs": [
        {
          "internalType": "uint256",
          "name": "",
          "type": "uint256"
        }
      ],
      "stateMutability": "view",
      "type": "function"
    },
    {
      "inputs": [],
      "name": "baseURI",
      "outputs": [
        {
          "internalType": "string",
          "name": "",
          "type": "string"
        }
      ],
      "stateMutability": "view",
      "type": "function"
    },
    {
      "inputs": [
        {
          "internalType": "uint256",
          "name": "_tokenId",
          "type": "uint256"
        }
      ],
      "name": "burn",
      "outputs": [],
      "stateMutability": "nonpayable",
      "type": "function"
    },
    {
      "inputs": [],
      "name": "contractURI",
      "outputs": [
        {
          "internalType": "string",
          "name": "",
          "type": "string"
        }
      ],
      "stateMutability": "view",
      "type": "function"
    },
    {
      "inputs": [],
      "name": "decimals",
      "outputs": [
        {
          "internalType": "uint8",
          "name": "",
          "type": "uint8"
        }
      ],
      "stateMutability": "view",
      "type": "function"
    },
    {
      "inputs": [
        {
          "internalType": "address",
          "name": "operator",
          "type": "address"
        },
        {
          "internalType": "uint256",
          "name": "target",
          "type": "uint256"
        },
        {
          "internalType": "uint256",
          "name": "desired",
          "type": "uint256"
        }
      ],
      "name": "evaluateBy",
      "outputs": [
        {
          "internalType": "uint256",
          "name": "",
          "type": "uint256"
        }
      ],
      "stateMutability": "view",
      "type": "function"
    },
    {
      "inputs": [
        {
          "internalType": "uint256",
          "name": "_tokenId",
          "type": "uint256"
        }
      ],
      "name": "exists",
      "outputs": [
        {
          "internalType": "bool",
          "name": "",
          "type": "bool"
        }
      ],
      "stateMutability": "view",
      "type": "function"
    },
    {
      "inputs": [],
      "name": "features",
      "outputs": [
        {
          "internalType": "uint256",
          "name": "",
          "type": "uint256"
        }
      ],
      "stateMutability": "view",
      "type": "function"
    },
    {
      "inputs": [
        {
          "internalType": "uint256",
          "name": "_tokenId",
          "type": "uint256"
        }
      ],
      "name": "getApproved",
      "outputs": [
        {
          "internalType": "address",
          "name": "",
          "type": "address"
        }
      ],
      "stateMutability": "view",
      "type": "function"
    },
    {
      "inputs": [
        {
          "internalType": "address",
          "name": "_owner",
          "type": "address"
        },
        {
          "internalType": "address",
          "name": "_operator",
          "type": "address"
        }
      ],
      "name": "isApprovedForAll",
      "outputs": [
        {
          "internalType": "bool",
          "name": "",
          "type": "bool"
        }
      ],
      "stateMutability": "view",
      "type": "function"
    },
    {
      "inputs": [
        {
          "internalType": "uint256",
          "name": "required",
          "type": "uint256"
        }
      ],
      "name": "isFeatureEnabled",
      "outputs": [
        {
          "internalType": "bool",
          "name": "",
          "type": "bool"
        }
      ],
      "stateMutability": "view",
      "type": "function"
    },
    {
      "inputs": [
        {
          "internalType": "address",
          "name": "operator",
          "type": "address"
        },
        {
          "internalType": "uint256",
          "name": "required",
          "type": "uint256"
        }
      ],
      "name": "isOperatorInRole",
      "outputs": [
        {
          "internalType": "bool",
          "name": "",
          "type": "bool"
        }
      ],
      "stateMutability": "view",
      "type": "function"
    },
    {
      "inputs": [
        {
          "internalType": "address",
          "name": "_addr",
          "type": "address"
        }
      ],
      "name": "isOwner",
      "outputs": [
        {
          "internalType": "bool",
          "name": "",
          "type": "bool"
        }
      ],
      "stateMutability": "view",
      "type": "function"
    },
    {
      "inputs": [
        {
          "internalType": "uint256",
          "name": "required",
          "type": "uint256"
        }
      ],
      "name": "isSenderInRole",
      "outputs": [
        {
          "internalType": "bool",
          "name": "",
          "type": "bool"
        }
      ],
      "stateMutability": "view",
      "type": "function"
    },
    {
      "inputs": [
        {
          "internalType": "uint256",
          "name": "_tokenId",
          "type": "uint256"
        }
      ],
      "name": "isTransferable",
      "outputs": [
        {
          "internalType": "bool",
          "name": "",
          "type": "bool"
        }
      ],
      "stateMutability": "view",
      "type": "function"
    },
    {
      "inputs": [
        {
          "internalType": "address",
          "name": "_to",
          "type": "address"
        },
        {
          "internalType": "uint256",
          "name": "_tokenId",
          "type": "uint256"
        }
      ],
      "name": "mint",
      "outputs": [],
      "stateMutability": "nonpayable",
      "type": "function"
    },
    {
      "inputs": [
        {
          "internalType": "address",
          "name": "_to",
          "type": "address"
        },
        {
          "internalType": "uint256",
          "name": "_tokenId",
          "type": "uint256"
        },
        {
          "internalType": "uint256",
          "name": "n",
          "type": "uint256"
        }
      ],
      "name": "mintBatch",
      "outputs": [],
      "stateMutability": "nonpayable",
      "type": "function"
    },
    {
      "inputs": [],
      "name": "name",
      "outputs": [
        {
          "internalType": "string",
          "name": "",
          "type": "string"
        }
      ],
      "stateMutability": "view",
      "type": "function"
    },
    {
      "inputs": [],
      "name": "owner",
      "outputs": [
        {
          "internalType": "address",
          "name": "",
          "type": "address"
        }
      ],
      "stateMutability": "view",
      "type": "function"
    },
    {
      "inputs": [
        {
          "internalType": "uint256",
          "name": "_tokenId",
          "type": "uint256"
        }
      ],
      "name": "ownerOf",
      "outputs": [
        {
          "internalType": "address",
          "name": "",
          "type": "address"
        }
      ],
      "stateMutability": "view",
      "type": "function"
    },
    {
      "inputs": [
        {
          "internalType": "address",
          "name": "_owner",
          "type": "address"
        },
        {
          "internalType": "address",
          "name": "_operator",
          "type": "address"
        },
        {
          "internalType": "uint256",
          "name": "_tokenId",
          "type": "uint256"
        },
        {
          "internalType": "uint256",
          "name": "_exp",
          "type": "uint256"
        },
        {
          "internalType": "uint8",
          "name": "v",
          "type": "uint8"
        },
        {
          "internalType": "bytes32",
          "name": "r",
          "type": "bytes32"
        },
        {
          "internalType": "bytes32",
          "name": "s",
          "type": "bytes32"
        }
      ],
      "name": "permit",
      "outputs": [],
      "stateMutability": "nonpayable",
      "type": "function"
    },
    {
      "inputs": [
        {
          "internalType": "address",
          "name": "_owner",
          "type": "address"
        },
        {
          "internalType": "address",
          "name": "_operator",
          "type": "address"
        },
        {
          "internalType": "bool",
          "name": "_approved",
          "type": "bool"
        },
        {
          "internalType": "uint256",
          "name": "_exp",
          "type": "uint256"
        },
        {
          "internalType": "uint8",
          "name": "v",
          "type": "uint8"
        },
        {
          "internalType": "bytes32",
          "name": "r",
          "type": "bytes32"
        },
        {
          "internalType": "bytes32",
          "name": "s",
          "type": "bytes32"
        }
      ],
      "name": "permitForAll",
      "outputs": [],
      "stateMutability": "nonpayable",
      "type": "function"
    },
    {
      "inputs": [
        {
          "internalType": "address",
          "name": "",
          "type": "address"
        }
      ],
      "name": "permitNonces",
      "outputs": [
        {
          "internalType": "uint256",
          "name": "",
          "type": "uint256"
        }
      ],
      "stateMutability": "view",
      "type": "function"
    },
    {
      "inputs": [
        {
          "internalType": "uint256",
          "name": "",
          "type": "uint256"
        },
        {
          "internalType": "uint256",
          "name": "_salePrice",
          "type": "uint256"
        }
      ],
      "name": "royaltyInfo",
      "outputs": [
        {
          "internalType": "address",
          "name": "receiver",
          "type": "address"
        },
        {
          "internalType": "uint256",
          "name": "royaltyAmount",
          "type": "uint256"
        }
      ],
      "stateMutability": "view",
      "type": "function"
    },
    {
      "inputs": [],
      "name": "royaltyPercentage",
      "outputs": [
        {
          "internalType": "uint16",
          "name": "",
          "type": "uint16"
        }
      ],
      "stateMutability": "view",
      "type": "function"
    },
    {
      "inputs": [],
      "name": "royaltyReceiver",
      "outputs": [
        {
          "internalType": "address",
          "name": "",
          "type": "address"
        }
      ],
      "stateMutability": "view",
      "type": "function"
    },
    {
      "inputs": [
        {
          "internalType": "address",
          "name": "_to",
          "type": "address"
        },
        {
          "internalType": "uint256",
          "name": "_tokenId",
          "type": "uint256"
        },
        {
          "internalType": "bytes",
          "name": "_data",
          "type": "bytes"
        }
      ],
      "name": "safeMint",
      "outputs": [],
      "stateMutability": "nonpayable",
      "type": "function"
    },
    {
      "inputs": [
        {
          "internalType": "address",
          "name": "_to",
          "type": "address"
        },
        {
          "internalType": "uint256",
          "name": "_tokenId",
          "type": "uint256"
        }
      ],
      "name": "safeMint",
      "outputs": [],
      "stateMutability": "nonpayable",
      "type": "function"
    },
    {
      "inputs": [
        {
          "internalType": "address",
          "name": "_to",
          "type": "address"
        },
        {
          "internalType": "uint256",
          "name": "_tokenId",
          "type": "uint256"
        },
        {
          "internalType": "uint256",
          "name": "n",
          "type": "uint256"
        }
      ],
      "name": "safeMintBatch",
      "outputs": [],
      "stateMutability": "nonpayable",
      "type": "function"
    },
    {
      "inputs": [
        {
          "internalType": "address",
          "name": "_to",
          "type": "address"
        },
        {
          "internalType": "uint256",
          "name": "_tokenId",
          "type": "uint256"
        },
        {
          "internalType": "uint256",
          "name": "n",
          "type": "uint256"
        },
        {
          "internalType": "bytes",
          "name": "_data",
          "type": "bytes"
        }
      ],
      "name": "safeMintBatch",
      "outputs": [],
      "stateMutability": "nonpayable",
      "type": "function"
    },
    {
      "inputs": [
        {
          "internalType": "address",
          "name": "_from",
          "type": "address"
        },
        {
          "internalType": "address",
          "name": "_to",
          "type": "address"
        },
        {
          "internalType": "uint256",
          "name": "_tokenId",
          "type": "uint256"
        }
      ],
      "name": "safeTransferFrom",
      "outputs": [],
      "stateMutability": "nonpayable",
      "type": "function"
    },
    {
      "inputs": [
        {
          "internalType": "address",
          "name": "_from",
          "type": "address"
        },
        {
          "internalType": "address",
          "name": "_to",
          "type": "address"
        },
        {
          "internalType": "uint256",
          "name": "_tokenId",
          "type": "uint256"
        },
        {
          "internalType": "bytes",
          "name": "_data",
          "type": "bytes"
        }
      ],
      "name": "safeTransferFrom",
      "outputs": [],
      "stateMutability": "nonpayable",
      "type": "function"
    },
    {
      "inputs": [
        {
          "internalType": "address",
          "name": "_operator",
          "type": "address"
        },
        {
          "internalType": "bool",
          "name": "_approved",
          "type": "bool"
        }
      ],
      "name": "setApprovalForAll",
      "outputs": [],
      "stateMutability": "nonpayable",
      "type": "function"
    },
    {
      "inputs": [
        {
          "internalType": "string",
          "name": "_baseURI",
          "type": "string"
        }
      ],
      "name": "setBaseURI",
      "outputs": [],
      "stateMutability": "nonpayable",
      "type": "function"
    },
    {
      "inputs": [
        {
          "internalType": "string",
          "name": "_contractURI",
          "type": "string"
        }
      ],
      "name": "setContractURI",
      "outputs": [],
      "stateMutability": "nonpayable",
      "type": "function"
    },
    {
      "inputs": [
        {
          "internalType": "address",
          "name": "_royaltyReceiver",
          "type": "address"
        },
        {
          "internalType": "uint16",
          "name": "_royaltyPercentage",
          "type": "uint16"
        }
      ],
      "name": "setRoyaltyInfo",
      "outputs": [],
      "stateMutability": "nonpayable",
      "type": "function"
    },
    {
      "inputs": [
        {
          "internalType": "uint256",
          "name": "_tokenId",
          "type": "uint256"
        },
        {
          "internalType": "string",
          "name": "_tokenURI",
          "type": "string"
        }
      ],
      "name": "setTokenURI",
      "outputs": [],
      "stateMutability": "nonpayable",
      "type": "function"
    },
    {
      "inputs": [
        {
          "internalType": "bytes4",
          "name": "interfaceId",
          "type": "bytes4"
        }
      ],
      "name": "supportsInterface",
      "outputs": [
        {
          "internalType": "bool",
          "name": "",
          "type": "bool"
        }
      ],
      "stateMutability": "view",
      "type": "function"
    },
    {
      "inputs": [],
      "name": "symbol",
      "outputs": [
        {
          "internalType": "string",
          "name": "",
          "type": "string"
        }
      ],
      "stateMutability": "view",
      "type": "function"
    },
    {
      "inputs": [
        {
          "internalType": "uint256",
          "name": "_index",
          "type": "uint256"
        }
      ],
      "name": "tokenByIndex",
      "outputs": [
        {
          "internalType": "uint256",
          "name": "",
          "type": "uint256"
        }
      ],
      "stateMutability": "view",
      "type": "function"
    },
    {
      "inputs": [
        {
          "internalType": "address",
          "name": "_owner",
          "type": "address"
        },
        {
          "internalType": "uint256",
          "name": "_index",
          "type": "uint256"
        }
      ],
      "name": "tokenOfOwnerByIndex",
      "outputs": [
        {
          "internalType": "uint256",
          "name": "",
          "type": "uint256"
        }
      ],
      "stateMutability": "view",
      "type": "function"
    },
    {
      "inputs": [
        {
          "internalType": "uint256",
          "name": "_tokenId",
          "type": "uint256"
        }
      ],
      "name": "tokenURI",
      "outputs": [
        {
          "internalType": "string",
          "name": "",
          "type": "string"
        }
      ],
      "stateMutability": "view",
      "type": "function"
    },
    {
      "inputs": [],
      "name": "totalSupply",
      "outputs": [
        {
          "internalType": "uint256",
          "name": "",
          "type": "uint256"
        }
      ],
      "stateMutability": "view",
      "type": "function"
    },
    {
      "inputs": [
        {
          "internalType": "address",
          "name": "_from",
          "type": "address"
        },
        {
          "internalType": "address",
          "name": "_to",
          "type": "address"
        },
        {
          "internalType": "uint256",
          "name": "_tokenId",
          "type": "uint256"
        }
      ],
      "name": "transferFrom",
      "outputs": [],
      "stateMutability": "nonpayable",
      "type": "function"
    },
    {
      "inputs": [
        {
          "internalType": "address",
          "name": "_owner",
          "type": "address"
        }
      ],
      "name": "transferOwnership",
      "outputs": [],
      "stateMutability": "nonpayable",
      "type": "function"
    },
    {
      "inputs": [
        {
          "internalType": "uint256",
          "name": "_mask",
          "type": "uint256"
        }
      ],
      "name": "updateFeatures",
      "outputs": [],
      "stateMutability": "nonpayable",
      "type": "function"
    },
    {
      "inputs": [
        {
          "internalType": "address",
          "name": "operator",
          "type": "address"
        },
        {
          "internalType": "uint256",
          "name": "role",
          "type": "uint256"
        }
      ],
      "name": "updateRole",
      "outputs": [],
      "stateMutability": "nonpayable",
      "type": "function"
    },
    {
      "inputs": [
        {
          "internalType": "address",
          "name": "",
          "type": "address"
        }
      ],
      "name": "userRoles",
      "outputs": [
        {
          "internalType": "uint256",
          "name": "",
          "type": "uint256"
        }
      ],
      "stateMutability": "view",
      "type": "function"
    }
  ],
  "transactionHash": "0x2ad50a54ca8f81759a83fe8b302b6e1deb6069b4b4c2e93d25e99565911cf799",
  "args": [
    "Test AI Art",
    "TAI"
  ],
  "numDeployments": 1,
  "solcInputHash": "2d16238671ea51bdcca411f7d31904be",
  "bytecode": "0x60c0604052600060a09081526009906200001a908262000234565b50600c80546001600160b01b0319167502ee379e2119f6e0d6088537da82968e2a7ea178ddcf1790556040805160808101909152605080825262003acb6020830139600d906200006b908262000234565b503480156200007957600080fd5b5060405162003b1b38038062003b1b8339810160408190526200009c91620003b7565b3360009081526020819052604090206000199055818181816001620000c2838262000234565b506002620000d1828262000234565b50604080518082018252600b81526a416c69455243373231763160a81b60209182015281517f8cad95687ba82c2ce50e74f7b754645e5117c3a5bec8151c0726d5857980a866918101919091527f9db81778f201f995555fc8eeb2867a4c0457608d47c4c8fc0fc8052b03664ff69181019190915246606082015230608082015260a00160408051601f1981840301815291905280516020909101206080525050600b80546001600160a01b03191633179055506200042192505050565b634e487b7160e01b600052604160045260246000fd5b600181811c90821680620001ba57607f821691505b602082108103620001db57634e487b7160e01b600052602260045260246000fd5b50919050565b601f8211156200022f57600081815260208120601f850160051c810160208610156200020a5750805b601f850160051c820191505b818110156200022b5782815560010162000216565b5050505b505050565b81516001600160401b038111156200025057620002506200018f565b6200026881620002618454620001a5565b84620001e1565b602080601f831160018114620002a05760008415620002875750858301515b600019600386901b1c1916600185901b1785556200022b565b600085815260208120601f198616915b82811015620002d157888601518255948401946001909101908401620002b0565b5085821015620002f05787850151600019600388901b60f8161c191681555b5050505050600190811b01905550565b600082601f8301126200031257600080fd5b81516001600160401b03808211156200032f576200032f6200018f565b604051601f8301601f19908116603f011681019082821181831017156200035a576200035a6200018f565b816040528381526020925086838588010111156200037757600080fd5b600091505b838210156200039b57858201830151818301840152908201906200037c565b83821115620003ad5760008385830101525b9695505050505050565b60008060408385031215620003cb57600080fd5b82516001600160401b0380821115620003e357600080fd5b620003f18683870162000300565b935060208501519150808211156200040857600080fd5b50620004178582860162000300565b9150509250929050565b60805161368762000444600039600081816105f701526126b901526136876000f3fe608060405234801561001057600080fd5b50600436106103f15760003560e01c806374d5e10011610215578063af65e2a811610125578063d505accf116100b8578063e985e9c511610087578063e985e9c514610918578063f2fde38b1461092b578063f63c2f821461093e578063f822d5aa14610946578063fcc2c0781461095957600080fd5b8063d505accf146108e0578063d5bb7f67146108f3578063e62cac7614610906578063e8a3d4851461091057600080fd5b8063c0d6568d116100f4578063c0d6568d146108a8578063c688d693146108b0578063c87b56dd146108c3578063cc2da7ff146108d657600080fd5b8063af65e2a814610865578063b256456914610878578063b29a2f441461088b578063b88d4fde1461089557600080fd5b80639032c726116101a85780639fbc8713116101775780639fbc87131461080e578063a144819414610821578063a22cb46514610834578063ae5b102e14610847578063ae682e2e1461085a57600080fd5b80639032c726146107d8578063938e3d7b146107eb57806395d89b41146107fe57806398b622a21461080657600080fd5b80638a71bb2d116101e45780638a71bb2d1461078b5780638d4e57e6146107b35780638da5cb5b146107bd5780638f6fba8c146107d057600080fd5b806374d5e10014610728578063768bfc9a146107485780638832e6e3146107515780638a114e131461076457600080fd5b80632f745c59116103105780634f6ccce7116102a35780636352211e116102725780636352211e146106d45780636c0360eb146106e757806370a08231146106ef57806372504a2414610702578063725f36261461071557600080fd5b80634f6ccce71461067457806355f804b314610687578063585956d61461069a57806361587911146106c157600080fd5b806340c10f19116102df57806340c10f191461061957806342842e0e1461062c57806342966c681461063f5780634f558e791461065257600080fd5b80632f745c591461059e57806330adf81f146105b1578063313ce567146105d85780633644e515146105f257600080fd5b8063191d0ffc116103885780632a55205a116103575780632a55205a146105225780632b521416146105545780632e81aaea146105695780632f54bf6e1461057c57600080fd5b8063191d0ffc146104c05780631a0b04ea146104e057806320606b70146104e857806323b872dd1461050f57600080fd5b80630dc5b424116103c45780630dc5b4241461047357806314b7b4e114610491578063162094c41461049b57806318160ddd146104ae57600080fd5b806301ffc9a7146103f657806306fdde031461041e578063081812fc14610433578063095ea7b31461045e575b600080fd5b610409610404366004612c64565b61096c565b60405190151581526020015b60405180910390f35b610426610997565b6040516104159190612cd9565b610446610441366004612cec565b610a25565b6040516001600160a01b039091168152602001610415565b61047161046c366004612d21565b610a75565b005b61047c61020081565b60405163ffffffff9091168152602001610415565b61047c6210000081565b6104716104a9366004612dee565b610a84565b6005545b604051908152602001610415565b6104b26104ce366004612e35565b60086020526000908152604090205481565b61047c600881565b6104b27f8cad95687ba82c2ce50e74f7b754645e5117c3a5bec8151c0726d5857980a86681565b61047161051d366004612e50565b610b14565b610535610530366004612e8c565b610dd6565b604080516001600160a01b039093168352602083019190915201610415565b306000908152602081905260409020546104b2565b610471610577366004612eae565b610e17565b61040961058a366004612e35565b600b546001600160a01b0391821691161490565b6104b26105ac366004612d21565b61102c565b6104b27fee2282d7affd5a432b221a559e429129347b0c19a3f102179a5fb1859eef3d2981565b6105e0600081565b60405160ff9091168152602001610415565b6104b27f000000000000000000000000000000000000000000000000000000000000000081565b610471610627366004612d21565b6110d1565b61047161063a366004612e50565b6112b8565b61047161064d366004612cec565b6112d3565b610409610660366004612cec565b600090815260036020526040902054151590565b6104b2610682366004612cec565b61146d565b610471610695366004612ee1565b6114f9565b6104b27f47ab88482c90e4bb94b82a947ae78fa91fb25de1469ab491f4c15b9a0a2677ee81565b6104716106cf366004612eae565b611571565b6104466106e2366004612cec565b61158c565b6104266115c1565b6104b26106fd366004612e35565b6115ce565b610471610710366004612f1e565b611612565b610409610723366004612cec565b611753565b6104b2610736366004612e35565b60006020819052908152604090205481565b61047c61040081565b61047161075f366004612f5c565b61176c565b6104b27f50c16d79fc64e49cf554b52a1bdf271f1a30a6999329cb1b4642bb24597f282f81565b600c546107a090600160a01b900461ffff1681565b60405161ffff9091168152602001610415565b61047c6201000081565b600b54610446906001600160a01b031681565b61047c600281565b6104716107e6366004612fd4565b611827565b6104716107f9366004612ee1565b6119af565b610426611a28565b6105e0600881565b600c54610446906001600160a01b031681565b61047161082f366004612d21565b611a35565b610471610842366004613045565b611a4f565b610471610855366004612d21565b611a5a565b6104b2600160ff1b81565b610471610873366004613078565b611afd565b610409610886366004612cec565b611be6565b61047c6220000081565b6104716108a33660046130d9565b611c19565b61047c600181565b6104096108be366004612d21565b611cd5565b6104266108d1366004612cec565b611cfa565b61047c6240000081565b6104716108ee366004613129565b611e9b565b610471610901366004612cec565b611ffb565b61047c6202000081565b610426612008565b610409610926366004613177565b612015565b610471610939366004612e35565b612043565b61047c601081565b6104b2610954366004612eae565b612103565b610409610967366004612cec565b61212e565b60006001600160e01b0319821663152a902d60e11b148061099157506109918261213a565b92915050565b600180546109a4906131a1565b80601f01602080910402602001604051908101604052809291908181526020018280546109d0906131a1565b8015610a1d5780601f106109f257610100808354040283529160200191610a1d565b820191906000526020600020905b815481529060010190602001808311610a0057829003601f168201915b505050505081565b600081815260036020526040812054610a595760405162461bcd60e51b8152600401610a50906131db565b60405180910390fd5b506000908152600660205260409020546001600160a01b031690565b610a803383836121dc565b5050565b610a906210000061212e565b610aac5760405162461bcd60e51b8152600401610a5090613208565b6000828152600a602052604090819020905133917f7989fff0ffb34805e8b3574b890ed6157f85a384c69b9a0c04991b24cabb825991610aef91869186906132ac565b60405180910390a26000828152600a60205260409020610b0f828261332f565b505050565b6001600160a01b03831633148015610b315750610b316001611753565b80610b5557506001600160a01b0383163314801590610b555750610b556002611753565b6001600160a01b0384163314610ba0576040518060400160405280602081526020017f7472616e7366657273206f6e20626568616c66206172652064697361626c6564815250610bd0565b604051806040016040528060168152602001751d1c985b9cd9995c9cc8185c9948191a5cd8589b195960521b8152505b90610bee5760405162461bcd60e51b8152600401610a509190612cd9565b506001600160a01b038216610c155760405162461bcd60e51b8152600401610a50906133ef565b610c1e8161158c565b6001600160a01b0316836001600160a01b031614610c4e5760405162461bcd60e51b8152600401610a5090613208565b6001600160a01b038316331480610c7e5750610c6981610a25565b6001600160a01b0316336001600160a01b0316145b80610c8e5750610c8e8333612015565b610caa5760405162461bcd60e51b8152600401610a5090613208565b610cb381611be6565b610cee5760405162461bcd60e51b815260206004820152600c60248201526b3637b1b5b2b2103a37b5b2b760a11b6044820152606401610a50565b816001600160a01b0316836001600160a01b031614610d9857610d10816122d8565b6001600160a01b0382166000818152600460208181526040808420805487865260038452918520805460a09390931b63ffffffff60a01b1663ffffffff60c01b90931692909217909517905583546001810185559383529091206008830401805460079093169091026101000a63ffffffff8181021990931692841602919091179055610da2565b610da28382612436565b80826001600160a01b0316846001600160a01b031660008051602061363283398151915260405160405180910390a4505050565b600c5460009081906001600160a01b0381169061271090610e0290600160a01b900461ffff168661342b565b610e0c9190613460565b915091509250929050565b610e236201000061212e565b610e3f5760405162461bcd60e51b8152600401610a5090613208565b6001600160a01b038316610e655760405162461bcd60e51b8152600401610a50906133ef565b60018111610ea65760405162461bcd60e51b815260206004820152600e60248201526d1b881a5cc81d1bdbc81cdb585b1b60921b6044820152606401610a50565b818263ffffffff1614610eef5760405162461bcd60e51b8152602060048201526011602482015270746f6b656e204944206f766572666c6f7760781b6044820152606401610a50565b6001610efb8284613474565b610f05919061348c565b6001610f118385613474565b610f1b919061348c565b63ffffffff1614610f675760405162461bcd60e51b81526020600482015260166024820152756e2d746820746f6b656e204944206f766572666c6f7760501b6044820152606401610a50565b60005b81811015610fcf57610f7f6106608285613474565b15610fbd5760405162461bcd60e51b815260206004820152600e60248201526d185b1c9958591e481b5a5b9d195960921b6044820152606401610a50565b80610fc7816134a3565b915050610f6a565b50610fdb83838361248b565b60005b8181101561102657610ff08184613474565b6040516001600160a01b03861690600090600080516020613632833981519152908290a48061101e816134a3565b915050610fde565b50505050565b6000611037836115ce565b821061107b5760405162461bcd60e51b8152602060048201526013602482015272696e646578206f7574206f6620626f756e647360681b6044820152606401610a50565b6001600160a01b03831660009081526004602052604090208054839081106110a5576110a56134bc565b6000918252602090912060088204015460079091166004026101000a900463ffffffff16905092915050565b6110dd6201000061212e565b6110f95760405162461bcd60e51b8152600401610a5090613208565b6001600160a01b03821661111f5760405162461bcd60e51b8152600401610a50906133ef565b808163ffffffff16146111685760405162461bcd60e51b8152602060048201526011602482015270746f6b656e204944206f766572666c6f7760781b6044820152606401610a50565b600081815260036020526040902054156111b55760405162461bcd60e51b815260206004820152600e60248201526d185b1c9958591e481b5a5b9d195960921b6044820152606401610a50565b6001600160a01b03821660008181526004602081815260408084208054600580548988526003865293872060a09290921b63ffffffff60a01b1660c09490941b63ffffffff60c01b1693909317909617909555845460018082018755958552918420600880840490910180546007948516860261010090810a63ffffffff81810219909316838c169182021790935584549889018555939096527f036b6384b5eca791c62761152d0c79bb0604c104a5fb6f4eb0703f3154bb3db091870491909101805496909316909302900a92830219909316910217905560405181906001600160a01b03841690600090600080516020613632833981519152908290a45050565b610b0f83838360405180602001604052806000815250611c19565b60006112de8261158c565b90506112ec6202000061212e565b611423576001600160a01b0381163314801561130d575061130d6008611753565b8061133157506001600160a01b038116331480159061133157506113316010611753565b6001600160a01b038216331461137c576040518060400160405280601c81526020017f6275726e73206f6e20626568616c66206172652064697361626c6564000000008152506113a8565b60405180604001604052806012815260200171189d5c9b9cc8185c9948191a5cd8589b195960721b8152505b906113c65760405162461bcd60e51b8152600401610a509190612cd9565b506001600160a01b0381163314806113f757506113e282610a25565b6001600160a01b0316336001600160a01b0316145b8061140757506114078133612015565b6114235760405162461bcd60e51b8152600401610a5090613208565b61142c82612550565b6000828152600a6020526040812061144391612c00565b60405182906000906001600160a01b03841690600080516020613632833981519152908390a45050565b600061147860055490565b82106114bc5760405162461bcd60e51b8152602060048201526013602482015272696e646578206f7574206f6620626f756e647360681b6044820152606401610a50565b600582815481106114cf576114cf6134bc565b6000918252602090912060088204015460079091166004026101000a900463ffffffff1692915050565b6115056210000061212e565b6115215760405162461bcd60e51b8152600401610a5090613208565b336001600160a01b03167fac455070f26733cc10c09e4389a74bf73bdb676d730ee31215c31d20daa8800560098360405161155d9291906134d2565b60405180910390a26009610a80828261332f565b610b0f83838360405180602001604052806000815250611afd565b6000818152600360205260408120546001600160a01b0381166109915760405162461bcd60e51b8152600401610a50906131db565b600980546109a4906131a1565b60006001600160a01b0382166115f65760405162461bcd60e51b8152600401610a50906133ef565b506001600160a01b031660009081526004602052604090205490565b61161e6220000061212e565b61163a5760405162461bcd60e51b8152600401610a5090613208565b6001600160a01b038216151580611653575061ffff8116155b6116925760405162461bcd60e51b815260206004820152601060248201526f34b73b30b634b2103932b1b2b4bb32b960811b6044820152606401610a50565b6127108161ffff1611156116e85760405162461bcd60e51b815260206004820152601f60248201527f726f79616c74792070657263656e7461676520657863656564732031303025006044820152606401610a50565b600c80546001600160a01b0384166001600160b01b03199091168117600160a01b61ffff8516908102919091179092556040519182529033907f9ca088b6b695032bcd5d1fa450e8fa2773391294f09e3710ace940c4ae8cffac906020015b60405180910390a35050565b3060009081526020819052604081205482168214610991565b61177683836110d1565b823b15610b0f57604051630a85bd0160e11b81526000906001600160a01b0385169063150b7a02906117b29033908590889088906004016134f7565b6020604051808303816000875af11580156117d1573d6000803e3d6000fd5b505050506040513d601f19601f820116820180604052508101906117f5919061352a565b90506001600160e01b03198116630a85bd0160e11b146110265760405162461bcd60e51b8152600401610a5090613547565b611832610400611753565b61187e5760405162461bcd60e51b815260206004820152601d60248201527f6f70657261746f72207065726d697473206172652064697361626c65640000006044820152606401610a50565b6001600160a01b03871660009081526008602052604081208054611924917f47ab88482c90e4bb94b82a947ae78fa91fb25de1469ab491f4c15b9a0a2677ee918b918b918b91876118ce836134a3565b909155506040805160208101969096526001600160a01b03948516908601529290911660608401521515608083015260a082015260c0810187905260e0015b60405160208183030381529060405285858561269c565b9050876001600160a01b0316816001600160a01b0316146119575760405162461bcd60e51b8152600401610a5090613588565b84421061199a5760405162461bcd60e51b81526020600482015260116024820152701cda59db985d1d5c9948195e1c1a5c9959607a1b6044820152606401610a50565b6119a588888861271e565b5050505050505050565b6119bb6210000061212e565b6119d75760405162461bcd60e51b8152600401610a5090613208565b600d6119e3828261332f565b50336001600160a01b03167f1ca91f64ead03abb06ea28975dfbf18044ac06f9fa1cb62a54ccc905df1028ed82604051611a1d9190612cd9565b60405180910390a250565b600280546109a4906131a1565b610a8082826040518060200160405280600081525061176c565b610a8033838361271e565b611a67600160ff1b61212e565b611a835760405162461bcd60e51b8152600401610a5090613208565b6001600160a01b038216600090815260208190526040902054611aa890339083612103565b6001600160a01b03831660008181526020818152604091829020849055815185815290810193909352909133917f5a10526456f5116c0b7b80582c217d666243fd51b6a2d92c8011e601c2462e5f9101611747565b611b08848484610e17565b833b156110265760005b82811015611bdf5760006001600160a01b03861663150b7a023383611b37868a613474565b876040518563ffffffff1660e01b8152600401611b5794939291906134f7565b6020604051808303816000875af1158015611b76573d6000803e3d6000fd5b505050506040513d601f19601f82011682018060405250810190611b9a919061352a565b90506001600160e01b03198116630a85bd0160e11b14611bcc5760405162461bcd60e51b8152600401610a5090613547565b5080611bd7816134a3565b915050611b12565b5050505050565b600081815260036020526040812054611c115760405162461bcd60e51b8152600401610a50906131db565b506001919050565b611c24848484610b14565b823b1561102657604051630a85bd0160e11b81526000906001600160a01b0385169063150b7a0290611c609033908990889088906004016134f7565b6020604051808303816000875af1158015611c7f573d6000803e3d6000fd5b505050506040513d601f19601f82011682018060405250810190611ca3919061352a565b90506001600160e01b03198116630a85bd0160e11b14611bdf5760405162461bcd60e51b8152600401610a5090613547565b6001600160a01b038216600090815260208190526040812054821682145b9392505050565b600081815260036020526040902054606090611d285760405162461bcd60e51b8152600401610a50906131db565b6000828152600a602052604081208054611d41906131a1565b80601f0160208091040260200160405190810160405280929190818152602001828054611d6d906131a1565b8015611dba5780601f10611d8f57610100808354040283529160200191611dba565b820191906000526020600020905b815481529060010190602001808311611d9d57829003601f168201915b50505050509050600081511115611dd15792915050565b60098054611dde906131a1565b9050600003611dfd575050604080516020810190915260008152919050565b611cf360098054611e0d906131a1565b80601f0160208091040260200160405190810160405280929190818152602001828054611e39906131a1565b8015611e865780601f10611e5b57610100808354040283529160200191611e86565b820191906000526020600020905b815481529060010190602001808311611e6957829003601f168201915b5050505050611e9685600a6127dc565b6129c2565b611ea6610200611753565b611ee95760405162461bcd60e51b81526020600482015260146024820152731c195c9b5a5d1cc8185c9948191a5cd8589b195960621b6044820152606401610a50565b6001600160a01b03871660009081526008602052604081208054611f7a917fee2282d7affd5a432b221a559e429129347b0c19a3f102179a5fb1859eef3d29918b918b918b9187611f39836134a3565b909155506040805160208101969096526001600160a01b0394851690860152929091166060840152608083015260a082015260c0810187905260e00161190d565b9050876001600160a01b0316816001600160a01b031614611fad5760405162461bcd60e51b8152600401610a5090613588565b844210611ff05760405162461bcd60e51b81526020600482015260116024820152701cda59db985d1d5c9948195e1c1a5c9959607a1b6044820152606401610a50565b6119a58888886121dc565b6120053082611a5a565b50565b600d80546109a4906131a1565b6001600160a01b03918216600090815260076020908152604080832093909416825291909152205460ff1690565b61204f6240000061212e565b61206b5760405162461bcd60e51b8152600401610a5090613208565b600b546040516001600160a01b0380841692169033907fb9312e2100469bd44e3f762c248f4dcc8d7788906fabf34f79db45920c37e26990600090a4600b546040516001600160a01b038084169216907f8be0079c531659141344cd1fd0a4f28419497f9722a3daafe3b4186f6b6457e090600090a3600b80546001600160a01b0319166001600160a01b0392909216919091179055565b6001600160a01b03929092166000908152602081905260409020546000198084188216189216171690565b60006109913383611cd5565b60006001600160e01b031982166301ffc9a760e01b148061216b57506001600160e01b031982166380ac58cd60e01b145b8061218657506001600160e01b03198216635b5e139f60e01b145b806121a157506001600160e01b0319821663780e9d6360e01b145b806121bc57506001600160e01b03198216633197b5d160e21b145b8061099157506001600160e01b03198216630852cd8d60e31b1492915050565b60006121e78261158c565b9050806001600160a01b0316836001600160a01b03160361223a5760405162461bcd60e51b815260206004820152600d60248201526c1cd95b1988185c1c1c9bdd985b609a1b6044820152606401610a50565b806001600160a01b0316846001600160a01b0316148061225f575061225f8185612015565b61227b5760405162461bcd60e51b8152600401610a5090613208565b60008281526006602052604080822080546001600160a01b0319166001600160a01b0387811691821790925591518593918516917f8c5be1e5ebec7d5bd14f71427d1e84f3dd0314c0f7b2291e5b200ac8c7c3b92591a450505050565b6000818152600360209081526040808320546001600160a01b03811684526004909252822080549192909160a084901c919083906123189060019061348c565b81548110612328576123286134bc565b90600052602060002090600891828204019190066004029054906101000a900463ffffffff16905060018380549050612361919061348c565b8263ffffffff16146123f25763ffffffff81811660009081526003602052604090208054600167ffffffff0000000160a01b031663ffffffff60a01b60a086901b161790558354829185919085169081106123be576123be6134bc565b90600052602060002090600891828204019190066004026101000a81548163ffffffff021916908363ffffffff1602179055505b82805480612402576124026135b3565b600082815260209020600860001990920191820401805463ffffffff600460078516026101000a02191690559055611bdf84865b60008181526006602052604080822080546001600160a01b0319169055518291906001600160a01b038516907f8c5be1e5ebec7d5bd14f71427d1e84f3dd0314c0f7b2291e5b200ac8c7c3b925908390a45050565b6001600160a01b0383166000908152600460205260408120905b828110156125385781546001600160a01b0386169060a0906124c8908490613474565b6001600160c01b0316901b6001600160c01b031660c0836005805490506124ef9190613474565b6001600160e01b0316901b17176001600160e01b03166003600083876125159190613474565b815260208101919091526040016000205580612530816134a3565b9150506124a5565b506125448184846129ee565b611026600584846129ee565b612559816122d8565b60008181526003602052604081208054908290556005805460c09290921c92916125859060019061348c565b81548110612595576125956134bc565b90600052602060002090600891828204019190066004029054906101000a900463ffffffff16905060016005805490506125cf919061348c565b8263ffffffff16146126585763ffffffff818116600090815260036020526040902080546001600160c01b031663ffffffff60c01b60c086901b161790556005805483928516908110612624576126246134bc565b90600052602060002090600891828204019190066004026101000a81548163ffffffff021916908363ffffffff1602179055505b6005805480612669576126696135b3565b600082815260209020600860001990920191820401805463ffffffff600460078516026101000a02191690559055505050565b835160208086019190912060405161190160f01b928101929092527f00000000000000000000000000000000000000000000000000000000000000006022830152604282018190526000918290606201604051602081830303815290604052805190602001209050600061271282888888612aa6565b98975050505050505050565b826001600160a01b0316826001600160a01b03160361276f5760405162461bcd60e51b815260206004820152600d60248201526c1cd95b1988185c1c1c9bdd985b609a1b6044820152606401610a50565b6001600160a01b03838116600081815260076020908152604080832094871680845294825291829020805460ff191686151590811790915591519182527f17307eab39ab6107e8899845ad3d59bd9653f200f220920489ca2b5937696c31910160405180910390a3505050565b60608160ff16600214806127f357508160ff166008145b8061280157508160ff16600a145b8061280f57508160ff166010145b61281857600080fd5b8260000361283e57506040805180820190915260018152600360fc1b6020820152610991565b60408051610100808252610120820190925260009160208201818036833701905050905060005b84156128f357600061287a60ff8616876135c9565b905060006128898260306135dd565b9050600a8260ff16106128a4576128a16007826135dd565b90505b8060f81b8484806128b4906134a3565b9550815181106128c6576128c66134bc565b60200101906001600160f81b031916908160001a9053506128ea60ff871688613460565b96505050612865565b60008167ffffffffffffffff81111561290e5761290e612d4b565b6040519080825280601f01601f191660200182016040528015612938576020820181803683370190505b509050600091505b80518210156129b95782828151811061295b5761295b6134bc565b602001015160f81c60f81b816001848451612976919061348c565b612980919061348c565b81518110612990576129906134bc565b60200101906001600160f81b031916908160001a905350816129b1816134a3565b925050612940565b95945050505050565b606082826040516020016129d7929190613602565b604051602081830303815290604052905092915050565b82548181018455836000526008810460206000200160088206915081151915612a53578160080383811115612a205750825b815460005b82811015612a44578681018582016020021b9190911790600101612a25565b50825593840193909203916001015b600091505b82821015611bdf57600883811115612a6d5750825b6000805b82811015612a90578481018701602082021b9190911790600101612a71565b5080600885048401555050600882019150612a58565b60007f7fffffffffffffffffffffffffffffff5d576e7357a4501ddfe92f46681b20a0821115612b185760405162461bcd60e51b815260206004820152601b60248201527f696e76616c6964207369676e6174757265202773272076616c756500000000006044820152606401610a50565b8360ff16601b1480612b2d57508360ff16601c145b612b795760405162461bcd60e51b815260206004820152601b60248201527f696e76616c6964207369676e6174757265202776272076616c756500000000006044820152606401610a50565b6040805160008082526020820180845288905260ff871692820192909252606081018590526080810184905260019060a0016020604051602081039080840390855afa158015612bcd573d6000803e3d6000fd5b5050604051601f1901519150506001600160a01b0381166129b95760405162461bcd60e51b8152600401610a5090613588565b508054612c0c906131a1565b6000825580601f10612c1c575050565b601f01602090049060005260206000209081019061200591905b80821115612c4a5760008155600101612c36565b5090565b6001600160e01b03198116811461200557600080fd5b600060208284031215612c7657600080fd5b8135611cf381612c4e565b60005b83811015612c9c578181015183820152602001612c84565b838111156110265750506000910152565b60008151808452612cc5816020860160208601612c81565b601f01601f19169290920160200192915050565b602081526000611cf36020830184612cad565b600060208284031215612cfe57600080fd5b5035919050565b80356001600160a01b0381168114612d1c57600080fd5b919050565b60008060408385031215612d3457600080fd5b612d3d83612d05565b946020939093013593505050565b634e487b7160e01b600052604160045260246000fd5b600082601f830112612d7257600080fd5b813567ffffffffffffffff80821115612d8d57612d8d612d4b565b604051601f8301601f19908116603f01168101908282118183101715612db557612db5612d4b565b81604052838152866020858801011115612dce57600080fd5b836020870160208301376000602085830101528094505050505092915050565b60008060408385031215612e0157600080fd5b82359150602083013567ffffffffffffffff811115612e1f57600080fd5b612e2b85828601612d61565b9150509250929050565b600060208284031215612e4757600080fd5b611cf382612d05565b600080600060608486031215612e6557600080fd5b612e6e84612d05565b9250612e7c60208501612d05565b9150604084013590509250925092565b60008060408385031215612e9f57600080fd5b50508035926020909101359150565b600080600060608486031215612ec357600080fd5b612ecc84612d05565b95602085013595506040909401359392505050565b600060208284031215612ef357600080fd5b813567ffffffffffffffff811115612f0a57600080fd5b612f1684828501612d61565b949350505050565b60008060408385031215612f3157600080fd5b612f3a83612d05565b9150602083013561ffff81168114612f5157600080fd5b809150509250929050565b600080600060608486031215612f7157600080fd5b612f7a84612d05565b925060208401359150604084013567ffffffffffffffff811115612f9d57600080fd5b612fa986828701612d61565b9150509250925092565b80358015158114612d1c57600080fd5b803560ff81168114612d1c57600080fd5b600080600080600080600060e0888a031215612fef57600080fd5b612ff888612d05565b965061300660208901612d05565b955061301460408901612fb3565b94506060880135935061302960808901612fc3565b925060a0880135915060c0880135905092959891949750929550565b6000806040838503121561305857600080fd5b61306183612d05565b915061306f60208401612fb3565b90509250929050565b6000806000806080858703121561308e57600080fd5b61309785612d05565b93506020850135925060408501359150606085013567ffffffffffffffff8111156130c157600080fd5b6130cd87828801612d61565b91505092959194509250565b600080600080608085870312156130ef57600080fd5b6130f885612d05565b935061310660208601612d05565b925060408501359150606085013567ffffffffffffffff8111156130c157600080fd5b600080600080600080600060e0888a03121561314457600080fd5b61314d88612d05565b965061315b60208901612d05565b9550604088013594506060880135935061302960808901612fc3565b6000806040838503121561318a57600080fd5b61319383612d05565b915061306f60208401612d05565b600181811c908216806131b557607f821691505b6020821081036131d557634e487b7160e01b600052602260045260246000fd5b50919050565b6020808252601390820152721d1bdad95b88191bd95cdb89dd08195e1a5cdd606a1b604082015260600190565b6020808252600d908201526c1858d8d95cdcc819195b9a5959609a1b604082015260600190565b6000815461323c816131a1565b8085526020600183811680156132595760018114613273576132a1565b60ff1985168884015283151560051b8801830195506132a1565b866000528260002060005b858110156132995781548a820186015290830190840161327e565b890184019650505b505050505092915050565b8381526060602082015260006132c5606083018561322f565b82810360408401526132d78185612cad565b9695505050505050565b601f821115610b0f57600081815260208120601f850160051c810160208610156133085750805b601f850160051c820191505b8181101561332757828155600101613314565b505050505050565b815167ffffffffffffffff81111561334957613349612d4b565b61335d8161335784546131a1565b846132e1565b602080601f831160018114613392576000841561337a5750858301515b600019600386901b1c1916600185901b178555613327565b600085815260208120601f198616915b828110156133c1578886015182559484019460019091019084016133a2565b50858210156133df5787850151600019600388901b60f8161c191681555b5050505050600190811b01905550565b6020808252600c908201526b7a65726f206164647265737360a01b604082015260600190565b634e487b7160e01b600052601160045260246000fd5b600081600019048311821515161561344557613445613415565b500290565b634e487b7160e01b600052601260045260246000fd5b60008261346f5761346f61344a565b500490565b6000821982111561348757613487613415565b500190565b60008282101561349e5761349e613415565b500390565b6000600182016134b5576134b5613415565b5060010190565b634e487b7160e01b600052603260045260246000fd5b6040815260006134e5604083018561322f565b82810360208401526129b98185612cad565b6001600160a01b03858116825284166020820152604081018390526080606082018190526000906132d790830184612cad565b60006020828403121561353c57600080fd5b8151611cf381612c4e565b60208082526021908201527f696e76616c6964206f6e455243373231526563656976656420726573706f6e736040820152606560f81b606082015260800190565b602080825260119082015270696e76616c6964207369676e617475726560781b604082015260600190565b634e487b7160e01b600052603160045260246000fd5b6000826135d8576135d861344a565b500690565b600060ff821660ff84168060ff038211156135fa576135fa613415565b019392505050565b60008351613614818460208801612c81565b835190830190613628818360208801612c81565b0194935050505056feddf252ad1be2c89b69c2b068fc378daa952ba7f163c4a11628f55a4df523b3efa2646970667358221220be507ee3a28de81dcbb39ef33a36fc59c3b817824f9a00a183c691643ff7819d64736f6c634300080f003368747470733a2f2f676174657761792e70696e6174612e636c6f75642f697066732f516d5539327738694b7063616162436f7948744d6737696976574771573267573168674152447471436d4a555776",
  "devdoc": {
    "author": "Basil Gorin",
    "details": "Whitelabel NFT is a Tiny ERC721, it supports minting and burning,      its token ID space is limited to 32 bitsWhitelabel NFT supports EIP-2981 royalties on NFT secondary sales,      and OpenSea royalties",
    "kind": "dev",
    "methods": {
      "approve(address,uint256)": {
        "details": "The zero address indicates there is no approved address.  Throws unless `msg.sender` is the current NFT owner, or an authorized  operator of the current owner.",
        "params": {
          "_approved": "The new approved NFT controller",
          "_tokenId": "The NFT to approve"
        }
      },
      "balanceOf(address)": {
        "details": "NFTs assigned to the zero address are considered invalid, and this  function throws for queries about the zero address.",
        "params": {
          "_owner": "An address for whom to query the balance"
        },
        "returns": {
          "_0": "The number of NFTs owned by `_owner`, possibly zero"
        }
      },
      "burn(uint256)": {
        "details": "Destroys the token with token ID specifiedRequires executor to have `ROLE_TOKEN_DESTROYER` permission      or FEATURE_OWN_BURNS/FEATURE_BURNS_ON_BEHALF features to be enabledCan be disabled by the contract creator forever by disabling      FEATURE_OWN_BURNS/FEATURE_BURNS_ON_BEHALF features and then revoking      its own roles to burn tokens and to enable burning features",
        "params": {
          "_tokenId": "ID of the token to burn"
        }
      },
      "constructor": {
        "details": "Constructs/deploys Whitelabel NFT instance      with the name and symbol defined during the deployment"
      },
      "evaluateBy(address,uint256,uint256)": {
        "details": "Calculated based on:      1) operator's own permission set read from userRoles[operator]      2) target permission set - what is already set on the target      3) desired permission set - what do we want set target toCorner cases:      1) Operator is super admin and its permission set is `FULL_PRIVILEGES_MASK`:        `desired` bitset is returned regardless of the `target` permission set value        (what operator sets is what they get)      2) Operator with no permissions (zero bitset):        `target` bitset is returned regardless of the `desired` value        (operator has no authority and cannot modify anything)Example:      Consider an operator with the permissions bitmask     00001111      is about to modify the target permission set          01010101      Operator wants to set that permission set to          00110011      Based on their role, an operator has the permissions      to update only lowest 4 bits on the target, meaning that      high 4 bits of the target set in this example is left      unchanged and low 4 bits get changed as desired:      01010011",
        "params": {
          "desired": "desired set of permissions operator would like to set",
          "operator": "address of the contract operator which is about to set the permissions",
          "target": "input set of permissions to operator is going to modify"
        },
        "returns": {
          "_0": "resulting set of permissions given operator will set"
        }
      },
      "exists(uint256)": {
        "details": "Returns whether the specified token ID has an ownership      information associated with it",
        "params": {
          "_tokenId": "ID of the token to query existence for"
        },
        "returns": {
          "_0": "whether the token exists (true - exists, false - doesn't exist)"
        }
      },
      "features()": {
        "details": "Effectively reads userRoles role for the contract itself",
        "returns": {
          "_0": "256-bit bitmask of the features enabled"
        }
      },
      "getApproved(uint256)": {
        "details": "Throws if `_tokenId` is not a valid NFT.",
        "params": {
          "_tokenId": "The NFT to find the approved address for"
        },
        "returns": {
          "_0": "The approved address for this NFT, or the zero address if there is none"
        }
      },
      "isApprovedForAll(address,address)": {
        "params": {
          "_operator": "The address that acts on behalf of the owner",
          "_owner": "The address that owns the NFTs"
        },
        "returns": {
          "_0": "True if `_operator` is an approved operator for `_owner`, false otherwise"
        }
      },
      "isFeatureEnabled(uint256)": {
        "params": {
          "required": "set of features to check against"
        },
        "returns": {
          "_0": "true if all the features requested are enabled, false otherwise"
        }
      },
      "isOperatorInRole(address,uint256)": {
        "params": {
          "operator": "address of the user to check role for",
          "required": "set of permissions (role) to check"
        },
        "returns": {
          "_0": "true if all the permissions requested are enabled, false otherwise"
        }
      },
      "isOwner(address)": {
        "returns": {
          "_0": "true if the caller is the current owner."
        }
      },
      "isSenderInRole(uint256)": {
        "params": {
          "required": "set of permissions (role) to check against"
        },
        "returns": {
          "_0": "true if all the permissions requested are enabled, false otherwise"
        }
      },
      "isTransferable(uint256)": {
        "details": "Verifies if token is transferable (i.e. can change ownership, allowed to be transferred);      The default behaviour is to always allow transfer if token existsImplementations may modify the default behaviour based on token metadata      if required",
        "params": {
          "_tokenId": "ID of the token to check if it's transferable"
        },
        "returns": {
          "_0": "true if token is transferable, false otherwise"
        }
      },
      "mint(address,uint256)": {
        "details": "Creates new token with token ID specified      and assigns an ownership `_to` for this tokenUnsafe: doesn't execute `onERC721Received` on the receiver.      Prefer the use of `saveMint` instead of `mint`.Requires executor to have `ROLE_TOKEN_CREATOR` permission",
        "params": {
          "_to": "an address to mint token to",
          "_tokenId": "ID of the token to mint"
        }
      },
      "mintBatch(address,uint256,uint256)": {
        "details": "Creates new tokens starting with token ID specified      and assigns an ownership `_to` for these tokensToken IDs to be minted: [_tokenId, _tokenId + n)n must be greater or equal 2: `n > 1`Unsafe: doesn't execute `onERC721Received` on the receiver.      Prefer the use of `saveMintBatch` instead of `mintBatch`.Requires executor to have `ROLE_TOKEN_CREATOR` permission",
        "params": {
          "_to": "an address to mint tokens to",
          "_tokenId": "ID of the first token to mint",
          "n": "how many tokens to mint, sequentially increasing the _tokenId"
        }
      },
      "ownerOf(uint256)": {
        "details": "NFTs assigned to zero address are considered invalid, and queries  about them do throw.",
        "params": {
          "_tokenId": "The identifier for an NFT"
        },
        "returns": {
          "_0": "The address of the owner of the NFT"
        }
      },
      "permit(address,address,uint256,uint256,uint8,bytes32,bytes32)": {
        "details": "Executes approve(_operator, _tokenId) on behalf of the token owner      who EIP-712 signed the transaction, i.e. as if transaction sender is the EIP712 signerSets the `_tokenId` as the allowance of `_operator` over `_owner` token,      given `_owner` EIP-712 signed approvalEmits `Approval` event in the same way as `approve` doesRequires:     - `_operator` to be non-zero address     - `_exp` to be a timestamp in the future     - `v`, `r` and `s` to be a valid `secp256k1` signature from `_owner`        over the EIP712-formatted function arguments.     - the signature to use `_owner` current nonce (see `permitNonces`).For more information on the signature format, see the      https://eips.ethereum.org/EIPS/eip-2612#specification",
        "params": {
          "_exp": "signature expiration time (unix timestamp)",
          "_operator": "new approved NFT controller",
          "_owner": "owner of the token to set approval on behalf of,      an address which signed the EIP-712 message",
          "_tokenId": "token ID to approve",
          "r": "half of the ECDSA signature pair",
          "s": "half of the ECDSA signature pair",
          "v": "the recovery byte of the signature"
        }
      },
      "permitForAll(address,address,bool,uint256,uint8,bytes32,bytes32)": {
        "details": "Executes setApprovalForAll(_operator, _approved) on behalf of the owner      who EIP-712 signed the transaction, i.e. as if transaction sender is the EIP712 signerSets the `_operator` as the token operator for `_owner` tokens,      given `_owner` EIP-712 signed approvalEmits `ApprovalForAll` event in the same way as `setApprovalForAll` doesRequires:     - `_operator` to be non-zero address     - `_exp` to be a timestamp in the future     - `v`, `r` and `s` to be a valid `secp256k1` signature from `_owner`        over the EIP712-formatted function arguments.     - the signature to use `_owner` current nonce (see `permitNonces`).For more information on the signature format, see the      https://eips.ethereum.org/EIPS/eip-2612#specification",
        "params": {
          "_approved": "true if the operator is approved, false to revoke approval",
          "_exp": "signature expiration time (unix timestamp)",
          "_operator": "an address to add to the set of authorized operators, i.e.      an address approved by the token owner to spend tokens on its behalf",
          "_owner": "owner of the tokens to set approval on behalf of,      an address which signed the EIP-712 message",
          "r": "half of the ECDSA signature pair",
          "s": "half of the ECDSA signature pair",
          "v": "the recovery byte of the signature"
        }
      },
      "royaltyInfo(uint256,uint256)": {
        "params": {
          "_salePrice": "- the sale price of the NFT asset specified by _tokenId",
          "_tokenId": "- the NFT asset queried for royalty information"
        },
        "returns": {
          "receiver": "- address of who should be sent the royalty payment",
          "royaltyAmount": "- the royalty payment amount for _salePrice"
        }
      },
      "safeMint(address,uint256)": {
        "details": "Creates new token with token ID specified      and assigns an ownership `_to` for this tokenChecks if `_to` is a smart contract (code size > 0). If so, it calls      `onERC721Received` on `_to` and throws if the return value is not      `bytes4(keccak256(\"onERC721Received(address,address,uint256,bytes)\"))`.Requires executor to have `ROLE_TOKEN_CREATOR` permission",
        "params": {
          "_to": "an address to mint token to",
          "_tokenId": "ID of the token to mint"
        }
      },
      "safeMint(address,uint256,bytes)": {
        "details": "Creates new token with token ID specified      and assigns an ownership `_to` for this tokenChecks if `_to` is a smart contract (code size > 0). If so, it calls      `onERC721Received` on `_to` and throws if the return value is not      `bytes4(keccak256(\"onERC721Received(address,address,uint256,bytes)\"))`.Requires executor to have `ROLE_TOKEN_CREATOR` permission",
        "params": {
          "_data": "additional data with no specified format, sent in call to `_to`",
          "_to": "an address to mint token to",
          "_tokenId": "ID of the token to mint"
        }
      },
      "safeMintBatch(address,uint256,uint256)": {
        "details": "Creates new tokens starting with token ID specified      and assigns an ownership `_to` for these tokensToken IDs to be minted: [_tokenId, _tokenId + n)n must be greater or equal 2: `n > 1`Checks if `_to` is a smart contract (code size > 0). If so, it calls      `onERC721Received` on `_to` and throws if the return value is not      `bytes4(keccak256(\"onERC721Received(address,address,uint256,bytes)\"))`.Requires executor to have `ROLE_TOKEN_CREATOR` permission",
        "params": {
          "_to": "an address to mint token to",
          "_tokenId": "ID of the token to mint",
          "n": "how many tokens to mint, sequentially increasing the _tokenId"
        }
      },
      "safeMintBatch(address,uint256,uint256,bytes)": {
        "details": "Creates new tokens starting with token ID specified      and assigns an ownership `_to` for these tokensToken IDs to be minted: [_tokenId, _tokenId + n)n must be greater or equal 2: `n > 1`Checks if `_to` is a smart contract (code size > 0). If so, it calls      `onERC721Received` on `_to` and throws if the return value is not      `bytes4(keccak256(\"onERC721Received(address,address,uint256,bytes)\"))`.Requires executor to have `ROLE_TOKEN_CREATOR` permission",
        "params": {
          "_data": "additional data with no specified format, sent in call to `_to`",
          "_to": "an address to mint token to",
          "_tokenId": "ID of the token to mint",
          "n": "how many tokens to mint, sequentially increasing the _tokenId"
        }
      },
      "safeTransferFrom(address,address,uint256)": {
        "details": "This works identically to the other function with an extra data parameter,  except this function just sets data to \"\".",
        "params": {
          "_from": "The current owner of the NFT",
          "_to": "The new owner",
          "_tokenId": "The NFT to transfer"
        }
      },
      "safeTransferFrom(address,address,uint256,bytes)": {
        "details": "Throws unless `msg.sender` is the current owner, an authorized  operator, or the approved address for this NFT. Throws if `_from` is  not the current owner. Throws if `_to` is the zero address. Throws if  `_tokenId` is not a valid NFT. When transfer is complete, this function  checks if `_to` is a smart contract (code size > 0). If so, it calls  `onERC721Received` on `_to` and throws if the return value is not  `bytes4(keccak256(\"onERC721Received(address,address,uint256,bytes)\"))`.",
        "params": {
          "_data": "Additional data with no specified format, sent in call to `_to`",
          "_from": "The current owner of the NFT",
          "_to": "The new owner",
          "_tokenId": "The NFT to transfer"
        }
      },
      "setApprovalForAll(address,bool)": {
        "details": "Emits the ApprovalForAll event. The contract MUST allow  multiple operators per owner.",
        "params": {
          "_approved": "True if the operator is approved, false to revoke approval",
          "_operator": "Address to add to the set of authorized operators"
        }
      },
      "setBaseURI(string)": {
        "details": "Restricted access function which updates base URI used to construct      ERC721Metadata.tokenURIRequires executor to have ROLE_URI_MANAGER permission",
        "params": {
          "_baseURI": "new base URI to set"
        }
      },
      "setContractURI(string)": {
        "details": "Restricted access function which updates the contract URIRequires executor to have ROLE_URI_MANAGER permission",
        "params": {
          "_contractURI": "new contract URI to set"
        }
      },
      "setRoyaltyInfo(address,uint16)": {
        "details": "Restricted access function which updates the royalty infoRequires executor to have ROLE_ROYALTY_MANAGER permission",
        "params": {
          "_royaltyPercentage": "new royalty percentage to set",
          "_royaltyReceiver": "new royalty receiver to set"
        }
      },
      "setTokenURI(uint256,string)": {
        "details": "Sets the token URI for the token defined by its ID",
        "params": {
          "_tokenId": "an ID of the token to set URI for",
          "_tokenURI": "token URI to set"
        }
      },
      "supportsInterface(bytes4)": {
        "details": "Interface identification is specified in ERC-165.      This function uses less than 30,000 gas.",
        "params": {
          "interfaceID": "The interface identifier, as specified in ERC-165"
        },
        "returns": {
          "_0": "`true` if the contract implements `interfaceID` and      `interfaceID` is not 0xffffffff, `false` otherwise"
        }
      },
      "tokenByIndex(uint256)": {
        "details": "Throws if `_index` >= `totalSupply()`.",
        "params": {
          "_index": "A counter less than `totalSupply()`"
        },
        "returns": {
          "_0": "The token identifier for the `_index`th NFT,  (sort order not specified)"
        }
      },
      "tokenOfOwnerByIndex(address,uint256)": {
        "details": "Throws if `_index` >= `balanceOf(_owner)` or if  `_owner` is the zero address, representing invalid NFTs.",
        "params": {
          "_index": "A counter less than `balanceOf(_owner)`",
          "_owner": "An address where we are interested in NFTs owned by them"
        },
        "returns": {
          "_0": "The token identifier for the `_index`th NFT assigned to `_owner`,   (sort order not specified)"
        }
      },
      "tokenURI(uint256)": {
        "details": "Returns token URI if it was previously set with `setTokenURI`,      otherwise constructs it as base URI + token ID"
      },
      "totalSupply()": {
        "returns": {
          "_0": "A count of valid NFTs tracked by this contract, where each one of  them has an assigned and queryable owner not equal to the zero address"
        }
      },
      "transferFrom(address,address,uint256)": {
        "details": "Throws unless `msg.sender` is the current owner, an authorized  operator, or the approved address for this NFT. Throws if `_from` is  not the current owner. Throws if `_to` is the zero address. Throws if  `_tokenId` is not a valid NFT.",
        "params": {
          "_from": "The current owner of the NFT",
          "_to": "The new owner",
          "_tokenId": "The NFT to transfer"
        }
      },
      "transferOwnership(address)": {
        "details": "Restricted access function to set smart contract \"owner\"      Note: an \"owner\" set doesn't have any authority, and cannot even update \"owner\"Requires executor to have ROLE_OWNER_MANAGER permission",
        "params": {
          "_owner": "new \"owner\" of the smart contract"
        }
      },
      "updateFeatures(uint256)": {
        "details": "Requires transaction sender to have `ROLE_ACCESS_MANAGER` permissionFunction is left for backward compatibility with older versions",
        "params": {
          "_mask": "bitmask representing a set of features to enable/disable"
        }
      },
      "updateRole(address,uint256)": {
        "details": "Setting role to zero is equivalent to removing an all permissionsSetting role to `FULL_PRIVILEGES_MASK` is equivalent to      copying senders' permissions (role) to the userRequires transaction sender to have `ROLE_ACCESS_MANAGER` permission",
        "params": {
          "operator": "address of a user to alter permissions for or zero      to alter global features of the smart contract",
          "role": "bitmask representing a set of permissions to      enable/disable for a user specified"
        }
      }
    },
    "stateVariables": {
      "TOKEN_UID": {
        "details": "Smart contract unique identifier, a random numberShould be regenerated each time smart contact source code is changed      and changes smart contract itself is to be redeployedGenerated using https://www.random.org/bytes/Example value: 0xdbdd2b4ff38a8516da0b8e7ae93288b5e2fed0c92fb051cee90ccf4e4ec9736e"
      }
    },
    "title": "Whitelabel NFT",
    "version": 1
  },
  "userdoc": {
    "kind": "user",
    "methods": {
      "DOMAIN_SEPARATOR()": {
        "notice": "EIP-712 contract's domain separator,      see https://eips.ethereum.org/EIPS/eip-712#definition-of-domainseparator"
      },
      "DOMAIN_TYPEHASH()": {
        "notice": "EIP-712 contract's domain typeHash,      see https://eips.ethereum.org/EIPS/eip-712#rationale-for-typehash"
      },
      "FEATURE_BURNS_ON_BEHALF()": {
        "notice": "Enables approved operators to burn tokens on behalf of their owners"
      },
      "FEATURE_OPERATOR_PERMITS()": {
        "notice": "Enables operator approvals on behalf (permits for all via an EIP712 signature)"
      },
      "FEATURE_OWN_BURNS()": {
        "notice": "Enables token owners to burn their own tokens"
      },
      "FEATURE_PERMITS()": {
        "notice": "Enables approvals on behalf (permits via an EIP712 signature)"
      },
      "FEATURE_TRANSFERS()": {
        "notice": "Enables ERC721 transfers of the tokens      (transfer by the token owner himself)"
      },
      "FEATURE_TRANSFERS_ON_BEHALF()": {
        "notice": "Enables ERC721 transfers on behalf      (transfer by someone else on behalf of token owner)"
      },
      "PERMIT_FOR_ALL_TYPEHASH()": {
        "notice": "EIP-712 permitForAll (EIP-2612) struct typeHash,      see https://eips.ethereum.org/EIPS/eip-712#rationale-for-typehash"
      },
      "PERMIT_TYPEHASH()": {
        "notice": "EIP-712 permit (EIP-2612) struct typeHash,      see https://eips.ethereum.org/EIPS/eip-712#rationale-for-typehash"
      },
      "ROLE_ACCESS_MANAGER()": {
        "notice": "Access manager is responsible for assigning the roles to users,      enabling/disabling global features of the smart contractAccess manager can add, remove and update user roles,      remove and update global features"
      },
      "ROLE_OWNER_MANAGER()": {
        "notice": "Owner manager is responsible for setting/updating an \"owner\" field"
      },
      "ROLE_ROYALTY_MANAGER()": {
        "notice": "Royalty manager is responsible for managing the EIP2981 royalty info"
      },
      "ROLE_TOKEN_CREATOR()": {
        "notice": "Token creator is responsible for creating (minting)      tokens to an arbitrary address"
      },
      "ROLE_TOKEN_DESTROYER()": {
        "notice": "Token destroyer is responsible for destroying (burning)      tokens owned by an arbitrary address"
      },
      "ROLE_URI_MANAGER()": {
        "notice": "URI manager is responsible for managing base URI      part of the token URI ERC721Metadata interface"
      },
      "approve(address,uint256)": {
        "notice": "Change or reaffirm the approved address for an NFT"
      },
      "balanceOf(address)": {
        "notice": "Count all NFTs assigned to an owner"
      },
      "contractURI()": {
        "notice": "Contract level metadata to define collection name, description, and royalty fees.         see https://docs.opensea.io/docs/contract-level-metadata"
      },
      "decimals()": {
        "notice": "Current implementation includes a function `decimals` that returns uint8(0)      to be more compatible with ERC-20"
      },
      "evaluateBy(address,uint256,uint256)": {
        "notice": "Determines the permission bitmask an operator can set on the      target permission setUsed to calculate the permission bitmask to be set when requested     in `updateRole` and `updateFeatures` functions"
      },
      "exists(uint256)": {
        "notice": "Checks if specified token exists"
      },
      "features()": {
        "notice": "Retrieves globally set of features enabled"
      },
      "getApproved(uint256)": {
        "notice": "Get the approved address for a single NFT"
      },
      "isApprovedForAll(address,address)": {
        "notice": "Query if an address is an authorized operator for another address"
      },
      "isFeatureEnabled(uint256)": {
        "notice": "Checks if requested set of features is enabled globally on the contract"
      },
      "isOperatorInRole(address,uint256)": {
        "notice": "Checks if operator has all the permissions (role) required"
      },
      "isOwner(address)": {
        "notice": "Checks if the address supplied is an \"owner\" of the smart contract      Note: an \"owner\" doesn't have any authority on the smart contract and is \"nominal\""
      },
      "isSenderInRole(uint256)": {
        "notice": "Checks if transaction sender `msg.sender` has all the permissions required"
      },
      "name()": {
        "notice": "ERC-20 compatible descriptive name for a collection of NFTs in this contract"
      },
      "ownerOf(uint256)": {
        "notice": "Find the owner of an NFT"
      },
      "permit(address,address,uint256,uint256,uint8,bytes32,bytes32)": {
        "notice": "Change or reaffirm the approved address for an NFT on behalf"
      },
      "permitForAll(address,address,bool,uint256,uint8,bytes32,bytes32)": {
        "notice": "Enable or disable approval for a third party (\"operator\") to manage      all of owner's assets - on behalf"
      },
      "royaltyInfo(uint256,uint256)": {
        "notice": "EIP-2981 function to calculate royalties for sales in secondary marketplaces.         see https://eips.ethereum.org/EIPS/eip-2981"
      },
      "royaltyPercentage()": {
        "notice": "Percentage of token sale price to be used for EIP-2981 royalties from secondary sales         see https://eips.ethereum.org/EIPS/eip-2981"
      },
      "royaltyReceiver()": {
        "notice": "Address to receive EIP-2981 royalties from secondary sales         see https://eips.ethereum.org/EIPS/eip-2981"
      },
      "safeTransferFrom(address,address,uint256)": {
        "notice": "Transfers the ownership of an NFT from one address to another address"
      },
      "safeTransferFrom(address,address,uint256,bytes)": {
        "notice": "Transfers the ownership of an NFT from one address to another address"
      },
      "setApprovalForAll(address,bool)": {
        "notice": "Enable or disable approval for a third party (\"operator\") to manage  all of `msg.sender`'s assets"
      },
      "supportsInterface(bytes4)": {
        "notice": "Query if a contract implements an interface"
      },
      "symbol()": {
        "notice": "ERC-20 compatible abbreviated name for a collection of NFTs in this contract"
      },
      "tokenByIndex(uint256)": {
        "notice": "Enumerate valid NFTs"
      },
      "tokenOfOwnerByIndex(address,uint256)": {
        "notice": "Enumerate NFTs assigned to an owner"
      },
      "tokenURI(uint256)": {
        "notice": "A distinct Uniform Resource Identifier (URI) for a given asset."
      },
      "totalSupply()": {
        "notice": "Count NFTs tracked by this contract"
      },
      "transferFrom(address,address,uint256)": {
        "notice": "Transfer ownership of an NFT -- THE CALLER IS RESPONSIBLE  TO CONFIRM THAT `_to` IS CAPABLE OF RECEIVING NFTS OR ELSE  THEY MAY BE PERMANENTLY LOST"
      },
      "updateFeatures(uint256)": {
        "notice": "Updates set of the globally enabled features (`features`),      taking into account sender's permissions"
      },
      "updateRole(address,uint256)": {
        "notice": "Updates set of permissions (role) for a given user,      taking into account sender's permissions."
      },
      "userRoles(address)": {
        "notice": "Privileged addresses with defined roles/permissionsIn the context of ERC20/ERC721 tokens these can be permissions to      allow minting or burning tokens, transferring on behalf and so on"
      }
    },
    "notice": "Whitelabel NFT is a non-upgradeable ERC721 standard implementation",
    "version": 1
  },
  "storageLayout": {
    "storage": [
      {
        "astId": 22239,
        "contract": "contracts/token/WhitelabelNFT.sol:WhitelabelNFT",
        "label": "userRoles",
        "offset": 0,
        "slot": "0",
        "type": "t_mapping(t_address,t_uint256)"
      },
      {
        "astId": 20401,
        "contract": "contracts/token/WhitelabelNFT.sol:WhitelabelNFT",
        "label": "name",
        "offset": 0,
        "slot": "1",
        "type": "t_string_storage"
      },
      {
        "astId": 20405,
        "contract": "contracts/token/WhitelabelNFT.sol:WhitelabelNFT",
        "label": "symbol",
        "offset": 0,
        "slot": "2",
        "type": "t_string_storage"
      },
      {
        "astId": 20414,
        "contract": "contracts/token/WhitelabelNFT.sol:WhitelabelNFT",
        "label": "tokens",
        "offset": 0,
        "slot": "3",
        "type": "t_mapping(t_uint256,t_uint256)"
      },
      {
        "astId": 20420,
        "contract": "contracts/token/WhitelabelNFT.sol:WhitelabelNFT",
        "label": "collections",
        "offset": 0,
        "slot": "4",
        "type": "t_mapping(t_address,t_array(t_uint32)dyn_storage)"
      },
      {
        "astId": 20424,
        "contract": "contracts/token/WhitelabelNFT.sol:WhitelabelNFT",
        "label": "allTokens",
        "offset": 0,
        "slot": "5",
        "type": "t_array(t_uint32)dyn_storage"
      },
      {
        "astId": 20429,
        "contract": "contracts/token/WhitelabelNFT.sol:WhitelabelNFT",
        "label": "approvals",
        "offset": 0,
        "slot": "6",
        "type": "t_mapping(t_uint256,t_address)"
      },
      {
        "astId": 20436,
        "contract": "contracts/token/WhitelabelNFT.sol:WhitelabelNFT",
        "label": "approvedOperators",
        "offset": 0,
        "slot": "7",
        "type": "t_mapping(t_address,t_mapping(t_address,t_bool))"
      },
      {
        "astId": 20441,
        "contract": "contracts/token/WhitelabelNFT.sol:WhitelabelNFT",
        "label": "permitNonces",
        "offset": 0,
        "slot": "8",
        "type": "t_mapping(t_address,t_uint256)"
      },
      {
        "astId": 20446,
        "contract": "contracts/token/WhitelabelNFT.sol:WhitelabelNFT",
        "label": "baseURI",
        "offset": 0,
        "slot": "9",
        "type": "t_string_storage"
      },
      {
        "astId": 20451,
        "contract": "contracts/token/WhitelabelNFT.sol:WhitelabelNFT",
        "label": "_tokenURIs",
        "offset": 0,
        "slot": "10",
        "type": "t_mapping(t_uint256,t_string_storage)"
      },
      {
        "astId": 18543,
        "contract": "contracts/token/WhitelabelNFT.sol:WhitelabelNFT",
        "label": "owner",
        "offset": 0,
        "slot": "11",
        "type": "t_address"
      },
      {
        "astId": 18550,
        "contract": "contracts/token/WhitelabelNFT.sol:WhitelabelNFT",
        "label": "royaltyReceiver",
        "offset": 0,
        "slot": "12",
        "type": "t_address"
      },
      {
        "astId": 18554,
        "contract": "contracts/token/WhitelabelNFT.sol:WhitelabelNFT",
        "label": "royaltyPercentage",
        "offset": 20,
        "slot": "12",
        "type": "t_uint16"
      },
      {
        "astId": 18558,
        "contract": "contracts/token/WhitelabelNFT.sol:WhitelabelNFT",
        "label": "contractURI",
        "offset": 0,
        "slot": "13",
        "type": "t_string_storage"
      }
    ],
    "types": {
      "t_address": {
        "encoding": "inplace",
        "label": "address",
        "numberOfBytes": "20"
      },
      "t_array(t_uint32)dyn_storage": {
        "base": "t_uint32",
        "encoding": "dynamic_array",
        "label": "uint32[]",
        "numberOfBytes": "32"
      },
      "t_bool": {
        "encoding": "inplace",
        "label": "bool",
        "numberOfBytes": "1"
      },
      "t_mapping(t_address,t_array(t_uint32)dyn_storage)": {
        "encoding": "mapping",
        "key": "t_address",
        "label": "mapping(address => uint32[])",
        "numberOfBytes": "32",
        "value": "t_array(t_uint32)dyn_storage"
      },
      "t_mapping(t_address,t_bool)": {
        "encoding": "mapping",
        "key": "t_address",
        "label": "mapping(address => bool)",
        "numberOfBytes": "32",
        "value": "t_bool"
      },
      "t_mapping(t_address,t_mapping(t_address,t_bool))": {
        "encoding": "mapping",
        "key": "t_address",
        "label": "mapping(address => mapping(address => bool))",
        "numberOfBytes": "32",
        "value": "t_mapping(t_address,t_bool)"
      },
      "t_mapping(t_address,t_uint256)": {
        "encoding": "mapping",
        "key": "t_address",
        "label": "mapping(address => uint256)",
        "numberOfBytes": "32",
        "value": "t_uint256"
      },
      "t_mapping(t_uint256,t_address)": {
        "encoding": "mapping",
        "key": "t_uint256",
        "label": "mapping(uint256 => address)",
        "numberOfBytes": "32",
        "value": "t_address"
      },
      "t_mapping(t_uint256,t_string_storage)": {
        "encoding": "mapping",
        "key": "t_uint256",
        "label": "mapping(uint256 => string)",
        "numberOfBytes": "32",
        "value": "t_string_storage"
      },
      "t_mapping(t_uint256,t_uint256)": {
        "encoding": "mapping",
        "key": "t_uint256",
        "label": "mapping(uint256 => uint256)",
        "numberOfBytes": "32",
        "value": "t_uint256"
      },
      "t_string_storage": {
        "encoding": "bytes",
        "label": "string",
        "numberOfBytes": "32"
      },
      "t_uint16": {
        "encoding": "inplace",
        "label": "uint16",
        "numberOfBytes": "2"
      },
      "t_uint256": {
        "encoding": "inplace",
        "label": "uint256",
        "numberOfBytes": "32"
      },
      "t_uint32": {
        "encoding": "inplace",
        "label": "uint32",
        "numberOfBytes": "4"
      }
    }
  }
}