{
  "address": "0x3A568A2f2a50A9092a28750f06e4A06977ca1A38",
  "abi": [
    {
      "anonymous": false,
      "inputs": [
        {
          "indexed": false,
          "internalType": "address",
          "name": "previousAdmin",
          "type": "address"
        },
        {
          "indexed": false,
          "internalType": "address",
          "name": "newAdmin",
          "type": "address"
        }
      ],
      "name": "AdminChanged",
      "type": "event"
    },
    {
      "anonymous": false,
      "inputs": [
        {
          "indexed": true,
          "internalType": "address",
          "name": "beacon",
          "type": "address"
        }
      ],
      "name": "BeaconUpgraded",
      "type": "event"
    },
    {
      "anonymous": false,
      "inputs": [
        {
          "indexed": true,
          "internalType": "uint256",
          "name": "stateId",
          "type": "uint256"
        },
        {
          "indexed": true,
          "internalType": "address",
          "name": "from",
          "type": "address"
        },
        {
          "indexed": true,
          "internalType": "address",
          "name": "to",
          "type": "address"
        },
        {
          "indexed": false,
          "internalType": "uint256",
          "name": "value",
          "type": "uint256"
        }
      ],
      "name": "DepositComplete",
      "type": "event"
    },
    {
      "anonymous": false,
      "inputs": [
        {
          "indexed": false,
          "internalType": "uint16",
          "name": "_srcChainId",
          "type": "uint16"
        },
        {
          "indexed": false,
          "internalType": "bytes",
          "name": "_srcAddress",
          "type": "bytes"
        },
        {
          "indexed": false,
          "internalType": "uint64",
          "name": "_nonce",
          "type": "uint64"
        },
        {
          "indexed": false,
          "internalType": "bytes",
          "name": "_payload",
          "type": "bytes"
        },
        {
          "indexed": false,
          "internalType": "bytes",
          "name": "_reason",
          "type": "bytes"
        }
      ],
      "name": "MessageFailed",
      "type": "event"
    },
    {
      "anonymous": false,
      "inputs": [
        {
          "indexed": false,
          "internalType": "uint16",
          "name": "_dstChainId",
          "type": "uint16"
        },
        {
          "indexed": false,
          "internalType": "uint256",
          "name": "_size",
          "type": "uint256"
        }
      ],
      "name": "PayloadSizeLimitSet",
      "type": "event"
    },
    {
      "anonymous": false,
      "inputs": [
        {
          "indexed": false,
          "internalType": "uint16",
          "name": "_srcChainId",
          "type": "uint16"
        },
        {
          "indexed": false,
          "internalType": "bytes",
          "name": "_srcAddress",
          "type": "bytes"
        },
        {
          "indexed": false,
          "internalType": "uint64",
          "name": "_nonce",
          "type": "uint64"
        },
        {
          "indexed": false,
          "internalType": "bytes32",
          "name": "_payloadHash",
          "type": "bytes32"
        }
      ],
      "name": "RetryMessageSuccess",
      "type": "event"
    },
    {
      "anonymous": false,
      "inputs": [
        {
          "indexed": true,
          "internalType": "address",
          "name": "_by",
          "type": "address"
        },
        {
          "indexed": true,
          "internalType": "address",
          "name": "_to",
          "type": "address"
        },
        {
          "indexed": false,
          "internalType": "uint256",
          "name": "_requested",
          "type": "uint256"
        },
        {
          "indexed": false,
          "internalType": "uint256",
          "name": "_actual",
          "type": "uint256"
        }
      ],
      "name": "RoleUpdated",
      "type": "event"
    },
    {
      "anonymous": false,
      "inputs": [
        {
          "indexed": false,
          "internalType": "uint16",
          "name": "_dstChainId",
          "type": "uint16"
        },
        {
          "indexed": false,
          "internalType": "uint16",
          "name": "_type",
          "type": "uint16"
        },
        {
          "indexed": false,
          "internalType": "uint256",
          "name": "_minDstGas",
          "type": "uint256"
        }
      ],
      "name": "SetMinDstGas",
      "type": "event"
    },
    {
      "anonymous": false,
      "inputs": [
        {
          "indexed": false,
          "internalType": "address",
          "name": "precrime",
          "type": "address"
        }
      ],
      "name": "SetPrecrime",
      "type": "event"
    },
    {
      "anonymous": false,
      "inputs": [
        {
          "indexed": false,
          "internalType": "uint16",
          "name": "_remoteChainId",
          "type": "uint16"
        },
        {
          "indexed": false,
          "internalType": "bytes",
          "name": "_path",
          "type": "bytes"
        }
      ],
      "name": "SetTrustedRemote",
      "type": "event"
    },
    {
      "anonymous": false,
      "inputs": [
        {
          "indexed": false,
          "internalType": "uint16",
          "name": "_remoteChainId",
          "type": "uint16"
        },
        {
          "indexed": false,
          "internalType": "bytes",
          "name": "_remoteAddress",
          "type": "bytes"
        }
      ],
      "name": "SetTrustedRemoteAddress",
      "type": "event"
    },
    {
      "anonymous": false,
      "inputs": [
        {
          "indexed": true,
          "internalType": "address",
          "name": "implementation",
          "type": "address"
        }
      ],
      "name": "Upgraded",
      "type": "event"
    },
    {
      "anonymous": false,
      "inputs": [
        {
          "indexed": true,
          "internalType": "address",
          "name": "from",
          "type": "address"
        },
        {
          "indexed": true,
          "internalType": "address",
          "name": "to",
          "type": "address"
        },
        {
          "indexed": false,
          "internalType": "uint256",
          "name": "value",
          "type": "uint256"
        }
      ],
      "name": "WithdrawalInitiated",
      "type": "event"
    },
    {
      "inputs": [],
      "name": "DEFAULT_PAYLOAD_SIZE_LIMIT",
      "outputs": [
        {
          "internalType": "uint256",
          "name": "",
          "type": "uint256"
        }
      ],
      "stateMutability": "view",
      "type": "function"
    },
    {
      "inputs": [],
      "name": "ROLE_ACCESS_MANAGER",
      "outputs": [
        {
          "internalType": "uint256",
          "name": "",
          "type": "uint256"
        }
      ],
      "stateMutability": "view",
      "type": "function"
    },
    {
      "inputs": [],
      "name": "ROLE_LZ_CONFIG_MANAGER",
      "outputs": [
        {
          "internalType": "uint32",
          "name": "",
          "type": "uint32"
        }
      ],
      "stateMutability": "view",
      "type": "function"
    },
    {
      "inputs": [],
      "name": "ROLE_RESCUE_MANAGER",
      "outputs": [
        {
          "internalType": "uint32",
          "name": "",
          "type": "uint32"
        }
      ],
      "stateMutability": "view",
      "type": "function"
    },
    {
      "inputs": [],
      "name": "ROLE_TUNNEL_MANAGER",
      "outputs": [
        {
          "internalType": "uint32",
          "name": "",
          "type": "uint32"
        }
      ],
      "stateMutability": "view",
      "type": "function"
    },
    {
      "inputs": [],
      "name": "ROLE_UPGRADE_MANAGER",
      "outputs": [
        {
          "internalType": "uint256",
          "name": "",
          "type": "uint256"
        }
      ],
      "stateMutability": "view",
      "type": "function"
    },
    {
      "inputs": [],
      "name": "childToken",
      "outputs": [
        {
          "internalType": "contract MintableBurnableERC20",
          "name": "",
          "type": "address"
        }
      ],
      "stateMutability": "view",
      "type": "function"
    },
    {
      "inputs": [
        {
          "internalType": "address",
          "name": "_from",
          "type": "address"
        },
        {
          "internalType": "address",
          "name": "_to",
          "type": "address"
        },
        {
          "internalType": "uint256",
          "name": "_value",
          "type": "uint256"
        }
      ],
      "name": "estimateWithdrawalFee",
      "outputs": [
        {
          "internalType": "uint256",
          "name": "",
          "type": "uint256"
        }
      ],
      "stateMutability": "view",
      "type": "function"
    },
    {
      "inputs": [
        {
          "internalType": "address",
          "name": "operator",
          "type": "address"
        },
        {
          "internalType": "uint256",
          "name": "target",
          "type": "uint256"
        },
        {
          "internalType": "uint256",
          "name": "desired",
          "type": "uint256"
        }
      ],
      "name": "evaluateBy",
      "outputs": [
        {
          "internalType": "uint256",
          "name": "",
          "type": "uint256"
        }
      ],
      "stateMutability": "view",
      "type": "function"
    },
    {
      "inputs": [
        {
          "internalType": "uint16",
          "name": "",
          "type": "uint16"
        },
        {
          "internalType": "bytes",
          "name": "",
          "type": "bytes"
        },
        {
          "internalType": "uint64",
          "name": "",
          "type": "uint64"
        }
      ],
      "name": "failedMessages",
      "outputs": [
        {
          "internalType": "bytes32",
          "name": "",
          "type": "bytes32"
        }
      ],
      "stateMutability": "view",
      "type": "function"
    },
    {
      "inputs": [],
      "name": "features",
      "outputs": [
        {
          "internalType": "uint256",
          "name": "",
          "type": "uint256"
        }
      ],
      "stateMutability": "view",
      "type": "function"
    },
    {
      "inputs": [
        {
          "internalType": "uint16",
          "name": "_srcChainId",
          "type": "uint16"
        },
        {
          "internalType": "bytes",
          "name": "_srcAddress",
          "type": "bytes"
        }
      ],
      "name": "forceResumeReceive",
      "outputs": [],
      "stateMutability": "nonpayable",
      "type": "function"
    },
    {
      "inputs": [
        {
          "internalType": "uint16",
          "name": "_version",
          "type": "uint16"
        },
        {
          "internalType": "uint16",
          "name": "_chainId",
          "type": "uint16"
        },
        {
          "internalType": "address",
          "name": "",
          "type": "address"
        },
        {
          "internalType": "uint256",
          "name": "_configType",
          "type": "uint256"
        }
      ],
      "name": "getConfig",
      "outputs": [
        {
          "internalType": "bytes",
          "name": "",
          "type": "bytes"
        }
      ],
      "stateMutability": "view",
      "type": "function"
    },
    {
      "inputs": [],
      "name": "getImplementation",
      "outputs": [
        {
          "internalType": "address",
          "name": "",
          "type": "address"
        }
      ],
      "stateMutability": "view",
      "type": "function"
    },
    {
      "inputs": [
        {
          "internalType": "uint16",
          "name": "_remoteChainId",
          "type": "uint16"
        }
      ],
      "name": "getTrustedRemoteAddress",
      "outputs": [
        {
          "internalType": "bytes",
          "name": "",
          "type": "bytes"
        }
      ],
      "stateMutability": "view",
      "type": "function"
    },
    {
      "inputs": [
        {
          "internalType": "uint256",
          "name": "required",
          "type": "uint256"
        }
      ],
      "name": "isFeatureEnabled",
      "outputs": [
        {
          "internalType": "bool",
          "name": "",
          "type": "bool"
        }
      ],
      "stateMutability": "view",
      "type": "function"
    },
    {
      "inputs": [
        {
          "internalType": "address",
          "name": "operator",
          "type": "address"
        },
        {
          "internalType": "uint256",
          "name": "required",
          "type": "uint256"
        }
      ],
      "name": "isOperatorInRole",
      "outputs": [
        {
          "internalType": "bool",
          "name": "",
          "type": "bool"
        }
      ],
      "stateMutability": "view",
      "type": "function"
    },
    {
      "inputs": [
        {
          "internalType": "uint256",
          "name": "required",
          "type": "uint256"
        }
      ],
      "name": "isSenderInRole",
      "outputs": [
        {
          "internalType": "bool",
          "name": "",
          "type": "bool"
        }
      ],
      "stateMutability": "view",
      "type": "function"
    },
    {
      "inputs": [
        {
          "internalType": "uint16",
          "name": "_srcChainId",
          "type": "uint16"
        },
        {
          "internalType": "bytes",
          "name": "_srcAddress",
          "type": "bytes"
        }
      ],
      "name": "isTrustedRemote",
      "outputs": [
        {
          "internalType": "bool",
          "name": "",
          "type": "bool"
        }
      ],
      "stateMutability": "view",
      "type": "function"
    },
    {
      "inputs": [],
      "name": "lzEndpoint",
      "outputs": [
        {
          "internalType": "contract ILayerZeroEndpointUpgradeable",
          "name": "",
          "type": "address"
        }
      ],
      "stateMutability": "view",
      "type": "function"
    },
    {
      "inputs": [
        {
          "internalType": "uint16",
          "name": "_srcChainId",
          "type": "uint16"
        },
        {
          "internalType": "bytes",
          "name": "_srcAddress",
          "type": "bytes"
        },
        {
          "internalType": "uint64",
          "name": "_nonce",
          "type": "uint64"
        },
        {
          "internalType": "bytes",
          "name": "_payload",
          "type": "bytes"
        }
      ],
      "name": "lzReceive",
      "outputs": [],
      "stateMutability": "nonpayable",
      "type": "function"
    },
    {
      "inputs": [
        {
          "internalType": "uint16",
          "name": "",
          "type": "uint16"
        },
        {
          "internalType": "uint16",
          "name": "",
          "type": "uint16"
        }
      ],
      "name": "minDstGasLookup",
      "outputs": [
        {
          "internalType": "uint256",
          "name": "",
          "type": "uint256"
        }
      ],
      "stateMutability": "view",
      "type": "function"
    },
    {
      "inputs": [
        {
          "internalType": "uint16",
          "name": "_srcChainId",
          "type": "uint16"
        },
        {
          "internalType": "bytes",
          "name": "_srcAddress",
          "type": "bytes"
        },
        {
          "internalType": "uint64",
          "name": "_nonce",
          "type": "uint64"
        },
        {
          "internalType": "bytes",
          "name": "_payload",
          "type": "bytes"
        }
      ],
      "name": "nonblockingLzReceive",
      "outputs": [],
      "stateMutability": "nonpayable",
      "type": "function"
    },
    {
      "inputs": [
        {
          "internalType": "uint16",
          "name": "",
          "type": "uint16"
        }
      ],
      "name": "payloadSizeLimitLookup",
      "outputs": [
        {
          "internalType": "uint256",
          "name": "",
          "type": "uint256"
        }
      ],
      "stateMutability": "view",
      "type": "function"
    },
    {
      "inputs": [
        {
          "internalType": "address",
          "name": "_lzEndpoint",
          "type": "address"
        },
        {
          "internalType": "address",
          "name": "_childToken",
          "type": "address"
        }
      ],
      "name": "postConstruct",
      "outputs": [],
      "stateMutability": "nonpayable",
      "type": "function"
    },
    {
      "inputs": [],
      "name": "precrime",
      "outputs": [
        {
          "internalType": "address",
          "name": "",
          "type": "address"
        }
      ],
      "stateMutability": "view",
      "type": "function"
    },
    {
      "inputs": [
        {
          "internalType": "address",
          "name": "_contract",
          "type": "address"
        },
        {
          "internalType": "address",
          "name": "_to",
          "type": "address"
        },
        {
          "internalType": "uint256",
          "name": "_value",
          "type": "uint256"
        }
      ],
      "name": "rescueToken",
      "outputs": [],
      "stateMutability": "nonpayable",
      "type": "function"
    },
    {
      "inputs": [
        {
          "internalType": "uint16",
          "name": "_srcChainId",
          "type": "uint16"
        },
        {
          "internalType": "bytes",
          "name": "_srcAddress",
          "type": "bytes"
        },
        {
          "internalType": "uint64",
          "name": "_nonce",
          "type": "uint64"
        },
        {
          "internalType": "bytes",
          "name": "_payload",
          "type": "bytes"
        }
      ],
      "name": "retryMessage",
      "outputs": [],
      "stateMutability": "payable",
      "type": "function"
    },
    {
      "inputs": [],
      "name": "rootTunnelAddress",
      "outputs": [
        {
          "internalType": "address",
          "name": "",
          "type": "address"
        }
      ],
      "stateMutability": "view",
      "type": "function"
    },
    {
      "inputs": [],
      "name": "rootTunnelChainId",
      "outputs": [
        {
          "internalType": "uint16",
          "name": "",
          "type": "uint16"
        }
      ],
      "stateMutability": "view",
      "type": "function"
    },
    {
      "inputs": [
        {
          "internalType": "uint16",
          "name": "_version",
          "type": "uint16"
        },
        {
          "internalType": "uint16",
          "name": "_chainId",
          "type": "uint16"
        },
        {
          "internalType": "uint256",
          "name": "_configType",
          "type": "uint256"
        },
        {
          "internalType": "bytes",
          "name": "_config",
          "type": "bytes"
        }
      ],
      "name": "setConfig",
      "outputs": [],
      "stateMutability": "nonpayable",
      "type": "function"
    },
    {
      "inputs": [
        {
          "internalType": "uint16",
          "name": "_dstChainId",
          "type": "uint16"
        },
        {
          "internalType": "uint16",
          "name": "_packetType",
          "type": "uint16"
        },
        {
          "internalType": "uint256",
          "name": "_minGas",
          "type": "uint256"
        }
      ],
      "name": "setMinDstGas",
      "outputs": [],
      "stateMutability": "nonpayable",
      "type": "function"
    },
    {
      "inputs": [
        {
          "internalType": "uint16",
          "name": "_dstChainId",
          "type": "uint16"
        },
        {
          "internalType": "uint256",
          "name": "_size",
          "type": "uint256"
        }
      ],
      "name": "setPayloadSizeLimit",
      "outputs": [],
      "stateMutability": "nonpayable",
      "type": "function"
    },
    {
      "inputs": [
        {
          "internalType": "address",
          "name": "_precrime",
          "type": "address"
        }
      ],
      "name": "setPrecrime",
      "outputs": [],
      "stateMutability": "nonpayable",
      "type": "function"
    },
    {
      "inputs": [
        {
          "internalType": "uint16",
          "name": "_version",
          "type": "uint16"
        }
      ],
      "name": "setReceiveVersion",
      "outputs": [],
      "stateMutability": "nonpayable",
      "type": "function"
    },
    {
      "inputs": [
        {
          "internalType": "uint16",
          "name": "_rootTunnelChainId",
          "type": "uint16"
        },
        {
          "internalType": "address",
          "name": "_rootTunnelAddress",
          "type": "address"
        }
      ],
      "name": "setRootTunnel",
      "outputs": [],
      "stateMutability": "nonpayable",
      "type": "function"
    },
    {
      "inputs": [
        {
          "internalType": "uint16",
          "name": "_version",
          "type": "uint16"
        }
      ],
      "name": "setSendVersion",
      "outputs": [],
      "stateMutability": "nonpayable",
      "type": "function"
    },
    {
      "inputs": [
        {
          "internalType": "uint16",
          "name": "",
          "type": "uint16"
        }
      ],
      "name": "trustedRemoteLookup",
      "outputs": [
        {
          "internalType": "bytes",
          "name": "",
          "type": "bytes"
        }
      ],
      "stateMutability": "view",
      "type": "function"
    },
    {
      "inputs": [
        {
          "internalType": "uint256",
          "name": "_mask",
          "type": "uint256"
        }
      ],
      "name": "updateFeatures",
      "outputs": [],
      "stateMutability": "nonpayable",
      "type": "function"
    },
    {
      "inputs": [
        {
          "internalType": "address",
          "name": "operator",
          "type": "address"
        },
        {
          "internalType": "uint256",
          "name": "role",
          "type": "uint256"
        }
      ],
      "name": "updateRole",
      "outputs": [],
      "stateMutability": "nonpayable",
      "type": "function"
    },
    {
      "inputs": [
        {
          "internalType": "address",
          "name": "newImplementation",
          "type": "address"
        }
      ],
      "name": "upgradeTo",
      "outputs": [],
      "stateMutability": "nonpayable",
      "type": "function"
    },
    {
      "inputs": [
        {
          "internalType": "address",
          "name": "newImplementation",
          "type": "address"
        },
        {
          "internalType": "bytes",
          "name": "data",
          "type": "bytes"
        }
      ],
      "name": "upgradeToAndCall",
      "outputs": [],
      "stateMutability": "payable",
      "type": "function"
    },
    {
      "inputs": [
        {
          "internalType": "address",
          "name": "",
          "type": "address"
        }
      ],
      "name": "userRoles",
      "outputs": [
        {
          "internalType": "uint256",
          "name": "",
          "type": "uint256"
        }
      ],
      "stateMutability": "view",
      "type": "function"
    },
    {
      "inputs": [
        {
          "internalType": "uint256",
          "name": "_value",
          "type": "uint256"
        }
      ],
      "name": "withdraw",
      "outputs": [],
      "stateMutability": "payable",
      "type": "function"
    },
    {
      "inputs": [
        {
          "internalType": "address",
          "name": "_to",
          "type": "address"
        },
        {
          "internalType": "uint256",
          "name": "_value",
          "type": "uint256"
        }
      ],
      "name": "withdrawTo",
      "outputs": [],
      "stateMutability": "payable",
      "type": "function"
    }
  ],
  "transactionHash": "0x34731ea75ecf78b51702f8a1e0e3ea44acbe3ba447a4000a8ab78de75273cdb1",
  "args": [],
  "numDeployments": 1,
  "solcInputHash": "0428741c2f03e5b2c2bc7c99faa38c69",
  "bytecode": "0x60a06040523060805234801561001457600080fd5b506080516136a261004560003960008181610d4f01528181610d8f01528181610f4e0152610f8e01526136a26000f3fe6080604052600436106102715760003560e01c80637533d7881161014f578063baf3292d116100c1578063d5bb7f671161007a578063d5bb7f67146107b8578063df2a5b3b146107d8578063e5711e8b146107f8578063f5ecbdbc14610818578063f822d5aa14610838578063fcc2c0781461085857600080fd5b8063baf3292d1461070e578063c0423b631461072e578063c44618341461074f578063c688d69314610765578063cbed8b9c14610785578063d1deba1f146107a557600080fd5b8063ac0007de11610113578063ac0007de14610666578063ae5b102e14610687578063ae60bda4146106a7578063ae682e2e146106bf578063b301bb0c146106d7578063b353aaa7146106ee57600080fd5b80637533d788146105945780638cfd8f5c146105c1578063950c8a74146105f95780639f38369a14610631578063aaf10f421461065157600080fd5b80633659cfe6116101e85780635b8c41e6116101ac5780635b8c41e61461049857806363bada4f146104e7578063660396711461050757806366ad5c8a14610527578063725f36261461054757806374d5e1001461056757600080fd5b80633659cfe6146103e85780633d8b38f6146104085780633f1f4fa41461043857806342d65a8d146104655780634f1ef2861461048557600080fd5b80632053e03e1161023a5780632053e03e14610329578063205c2878146103495780632834135f1461035c5780632b521416146103925780632d17f8bc146103be5780632e1a7d4d146103d557600080fd5b80621d35671461027657806307e0db17146102985780630df37483146102b857806310ddb137146102d8578063188e3db5146102f8575b600080fd5b34801561028257600080fd5b50610296610291366004612a81565b610878565b005b3480156102a457600080fd5b506102966102b3366004612b14565b610a94565b3480156102c457600080fd5b506102966102d3366004612b2f565b610ac8565b3480156102e457600080fd5b506102966102f3366004612b14565b610afe565b34801561030457600080fd5b5061030f6210000081565b60405163ffffffff90911681526020015b60405180910390f35b34801561033557600080fd5b50610296610344366004612b6e565b610b2f565b610296610357366004612ba5565b610ccb565b34801561036857600080fd5b5061015f5461037f90600160a01b900461ffff1681565b60405161ffff9091168152602001610320565b34801561039e57600080fd5b5030600090815260fb60205260409020545b604051908152602001610320565b3480156103ca57600080fd5b5061030f6201000081565b6102966103e3366004612bc3565b610d3b565b3480156103f457600080fd5b50610296610403366004612bdc565b610d45565b34801561041457600080fd5b50610428610423366004612bf9565b610e0a565b6040519015158152602001610320565b34801561044457600080fd5b506103b0610453366004612b14565b60366020526000908152604090205481565b34801561047157600080fd5b50610296610480366004612bf9565b610ed7565b610296610493366004612d0e565b610f44565b3480156104a457600080fd5b506103b06104b3366004612d5d565b6065602090815260009384526040808520845180860184018051928152908401958401959095209452929052825290205481565b3480156104f357600080fd5b50610296610502366004612dba565b610ff9565b34801561051357600080fd5b506103b0610522366004612dd8565b611132565b34801561053357600080fd5b50610296610542366004612a81565b61117c565b34801561055357600080fd5b50610428610562366004612bc3565b611258565b34801561057357600080fd5b506103b0610582366004612bdc565b60fb6020526000908152604090205481565b3480156105a057600080fd5b506105b46105af366004612b14565b611273565b6040516103209190612e75565b3480156105cd57600080fd5b506103b06105dc366004612e88565b603560209081526000928352604080842090915290825290205481565b34801561060557600080fd5b50603754610619906001600160a01b031681565b6040516001600160a01b039091168152602001610320565b34801561063d57600080fd5b506105b461064c366004612b14565b61130d565b34801561065d57600080fd5b5061061961141c565b34801561067257600080fd5b5061015f54610619906001600160a01b031681565b34801561069357600080fd5b506102966106a2366004612ba5565b61142b565b3480156106b357600080fd5b506103b0600160fe1b81565b3480156106cb57600080fd5b506103b0600160ff1b81565b3480156106e357600080fd5b5061030f6220000081565b3480156106fa57600080fd5b50603354610619906001600160a01b031681565b34801561071a57600080fd5b50610296610729366004612bdc565b6114de565b34801561073a57600080fd5b5061016054610619906001600160a01b031681565b34801561075b57600080fd5b506103b061271081565b34801561077157600080fd5b50610428610780366004612ba5565b61150f565b34801561079157600080fd5b506102966107a0366004612ebb565b611531565b6102966107b3366004612a81565b6115a2565b3480156107c457600080fd5b506102966107d3366004612bc3565b6117b8565b3480156107e457600080fd5b506102966107f3366004612f29565b6117c2565b34801561080457600080fd5b50610296610813366004612dd8565b6117f5565b34801561082457600080fd5b506105b4610833366004612f65565b61189f565b34801561084457600080fd5b506103b0610853366004612fb2565b611932565b34801561086457600080fd5b50610428610873366004612bc3565b61195d565b6033546001600160a01b0316336001600160a01b0316146108e05760405162461bcd60e51b815260206004820152601e60248201527f4c7a4170703a20696e76616c696420656e64706f696e742063616c6c6572000060448201526064015b60405180910390fd5b61ffff8616600090815260346020526040812080546108fe90612fe7565b80601f016020809104026020016040519081016040528092919081815260200182805461092a90612fe7565b80156109775780601f1061094c57610100808354040283529160200191610977565b820191906000526020600020905b81548152906001019060200180831161095a57829003601f168201915b50505050509050805186869050148015610992575060008151115b80156109ba5750805160208201206040516109b09088908890613021565b6040518091039020145b610a155760405162461bcd60e51b815260206004820152602660248201527f4c7a4170703a20696e76616c696420736f757263652073656e64696e6720636f6044820152651b9d1c9858dd60d21b60648201526084016108d7565b610a8b8787878080601f01602080910402602001604051908101604052809392919081815260200183838082843760009201919091525050604080516020601f8a018190048102820181019092528881528a93509150889088908190840183828082843760009201919091525061196992505050565b50505050505050565b610aa06210000061195d565b610abc5760405162461bcd60e51b81526004016108d790613031565b610ac5816119e2565b50565b610ad46220000061195d565b610af05760405162461bcd60e51b81526004016108d790613031565b610afa8282611a40565b5050565b610b0a6210000061195d565b610b265760405162461bcd60e51b81526004016108d790613031565b610ac581611a93565b610b3a60001961195d565b610b565760405162461bcd60e51b81526004016108d790613031565b8161ffff16600003610b9a5760405162461bcd60e51b815260206004820152600d60248201526c1e995c9bc818da185a5b881251609a1b60448201526064016108d7565b6001600160a01b038116610bdf5760405162461bcd60e51b815260206004820152600c60248201526b7a65726f206164647265737360a01b60448201526064016108d7565b61015f54600160a01b900461ffff16158015610c055750610160546001600160a01b0316155b610c515760405162461bcd60e51b815260206004820152601760248201527f726f6f742074756e6e656c20616c72656164792073657400000000000000000060448201526064016108d7565b61015f805461ffff60a01b1916600160a01b61ffff85160217905561016080546001600160a01b0319166001600160a01b0383161790556040516bffffffffffffffffffffffff19606083811b8216602084015230901b166034820152610afa908390604801604051602081830303815290604052611ac7565b61015f54604051632770a7eb60e21b8152336004820152602481018390526001600160a01b0390911690639dc29fac90604401600060405180830381600087803b158015610d1857600080fd5b505af1158015610d2c573d6000803e3d6000fd5b50505050610afa338383611b16565b610ac53382610ccb565b6001600160a01b037f0000000000000000000000000000000000000000000000000000000000000000163003610d8d5760405162461bcd60e51b81526004016108d790613058565b7f00000000000000000000000000000000000000000000000000000000000000006001600160a01b0316610dbf611ba7565b6001600160a01b031614610de55760405162461bcd60e51b81526004016108d7906130a4565b610dee81611bd5565b60408051600080825260208201909252610ac591839190611bfe565b61ffff831660009081526034602052604081208054829190610e2b90612fe7565b80601f0160208091040260200160405190810160405280929190818152602001828054610e5790612fe7565b8015610ea45780601f10610e7957610100808354040283529160200191610ea4565b820191906000526020600020905b815481529060010190602001808311610e8757829003601f168201915b505050505090508383604051610ebb929190613021565b60405180910390208180519060200120149150505b9392505050565b610ee36210000061195d565b610eff5760405162461bcd60e51b81526004016108d790613031565b610f3f8383838080601f016020809104026020016040519081016040528093929190818152602001838380828437600092019190915250611d4292505050565b505050565b6001600160a01b037f0000000000000000000000000000000000000000000000000000000000000000163003610f8c5760405162461bcd60e51b81526004016108d790613058565b7f00000000000000000000000000000000000000000000000000000000000000006001600160a01b0316610fbe611ba7565b6001600160a01b031614610fe45760405162461bcd60e51b81526004016108d7906130a4565b610fed82611bd5565b610afa82826001611bfe565b600054610100900460ff166110145760005460ff1615611018565b303b155b6110345760405162461bcd60e51b81526004016108d7906130f0565b600054610100900460ff16158015611056576000805461ffff19166101011790555b6001600160a01b0383166110a25760405162461bcd60e51b8152602060048201526013602482015272131688195b991c1bda5b9d081b9bdd081cd95d606a1b60448201526064016108d7565b6001600160a01b0382166110ee5760405162461bcd60e51b815260206004820152601360248201527218da1a5b19081d1bdad95b881b9bdd081cd95d606a1b60448201526064016108d7565b6110f783611da2565b61015f80546001600160a01b0319166001600160a01b03841617905561111c33611de3565b8015610f3f576000805461ff0019169055505050565b604080516001600160a01b0380861660208301528416918101919091526060810182905260009061117490608001604051602081830303815290604052611eef565b949350505050565b3330146111da5760405162461bcd60e51b815260206004820152602660248201527f4e6f6e626c6f636b696e674c7a4170703a2063616c6c6572206d7573742062656044820152650204c7a4170760d41b60648201526084016108d7565b6112508686868080601f01602080910402602001604051908101604052809392919081815260200183838082843760009201919091525050604080516020601f890181900481028201810190925287815289935091508790879081908401838280828437600092019190915250611f8e92505050565b505050505050565b30600090815260fb6020526040812054821682145b92915050565b6034602052600090815260409020805461128c90612fe7565b80601f01602080910402602001604051908101604052809291908181526020018280546112b890612fe7565b80156113055780601f106112da57610100808354040283529160200191611305565b820191906000526020600020905b8154815290600101906020018083116112e857829003601f168201915b505050505081565b61ffff811660009081526034602052604081208054606092919061133090612fe7565b80601f016020809104026020016040519081016040528092919081815260200182805461135c90612fe7565b80156113a95780601f1061137e576101008083540402835291602001916113a9565b820191906000526020600020905b81548152906001019060200180831161138c57829003601f168201915b5050505050905080516000036114015760405162461bcd60e51b815260206004820152601d60248201527f4c7a4170703a206e6f20747275737465642070617468207265636f726400000060448201526064016108d7565b610ed06000601483516114149190613154565b83919061219c565b6000611426611ba7565b905090565b611438600160ff1b61195d565b6114545760405162461bcd60e51b81526004016108d790613031565b6001600160a01b038216600090815260fb602052604090205461147990339083611932565b6001600160a01b038316600081815260fb60205260409081902083905551909133917f5a10526456f5116c0b7b80582c217d666243fd51b6a2d92c8011e601c2462e5f916114d291869190918252602082015260400190565b60405180910390a35050565b6114ea6220000061195d565b6115065760405162461bcd60e51b81526004016108d790613031565b610ac5816122a9565b6001600160a01b038216600090815260fb602052604081205482168214610ed0565b61153d6210000061195d565b6115595760405162461bcd60e51b81526004016108d790613031565b61159b85858585858080601f0160208091040260200160405190810160405280939291908181526020018383808284376000920191909152506122fd92505050565b5050505050565b61ffff861660009081526065602052604080822090516115c59088908890613021565b90815260408051602092819003830190206001600160401b038716600090815292529020549050806116455760405162461bcd60e51b815260206004820152602360248201527f4e6f6e626c6f636b696e674c7a4170703a206e6f2073746f726564206d65737360448201526261676560e81b60648201526084016108d7565b808383604051611656929190613021565b6040518091039020146116b55760405162461bcd60e51b815260206004820152602160248201527f4e6f6e626c6f636b696e674c7a4170703a20696e76616c6964207061796c6f616044820152601960fa1b60648201526084016108d7565b61ffff871660009081526065602052604080822090516116d89089908990613021565b90815260408051602092819003830181206001600160401b038916600090815290845282902093909355601f88018290048202830182019052868252611770918991899089908190840183828082843760009201919091525050604080516020601f8a018190048102820181019092528881528a935091508890889081908401838280828437600092019190915250611f8e92505050565b7fc264d91f3adc5588250e1551f547752ca0cfa8f6b530d243b9f9f4cab10ea8e587878787856040516117a795949392919061316b565b60405180910390a150505050505050565b610ac5308261142b565b6117ce6220000061195d565b6117ea5760405162461bcd60e51b81526004016108d790613031565b610f3f83838361236b565b6118016201000061195d565b61181d5760405162461bcd60e51b81526004016108d790613031565b6040516323b872dd60e01b81523060048201526001600160a01b038381166024830152604482018390528416906323b872dd906064016020604051808303816000875af1158015611872573d6000803e3d6000fd5b505050506040513d601f19601f8201168201806040525081019061189691906131bf565b610f3f57600080fd5b603354604051633d7b2f6f60e21b815261ffff808716600483015285166024820152306044820152606481018390526060916001600160a01b03169063f5ecbdbc90608401600060405180830381865afa158015611901573d6000803e3d6000fd5b505050506040513d6000823e601f3d908101601f1916820160405261192991908101906131e1565b95945050505050565b6001600160a01b0392909216600090815260fb60205260409020546000198084188216189216171690565b600061126d338361150f565b6000806119cc5a60966366ad5c8a60e01b89898989604051602401611991949392919061324e565b60408051601f198184030181529190526020810180516001600160e01b03166001600160e01b0319909316929092179091523092919061241d565b91509150816112505761125086868686856124a7565b6033546040516307e0db1760e01b815261ffff831660048201526001600160a01b03909116906307e0db17906024015b600060405180830381600087803b158015611a2c57600080fd5b505af115801561159b573d6000803e3d6000fd5b61ffff8216600081815260366020908152604091829020849055815192835282018390527e76eb44c97d0bddcac380ec996c23db07d6a7227dcacf15643a628ae9d9451291015b60405180910390a15050565b6033546040516310ddb13760e01b815261ffff831660048201526001600160a01b03909116906310ddb13790602401611a12565b61ffff82166000908152603460205260409020611ae482826132dd565b507ffa41487ad5d6728f0b19276fa1eddc16558578f5109fc39d2dc33c3230470dab8282604051611a8792919061339c565b604080516001600160a01b03808616602083015284169181019190915260608101829052611b5590608001604051602081830303815290604052612544565b816001600160a01b0316836001600160a01b03167fbb2689ff876f7ef453cf8865dde5ab10349d222e2e1383c5152fbdb083f02da283604051611b9a91815260200190565b60405180910390a3505050565b7f360894a13ba1a3210667c828492db98dca3e2076cc3735a920a3ca505d382bbc546001600160a01b031690565b611be2600160fe1b61195d565b610ac55760405162461bcd60e51b81526004016108d790613031565b6000611c08611ba7565b9050611c138461269a565b600083511180611c205750815b15611c3157611c2f848461273f565b505b7f4910fdfa16fed3260ed0e7147f7cc6da11a60208b5b9406d12a635614ffd9143805460ff1661159b57805460ff191660011781556040516001600160a01b0383166024820152611cb090869060440160408051601f198184030181529190526020810180516001600160e01b0316631b2ce7f360e11b17905261273f565b50805460ff19168155611cc1611ba7565b6001600160a01b0316826001600160a01b031614611d395760405162461bcd60e51b815260206004820152602f60248201527f45524331393637557067726164653a207570677261646520627265616b73206660448201526e75727468657220757067726164657360881b60648201526084016108d7565b61159b85612821565b6033546040516342d65a8d60e01b81526001600160a01b03909116906342d65a8d90611d74908590859060040161339c565b600060405180830381600087803b158015611d8e57600080fd5b505af1158015611250573d6000803e3d6000fd5b600054610100900460ff16611dc95760405162461bcd60e51b81526004016108d7906133b9565b611dd1612861565b611dda8161288a565b610ac5816128d3565b600054610100900460ff16611dfe5760005460ff1615611e02565b303b155b611e1e5760405162461bcd60e51b81526004016108d7906130f0565b600054610100900460ff16158015611e40576000805461ffff19166101011790555b303b15611e815760405162461bcd60e51b815260206004820152600f60248201526e1a5b9d985b1a590818dbdb9d195e1d608a1b60448201526064016108d7565b6001600160a01b038216600081815260fb60209081526040918290206000199081905582518181529182015233917f5a10526456f5116c0b7b80582c217d666243fd51b6a2d92c8011e601c2462e5f910160405180910390a38015610afa576000805461ff00191690555050565b60335461015f54604080516020810182526000808252915163040a7bb160e41b8152919384936001600160a01b03909116926340a7bb1092611f4692600160a01b900461ffff169130918991889190600401613404565b6040805180830381865afa158015611f62573d6000803e3d6000fd5b505050506040513d601f19601f82011682018060405250810190611f869190613458565b509392505050565b61015f5461ffff858116600160a01b9092041614611fee5760405162461bcd60e51b815260206004820152601760248201527f756e657870656374656420726f6f74206e6574776f726b00000000000000000060448201526064016108d7565b60148301516028840151610160546001600160a01b0380841691161461204f5760405162461bcd60e51b81526020600482015260166024820152751d5b995e1c1958dd1959081c9bdbdd081d1d5b9b995b60521b60448201526064016108d7565b6001600160a01b03811630146120a75760405162461bcd60e51b815260206004820152601760248201527f756e6578706563746564206368696c642074756e6e656c00000000000000000060448201526064016108d7565b6120b0846128fa565b6000806000858060200190518101906120c9919061347c565b61015f546040516340c10f1960e01b81526001600160a01b0380851660048301526024820184905294975092955090935091909116906340c10f1990604401600060405180830381600087803b15801561212257600080fd5b505af1158015612136573d6000803e3d6000fd5b50505050816001600160a01b0316836001600160a01b0316886001600160401b03167f0c1e115e86fe3ba5f0221408e27946d65f6693b6341bb78b7b00b692b4e76fef8460405161218991815260200190565b60405180910390a4505050505050505050565b6060816121aa81601f6134bf565b10156121e95760405162461bcd60e51b815260206004820152600e60248201526d736c6963655f6f766572666c6f7760901b60448201526064016108d7565b6121f382846134bf565b845110156122375760405162461bcd60e51b8152602060048201526011602482015270736c6963655f6f75744f66426f756e647360781b60448201526064016108d7565b60608215801561225657604051915060008252602082016040526122a0565b6040519150601f8416801560200281840101858101878315602002848b0101015b8183101561228f578051835260209283019201612277565b5050858452601f01601f1916604052505b50949350505050565b603780546001600160a01b0319166001600160a01b0383169081179091556040519081527f5db758e995a17ec1ad84bdef7e8c3293a0bd6179bcce400dff5d4c3d87db726b9060200160405180910390a150565b6033546040516332fb62e760e21b81526001600160a01b039091169063cbed8b9c906123339087908790879087906004016134d7565b600060405180830381600087803b15801561234d57600080fd5b505af1158015612361573d6000803e3d6000fd5b5050505050505050565b600081116123b35760405162461bcd60e51b81526020600482015260156024820152744c7a4170703a20696e76616c6964206d696e47617360581b60448201526064016108d7565b61ffff83811660008181526035602090815260408083209487168084529482529182902085905581519283528201929092529081018290527f9d5c7c0b934da8fefa9c7760c98383778a12dfbfc0c3b3106518f43fb9508ac09060600160405180910390a1505050565b6000606060008060008661ffff166001600160401b0381111561244257612442612c4b565b6040519080825280601f01601f19166020018201604052801561246c576020820181803683370190505b50905060008087516020890160008d8df191503d92508683111561248e578692505b828152826000602083013e909890975095505050505050565b8180519060200120606560008761ffff1661ffff168152602001908152602001600020856040516124d8919061350e565b9081526040805191829003602090810183206001600160401b0388166000908152915220919091557fe183f33de2837795525b4792ca4cd60535bd77c53b7e7030060bfcf5734d6b0c90612535908790879087908790879061352a565b60405180910390a15050505050565b600061254f82611eef565b9050803410156125945760405162461bcd60e51b815260206004820152601060248201526f1cd95b99081d5b99195c9c1c9a58d95960821b60448201526064016108d7565b60335461015f54610160546040516bffffffffffffffffffffffff19606092831b811660208301523090921b90911660348201526001600160a01b039092169163c5803100918491600160a01b90910461ffff169060480160408051601f19818403018152602083018252600080845291516001600160e01b031960e088901b16815261262a949391928a92339260040161357c565b6000604051808303818588803b15801561264357600080fd5b505af1158015612657573d6000803e3d6000fd5b505050505080341115610afa57336108fc6126728334613154565b6040518115909202916000818181858888f19350505050158015610f3f573d6000803e3d6000fd5b803b6126fe5760405162461bcd60e51b815260206004820152602d60248201527f455243313936373a206e657720696d706c656d656e746174696f6e206973206e60448201526c1bdd08184818dbdb9d1c9858dd609a1b60648201526084016108d7565b7f360894a13ba1a3210667c828492db98dca3e2076cc3735a920a3ca505d382bbc80546001600160a01b0319166001600160a01b0392909216919091179055565b6060823b61279e5760405162461bcd60e51b815260206004820152602660248201527f416464726573733a2064656c65676174652063616c6c20746f206e6f6e2d636f6044820152651b9d1c9858dd60d21b60648201526084016108d7565b600080846001600160a01b0316846040516127b9919061350e565b600060405180830381855af49150503d80600081146127f4576040519150601f19603f3d011682016040523d82523d6000602084013e6127f9565b606091505b50915091506119298282604051806060016040528060278152602001613646602791396129d2565b61282a8161269a565b6040516001600160a01b038216907fbc7cd75a20ee27fd9adebab32041f755214dbc6bffa90cc0225b39da2e5c2d3b90600090a250565b600054610100900460ff166128885760405162461bcd60e51b81526004016108d7906133b9565b565b600054610100900460ff166128b15760405162461bcd60e51b81526004016108d7906133b9565b603380546001600160a01b0319166001600160a01b0392909216919091179055565b600054610100900460ff16610ac55760405162461bcd60e51b81526004016108d7906133b9565b612906610100826135f9565b6001600160401b03166001901b610161600061010084612926919061361f565b6001600160401b0316815260200190815260200160002054166000146129835760405162461bcd60e51b81526020600482015260126024820152711b9bdb98d948185b1c9958591e481d5cd95960721b60448201526064016108d7565b61298f610100826135f9565b6001600160401b03166001901b6101616000610100846129af919061361f565b6001600160401b0316815260208101919091526040016000208054909117905550565b606083156129e1575081610ed0565b8251156129f15782518084602001fd5b8160405162461bcd60e51b81526004016108d79190612e75565b803561ffff81168114612a1d57600080fd5b919050565b60008083601f840112612a3457600080fd5b5081356001600160401b03811115612a4b57600080fd5b602083019150836020828501011115612a6357600080fd5b9250929050565b80356001600160401b0381168114612a1d57600080fd5b60008060008060008060808789031215612a9a57600080fd5b612aa387612a0b565b955060208701356001600160401b0380821115612abf57600080fd5b612acb8a838b01612a22565b9097509550859150612adf60408a01612a6a565b94506060890135915080821115612af557600080fd5b50612b0289828a01612a22565b979a9699509497509295939492505050565b600060208284031215612b2657600080fd5b610ed082612a0b565b60008060408385031215612b4257600080fd5b612b4b83612a0b565b946020939093013593505050565b6001600160a01b0381168114610ac557600080fd5b60008060408385031215612b8157600080fd5b612b8a83612a0b565b91506020830135612b9a81612b59565b809150509250929050565b60008060408385031215612bb857600080fd5b8235612b4b81612b59565b600060208284031215612bd557600080fd5b5035919050565b600060208284031215612bee57600080fd5b8135610ed081612b59565b600080600060408486031215612c0e57600080fd5b612c1784612a0b565b925060208401356001600160401b03811115612c3257600080fd5b612c3e86828701612a22565b9497909650939450505050565b634e487b7160e01b600052604160045260246000fd5b604051601f8201601f191681016001600160401b0381118282101715612c8957612c89612c4b565b604052919050565b60006001600160401b03821115612caa57612caa612c4b565b50601f01601f191660200190565b600082601f830112612cc957600080fd5b8135612cdc612cd782612c91565b612c61565b818152846020838601011115612cf157600080fd5b816020850160208301376000918101602001919091529392505050565b60008060408385031215612d2157600080fd5b8235612d2c81612b59565b915060208301356001600160401b03811115612d4757600080fd5b612d5385828601612cb8565b9150509250929050565b600080600060608486031215612d7257600080fd5b612d7b84612a0b565b925060208401356001600160401b03811115612d9657600080fd5b612da286828701612cb8565b925050612db160408501612a6a565b90509250925092565b60008060408385031215612dcd57600080fd5b8235612b8a81612b59565b600080600060608486031215612ded57600080fd5b8335612df881612b59565b92506020840135612e0881612b59565b929592945050506040919091013590565b60005b83811015612e34578181015183820152602001612e1c565b83811115612e43576000848401525b50505050565b60008151808452612e61816020860160208601612e19565b601f01601f19169290920160200192915050565b602081526000610ed06020830184612e49565b60008060408385031215612e9b57600080fd5b612ea483612a0b565b9150612eb260208401612a0b565b90509250929050565b600080600080600060808688031215612ed357600080fd5b612edc86612a0b565b9450612eea60208701612a0b565b93506040860135925060608601356001600160401b03811115612f0c57600080fd5b612f1888828901612a22565b969995985093965092949392505050565b600080600060608486031215612f3e57600080fd5b612f4784612a0b565b9250612f5560208501612a0b565b9150604084013590509250925092565b60008060008060808587031215612f7b57600080fd5b612f8485612a0b565b9350612f9260208601612a0b565b92506040850135612fa281612b59565b9396929550929360600135925050565b600080600060608486031215612fc757600080fd5b8335612fd281612b59565b95602085013595506040909401359392505050565b600181811c90821680612ffb57607f821691505b60208210810361301b57634e487b7160e01b600052602260045260246000fd5b50919050565b8183823760009101908152919050565b6020808252600d908201526c1858d8d95cdcc819195b9a5959609a1b604082015260600190565b6020808252602c908201527f46756e6374696f6e206d7573742062652063616c6c6564207468726f7567682060408201526b19195b1959d85d1958d85b1b60a21b606082015260800190565b6020808252602c908201527f46756e6374696f6e206d7573742062652063616c6c6564207468726f7567682060408201526b6163746976652070726f787960a01b606082015260800190565b6020808252602e908201527f496e697469616c697a61626c653a20636f6e747261637420697320616c72656160408201526d191e481a5b9a5d1a585b1a5e995960921b606082015260800190565b634e487b7160e01b600052601160045260246000fd5b6000828210156131665761316661313e565b500390565b61ffff8616815260806020820152836080820152838560a0830137600060a08583010152600060a0601f19601f87011683010190506001600160401b03841660408301528260608301529695505050505050565b6000602082840312156131d157600080fd5b81518015158114610ed057600080fd5b6000602082840312156131f357600080fd5b81516001600160401b0381111561320957600080fd5b8201601f8101841361321a57600080fd5b8051613228612cd782612c91565b81815285602083850101111561323d57600080fd5b611929826020830160208601612e19565b61ffff8516815260806020820152600061326b6080830186612e49565b6001600160401b0385166040840152828103606084015261328c8185612e49565b979650505050505050565b601f821115610f3f57600081815260208120601f850160051c810160208610156132be5750805b601f850160051c820191505b81811015611250578281556001016132ca565b81516001600160401b038111156132f6576132f6612c4b565b61330a816133048454612fe7565b84613297565b602080601f83116001811461333f57600084156133275750858301515b600019600386901b1c1916600185901b178555611250565b600085815260208120601f198616915b8281101561336e5788860151825594840194600190910190840161334f565b508582101561338c5787850151600019600388901b60f8161c191681555b5050505050600190811b01905550565b61ffff831681526040602082015260006111746040830184612e49565b6020808252602b908201527f496e697469616c697a61626c653a20636f6e7472616374206973206e6f74206960408201526a6e697469616c697a696e6760a81b606082015260800190565b61ffff861681526001600160a01b038516602082015260a06040820181905260009061343290830186612e49565b8415156060840152828103608084015261344c8185612e49565b98975050505050505050565b6000806040838503121561346b57600080fd5b505080516020909101519092909150565b60008060006060848603121561349157600080fd5b835161349c81612b59565b60208501519093506134ad81612b59565b80925050604084015190509250925092565b600082198211156134d2576134d261313e565b500190565b600061ffff8087168352808616602084015250836040830152608060608301526135046080830184612e49565b9695505050505050565b60008251613520818460208701612e19565b9190910192915050565b61ffff8616815260a06020820152600061354760a0830187612e49565b6001600160401b038616604084015282810360608401526135688186612e49565b9050828103608084015261344c8185612e49565b61ffff8716815260c06020820152600061359960c0830188612e49565b82810360408401526135ab8188612e49565b6001600160a01b0387811660608601528616608085015283810360a085015290506135d68185612e49565b9998505050505050505050565b634e487b7160e01b600052601260045260246000fd5b60006001600160401b0380841680613613576136136135e3565b92169190910692915050565b60006001600160401b0380841680613639576136396135e3565b9216919091049291505056fe416464726573733a206c6f772d6c6576656c2064656c65676174652063616c6c206661696c6564a264697066735822122081a68856b8ed02cba4bc58f7bf4fb33d75d283e0fc5efdc184640bbd7eb4d0cf64736f6c634300080f0033",
  "devdoc": {
    "author": "Basil Gorin",
    "details": "see https://github.com/LayerZero-Labs/LayerZerosee https://github.com/LayerZero-Labs/solidity-examples",
    "events": {
      "DepositComplete(uint256,address,address,uint256)": {
        "details": "Fired in `lzReceive` when token deposit completes successfully",
        "params": {
          "from": "token sender address in the root chain (L1)",
          "stateId": "unique tx identifier submitted from the root chain (L1)",
          "to": "token receiver address in the child chain (L2)",
          "value": "amount of tokens deposited"
        }
      },
      "WithdrawalInitiated(address,address,uint256)": {
        "details": "Fired in `withdraw` and `withdrawTo`",
        "params": {
          "from": "token sender address in the child chain (L2)",
          "to": "token receiver address in the root chain (L1)",
          "value": "amount of tokens withdrawn"
        }
      }
    },
    "kind": "dev",
    "methods": {
      "estimateWithdrawalFee(address,address,uint256)": {
        "params": {
          "_from": "token sender in the child chain (in L2)",
          "_to": "token recipient in the root chain (in L1)",
          "_value": "amount of tokens withdrawn"
        },
        "returns": {
          "_0": "token transfer fee in wei"
        }
      },
      "evaluateBy(address,uint256,uint256)": {
        "details": "Calculated based on:      1) operator's own permission set read from userRoles[operator]      2) target permission set - what is already set on the target      3) desired permission set - what do we want set target toCorner cases:      1) Operator is super admin and its permission set is `FULL_PRIVILEGES_MASK`:        `desired` bitset is returned regardless of the `target` permission set value        (what operator sets is what they get)      2) Operator with no permissions (zero bitset):        `target` bitset is returned regardless of the `desired` value        (operator has no authority and cannot modify anything)Example:      Consider an operator with the permissions bitmask     00001111      is about to modify the target permission set          01010101      Operator wants to set that permission set to          00110011      Based on their role, an operator has the permissions      to update only lowest 4 bits on the target, meaning that      high 4 bits of the target set in this example is left      unchanged and low 4 bits get changed as desired:      01010011",
        "params": {
          "desired": "desired set of permissions operator would like to set",
          "operator": "address of the contract operator which is about to set the permissions",
          "target": "input set of permissions to operator is going to modify"
        },
        "returns": {
          "_0": "resulting set of permissions given operator will set"
        }
      },
      "features()": {
        "details": "Effectively reads userRoles role for the contract itself",
        "returns": {
          "_0": "256-bit bitmask of the features enabled"
        }
      },
      "forceResumeReceive(uint16,bytes)": {
        "details": "Requires sender to have ROLE_LZ_CONFIG_MANAGER permission",
        "params": {
          "_srcAddress": "- the contract address of the source contract at the source chain",
          "_srcChainId": "- the chainId of the source chain"
        }
      },
      "getImplementation()": {
        "returns": {
          "_0": "the current implementation address"
        }
      },
      "isFeatureEnabled(uint256)": {
        "params": {
          "required": "set of features to check against"
        },
        "returns": {
          "_0": "true if all the features requested are enabled, false otherwise"
        }
      },
      "isOperatorInRole(address,uint256)": {
        "params": {
          "operator": "address of the user to check role for",
          "required": "set of permissions (role) to check"
        },
        "returns": {
          "_0": "true if all the permissions requested are enabled, false otherwise"
        }
      },
      "isSenderInRole(uint256)": {
        "params": {
          "required": "set of permissions (role) to check against"
        },
        "returns": {
          "_0": "true if all the permissions requested are enabled, false otherwise"
        }
      },
      "postConstruct(address,address)": {
        "details": "\"Constructor replacement\" for upgradeable, must be execute immediately after deployment      see https://docs.openzeppelin.com/upgrades-plugins/1.x/writing-upgradeable#initializersInitializes an Non-Ethereum network (L2) exit bound to      LayerZero Endpoint, and child ERC20 tokenLayerZero Endpoint is a helper contract providing      L1/L2 messaging infrastructure, managed by the LayerZero",
        "params": {
          "_childToken": "child ERC20 token address",
          "_lzEndpoint": "LayerZero Endpoint contract address (maintained by LayerZero)"
        }
      },
      "rescueToken(address,address,uint256)": {
        "details": "Restricted access function to rescue accidentally sent tokens,      the tokens are rescued via `transferFrom` function call on the      contract address specified and with the parameters specified:      `_contract.transferFrom(this, _to, _value)`Requires executor to have `ROLE_RESCUE_MANAGER` permission",
        "params": {
          "_contract": "smart contract address to execute `transfer` function on",
          "_to": "to address in `transferFrom(this, _to, _value)`",
          "_value": "value to transfer in `transferFrom(this, _to, _value)`;      this can also be a tokenId for ERC721 transfer"
        }
      },
      "setConfig(uint16,uint16,uint256,bytes)": {
        "details": "Requires sender to have ROLE_LZ_CONFIG_MANAGER permission",
        "params": {
          "_chainId": "- the chainId for the pending config change",
          "_config": "- configuration in the bytes. can encode arbitrary content.",
          "_configType": "- type of configuration. every messaging library has its own convention.",
          "_version": "- messaging library version"
        }
      },
      "setMinDstGas(uint16,uint16,uint256)": {
        "details": "see LzAppUpgradeable"
      },
      "setPayloadSizeLimit(uint16,uint256)": {
        "details": "see LzAppUpgradeable"
      },
      "setPrecrime(address)": {
        "details": "see LzAppUpgradeable"
      },
      "setReceiveVersion(uint16)": {
        "details": "Requires sender to have ROLE_LZ_CONFIG_MANAGER permission",
        "params": {
          "_version": "- new messaging library version"
        }
      },
      "setRootTunnel(uint16,address)": {
        "details": "Sets the rootTunnel if it is not yet set",
        "params": {
          "_rootTunnelAddress": "root tunnel address to set",
          "_rootTunnelChainId": "root tunnel chain ID to set"
        }
      },
      "setSendVersion(uint16)": {
        "details": "Requires sender to have ROLE_LZ_CONFIG_MANAGER permission",
        "params": {
          "_version": "- new messaging library version"
        }
      },
      "updateFeatures(uint256)": {
        "details": "Requires transaction sender to have `ROLE_ACCESS_MANAGER` permissionFunction is left for backward compatibility with older versions",
        "params": {
          "_mask": "bitmask representing a set of features to enable/disable"
        }
      },
      "updateRole(address,uint256)": {
        "details": "Setting role to zero is equivalent to removing an all permissionsSetting role to `FULL_PRIVILEGES_MASK` is equivalent to      copying senders' permissions (role) to the userRequires transaction sender to have `ROLE_ACCESS_MANAGER` permission",
        "params": {
          "operator": "address of a user to alter permissions for or zero      to alter global features of the smart contract",
          "role": "bitmask representing a set of permissions to      enable/disable for a user specified"
        }
      },
      "upgradeTo(address)": {
        "details": "Upgrade the implementation of the proxy to `newImplementation`. Calls {_authorizeUpgrade}. Emits an {Upgraded} event."
      },
      "upgradeToAndCall(address,bytes)": {
        "details": "Upgrade the implementation of the proxy to `newImplementation`, and subsequently execute the function call encoded in `data`. Calls {_authorizeUpgrade}. Emits an {Upgraded} event."
      },
      "withdraw(uint256)": {
        "params": {
          "_value": "amount of tokens to withdraw"
        }
      },
      "withdrawTo(address,uint256)": {
        "params": {
          "_to": "token recipient in the root chain (L1)",
          "_value": "amount of tokens to withdraw"
        }
      }
    },
    "stateVariables": {
      "ROLE_RESCUE_MANAGER": {
        "details": "Role ROLE_RESCUE_MANAGER allows withdrawing non-bridged ERC20/ERC721      tokens stored on the smart contract balance via `rescueTokens` function"
      },
      "rootTunnelAddress": {
        "details": "Incoming messages must specify this LzERC20RootTunnel address in order to be accepted"
      },
      "rootTunnelChainId": {
        "details": "Incoming messages must specify this chainId in order to be accepted      see https://layerzero.gitbook.io/docs/technical-reference/mainnet/supported-chain-ids      see https://layerzero.gitbook.io/docs/technical-reference/testnet/testnet-addresses"
      },
      "usedNoncesBitmap": {
        "details": "Used nonces storage. We use bitmap map (uint256 => uint256)      instead of (uint256 => bool) map to save on storageThe bit corresponding to nonce `i` is located at the position `i % 256` in the slot number i / 256"
      }
    },
    "title": "LayerZero ERC20 Child Tunnel",
    "version": 1
  },
  "userdoc": {
    "kind": "user",
    "methods": {
      "ROLE_ACCESS_MANAGER()": {
        "notice": "Access manager is responsible for assigning the roles to users,      enabling/disabling global features of the smart contractAccess manager can add, remove and update user roles,      remove and update global features"
      },
      "ROLE_LZ_CONFIG_MANAGER()": {
        "notice": "LZ Config Manager is responsible for tunnel configuration, manager is      allowed to access LZ Endpoint configuration functions via the tunnel"
      },
      "ROLE_RESCUE_MANAGER()": {
        "notice": "People do mistakes and may send tokens by mistakeRescue manager is responsible for \"rescuing\" ERC20/ERC721 tokens      accidentally sent to the smart contract"
      },
      "ROLE_TUNNEL_MANAGER()": {
        "notice": "Tunnel Manager is responsible for tunnel setup, manager is      allowed to access tunnel setup related functions"
      },
      "ROLE_UPGRADE_MANAGER()": {
        "notice": "Upgrade manager is responsible for smart contract upgrades,      see https://docs.openzeppelin.com/contracts/4.x/api/proxy#UUPSUpgradeable      see https://docs.openzeppelin.com/contracts/4.x/upgradeable"
      },
      "childToken()": {
        "notice": "Child tunnel is strictly bound to the child ERC20 token"
      },
      "estimateWithdrawalFee(address,address,uint256)": {
        "notice": "Estimates the token transfer fee from L2 to L1; this should be supplied      as a transaction value into withdraw/withdrawTo"
      },
      "evaluateBy(address,uint256,uint256)": {
        "notice": "Determines the permission bitmask an operator can set on the      target permission setUsed to calculate the permission bitmask to be set when requested     in `updateRole` and `updateFeatures` functions"
      },
      "features()": {
        "notice": "Retrieves globally set of features enabled"
      },
      "forceResumeReceive(uint16,bytes)": {
        "notice": "Restricted access function to execute `forceResumeReceive` function on the LZ Endpoint      Only when the UA needs to resume the message flow in blocking mode and clear the stored payload"
      },
      "getImplementation()": {
        "notice": "Returns an address of the implementation smart contract,      see ERC1967Upgrade._getImplementation()"
      },
      "isFeatureEnabled(uint256)": {
        "notice": "Checks if requested set of features is enabled globally on the contract"
      },
      "isOperatorInRole(address,uint256)": {
        "notice": "Checks if operator has all the permissions (role) required"
      },
      "isSenderInRole(uint256)": {
        "notice": "Checks if transaction sender `msg.sender` has all the permissions required"
      },
      "rootTunnelAddress()": {
        "notice": "The address of the deployed LzERC20RootTunnel which is bound to this LzERC20ChildTunnel"
      },
      "rootTunnelChainId()": {
        "notice": "LayerZero specific chainId where the LzERC20RootTunnel is deployed"
      },
      "setConfig(uint16,uint16,uint256,bytes)": {
        "notice": "Restricted access function to execute `setConfig` function on the LZ Endpoint      set the configuration of the LayerZero messaging library of the specified version"
      },
      "setReceiveVersion(uint16)": {
        "notice": "Restricted access function to execute `setReceiveVersion` function on the LZ Endpoint      set the lzReceive() LayerZero messaging library version to _version"
      },
      "setSendVersion(uint16)": {
        "notice": "Restricted access function to execute `setSendVersion` function on the LZ Endpoint      set the send() LayerZero messaging library version to _version"
      },
      "updateFeatures(uint256)": {
        "notice": "Updates set of the globally enabled features (`features`),      taking into account sender's permissions"
      },
      "updateRole(address,uint256)": {
        "notice": "Updates set of permissions (role) for a given user,      taking into account sender's permissions."
      },
      "userRoles(address)": {
        "notice": "Privileged addresses with defined roles/permissionsIn the context of ERC20/ERC721 tokens these can be permissions to      allow minting or burning tokens, transferring on behalf and so on"
      },
      "withdraw(uint256)": {
        "notice": "L2 Tunnel Entrance.      L2 Tunnel is always open in both directions.Initiates the withdrawal from the child chain (L2) into the root chain (L1)      to the same address which initiated the withdrawal processThe process is finalized in the root chain (L1) via the      `LzERC20RootTunnel.lzReceive` without the user/initiator participationUser pays for the withdrawal message delivery in native currency.      The amount to be payed can be estimated with `estimateWithdrawalFee`Specified amount of tokens is burnt from the sender,      user may need to make sure this amount is approved for transfer/burning"
      },
      "withdrawTo(address,uint256)": {
        "notice": "L2 Tunnel Entrance.      L2 Tunnel is always open in both directions.Initiates the withdrawal from the child chain (L2) into the root chain (L1)The process is finalized in the root chain (L1) via the      `LzERC20RootTunnel.lzReceive` without the user/initiator participationUser pays for the withdrawal message delivery in native currency.      The amount to be payed can be estimated with `estimateWithdrawalFee`Specified amount of tokens is burnt from the sender,      user may need to make sure this amount is approved for transfer/burning"
      }
    },
    "notice": "Non-Ethereum network (child chain - L2) exit of the ERC20 tunnel,      can be used for Non-Ethereum mainnet and testnet networks (ex. Polygon/Mumbai)The tunnel is used to bridge specific ERC20 token between L1/L2;      we call L1 -> L2 bridging a \"deposit\", L2 -> L1 a \"withdrawal\"The tunnel has two entrances and two exits:       LzERC20RootTunnel contains Root/L1 entrance and exit,       and LzERC20ChildTunnel contains Child/L2 entrance and exitAll exits and child entrance are always open, while root entrance      may get paused or even closed permanentlyDeposit flow:      1. The user initiates a deposit on the L1 entrance by executing the deposit function         `LzERC20RootTunnel.deposit` or `LzERC20RootTunnel.depositTo`      2. LayerZero messaging system picks up the event emitted by the `deposit` call         and delivers it to L2 chain      3. The deposit completes on the L2 exit when LayerZero messaging system executes         the `LzERC20ChildTunnel.lzReceive` function      Note: overall, the user executes only one function and then just waits for the bridge         operation to completeWithdrawal flow:      1. The user initiates a withdrawal on the L2 entrance by executing the withdraw function         `LzERC20ChildTunnel.withdraw` or `LzERC20ChildTunnel.withdrawTo`      2. LayerZero messaging system picks up the event emitted by the `withdraw` call         and delivers it to L1 chain      3. The withdrawal completes on the L1 exit when LayerZero messaging system executes         the `LzERC20RootTunnel.lzReceive` function      Note: overall, the user executes only one function and then just waits for the bridge         operation to complete",
    "version": 1
  },
  "storageLayout": {
    "storage": [
      {
        "astId": 2096,
        "contract": "contracts/layer_zero/LzERC20ChildTunnelV1.sol:LzERC20ChildTunnelV1",
        "label": "_initialized",
        "offset": 0,
        "slot": "0",
        "type": "t_bool"
      },
      {
        "astId": 2099,
        "contract": "contracts/layer_zero/LzERC20ChildTunnelV1.sol:LzERC20ChildTunnelV1",
        "label": "_initializing",
        "offset": 1,
        "slot": "0",
        "type": "t_bool"
      },
      {
        "astId": 2562,
        "contract": "contracts/layer_zero/LzERC20ChildTunnelV1.sol:LzERC20ChildTunnelV1",
        "label": "__gap",
        "offset": 0,
        "slot": "1",
        "type": "t_array(t_uint256)50_storage"
      },
      {
        "astId": 451,
        "contract": "contracts/layer_zero/LzERC20ChildTunnelV1.sol:LzERC20ChildTunnelV1",
        "label": "lzEndpoint",
        "offset": 0,
        "slot": "51",
        "type": "t_contract(ILayerZeroEndpointUpgradeable)382"
      },
      {
        "astId": 455,
        "contract": "contracts/layer_zero/LzERC20ChildTunnelV1.sol:LzERC20ChildTunnelV1",
        "label": "trustedRemoteLookup",
        "offset": 0,
        "slot": "52",
        "type": "t_mapping(t_uint16,t_bytes_storage)"
      },
      {
        "astId": 461,
        "contract": "contracts/layer_zero/LzERC20ChildTunnelV1.sol:LzERC20ChildTunnelV1",
        "label": "minDstGasLookup",
        "offset": 0,
        "slot": "53",
        "type": "t_mapping(t_uint16,t_mapping(t_uint16,t_uint256))"
      },
      {
        "astId": 465,
        "contract": "contracts/layer_zero/LzERC20ChildTunnelV1.sol:LzERC20ChildTunnelV1",
        "label": "payloadSizeLimitLookup",
        "offset": 0,
        "slot": "54",
        "type": "t_mapping(t_uint16,t_uint256)"
      },
      {
        "astId": 467,
        "contract": "contracts/layer_zero/LzERC20ChildTunnelV1.sol:LzERC20ChildTunnelV1",
        "label": "precrime",
        "offset": 0,
        "slot": "55",
        "type": "t_address"
      },
      {
        "astId": 988,
        "contract": "contracts/layer_zero/LzERC20ChildTunnelV1.sol:LzERC20ChildTunnelV1",
        "label": "__gap",
        "offset": 0,
        "slot": "56",
        "type": "t_array(t_uint256)45_storage"
      },
      {
        "astId": 1031,
        "contract": "contracts/layer_zero/LzERC20ChildTunnelV1.sol:LzERC20ChildTunnelV1",
        "label": "failedMessages",
        "offset": 0,
        "slot": "101",
        "type": "t_mapping(t_uint16,t_mapping(t_bytes_memory_ptr,t_mapping(t_uint64,t_bytes32)))"
      },
      {
        "astId": 1250,
        "contract": "contracts/layer_zero/LzERC20ChildTunnelV1.sol:LzERC20ChildTunnelV1",
        "label": "__gap",
        "offset": 0,
        "slot": "102",
        "type": "t_array(t_uint256)49_storage"
      },
      {
        "astId": 2078,
        "contract": "contracts/layer_zero/LzERC20ChildTunnelV1.sol:LzERC20ChildTunnelV1",
        "label": "__gap",
        "offset": 0,
        "slot": "151",
        "type": "t_array(t_uint256)50_storage"
      },
      {
        "astId": 2273,
        "contract": "contracts/layer_zero/LzERC20ChildTunnelV1.sol:LzERC20ChildTunnelV1",
        "label": "__gap",
        "offset": 0,
        "slot": "201",
        "type": "t_array(t_uint256)50_storage"
      },
      {
        "astId": 28025,
        "contract": "contracts/layer_zero/LzERC20ChildTunnelV1.sol:LzERC20ChildTunnelV1",
        "label": "userRoles",
        "offset": 0,
        "slot": "251",
        "type": "t_mapping(t_address,t_uint256)"
      },
      {
        "astId": 28030,
        "contract": "contracts/layer_zero/LzERC20ChildTunnelV1.sol:LzERC20ChildTunnelV1",
        "label": "__gap",
        "offset": 0,
        "slot": "252",
        "type": "t_array(t_uint256)49_storage"
      },
      {
        "astId": 8156,
        "contract": "contracts/layer_zero/LzERC20ChildTunnelV1.sol:LzERC20ChildTunnelV1",
        "label": "__gap",
        "offset": 0,
        "slot": "301",
        "type": "t_array(t_uint256)50_storage"
      },
      {
        "astId": 6939,
        "contract": "contracts/layer_zero/LzERC20ChildTunnelV1.sol:LzERC20ChildTunnelV1",
        "label": "childToken",
        "offset": 0,
        "slot": "351",
        "type": "t_contract(MintableBurnableERC20)6497"
      },
      {
        "astId": 6942,
        "contract": "contracts/layer_zero/LzERC20ChildTunnelV1.sol:LzERC20ChildTunnelV1",
        "label": "rootTunnelChainId",
        "offset": 20,
        "slot": "351",
        "type": "t_uint16"
      },
      {
        "astId": 6945,
        "contract": "contracts/layer_zero/LzERC20ChildTunnelV1.sol:LzERC20ChildTunnelV1",
        "label": "rootTunnelAddress",
        "offset": 0,
        "slot": "352",
        "type": "t_address"
      },
      {
        "astId": 6950,
        "contract": "contracts/layer_zero/LzERC20ChildTunnelV1.sol:LzERC20ChildTunnelV1",
        "label": "usedNoncesBitmap",
        "offset": 0,
        "slot": "353",
        "type": "t_mapping(t_uint256,t_uint256)"
      }
    ],
    "types": {
      "t_address": {
        "encoding": "inplace",
        "label": "address",
        "numberOfBytes": "20"
      },
      "t_array(t_uint256)45_storage": {
        "base": "t_uint256",
        "encoding": "inplace",
        "label": "uint256[45]",
        "numberOfBytes": "1440"
      },
      "t_array(t_uint256)49_storage": {
        "base": "t_uint256",
        "encoding": "inplace",
        "label": "uint256[49]",
        "numberOfBytes": "1568"
      },
      "t_array(t_uint256)50_storage": {
        "base": "t_uint256",
        "encoding": "inplace",
        "label": "uint256[50]",
        "numberOfBytes": "1600"
      },
      "t_bool": {
        "encoding": "inplace",
        "label": "bool",
        "numberOfBytes": "1"
      },
      "t_bytes32": {
        "encoding": "inplace",
        "label": "bytes32",
        "numberOfBytes": "32"
      },
      "t_bytes_memory_ptr": {
        "encoding": "bytes",
        "label": "bytes",
        "numberOfBytes": "32"
      },
      "t_bytes_storage": {
        "encoding": "bytes",
        "label": "bytes",
        "numberOfBytes": "32"
      },
      "t_contract(ILayerZeroEndpointUpgradeable)382": {
        "encoding": "inplace",
        "label": "contract ILayerZeroEndpointUpgradeable",
        "numberOfBytes": "20"
      },
      "t_contract(MintableBurnableERC20)6497": {
        "encoding": "inplace",
        "label": "contract MintableBurnableERC20",
        "numberOfBytes": "20"
      },
      "t_mapping(t_address,t_uint256)": {
        "encoding": "mapping",
        "key": "t_address",
        "label": "mapping(address => uint256)",
        "numberOfBytes": "32",
        "value": "t_uint256"
      },
      "t_mapping(t_bytes_memory_ptr,t_mapping(t_uint64,t_bytes32))": {
        "encoding": "mapping",
        "key": "t_bytes_memory_ptr",
        "label": "mapping(bytes => mapping(uint64 => bytes32))",
        "numberOfBytes": "32",
        "value": "t_mapping(t_uint64,t_bytes32)"
      },
      "t_mapping(t_uint16,t_bytes_storage)": {
        "encoding": "mapping",
        "key": "t_uint16",
        "label": "mapping(uint16 => bytes)",
        "numberOfBytes": "32",
        "value": "t_bytes_storage"
      },
      "t_mapping(t_uint16,t_mapping(t_bytes_memory_ptr,t_mapping(t_uint64,t_bytes32)))": {
        "encoding": "mapping",
        "key": "t_uint16",
        "label": "mapping(uint16 => mapping(bytes => mapping(uint64 => bytes32)))",
        "numberOfBytes": "32",
        "value": "t_mapping(t_bytes_memory_ptr,t_mapping(t_uint64,t_bytes32))"
      },
      "t_mapping(t_uint16,t_mapping(t_uint16,t_uint256))": {
        "encoding": "mapping",
        "key": "t_uint16",
        "label": "mapping(uint16 => mapping(uint16 => uint256))",
        "numberOfBytes": "32",
        "value": "t_mapping(t_uint16,t_uint256)"
      },
      "t_mapping(t_uint16,t_uint256)": {
        "encoding": "mapping",
        "key": "t_uint16",
        "label": "mapping(uint16 => uint256)",
        "numberOfBytes": "32",
        "value": "t_uint256"
      },
      "t_mapping(t_uint256,t_uint256)": {
        "encoding": "mapping",
        "key": "t_uint256",
        "label": "mapping(uint256 => uint256)",
        "numberOfBytes": "32",
        "value": "t_uint256"
      },
      "t_mapping(t_uint64,t_bytes32)": {
        "encoding": "mapping",
        "key": "t_uint64",
        "label": "mapping(uint64 => bytes32)",
        "numberOfBytes": "32",
        "value": "t_bytes32"
      },
      "t_uint16": {
        "encoding": "inplace",
        "label": "uint16",
        "numberOfBytes": "2"
      },
      "t_uint256": {
        "encoding": "inplace",
        "label": "uint256",
        "numberOfBytes": "32"
      },
      "t_uint64": {
        "encoding": "inplace",
        "label": "uint64",
        "numberOfBytes": "8"
      }
    }
  }
}