{
  "address": "0x6F9d04BACFcb5fa14035160Cf77B9972334298eD",
  "abi": [
    {
      "inputs": [
        {
          "internalType": "address",
          "name": "_initialHolder",
          "type": "address"
        }
      ],
      "stateMutability": "nonpayable",
      "type": "constructor"
    },
    {
      "anonymous": false,
      "inputs": [
        {
          "indexed": true,
          "internalType": "address",
          "name": "owner",
          "type": "address"
        },
        {
          "indexed": true,
          "internalType": "address",
          "name": "spender",
          "type": "address"
        },
        {
          "indexed": false,
          "internalType": "uint256",
          "name": "oldValue",
          "type": "uint256"
        },
        {
          "indexed": false,
          "internalType": "uint256",
          "name": "value",
          "type": "uint256"
        }
      ],
      "name": "Approval",
      "type": "event"
    },
    {
      "anonymous": false,
      "inputs": [
        {
          "indexed": true,
          "internalType": "address",
          "name": "owner",
          "type": "address"
        },
        {
          "indexed": true,
          "internalType": "address",
          "name": "spender",
          "type": "address"
        },
        {
          "indexed": false,
          "internalType": "uint256",
          "name": "value",
          "type": "uint256"
        }
      ],
      "name": "Approval",
      "type": "event"
    },
    {
      "anonymous": false,
      "inputs": [
        {
          "indexed": true,
          "internalType": "address",
          "name": "authorizer",
          "type": "address"
        },
        {
          "indexed": true,
          "internalType": "bytes32",
          "name": "nonce",
          "type": "bytes32"
        }
      ],
      "name": "AuthorizationCanceled",
      "type": "event"
    },
    {
      "anonymous": false,
      "inputs": [
        {
          "indexed": true,
          "internalType": "address",
          "name": "authorizer",
          "type": "address"
        },
        {
          "indexed": true,
          "internalType": "bytes32",
          "name": "nonce",
          "type": "bytes32"
        }
      ],
      "name": "AuthorizationUsed",
      "type": "event"
    },
    {
      "anonymous": false,
      "inputs": [
        {
          "indexed": true,
          "internalType": "address",
          "name": "by",
          "type": "address"
        },
        {
          "indexed": true,
          "internalType": "address",
          "name": "from",
          "type": "address"
        },
        {
          "indexed": false,
          "internalType": "uint256",
          "name": "value",
          "type": "uint256"
        }
      ],
      "name": "Burnt",
      "type": "event"
    },
    {
      "anonymous": false,
      "inputs": [
        {
          "indexed": true,
          "internalType": "address",
          "name": "source",
          "type": "address"
        },
        {
          "indexed": true,
          "internalType": "address",
          "name": "from",
          "type": "address"
        },
        {
          "indexed": true,
          "internalType": "address",
          "name": "to",
          "type": "address"
        }
      ],
      "name": "DelegateChanged",
      "type": "event"
    },
    {
      "anonymous": false,
      "inputs": [
        {
          "indexed": true,
          "internalType": "address",
          "name": "by",
          "type": "address"
        },
        {
          "indexed": true,
          "internalType": "address",
          "name": "to",
          "type": "address"
        },
        {
          "indexed": false,
          "internalType": "uint256",
          "name": "value",
          "type": "uint256"
        }
      ],
      "name": "Minted",
      "type": "event"
    },
    {
      "anonymous": false,
      "inputs": [
        {
          "indexed": true,
          "internalType": "address",
          "name": "_by",
          "type": "address"
        },
        {
          "indexed": true,
          "internalType": "address",
          "name": "_to",
          "type": "address"
        },
        {
          "indexed": false,
          "internalType": "uint256",
          "name": "_requested",
          "type": "uint256"
        },
        {
          "indexed": false,
          "internalType": "uint256",
          "name": "_actual",
          "type": "uint256"
        }
      ],
      "name": "RoleUpdated",
      "type": "event"
    },
    {
      "anonymous": false,
      "inputs": [
        {
          "indexed": true,
          "internalType": "address",
          "name": "by",
          "type": "address"
        },
        {
          "indexed": true,
          "internalType": "address",
          "name": "from",
          "type": "address"
        },
        {
          "indexed": true,
          "internalType": "address",
          "name": "to",
          "type": "address"
        },
        {
          "indexed": false,
          "internalType": "uint256",
          "name": "value",
          "type": "uint256"
        }
      ],
      "name": "Transfer",
      "type": "event"
    },
    {
      "anonymous": false,
      "inputs": [
        {
          "indexed": true,
          "internalType": "address",
          "name": "from",
          "type": "address"
        },
        {
          "indexed": true,
          "internalType": "address",
          "name": "to",
          "type": "address"
        },
        {
          "indexed": false,
          "internalType": "uint256",
          "name": "value",
          "type": "uint256"
        }
      ],
      "name": "Transfer",
      "type": "event"
    },
    {
      "anonymous": false,
      "inputs": [
        {
          "indexed": true,
          "internalType": "address",
          "name": "by",
          "type": "address"
        },
        {
          "indexed": true,
          "internalType": "address",
          "name": "target",
          "type": "address"
        },
        {
          "indexed": false,
          "internalType": "uint256",
          "name": "fromVal",
          "type": "uint256"
        },
        {
          "indexed": false,
          "internalType": "uint256",
          "name": "toVal",
          "type": "uint256"
        }
      ],
      "name": "VotingPowerChanged",
      "type": "event"
    },
    {
      "inputs": [],
      "name": "CANCEL_AUTHORIZATION_TYPEHASH",
      "outputs": [
        {
          "internalType": "bytes32",
          "name": "",
          "type": "bytes32"
        }
      ],
      "stateMutability": "view",
      "type": "function"
    },
    {
      "inputs": [],
      "name": "DELEGATION_TYPEHASH",
      "outputs": [
        {
          "internalType": "bytes32",
          "name": "",
          "type": "bytes32"
        }
      ],
      "stateMutability": "view",
      "type": "function"
    },
    {
      "inputs": [],
      "name": "DOMAIN_SEPARATOR",
      "outputs": [
        {
          "internalType": "bytes32",
          "name": "",
          "type": "bytes32"
        }
      ],
      "stateMutability": "view",
      "type": "function"
    },
    {
      "inputs": [],
      "name": "DOMAIN_TYPEHASH",
      "outputs": [
        {
          "internalType": "bytes32",
          "name": "",
          "type": "bytes32"
        }
      ],
      "stateMutability": "view",
      "type": "function"
    },
    {
      "inputs": [],
      "name": "FEATURE_BURNS_ON_BEHALF",
      "outputs": [
        {
          "internalType": "uint32",
          "name": "",
          "type": "uint32"
        }
      ],
      "stateMutability": "view",
      "type": "function"
    },
    {
      "inputs": [],
      "name": "FEATURE_DELEGATIONS",
      "outputs": [
        {
          "internalType": "uint32",
          "name": "",
          "type": "uint32"
        }
      ],
      "stateMutability": "view",
      "type": "function"
    },
    {
      "inputs": [],
      "name": "FEATURE_DELEGATIONS_ON_BEHALF",
      "outputs": [
        {
          "internalType": "uint32",
          "name": "",
          "type": "uint32"
        }
      ],
      "stateMutability": "view",
      "type": "function"
    },
    {
      "inputs": [],
      "name": "FEATURE_EIP2612_PERMITS",
      "outputs": [
        {
          "internalType": "uint32",
          "name": "",
          "type": "uint32"
        }
      ],
      "stateMutability": "view",
      "type": "function"
    },
    {
      "inputs": [],
      "name": "FEATURE_EIP3009_RECEPTIONS",
      "outputs": [
        {
          "internalType": "uint32",
          "name": "",
          "type": "uint32"
        }
      ],
      "stateMutability": "view",
      "type": "function"
    },
    {
      "inputs": [],
      "name": "FEATURE_EIP3009_TRANSFERS",
      "outputs": [
        {
          "internalType": "uint32",
          "name": "",
          "type": "uint32"
        }
      ],
      "stateMutability": "view",
      "type": "function"
    },
    {
      "inputs": [],
      "name": "FEATURE_ERC1363_APPROVALS",
      "outputs": [
        {
          "internalType": "uint32",
          "name": "",
          "type": "uint32"
        }
      ],
      "stateMutability": "view",
      "type": "function"
    },
    {
      "inputs": [],
      "name": "FEATURE_ERC1363_TRANSFERS",
      "outputs": [
        {
          "internalType": "uint32",
          "name": "",
          "type": "uint32"
        }
      ],
      "stateMutability": "view",
      "type": "function"
    },
    {
      "inputs": [],
      "name": "FEATURE_OWN_BURNS",
      "outputs": [
        {
          "internalType": "uint32",
          "name": "",
          "type": "uint32"
        }
      ],
      "stateMutability": "view",
      "type": "function"
    },
    {
      "inputs": [],
      "name": "FEATURE_TRANSFERS",
      "outputs": [
        {
          "internalType": "uint32",
          "name": "",
          "type": "uint32"
        }
      ],
      "stateMutability": "view",
      "type": "function"
    },
    {
      "inputs": [],
      "name": "FEATURE_TRANSFERS_ON_BEHALF",
      "outputs": [
        {
          "internalType": "uint32",
          "name": "",
          "type": "uint32"
        }
      ],
      "stateMutability": "view",
      "type": "function"
    },
    {
      "inputs": [],
      "name": "FEATURE_UNSAFE_TRANSFERS",
      "outputs": [
        {
          "internalType": "uint32",
          "name": "",
          "type": "uint32"
        }
      ],
      "stateMutability": "view",
      "type": "function"
    },
    {
      "inputs": [],
      "name": "PERMIT_TYPEHASH",
      "outputs": [
        {
          "internalType": "bytes32",
          "name": "",
          "type": "bytes32"
        }
      ],
      "stateMutability": "view",
      "type": "function"
    },
    {
      "inputs": [],
      "name": "RECEIVE_WITH_AUTHORIZATION_TYPEHASH",
      "outputs": [
        {
          "internalType": "bytes32",
          "name": "",
          "type": "bytes32"
        }
      ],
      "stateMutability": "view",
      "type": "function"
    },
    {
      "inputs": [],
      "name": "ROLE_ACCESS_MANAGER",
      "outputs": [
        {
          "internalType": "uint256",
          "name": "",
          "type": "uint256"
        }
      ],
      "stateMutability": "view",
      "type": "function"
    },
    {
      "inputs": [],
      "name": "ROLE_ERC20_RECEIVER",
      "outputs": [
        {
          "internalType": "uint32",
          "name": "",
          "type": "uint32"
        }
      ],
      "stateMutability": "view",
      "type": "function"
    },
    {
      "inputs": [],
      "name": "ROLE_ERC20_SENDER",
      "outputs": [
        {
          "internalType": "uint32",
          "name": "",
          "type": "uint32"
        }
      ],
      "stateMutability": "view",
      "type": "function"
    },
    {
      "inputs": [],
      "name": "ROLE_TOKEN_CREATOR",
      "outputs": [
        {
          "internalType": "uint32",
          "name": "",
          "type": "uint32"
        }
      ],
      "stateMutability": "view",
      "type": "function"
    },
    {
      "inputs": [],
      "name": "ROLE_TOKEN_DESTROYER",
      "outputs": [
        {
          "internalType": "uint32",
          "name": "",
          "type": "uint32"
        }
      ],
      "stateMutability": "view",
      "type": "function"
    },
    {
      "inputs": [],
      "name": "TOKEN_UID",
      "outputs": [
        {
          "internalType": "uint256",
          "name": "",
          "type": "uint256"
        }
      ],
      "stateMutability": "view",
      "type": "function"
    },
    {
      "inputs": [],
      "name": "TRANSFER_WITH_AUTHORIZATION_TYPEHASH",
      "outputs": [
        {
          "internalType": "bytes32",
          "name": "",
          "type": "bytes32"
        }
      ],
      "stateMutability": "view",
      "type": "function"
    },
    {
      "inputs": [
        {
          "internalType": "address",
          "name": "_owner",
          "type": "address"
        },
        {
          "internalType": "address",
          "name": "_spender",
          "type": "address"
        }
      ],
      "name": "allowance",
      "outputs": [
        {
          "internalType": "uint256",
          "name": "remaining",
          "type": "uint256"
        }
      ],
      "stateMutability": "view",
      "type": "function"
    },
    {
      "inputs": [
        {
          "internalType": "address",
          "name": "_spender",
          "type": "address"
        },
        {
          "internalType": "uint256",
          "name": "_value",
          "type": "uint256"
        }
      ],
      "name": "approve",
      "outputs": [
        {
          "internalType": "bool",
          "name": "success",
          "type": "bool"
        }
      ],
      "stateMutability": "nonpayable",
      "type": "function"
    },
    {
      "inputs": [
        {
          "internalType": "address",
          "name": "_spender",
          "type": "address"
        },
        {
          "internalType": "uint256",
          "name": "_value",
          "type": "uint256"
        }
      ],
      "name": "approveAndCall",
      "outputs": [
        {
          "internalType": "bool",
          "name": "",
          "type": "bool"
        }
      ],
      "stateMutability": "nonpayable",
      "type": "function"
    },
    {
      "inputs": [
        {
          "internalType": "address",
          "name": "_spender",
          "type": "address"
        },
        {
          "internalType": "uint256",
          "name": "_value",
          "type": "uint256"
        },
        {
          "internalType": "bytes",
          "name": "_data",
          "type": "bytes"
        }
      ],
      "name": "approveAndCall",
      "outputs": [
        {
          "internalType": "bool",
          "name": "",
          "type": "bool"
        }
      ],
      "stateMutability": "nonpayable",
      "type": "function"
    },
    {
      "inputs": [
        {
          "internalType": "address",
          "name": "_authorizer",
          "type": "address"
        },
        {
          "internalType": "bytes32",
          "name": "_nonce",
          "type": "bytes32"
        }
      ],
      "name": "authorizationState",
      "outputs": [
        {
          "internalType": "bool",
          "name": "",
          "type": "bool"
        }
      ],
      "stateMutability": "view",
      "type": "function"
    },
    {
      "inputs": [
        {
          "internalType": "address",
          "name": "_owner",
          "type": "address"
        }
      ],
      "name": "balanceOf",
      "outputs": [
        {
          "internalType": "uint256",
          "name": "balance",
          "type": "uint256"
        }
      ],
      "stateMutability": "view",
      "type": "function"
    },
    {
      "inputs": [
        {
          "internalType": "address",
          "name": "_from",
          "type": "address"
        },
        {
          "internalType": "uint256",
          "name": "_value",
          "type": "uint256"
        }
      ],
      "name": "burn",
      "outputs": [],
      "stateMutability": "nonpayable",
      "type": "function"
    },
    {
      "inputs": [
        {
          "internalType": "address",
          "name": "_authorizer",
          "type": "address"
        },
        {
          "internalType": "bytes32",
          "name": "_nonce",
          "type": "bytes32"
        },
        {
          "internalType": "uint8",
          "name": "v",
          "type": "uint8"
        },
        {
          "internalType": "bytes32",
          "name": "r",
          "type": "bytes32"
        },
        {
          "internalType": "bytes32",
          "name": "s",
          "type": "bytes32"
        }
      ],
      "name": "cancelAuthorization",
      "outputs": [],
      "stateMutability": "nonpayable",
      "type": "function"
    },
    {
      "inputs": [],
      "name": "decimals",
      "outputs": [
        {
          "internalType": "uint8",
          "name": "",
          "type": "uint8"
        }
      ],
      "stateMutability": "view",
      "type": "function"
    },
    {
      "inputs": [
        {
          "internalType": "address",
          "name": "_spender",
          "type": "address"
        },
        {
          "internalType": "uint256",
          "name": "_value",
          "type": "uint256"
        }
      ],
      "name": "decreaseAllowance",
      "outputs": [
        {
          "internalType": "bool",
          "name": "",
          "type": "bool"
        }
      ],
      "stateMutability": "nonpayable",
      "type": "function"
    },
    {
      "inputs": [
        {
          "internalType": "address",
          "name": "_to",
          "type": "address"
        }
      ],
      "name": "delegate",
      "outputs": [],
      "stateMutability": "nonpayable",
      "type": "function"
    },
    {
      "inputs": [
        {
          "internalType": "address",
          "name": "_to",
          "type": "address"
        },
        {
          "internalType": "bytes32",
          "name": "_nonce",
          "type": "bytes32"
        },
        {
          "internalType": "uint256",
          "name": "_exp",
          "type": "uint256"
        },
        {
          "internalType": "uint8",
          "name": "v",
          "type": "uint8"
        },
        {
          "internalType": "bytes32",
          "name": "r",
          "type": "bytes32"
        },
        {
          "internalType": "bytes32",
          "name": "s",
          "type": "bytes32"
        }
      ],
      "name": "delegateWithAuthorization",
      "outputs": [],
      "stateMutability": "nonpayable",
      "type": "function"
    },
    {
      "inputs": [
        {
          "internalType": "address",
          "name": "user",
          "type": "address"
        },
        {
          "internalType": "bytes",
          "name": "depositData",
          "type": "bytes"
        }
      ],
      "name": "deposit",
      "outputs": [],
      "stateMutability": "nonpayable",
      "type": "function"
    },
    {
      "inputs": [],
      "name": "entireSupplyHistory",
      "outputs": [
        {
          "components": [
            {
              "internalType": "uint64",
              "name": "k",
              "type": "uint64"
            },
            {
              "internalType": "uint192",
              "name": "v",
              "type": "uint192"
            }
          ],
          "internalType": "struct AliERC20v2Base.KV[]",
          "name": "",
          "type": "tuple[]"
        }
      ],
      "stateMutability": "view",
      "type": "function"
    },
    {
      "inputs": [
        {
          "internalType": "address",
          "name": "operator",
          "type": "address"
        },
        {
          "internalType": "uint256",
          "name": "target",
          "type": "uint256"
        },
        {
          "internalType": "uint256",
          "name": "desired",
          "type": "uint256"
        }
      ],
      "name": "evaluateBy",
      "outputs": [
        {
          "internalType": "uint256",
          "name": "",
          "type": "uint256"
        }
      ],
      "stateMutability": "view",
      "type": "function"
    },
    {
      "inputs": [],
      "name": "features",
      "outputs": [
        {
          "internalType": "uint256",
          "name": "",
          "type": "uint256"
        }
      ],
      "stateMutability": "view",
      "type": "function"
    },
    {
      "inputs": [
        {
          "internalType": "address",
          "name": "_spender",
          "type": "address"
        },
        {
          "internalType": "uint256",
          "name": "_value",
          "type": "uint256"
        }
      ],
      "name": "increaseAllowance",
      "outputs": [
        {
          "internalType": "bool",
          "name": "",
          "type": "bool"
        }
      ],
      "stateMutability": "nonpayable",
      "type": "function"
    },
    {
      "inputs": [
        {
          "internalType": "uint256",
          "name": "required",
          "type": "uint256"
        }
      ],
      "name": "isFeatureEnabled",
      "outputs": [
        {
          "internalType": "bool",
          "name": "",
          "type": "bool"
        }
      ],
      "stateMutability": "view",
      "type": "function"
    },
    {
      "inputs": [
        {
          "internalType": "address",
          "name": "operator",
          "type": "address"
        },
        {
          "internalType": "uint256",
          "name": "required",
          "type": "uint256"
        }
      ],
      "name": "isOperatorInRole",
      "outputs": [
        {
          "internalType": "bool",
          "name": "",
          "type": "bool"
        }
      ],
      "stateMutability": "view",
      "type": "function"
    },
    {
      "inputs": [
        {
          "internalType": "uint256",
          "name": "required",
          "type": "uint256"
        }
      ],
      "name": "isSenderInRole",
      "outputs": [
        {
          "internalType": "bool",
          "name": "",
          "type": "bool"
        }
      ],
      "stateMutability": "view",
      "type": "function"
    },
    {
      "inputs": [
        {
          "internalType": "address",
          "name": "_to",
          "type": "address"
        },
        {
          "internalType": "uint256",
          "name": "_value",
          "type": "uint256"
        }
      ],
      "name": "mint",
      "outputs": [],
      "stateMutability": "nonpayable",
      "type": "function"
    },
    {
      "inputs": [],
      "name": "name",
      "outputs": [
        {
          "internalType": "string",
          "name": "",
          "type": "string"
        }
      ],
      "stateMutability": "view",
      "type": "function"
    },
    {
      "inputs": [
        {
          "internalType": "address",
          "name": "",
          "type": "address"
        }
      ],
      "name": "nonces",
      "outputs": [
        {
          "internalType": "uint256",
          "name": "",
          "type": "uint256"
        }
      ],
      "stateMutability": "view",
      "type": "function"
    },
    {
      "inputs": [
        {
          "internalType": "address",
          "name": "_owner",
          "type": "address"
        },
        {
          "internalType": "address",
          "name": "_spender",
          "type": "address"
        },
        {
          "internalType": "uint256",
          "name": "_value",
          "type": "uint256"
        },
        {
          "internalType": "uint256",
          "name": "_exp",
          "type": "uint256"
        },
        {
          "internalType": "uint8",
          "name": "v",
          "type": "uint8"
        },
        {
          "internalType": "bytes32",
          "name": "r",
          "type": "bytes32"
        },
        {
          "internalType": "bytes32",
          "name": "s",
          "type": "bytes32"
        }
      ],
      "name": "permit",
      "outputs": [],
      "stateMutability": "nonpayable",
      "type": "function"
    },
    {
      "inputs": [
        {
          "internalType": "address",
          "name": "_from",
          "type": "address"
        },
        {
          "internalType": "address",
          "name": "_to",
          "type": "address"
        },
        {
          "internalType": "uint256",
          "name": "_value",
          "type": "uint256"
        },
        {
          "internalType": "uint256",
          "name": "_validAfter",
          "type": "uint256"
        },
        {
          "internalType": "uint256",
          "name": "_validBefore",
          "type": "uint256"
        },
        {
          "internalType": "bytes32",
          "name": "_nonce",
          "type": "bytes32"
        },
        {
          "internalType": "uint8",
          "name": "v",
          "type": "uint8"
        },
        {
          "internalType": "bytes32",
          "name": "r",
          "type": "bytes32"
        },
        {
          "internalType": "bytes32",
          "name": "s",
          "type": "bytes32"
        }
      ],
      "name": "receiveWithAuthorization",
      "outputs": [],
      "stateMutability": "nonpayable",
      "type": "function"
    },
    {
      "inputs": [
        {
          "internalType": "address",
          "name": "_from",
          "type": "address"
        },
        {
          "internalType": "address",
          "name": "_to",
          "type": "address"
        },
        {
          "internalType": "uint256",
          "name": "_value",
          "type": "uint256"
        },
        {
          "internalType": "bytes",
          "name": "_data",
          "type": "bytes"
        }
      ],
      "name": "safeTransferFrom",
      "outputs": [
        {
          "internalType": "bool",
          "name": "",
          "type": "bool"
        }
      ],
      "stateMutability": "nonpayable",
      "type": "function"
    },
    {
      "inputs": [
        {
          "internalType": "bytes4",
          "name": "interfaceId",
          "type": "bytes4"
        }
      ],
      "name": "supportsInterface",
      "outputs": [
        {
          "internalType": "bool",
          "name": "",
          "type": "bool"
        }
      ],
      "stateMutability": "pure",
      "type": "function"
    },
    {
      "inputs": [],
      "name": "symbol",
      "outputs": [
        {
          "internalType": "string",
          "name": "",
          "type": "string"
        }
      ],
      "stateMutability": "view",
      "type": "function"
    },
    {
      "inputs": [],
      "name": "totalSupply",
      "outputs": [
        {
          "internalType": "uint256",
          "name": "",
          "type": "uint256"
        }
      ],
      "stateMutability": "view",
      "type": "function"
    },
    {
      "inputs": [
        {
          "internalType": "uint256",
          "name": "_blockNum",
          "type": "uint256"
        }
      ],
      "name": "totalSupplyAt",
      "outputs": [
        {
          "internalType": "uint256",
          "name": "",
          "type": "uint256"
        }
      ],
      "stateMutability": "view",
      "type": "function"
    },
    {
      "inputs": [
        {
          "internalType": "uint256",
          "name": "",
          "type": "uint256"
        }
      ],
      "name": "totalSupplyHistory",
      "outputs": [
        {
          "internalType": "uint64",
          "name": "k",
          "type": "uint64"
        },
        {
          "internalType": "uint192",
          "name": "v",
          "type": "uint192"
        }
      ],
      "stateMutability": "view",
      "type": "function"
    },
    {
      "inputs": [],
      "name": "totalSupplyHistoryLength",
      "outputs": [
        {
          "internalType": "uint256",
          "name": "",
          "type": "uint256"
        }
      ],
      "stateMutability": "view",
      "type": "function"
    },
    {
      "inputs": [
        {
          "internalType": "address",
          "name": "_to",
          "type": "address"
        },
        {
          "internalType": "uint256",
          "name": "_value",
          "type": "uint256"
        }
      ],
      "name": "transfer",
      "outputs": [
        {
          "internalType": "bool",
          "name": "success",
          "type": "bool"
        }
      ],
      "stateMutability": "nonpayable",
      "type": "function"
    },
    {
      "inputs": [
        {
          "internalType": "address",
          "name": "_to",
          "type": "address"
        },
        {
          "internalType": "uint256",
          "name": "_value",
          "type": "uint256"
        }
      ],
      "name": "transferAndCall",
      "outputs": [
        {
          "internalType": "bool",
          "name": "",
          "type": "bool"
        }
      ],
      "stateMutability": "nonpayable",
      "type": "function"
    },
    {
      "inputs": [
        {
          "internalType": "address",
          "name": "_to",
          "type": "address"
        },
        {
          "internalType": "uint256",
          "name": "_value",
          "type": "uint256"
        },
        {
          "internalType": "bytes",
          "name": "_data",
          "type": "bytes"
        }
      ],
      "name": "transferAndCall",
      "outputs": [
        {
          "internalType": "bool",
          "name": "",
          "type": "bool"
        }
      ],
      "stateMutability": "nonpayable",
      "type": "function"
    },
    {
      "inputs": [
        {
          "internalType": "address",
          "name": "_from",
          "type": "address"
        },
        {
          "internalType": "address",
          "name": "_to",
          "type": "address"
        },
        {
          "internalType": "uint256",
          "name": "_value",
          "type": "uint256"
        }
      ],
      "name": "transferFrom",
      "outputs": [
        {
          "internalType": "bool",
          "name": "success",
          "type": "bool"
        }
      ],
      "stateMutability": "nonpayable",
      "type": "function"
    },
    {
      "inputs": [
        {
          "internalType": "address",
          "name": "_from",
          "type": "address"
        },
        {
          "internalType": "address",
          "name": "_to",
          "type": "address"
        },
        {
          "internalType": "uint256",
          "name": "_value",
          "type": "uint256"
        },
        {
          "internalType": "bytes",
          "name": "_data",
          "type": "bytes"
        }
      ],
      "name": "transferFromAndCall",
      "outputs": [
        {
          "internalType": "bool",
          "name": "",
          "type": "bool"
        }
      ],
      "stateMutability": "nonpayable",
      "type": "function"
    },
    {
      "inputs": [
        {
          "internalType": "address",
          "name": "_from",
          "type": "address"
        },
        {
          "internalType": "address",
          "name": "_to",
          "type": "address"
        },
        {
          "internalType": "uint256",
          "name": "_value",
          "type": "uint256"
        }
      ],
      "name": "transferFromAndCall",
      "outputs": [
        {
          "internalType": "bool",
          "name": "",
          "type": "bool"
        }
      ],
      "stateMutability": "nonpayable",
      "type": "function"
    },
    {
      "inputs": [
        {
          "internalType": "address",
          "name": "_from",
          "type": "address"
        },
        {
          "internalType": "address",
          "name": "_to",
          "type": "address"
        },
        {
          "internalType": "uint256",
          "name": "_value",
          "type": "uint256"
        },
        {
          "internalType": "uint256",
          "name": "_validAfter",
          "type": "uint256"
        },
        {
          "internalType": "uint256",
          "name": "_validBefore",
          "type": "uint256"
        },
        {
          "internalType": "bytes32",
          "name": "_nonce",
          "type": "bytes32"
        },
        {
          "internalType": "uint8",
          "name": "v",
          "type": "uint8"
        },
        {
          "internalType": "bytes32",
          "name": "r",
          "type": "bytes32"
        },
        {
          "internalType": "bytes32",
          "name": "s",
          "type": "bytes32"
        }
      ],
      "name": "transferWithAuthorization",
      "outputs": [],
      "stateMutability": "nonpayable",
      "type": "function"
    },
    {
      "inputs": [
        {
          "internalType": "address",
          "name": "_from",
          "type": "address"
        },
        {
          "internalType": "address",
          "name": "_to",
          "type": "address"
        },
        {
          "internalType": "uint256",
          "name": "_value",
          "type": "uint256"
        }
      ],
      "name": "unsafeTransferFrom",
      "outputs": [],
      "stateMutability": "nonpayable",
      "type": "function"
    },
    {
      "inputs": [
        {
          "internalType": "uint256",
          "name": "_mask",
          "type": "uint256"
        }
      ],
      "name": "updateFeatures",
      "outputs": [],
      "stateMutability": "nonpayable",
      "type": "function"
    },
    {
      "inputs": [
        {
          "internalType": "address",
          "name": "operator",
          "type": "address"
        },
        {
          "internalType": "uint256",
          "name": "role",
          "type": "uint256"
        }
      ],
      "name": "updateRole",
      "outputs": [],
      "stateMutability": "nonpayable",
      "type": "function"
    },
    {
      "inputs": [
        {
          "internalType": "address",
          "name": "",
          "type": "address"
        }
      ],
      "name": "userRoles",
      "outputs": [
        {
          "internalType": "uint256",
          "name": "",
          "type": "uint256"
        }
      ],
      "stateMutability": "view",
      "type": "function"
    },
    {
      "inputs": [
        {
          "internalType": "address",
          "name": "",
          "type": "address"
        }
      ],
      "name": "votingDelegates",
      "outputs": [
        {
          "internalType": "address",
          "name": "",
          "type": "address"
        }
      ],
      "stateMutability": "view",
      "type": "function"
    },
    {
      "inputs": [
        {
          "internalType": "address",
          "name": "_of",
          "type": "address"
        },
        {
          "internalType": "uint256",
          "name": "_blockNum",
          "type": "uint256"
        }
      ],
      "name": "votingPowerAt",
      "outputs": [
        {
          "internalType": "uint256",
          "name": "",
          "type": "uint256"
        }
      ],
      "stateMutability": "view",
      "type": "function"
    },
    {
      "inputs": [
        {
          "internalType": "address",
          "name": "",
          "type": "address"
        },
        {
          "internalType": "uint256",
          "name": "",
          "type": "uint256"
        }
      ],
      "name": "votingPowerHistory",
      "outputs": [
        {
          "internalType": "uint64",
          "name": "k",
          "type": "uint64"
        },
        {
          "internalType": "uint192",
          "name": "v",
          "type": "uint192"
        }
      ],
      "stateMutability": "view",
      "type": "function"
    },
    {
      "inputs": [
        {
          "internalType": "address",
          "name": "_of",
          "type": "address"
        }
      ],
      "name": "votingPowerHistoryLength",
      "outputs": [
        {
          "internalType": "uint256",
          "name": "",
          "type": "uint256"
        }
      ],
      "stateMutability": "view",
      "type": "function"
    },
    {
      "inputs": [
        {
          "internalType": "address",
          "name": "_of",
          "type": "address"
        }
      ],
      "name": "votingPowerHistoryOf",
      "outputs": [
        {
          "components": [
            {
              "internalType": "uint64",
              "name": "k",
              "type": "uint64"
            },
            {
              "internalType": "uint192",
              "name": "v",
              "type": "uint192"
            }
          ],
          "internalType": "struct AliERC20v2Base.KV[]",
          "name": "",
          "type": "tuple[]"
        }
      ],
      "stateMutability": "view",
      "type": "function"
    },
    {
      "inputs": [
        {
          "internalType": "address",
          "name": "_of",
          "type": "address"
        }
      ],
      "name": "votingPowerOf",
      "outputs": [
        {
          "internalType": "uint256",
          "name": "",
          "type": "uint256"
        }
      ],
      "stateMutability": "view",
      "type": "function"
    },
    {
      "inputs": [
        {
          "internalType": "uint256",
          "name": "amount",
          "type": "uint256"
        }
      ],
      "name": "withdraw",
      "outputs": [],
      "stateMutability": "nonpayable",
      "type": "function"
    }
  ],
  "transactionHash": "0xb0b02615305b84149ffc3f0e3ae4ad454589696da06306434dc9604ab7cf70b6",
  "args": [
    "0x5F185Da55f7BBD9217E3b3CeE06b180721FA6d34"
  ],
  "numDeployments": 1,
  "solcInputHash": "691a2617ed203560e58142412492b698",
  "bytecode": "0x60a06040523480156200001157600080fd5b506040516200410d3803806200410d8339810160408190526200003491620006ec565b3360009081526020819052604081206000199055819062000059565b60405180910390fd5b604080518082018252600a81526920b634a2a92199183b1960b11b60209182015281517f8cad95687ba82c2ce50e74f7b754645e5117c3a5bec8151c0726d5857980a866818301527f5572cb272f139fecace047c0fa6b0771cef3e004fc181b85045ff215e5fcaa3c818401524660608201523060808083019190915283518083038201815260a090920190935280519101209052801562000101576200010182826200010a565b50505062000778565b6200011862010000620003bb565b620001565760405162461bcd60e51b815260206004820152600d60248201526c1858d8d95cdcc819195b9a5959609a1b604482015260640162000050565b6001600160a01b0382166200019d5760405162461bcd60e51b815260206004820152600c60248201526b7a65726f206164647265737360a01b604482015260640162000050565b60015481810111620001fc5760405162461bcd60e51b815260206004820152602160248201527f7a65726f2076616c7565206f722061726974686d65746963206f766572666c6f6044820152607760f81b606482015260840162000050565b6001546001600160c01b0390620002159083906200072d565b1115620002655760405162461bcd60e51b815260206004820152601f60248201527f746f74616c20737570706c79206f766572666c6f77202875696e743139322900604482015260640162000050565b80600160008282546200027991906200072d565b90915550506001600160a01b03821660009081526002602052604081208054839290620002a89084906200072d565b90915550620002c79050600562002004620003cf60201b1783620003e4565b50506001600160a01b03808316600090815260036020526040812054620002f392339291168462000567565b6040518181526001600160a01b0383169033907f9d228d69b5fdb8d273a2336f8fb8612d039631024ea9bf09c424a9503aa078f09060200160405180910390a36040518181526001600160a01b0383169060009033907fd1398bee19313d6bf672ccb116e51f4a1a947e91c757907f51fbb5b5e56c698f9060200160405180910390a46040518181526001600160a01b038316906000907fddf252ad1be2c89b69c2b068fc378daa952ba7f163c4a11628f55a4df523b3ef9060200160405180910390a35050565b6000620003c93383620006bb565b92915050565b6000620003dd82846200072d565b9392505050565b82546000908190156200043d5784548590620004039060019062000748565b8154811062000416576200041662000762565b6000918252602090912001546801000000000000000090046001600160c01b031662000440565b60005b6001600160c01b031691506200045782848660201c565b855490915015801590620004a457508454439086906200047a9060019062000748565b815481106200048d576200048d62000762565b6000918252602090912001546001600160401b0316145b156200050857845481908690620004be9060019062000748565b81548110620004d157620004d162000762565b9060005260206000200160000160086101000a8154816001600160c01b0302191690836001600160c01b031602179055506200055f565b604080518082019091526001600160401b0343811682526001600160c01b0380841660208085019182528954600181018b5560008b8152919091209451915190921668010000000000000000029216919091179101555b935093915050565b816001600160a01b0316836001600160a01b0316148062000586575080155b620006b5576001600160a01b0383161562000620576001600160a01b0383166000908152600460209081526040822091908190620005d2908490620006de901b620020101786620003e4565b91509150856001600160a01b0316876001600160a01b0316600080516020620040ed833981519152848460405162000614929190918252602082015260400190565b60405180910390a35050505b6001600160a01b03821615620006b5576001600160a01b038216600090815260046020908152604082209190819062000667908490620003cf901b620020041786620003e4565b91509150846001600160a01b0316876001600160a01b0316600080516020620040ed8339815191528484604051620006a9929190918252602082015260400190565b60405180910390a35050505b50505050565b6001600160a01b03821660009081526020819052604081205482168214620003dd565b6000620003dd828462000748565b600060208284031215620006ff57600080fd5b81516001600160a01b0381168114620003dd57600080fd5b634e487b7160e01b600052601160045260246000fd5b6000821982111562000743576200074362000717565b500190565b6000828210156200075d576200075d62000717565b500390565b634e487b7160e01b600052603260045260246000fd5b6080516139526200079b6000396000818161060401526129ce01526139526000f3fe608060405234801561001057600080fd5b50600436106104495760003560e01c80637fd491b011610241578063c5ff500c1161013b578063e3ee160e116100c3578063ef55bec611610087578063ef55bec614610aa7578063f63c2f8214610aba578063f822d5aa14610ac2578063f9cf927114610ad5578063fcc2c07814610ae857600080fd5b8063e3ee160e14610a20578063e62cac7614610a33578063e7a324dc14610a3d578063e94a010214610a64578063e98f5ba714610a9d57600080fd5b8063d505accf1161010a578063d505accf14610987578063d5bb7f671461099a578063d8fbe994146109ad578063d9169487146109c0578063dd62ed3e146109e757600080fd5b8063c5ff500c14610944578063c688d6931461094e578063cae9ca5114610961578063cf2c52cb1461097457600080fd5b8063a0cc6a68116101c9578063b66dbdc51161018d578063b66dbdc5146108fb578063b88d4fde14610903578063bcc3f3bd14610916578063c0d6568d14610929578063c1d34b891461093157600080fd5b8063a0cc6a6814610890578063a457c2d7146108b7578063a9059cbb146108ca578063ae5b102e146108dd578063ae682e2e146108f057600080fd5b80638f6fba8c116102105780638f6fba8c1461082d57806394f4f9301461083557806395d89b4114610848578063981b24d01461086a5780639dc29fac1461087d57600080fd5b80637fd491b0146107c057806387793f3e146107d35780638a114e13146107fc5780638d4e57e61461082357600080fd5b80633644e515116103525780635e2dc2b7116102da578063725f36261161029e578063725f36261461073357806374d5e100146107465780637815ef0c146107665780637ecebe00146107795780637f2eecc31461079957600080fd5b80635e2dc2b7146106a957806364cb8b96146106b2578063653de620146106c75780636641d9a0146106d057806370a082311461070a57600080fd5b806340c10f191161032157806340c10f19146106545780634721272d1461066757806359b961ef146106705780635a049a70146106835780635c19a95c1461069657600080fd5b80633644e515146105ff57806339509351146106265780633e9c5f7e146106395780634000aea01461064157600080fd5b80631e0fa234116103d55780632d4c39ea116103a45780632d4c39ea1461058e5780632e1a7d4d1461059657806330adf81f146105ab578063313ce567146105d25780633177029f146105ec57600080fd5b80631e0fa234146104fe57806320606b701461053f57806323b872dd146105665780632b5214161461057957600080fd5b8063136d035f1161041c578063136d035f146104b157806313873a24146104cf57806318160ddd146104d75780631993f554146104ee5780631a0b04ea146104f657600080fd5b806301ffc9a71461044e57806306fdde0314610476578063095ea7b31461048b5780631296ee621461049e575b600080fd5b61046161045c36600461318e565b610afb565b60405190151581526020015b60405180910390f35b61047e610b83565b60405161046d91906131f8565b610461610499366004613227565b610b9f565b6104616104ac366004613227565b610bb5565b6104ba61080081565b60405163ffffffff909116815260200161046d565b6104ba608081565b6104e060015481565b60405190815260200161046d565b6104ba600481565b6104ba600881565b61052761050c366004613251565b6003602052600090815260409020546001600160a01b031681565b6040516001600160a01b03909116815260200161046d565b6104e07f8cad95687ba82c2ce50e74f7b754645e5117c3a5bec8151c0726d5857980a86681565b61046161057436600461326c565b610bc9565b306000908152602081905260409020546104e0565b6104ba604081565b6105a96105a43660046132a8565b610c36565b005b6104e07f6e71edae12b1b97f4d1f60370fef10105fa2faae0126114a169c64845d6126c981565b6105da601281565b60405160ff909116815260200161046d565b6104616105fa366004613227565b610c43565b6104e07f000000000000000000000000000000000000000000000000000000000000000081565b610461610634366004613227565b610c5f565b6104ba602081565b61046161064f366004613363565b610d0b565b6105a9610662366004613227565b610d19565b6104ba61020081565b6105a961067e36600461326c565b610f7c565b6105a96106913660046133ca565b610f8d565b6105a96106a4366004613251565b611038565b6104ba61040081565b6106ba611098565b60405161046d9190613418565b6104ba61010081565b6106e36106de3660046132a8565b611114565b604080516001600160401b0390931683526001600160c01b0390911660208301520161046d565b6104e0610718366004613251565b6001600160a01b031660009081526002602052604090205490565b6104616107413660046132a8565b61114f565b6104e0610754366004613251565b60006020819052908152604090205481565b6106ba610774366004613251565b611168565b6104e0610787366004613251565b60066020526000908152604090205481565b6104e07fd099cc98ef71107a616c4f0f941f04c322d8e254fe26b3c6668db87aae413de881565b6106e36107ce366004613227565b6111fa565b6104e06107e1366004613251565b6001600160a01b031660009081526004602052604090205490565b6104e07f8d4fb97da97378ef7d0ad259aec651f42bd22c200159282baa58486bb390286b81565b6104ba6201000081565b6104ba600281565b6104e0610843366004613227565b611243565b61047e60405180604001604052806003815260200162414c4960e81b81525081565b6104e06108783660046132a8565b6112ac565b6105a961088b366004613227565b6112fe565b6104e07f7c7c6cdb67a18743f49ec6fa9b35f50d52ed05cbed4cc592e13b44501c1a226781565b6104616108c5366004613227565b61175c565b6104616108d8366004613227565b611839565b6105a96108eb366004613227565b611846565b6104e0600160ff1b81565b6005546104e0565b610461610911366004613479565b6118e9565b6104e0610924366004613251565b61190f565b6104ba600181565b61046161093f366004613479565b611982565b6104ba6204000081565b61046161095c366004613227565b6119f3565b61046161096f366004613363565b611a15565b6105a96109823660046134e0565b611a84565b6105a9610995366004613562565b611aa4565b6105a96109a83660046132a8565b611bf3565b6104616109bb36600461326c565b611bfd565b6104e07f158b0a9edf7a828aad02f63cd515c68ef2f50ba807396f6d12842833a159742981565b6104e06109f53660046135cc565b6001600160a01b03918216600090815260086020908152604080832093909416825291909152205490565b6105a9610a2e3660046135ff565b611c1a565b6104ba6202000081565b6104e07fff41620983935eb4d4a3c7384a066ca8c1d10cef9a5eca9eb97ca735cd14a75581565b610461610a72366004613227565b6001600160a01b03919091166000908152600760209081526040808320938352929052205460ff1690565b6104ba6208000081565b6105a9610ab53660046135ff565b611d75565b6104ba601081565b6104e0610ad036600461367d565b611ed4565b6105a9610ae33660046136b0565b611eff565b610461610af63660046132a8565b611ff8565b60006001600160e01b031982166301ffc9a760e01b1480610b2c57506001600160e01b031982166336372b0760e01b145b80610b4757506001600160e01b0319821663b0202a1160e01b145b80610b6257506001600160e01b03198216634ec7fbed60e11b145b80610b7d57506001600160e01b03198216635ffa99dd60e11b145b92915050565b6040518060600160405280602481526020016138d96024913981565b6000610bac33848461201c565b50600192915050565b6000610bc2338484611bfd565b9392505050565b6000610bd5600461114f565b80610be85750610be883620400006119f3565b80610bfa5750610bfa62080000611ff8565b15610c0f57610c0a848484610f7c565b610c2c565b610c2a848484604051806020016040528060008152506118e9565b505b5060019392505050565b610c4033826112fe565b50565b6000610bc2838360405180602001604052806000815250611a15565b3360009081526008602090815260408083206001600160a01b03861684529091528120548281018110610cf55760405162461bcd60e51b815260206004820152603360248201527f7a65726f2076616c756520617070726f76616c20696e637265617365206f722060448201527261726974686d65746963206f766572666c6f7760681b60648201526084015b60405180910390fd5b610d0384610499858461371e565b949350505050565b6000610d0333858585611982565b610d2562010000611ff8565b610d415760405162461bcd60e51b8152600401610cec90613736565b6001600160a01b038216610d865760405162461bcd60e51b815260206004820152600c60248201526b7a65726f206164647265737360a01b6044820152606401610cec565b60015481810111610de35760405162461bcd60e51b815260206004820152602160248201527f7a65726f2076616c7565206f722061726974686d65746963206f766572666c6f6044820152607760f81b6064820152608401610cec565b6001546001600160c01b0390610dfa90839061371e565b1115610e485760405162461bcd60e51b815260206004820152601f60248201527f746f74616c20737570706c79206f766572666c6f77202875696e7431393229006044820152606401610cec565b8060016000828254610e5a919061371e565b90915550506001600160a01b03821660009081526002602052604081208054839290610e8790849061371e565b90915550610e9b905060056120048361212d565b50506001600160a01b03808316600090815260036020526040812054610ec5923392911684612294565b6040518181526001600160a01b0383169033907f9d228d69b5fdb8d273a2336f8fb8612d039631024ea9bf09c424a9503aa078f09060200160405180910390a36040518181526001600160a01b0383169060009033907fd1398bee19313d6bf672ccb116e51f4a1a947e91c757907f51fbb5b5e56c698f9060200160405180910390a46040518181526001600160a01b038316906000906000805160206138fd833981519152906020015b60405180910390a35050565b610f88338484846123e3565b505050565b604080517f158b0a9edf7a828aad02f63cd515c68ef2f50ba807396f6d12842833a159742960208201526001600160a01b0387169181019190915260608101859052600090610ff1906080015b6040516020818303038152906040528585856129b1565b9050856001600160a01b0316816001600160a01b0316146110245760405162461bcd60e51b8152600401610cec9061375d565b61103086866001612a33565b505050505050565b611042602061114f565b61108e5760405162461bcd60e51b815260206004820152601860248201527f64656c65676174696f6e73206172652064697361626c656400000000000000006044820152606401610cec565b610c403382612b41565b60606005805480602002602001604051908101604052809291908181526020016000905b8282101561110b57600084815260209081902060408051808201909152908401546001600160401b0381168252600160401b90046001600160c01b0316818301528252600190920191016110bc565b50505050905090565b6005818154811061112457600080fd5b6000918252602090912001546001600160401b0381169150600160401b90046001600160c01b031682565b3060009081526020819052604081205482168214610b7d565b6001600160a01b0381166000908152600460209081526040808320805482518185028101850190935280835260609492939192909184015b828210156111ef57600084815260209081902060408051808201909152908401546001600160401b0381168252600160401b90046001600160c01b0316818301528252600190920191016111a0565b505050509050919050565b6004602052816000526040600020818154811061121657600080fd5b6000918252602090912001546001600160401b0381169250600160401b90046001600160c01b0316905082565b600043821061128a5760405162461bcd60e51b8152602060048201526013602482015272189b1bd8dac81b9bdd081e595d081b5a5b9959606a1b6044820152606401610cec565b6001600160a01b0383166000908152600460205260409020610bc29083612bdd565b60004382106112f35760405162461bcd60e51b8152602060048201526013602482015272189b1bd8dac81b9bdd081e595d081b5a5b9959606a1b6044820152606401610cec565b610b7d600583612bdd565b61130a62020000611ff8565b61152d576001600160a01b0382163314801561132b575061132b600861114f565b8061134f57506001600160a01b038216331480159061134f575061134f601061114f565b6001600160a01b038316331461139a576040518060400160405280601c81526020017f6275726e73206f6e20626568616c66206172652064697361626c6564000000008152506113c6565b60405180604001604052806012815260200171189d5c9b9cc8185c9948191a5cd8589b195960721b8152505b906113e45760405162461bcd60e51b8152600401610cec91906131f8565b506001600160a01b038216331461152d576001600160a01b0382166000908152600860209081526040808320338452909152902054818110156114695760405162461bcd60e51b815260206004820152601d60248201527f6275726e20616d6f756e74206578636565647320616c6c6f77616e63650000006044820152606401610cec565b60001981101561152b5761147d8282613788565b6001600160a01b0384166000818152600860209081526040808320338085529252909120839055919250907fb3fd5071835887567a0671151121894ddccc2842f1d10bedad13e0d17cace9a76114d3858561371e565b60408051918252602082018690520160405180910390a360405181815233906001600160a01b038516907f8c5be1e5ebec7d5bd14f71427d1e84f3dd0314c0f7b2291e5b200ac8c7c3b9259060200160405180910390a35b505b8060000361156f5760405162461bcd60e51b815260206004820152600f60248201526e3d32b937903b30b63ab290313ab93760891b6044820152606401610cec565b6001600160a01b0382166115c55760405162461bcd60e51b815260206004820152601a60248201527f6275726e2066726f6d20746865207a65726f20616464726573730000000000006044820152606401610cec565b6001600160a01b03821660009081526002602052604090205481111561162d5760405162461bcd60e51b815260206004820152601b60248201527f6275726e20616d6f756e7420657863656564732062616c616e636500000000006044820152606401610cec565b6001600160a01b03821660009081526002602052604081208054839290611655908490613788565b92505081905550806001600082825461166e9190613788565b90915550611682905060056120108361212d565b50506001600160a01b038083166000908152600360205260408120546116ad92339291169084612294565b6040518181526001600160a01b0383169033907fe8a89cc6e5096f9d9f43de82c077c1f4cfe707c0e0c2032176c68813b9ae6a5c9060200160405180910390a36040518181526000906001600160a01b0384169033907fd1398bee19313d6bf672ccb116e51f4a1a947e91c757907f51fbb5b5e56c698f9060200160405180910390a46040518181526000906001600160a01b038416906000805160206138fd83398151915290602001610f70565b3360009081526008602090815260408083206001600160a01b0386168452909152812054826117cd5760405162461bcd60e51b815260206004820152601c60248201527f7a65726f2076616c756520617070726f76616c206465637265617365000000006044820152606401610cec565b8281101561182b5760405162461bcd60e51b815260206004820152602560248201527f45524332303a2064656372656173656420616c6c6f77616e63652062656c6f77604482015264207a65726f60d81b6064820152608401610cec565b610d03846104998584613788565b6000610bc2338484610bc9565b611853600160ff1b611ff8565b61186f5760405162461bcd60e51b8152600401610cec90613736565b6001600160a01b03821660009081526020819052604090205461189490339083611ed4565b6001600160a01b03831660008181526020818152604091829020849055815185815290810193909352909133917f5a10526456f5116c0b7b80582c217d666243fd51b6a2d92c8011e601c2462e5f9101610f70565b60006118f6858585610f7c565b611904858585856001612dc0565b506001949350505050565b6001600160a01b038116600090815260046020526040812080541561196f578054819061193e90600190613788565b8154811061194e5761194e61379f565b600091825260209091200154600160401b90046001600160c01b0316611972565b60005b6001600160c01b03169392505050565b600061198e608061114f565b6119da5760405162461bcd60e51b815260206004820152601e60248201527f45524331333633207472616e7366657273206172652064697361626c656400006044820152606401610cec565b6119e5858585610f7c565b611904858585856000612dc0565b6001600160a01b03821660009081526020819052604081205482168214610bc2565b6000611a2261010061114f565b611a6e5760405162461bcd60e51b815260206004820152601e60248201527f4552433133363320617070726f76616c73206172652064697361626c656400006044820152606401610cec565b611a788484610b9f565b50610c2c848484612ef5565b6000611a92828401846132a8565b9050611a9e8482610d19565b50505050565b611aaf61020061114f565b611afb5760405162461bcd60e51b815260206004820152601c60248201527f45495032363132207065726d697473206172652064697361626c6564000000006044820152606401610cec565b6001600160a01b03871660009081526006602052604081208054611b8c917f6e71edae12b1b97f4d1f60370fef10105fa2faae0126114a169c64845d6126c9918b918b918b9187611b4b836137b5565b909155506040805160208101969096526001600160a01b0394851690860152929091166060840152608083015260a082015260c0810187905260e001610fda565b9050876001600160a01b0316816001600160a01b031614611bbf5760405162461bcd60e51b8152600401610cec9061375d565b844210611bde5760405162461bcd60e51b8152600401610cec906137ce565b611be988888861201c565b5050505050505050565b610c403082611846565b6000610d0384848460405180602001604052806000815250611982565b611c2561040061114f565b611c715760405162461bcd60e51b815260206004820152601e60248201527f45495033303039207472616e7366657273206172652064697361626c656400006044820152606401610cec565b6000611cb67f7c7c6cdb67a18743f49ec6fa9b35f50d52ed05cbed4cc592e13b44501c1a226760001b8b8b8b8b8b8b604051602001610fda97969594939291906137f9565b9050896001600160a01b0316816001600160a01b031614611ce95760405162461bcd60e51b8152600401610cec9061375d565b864211611d325760405162461bcd60e51b81526020600482015260176024820152761cda59db985d1d5c99481b9bdd081e595d081d985b1a59604a1b6044820152606401610cec565b854210611d515760405162461bcd60e51b8152600401610cec906137ce565b611d5d8a866000612a33565b611d69818b8b8b6123e3565b50505050505050505050565b611d8061080061114f565b611dcc5760405162461bcd60e51b815260206004820152601f60248201527f4549503330303920726563657074696f6e73206172652064697361626c6564006044820152606401610cec565b6000611e117fd099cc98ef71107a616c4f0f941f04c322d8e254fe26b3c6668db87aae413de860001b8b8b8b8b8b8b604051602001610fda97969594939291906137f9565b9050896001600160a01b0316816001600160a01b031614611e445760405162461bcd60e51b8152600401610cec9061375d565b864211611e8d5760405162461bcd60e51b81526020600482015260176024820152761cda59db985d1d5c99481b9bdd081e595d081d985b1a59604a1b6044820152606401610cec565b854210611eac5760405162461bcd60e51b8152600401610cec906137ce565b6001600160a01b0389163314611d515760405162461bcd60e51b8152600401610cec90613736565b6001600160a01b03929092166000908152602081905260409020546000198084188216189216171690565b611f09604061114f565b611f605760405162461bcd60e51b815260206004820152602260248201527f64656c65676174696f6e73206f6e20626568616c66206172652064697361626c604482015261195960f21b6064820152608401610cec565b604080517fff41620983935eb4d4a3c7384a066ca8c1d10cef9a5eca9eb97ca735cd14a75560208201526001600160a01b038816918101919091526060810186905260808101859052600090611fb89060a001610fda565b9050844210611fd95760405162461bcd60e51b8152600401610cec906137ce565b611fe581876000612a33565b611fef8188612b41565b50505050505050565b6000610b7d33836119f3565b6000610bc2828461371e565b6000610bc28284613788565b6001600160a01b0382166120725760405162461bcd60e51b815260206004820152601b60248201527f617070726f766520746f20746865207a65726f206164647265737300000000006044820152606401610cec565b6001600160a01b0383811660008181526008602090815260408083209487168084529482529182902080549086905582518181529182018690529392917fb3fd5071835887567a0671151121894ddccc2842f1d10bedad13e0d17cace9a7910160405180910390a3826001600160a01b0316846001600160a01b03167f8c5be1e5ebec7d5bd14f71427d1e84f3dd0314c0f7b2291e5b200ac8c7c3b9258460405161211f91815260200190565b60405180910390a350505050565b825460009081901561217a578454859061214990600190613788565b815481106121595761215961379f565b600091825260209091200154600160401b90046001600160c01b031661217d565b60005b6001600160c01b0316915061219682848663ffffffff16565b8554909150158015906121dd57508454439086906121b690600190613788565b815481106121c6576121c661379f565b6000918252602090912001546001600160401b0316145b1561223a578454819086906121f490600190613788565b815481106122045761220461379f565b9060005260206000200160000160086101000a8154816001600160c01b0302191690836001600160c01b0316021790555061228c565b604080518082019091526001600160401b0343811682526001600160c01b0380841660208085019182528954600181018b5560008b81529190912094519151909216600160401b029216919091179101555b935093915050565b816001600160a01b0316836001600160a01b031614806122b2575080155b611a9e576001600160a01b0383161561234a576001600160a01b038316600090815260046020526040812090806122ec836120108661212d565b91509150856001600160a01b0316876001600160a01b03167fd1404f22081753a56b50e0d5ff5c9ed0e4a3a840e1171a443721a342e71bb5c1848460405161233e929190918252602082015260400190565b60405180910390a35050505b6001600160a01b03821615611a9e576001600160a01b03821660009081526004602052604081209080612380836120048661212d565b91509150846001600160a01b0316876001600160a01b03167fd1404f22081753a56b50e0d5ff5c9ed0e4a3a840e1171a443721a342e71bb5c184846040516123d2929190918252602082015260400190565b60405180910390a350505050505050565b836001600160a01b0316836001600160a01b03161480156124095750612409600161114f565b806124365750836001600160a01b0316836001600160a01b0316141580156124365750612436600261114f565b846001600160a01b0316846001600160a01b03161461248a576040518060400160405280602081526020017f7472616e7366657273206f6e20626568616c66206172652064697361626c65648152506124ba565b604051806040016040528060168152602001751d1c985b9cd9995c9cc8185c9948191a5cd8589b195960521b8152505b906124d85760405162461bcd60e51b8152600401610cec91906131f8565b506001600160a01b03831661252f5760405162461bcd60e51b815260206004820152601e60248201527f7472616e736665722066726f6d20746865207a65726f206164647265737300006044820152606401610cec565b6001600160a01b0382166125855760405162461bcd60e51b815260206004820152601c60248201527f7472616e7366657220746f20746865207a65726f2061646472657373000000006044820152606401610cec565b816001600160a01b0316836001600160a01b0316036125fe5760405162461bcd60e51b815260206004820152602f60248201527f73656e64657220616e6420726563697069656e7420617265207468652073616d60448201526e6520285f66726f6d203d205f746f2960881b6064820152608401610cec565b306001600160a01b0383160361267c5760405162461bcd60e51b815260206004820152603f60248201527f696e76616c696420726563697069656e7420287472616e7366657220746f207460448201527f686520746f6b656e20736d61727420636f6e747261637420697473656c6629006064820152608401610cec565b806000036126c457816001600160a01b0316836001600160a01b03166000805160206138fd833981519152836040516126b791815260200190565b60405180910390a3611a9e565b836001600160a01b0316836001600160a01b031614612832576001600160a01b038084166000908152600860209081526040808320938816835292905220548181101561275d5760405162461bcd60e51b815260206004820152602160248201527f7472616e7366657220616d6f756e74206578636565647320616c6c6f77616e636044820152606560f81b6064820152608401610cec565b600019811015612830576127718282613788565b6001600160a01b038086166000818152600860209081526040808320948b16808452949091529020839055919250907fb3fd5071835887567a0671151121894ddccc2842f1d10bedad13e0d17cace9a76127cb858561371e565b60408051918252602082018690520160405180910390a3846001600160a01b0316846001600160a01b03167f8c5be1e5ebec7d5bd14f71427d1e84f3dd0314c0f7b2291e5b200ac8c7c3b9258360405161282791815260200190565b60405180910390a35b505b6001600160a01b03831660009081526002602052604090205481111561289a5760405162461bcd60e51b815260206004820152601f60248201527f7472616e7366657220616d6f756e7420657863656564732062616c616e6365006044820152606401610cec565b6001600160a01b038316600090815260026020526040812080548392906128c2908490613788565b90915550506001600160a01b038216600090815260026020526040812080548392906128ef90849061371e565b90915550506001600160a01b038084166000908152600360205260408082205485841683529120546129279287928116911684612294565b816001600160a01b0316836001600160a01b0316856001600160a01b03167fd1398bee19313d6bf672ccb116e51f4a1a947e91c757907f51fbb5b5e56c698f8460405161297691815260200190565b60405180910390a4816001600160a01b0316836001600160a01b03166000805160206138fd8339815191528360405161211f91815260200190565b835160208086019190912060405161190160f01b928101929092527f000000000000000000000000000000000000000000000000000000000000000060228301526042820181905260009182906062016040516020818303038152906040528051906020012090506000612a2782888888613015565b98975050505050505050565b6001600160a01b038316600090815260076020908152604080832085845290915290205460ff1615612a975760405162461bcd60e51b815260206004820152600d60248201526c696e76616c6964206e6f6e636560981b6044820152606401610cec565b6001600160a01b03831660009081526007602090815260408083208584529091529020805460ff191660011790558015612b065760405182906001600160a01b038516907f1cdd46ff242716cdaa72d159d339a485b3438398348d68f09d7c8c0a59353d8190600090a3505050565b60405182906001600160a01b038516907f98de503528ee59b575ef0c0a2576a82497bfc029a5685b209e9ec333479b10a590600090a3505050565b6001600160a01b0380831660009081526003602081815260408084208054600284529190942054929091528484166001600160a01b0319821617909255911690612b8d84838584612294565b826001600160a01b0316826001600160a01b0316856001600160a01b03167f3134e8a2e6d97e929a7e54011ea5485d7d196dd5f0ba4d4ef95803e8e3fc257f60405160405180910390a450505050565b81546000908103612bf057506000610b7d565b825482908490612c0290600190613788565b81548110612c1257612c1261379f565b6000918252602090912001546001600160401b031611612c6f5782548390612c3c90600190613788565b81548110612c4c57612c4c61379f565b600091825260209091200154600160401b90046001600160c01b03169050610b7d565b8183600081548110612c8357612c8361379f565b6000918252602090912001546001600160401b03161115612ca657506000610b7d565b82546000908190612cb990600190613788565b90505b81811115612d895760006002612cd28484613788565b612cdc9190613835565b612ce69083613788565b90506000868281548110612cfc57612cfc61379f565b6000918252602091829020604080518082019091529101546001600160401b038116808352600160401b9091046001600160c01b0316928201929092529150869003612d5a57602001516001600160c01b03169350610b7d92505050565b80516001600160401b0316861115612d7457819350612d82565b612d7f600183613788565b92505b5050612cbc565b848281548110612d9b57612d9b61379f565b600091825260209091200154600160401b90046001600160c01b031695945050505050565b833b612e085780612e035760405162461bcd60e51b815260206004820152600d60248201526c1153d0481c9958da5c1a595b9d609a1b6044820152606401610cec565b612eee565b604051632229f29760e21b81526000906001600160a01b038616906388a7ca5c90612e3d9033908a9089908990600401613857565b6020604051808303816000875af1158015612e5c573d6000803e3d6000fd5b505050506040513d601f19601f82011682018060405250810190612e809190613894565b90506001600160e01b03198116632229f29760e21b146110305760405162461bcd60e51b815260206004820152602360248201527f696e76616c6964206f6e5472616e73666572526563656976656420726573706f6044820152626e736560e81b6064820152608401610cec565b5050505050565b823b612f315760405162461bcd60e51b815260206004820152600b60248201526a22a7a09039b832b73232b960a91b6044820152606401610cec565b6040516307b04a2d60e41b81526000906001600160a01b03851690637b04a2d090612f64903390879087906004016138b1565b6020604051808303816000875af1158015612f83573d6000803e3d6000fd5b505050506040513d601f19601f82011682018060405250810190612fa79190613894565b90506001600160e01b031981166307b04a2d60e41b14611a9e5760405162461bcd60e51b815260206004820152602360248201527f696e76616c6964206f6e417070726f76616c526563656976656420726573706f6044820152626e736560e81b6064820152608401610cec565b60007f7fffffffffffffffffffffffffffffff5d576e7357a4501ddfe92f46681b20a08211156130875760405162461bcd60e51b815260206004820152601b60248201527f696e76616c6964207369676e6174757265202773272076616c756500000000006044820152606401610cec565b8360ff16601b148061309c57508360ff16601c145b6130e85760405162461bcd60e51b815260206004820152601b60248201527f696e76616c6964207369676e6174757265202776272076616c756500000000006044820152606401610cec565b6040805160008082526020820180845288905260ff871692820192909252606081018590526080810184905260019060a0016020604051602081039080840390855afa15801561313c573d6000803e3d6000fd5b5050604051601f1901519150506001600160a01b03811661316f5760405162461bcd60e51b8152600401610cec9061375d565b95945050505050565b6001600160e01b031981168114610c4057600080fd5b6000602082840312156131a057600080fd5b8135610bc281613178565b6000815180845260005b818110156131d1576020818501810151868301820152016131b5565b818111156131e3576000602083870101525b50601f01601f19169290920160200192915050565b602081526000610bc260208301846131ab565b80356001600160a01b038116811461322257600080fd5b919050565b6000806040838503121561323a57600080fd5b6132438361320b565b946020939093013593505050565b60006020828403121561326357600080fd5b610bc28261320b565b60008060006060848603121561328157600080fd5b61328a8461320b565b92506132986020850161320b565b9150604084013590509250925092565b6000602082840312156132ba57600080fd5b5035919050565b634e487b7160e01b600052604160045260246000fd5b600082601f8301126132e857600080fd5b81356001600160401b0380821115613302576133026132c1565b604051601f8301601f19908116603f0116810190828211818310171561332a5761332a6132c1565b8160405283815286602085880101111561334357600080fd5b836020870160208301376000602085830101528094505050505092915050565b60008060006060848603121561337857600080fd5b6133818461320b565b92506020840135915060408401356001600160401b038111156133a357600080fd5b6133af868287016132d7565b9150509250925092565b803560ff8116811461322257600080fd5b600080600080600060a086880312156133e257600080fd5b6133eb8661320b565b945060208601359350613400604087016133b9565b94979396509394606081013594506080013592915050565b602080825282518282018190526000919060409081850190868401855b8281101561346c57815180516001600160401b031685528601516001600160c01b0316868501529284019290850190600101613435565b5091979650505050505050565b6000806000806080858703121561348f57600080fd5b6134988561320b565b93506134a66020860161320b565b92506040850135915060608501356001600160401b038111156134c857600080fd5b6134d4878288016132d7565b91505092959194509250565b6000806000604084860312156134f557600080fd5b6134fe8461320b565b925060208401356001600160401b038082111561351a57600080fd5b818601915086601f83011261352e57600080fd5b81358181111561353d57600080fd5b87602082850101111561354f57600080fd5b6020830194508093505050509250925092565b600080600080600080600060e0888a03121561357d57600080fd5b6135868861320b565b96506135946020890161320b565b955060408801359450606088013593506135b0608089016133b9565b925060a0880135915060c0880135905092959891949750929550565b600080604083850312156135df57600080fd5b6135e88361320b565b91506135f66020840161320b565b90509250929050565b60008060008060008060008060006101208a8c03121561361e57600080fd5b6136278a61320b565b985061363560208b0161320b565b975060408a0135965060608a0135955060808a0135945060a08a0135935061365f60c08b016133b9565b925060e08a013591506101008a013590509295985092959850929598565b60008060006060848603121561369257600080fd5b61369b8461320b565b95602085013595506040909401359392505050565b60008060008060008060c087890312156136c957600080fd5b6136d28761320b565b955060208701359450604087013593506136ee606088016133b9565b92506080870135915060a087013590509295509295509295565b634e487b7160e01b600052601160045260246000fd5b6000821982111561373157613731613708565b500190565b6020808252600d908201526c1858d8d95cdcc819195b9a5959609a1b604082015260600190565b602080825260119082015270696e76616c6964207369676e617475726560781b604082015260600190565b60008282101561379a5761379a613708565b500390565b634e487b7160e01b600052603260045260246000fd5b6000600182016137c7576137c7613708565b5060010190565b6020808252601190820152701cda59db985d1d5c9948195e1c1a5c9959607a1b604082015260600190565b9687526001600160a01b0395861660208801529390941660408601526060850191909152608084015260a083019190915260c082015260e00190565b60008261385257634e487b7160e01b600052601260045260246000fd5b500490565b6001600160a01b038581168252841660208201526040810183905260806060820181905260009061388a908301846131ab565b9695505050505050565b6000602082840312156138a657600080fd5b8151610bc281613178565b60018060a01b038416815282602082015260606040820152600061316f60608301846131ab56fe4172746966696369616c204c697175696420496e74656c6c6967656e636520546f6b656eddf252ad1be2c89b69c2b068fc378daa952ba7f163c4a11628f55a4df523b3efa264697066735822122086d0c5fdbb5cfe43d9a4a9880a6909164db93366b96eb8a35b236d48b371134264736f6c634300080f0033d1404f22081753a56b50e0d5ff5c9ed0e4a3a840e1171a443721a342e71bb5c1",
  "devdoc": {
    "kind": "dev",
    "methods": {
      "allowance(address,address)": {
        "details": "A function to check an amount of tokens owner approved      to transfer on its behalf by some other address called \"spender\"",
        "params": {
          "_owner": "an address which approves transferring some tokens on its behalf",
          "_spender": "an address approved to transfer some tokens on behalf"
        },
        "returns": {
          "remaining": "an amount of tokens approved address `_spender` can transfer on behalf      of token owner `_owner`"
        }
      },
      "approve(address,uint256)": {
        "details": "Transaction sender must not necessarily own any tokens to grant the permission",
        "params": {
          "_spender": "an address approved by the caller (token owner)      to spend some tokens on its behalf",
          "_value": "an amount of tokens spender `_spender` is allowed to      transfer on behalf of the token owner"
        },
        "returns": {
          "success": "true on success, throws otherwise"
        }
      },
      "approveAndCall(address,uint256)": {
        "details": "Caller must not necessarily own any tokens to grant the permissionThrows if `_spender` is an EOA or a smart contract which doesn't support ERC1363Spender interface",
        "params": {
          "_spender": "an address approved by the caller (token owner)      to spend some tokens on its behalf",
          "_value": "an amount of tokens spender `_spender` is allowed to      transfer on behalf of the token owner"
        },
        "returns": {
          "_0": "success true on success, throws otherwise"
        }
      },
      "approveAndCall(address,uint256,bytes)": {
        "details": "Caller must not necessarily own any tokens to grant the permission",
        "params": {
          "_data": "[optional] additional data with no specified format,      sent in onApprovalReceived call to `_spender`",
          "_spender": "an address approved by the caller (token owner)      to spend some tokens on its behalf",
          "_value": "an amount of tokens spender `_spender` is allowed to      transfer on behalf of the token owner"
        },
        "returns": {
          "_0": "success true on success, throws otherwise"
        }
      },
      "authorizationState(address,bytes32)": {
        "details": "Nonces are expected to be client-side randomly generated 32-byte values      unique to the authorizer's addressAlias for usedNonces(authorizer, nonce)",
        "params": {
          "_authorizer": "an address to check nonce for",
          "_nonce": "a nonce to check"
        },
        "returns": {
          "_0": "true if the nonce was used, false otherwise"
        }
      },
      "balanceOf(address)": {
        "params": {
          "_owner": "the address to query the the balance for"
        },
        "returns": {
          "balance": "an amount of tokens owned by the address specified"
        }
      },
      "burn(address,uint256)": {
        "details": "Burns (destroys) some tokens from the address specifiedThe value specified is treated as is without taking      into account what `decimals` value isRequires executor to have `ROLE_TOKEN_DESTROYER` permission      or FEATURE_OWN_BURNS/FEATURE_BURNS_ON_BEHALF features to be enabledCan be disabled by the contract creator forever by disabling      FEATURE_OWN_BURNS/FEATURE_BURNS_ON_BEHALF features and then revoking      its own roles to burn tokens and to enable burning features",
        "params": {
          "_from": "an address to burn some tokens from",
          "_value": "an amount of tokens to burn (destroy)"
        }
      },
      "cancelAuthorization(address,bytes32,uint8,bytes32,bytes32)": {
        "params": {
          "_authorizer": "transaction authorizer",
          "_nonce": "unique random nonce to cancel (mark as used)",
          "r": "half of the ECDSA signature pair",
          "s": "half of the ECDSA signature pair",
          "v": "the recovery byte of the signature"
        }
      },
      "constructor": {
        "details": "Constructs/deploys Polygon ALI instance,      assigns initial token supply to the address specified",
        "params": {
          "_initialHolder": "owner of the initial token supply"
        }
      },
      "decreaseAllowance(address,uint256)": {
        "details": "Resolution for the Multiple Withdrawal Attack on ERC20 Tokens (arXiv:1907.00903)Throws if value to decrease by is zero or is greater than currently allowed value",
        "params": {
          "_spender": "an address approved by the caller (token owner)      to spend some tokens on its behalf",
          "_value": "an amount of tokens to decrease by"
        },
        "returns": {
          "_0": "success true on success, throws otherwise"
        }
      },
      "delegate(address)": {
        "details": "Accepts zero value address to delegate voting power to, effectively      removing the delegate in that case",
        "params": {
          "_to": "address to delegate voting power to"
        }
      },
      "delegateWithAuthorization(address,bytes32,uint256,uint8,bytes32,bytes32)": {
        "details": "Accepts zero value address to delegate voting power to, effectively      removing the delegate in that caseCompliant with EIP-712: Ethereum typed structured data hashing and signing,      see https://eips.ethereum.org/EIPS/eip-712",
        "params": {
          "_exp": "signature expiration time",
          "_nonce": "nonce used to construct the signature, and used to validate it;      nonce is increased by one after successful signature validation and vote delegation",
          "_to": "address to delegate voting power to",
          "r": "half of the ECDSA signature pair",
          "s": "half of the ECDSA signature pair",
          "v": "the recovery byte of the signature"
        }
      },
      "deposit(address,bytes)": {
        "details": "Executable only by ChildChainManager which should be given the minting      permission as part of the smart contract deployment process;      handles the deposit by minting the required amount for user",
        "params": {
          "depositData": "abi encoded amount",
          "user": "user address for whom deposit is being done"
        }
      },
      "entireSupplyHistory()": {
        "details": "Reads an entire total token supply history array",
        "returns": {
          "_0": "total token supply history array, a key-value pair array,      where key is a block number and value is total token supply at that block"
        }
      },
      "evaluateBy(address,uint256,uint256)": {
        "details": "Calculated based on:      1) operator's own permission set read from userRoles[operator]      2) target permission set - what is already set on the target      3) desired permission set - what do we want set target toCorner cases:      1) Operator is super admin and its permission set is `FULL_PRIVILEGES_MASK`:        `desired` bitset is returned regardless of the `target` permission set value        (what operator sets is what they get)      2) Operator with no permissions (zero bitset):        `target` bitset is returned regardless of the `desired` value        (operator has no authority and cannot modify anything)Example:      Consider an operator with the permissions bitmask     00001111      is about to modify the target permission set          01010101      Operator wants to set that permission set to          00110011      Based on their role, an operator has the permissions      to update only lowest 4 bits on the target, meaning that      high 4 bits of the target set in this example is left      unchanged and low 4 bits get changed as desired:      01010011",
        "params": {
          "desired": "desired set of permissions operator would like to set",
          "operator": "address of the contract operator which is about to set the permissions",
          "target": "input set of permissions to operator is going to modify"
        },
        "returns": {
          "_0": "resulting set of permissions given operator will set"
        }
      },
      "features()": {
        "details": "Effectively reads userRoles role for the contract itself",
        "returns": {
          "_0": "256-bit bitmask of the features enabled"
        }
      },
      "increaseAllowance(address,uint256)": {
        "details": "Resolution for the Multiple Withdrawal Attack on ERC20 Tokens (arXiv:1907.00903)Throws if value to increase by is zero or too big and causes arithmetic overflow",
        "params": {
          "_spender": "an address approved by the caller (token owner)      to spend some tokens on its behalf",
          "_value": "an amount of tokens to increase by"
        },
        "returns": {
          "_0": "success true on success, throws otherwise"
        }
      },
      "isFeatureEnabled(uint256)": {
        "params": {
          "required": "set of features to check against"
        },
        "returns": {
          "_0": "true if all the features requested are enabled, false otherwise"
        }
      },
      "isOperatorInRole(address,uint256)": {
        "params": {
          "operator": "address of the user to check role for",
          "required": "set of permissions (role) to check"
        },
        "returns": {
          "_0": "true if all the permissions requested are enabled, false otherwise"
        }
      },
      "isSenderInRole(uint256)": {
        "params": {
          "required": "set of permissions (role) to check against"
        },
        "returns": {
          "_0": "true if all the permissions requested are enabled, false otherwise"
        }
      },
      "mint(address,uint256)": {
        "details": "Mints (creates) some tokens to address specifiedThe value specified is treated as is without taking      into account what `decimals` value isRequires executor to have `ROLE_TOKEN_CREATOR` permissionThrows on overflow, if totalSupply + _value doesn't fit into uint256",
        "params": {
          "_to": "an address to mint tokens to",
          "_value": "an amount of tokens to mint (create)"
        }
      },
      "permit(address,address,uint256,uint256,uint8,bytes32,bytes32)": {
        "details": "Executes approve(_spender, _value) on behalf of the owner who EIP-712      signed the transaction, i.e. as if transaction sender is the EIP712 signerSets the `_value` as the allowance of `_spender` over `_owner` tokens,      given `_owner` EIP-712 signed approvalInherits the Multiple Withdrawal Attack on ERC20 Tokens (arXiv:1907.00903)      vulnerability in the same way as ERC20 `approve`, use standard ERC20 workaround      if this might become an issue:      https://docs.google.com/document/d/1YLPtQxZu1UAvO9cZ1O2RPXBbT0mooh4DYKjA_jp-RLM/editEmits `Approval` event(s) in the same way as `approve` doesRequires:     - `_spender` to be non-zero address     - `_exp` to be a timestamp in the future     - `v`, `r` and `s` to be a valid `secp256k1` signature from `_owner`        over the EIP712-formatted function arguments.     - the signature to use `_owner` current nonce (see `nonces`).For more information on the signature format, see the      https://eips.ethereum.org/EIPS/eip-2612#specification",
        "params": {
          "_exp": "signature expiration time (unix timestamp)",
          "_owner": "owner of the tokens to set approval on behalf of,      an address which signed the EIP-712 message",
          "_spender": "an address approved by the token owner      to spend some tokens on its behalf",
          "_value": "an amount of tokens spender `_spender` is allowed to      transfer on behalf of the token owner",
          "r": "half of the ECDSA signature pair",
          "s": "half of the ECDSA signature pair",
          "v": "the recovery byte of the signature"
        }
      },
      "receiveWithAuthorization(address,address,uint256,uint256,uint256,bytes32,uint8,bytes32,bytes32)": {
        "details": "This has an additional check to ensure that the payee's address      matches the caller of this function to prevent front-running attacks.",
        "params": {
          "_from": "token sender and transaction authorizer",
          "_nonce": "unique random nonce",
          "_to": "token receiver",
          "_validAfter": "signature valid after time (unix timestamp)",
          "_validBefore": "signature valid before time (unix timestamp)",
          "_value": "amount to be transferred",
          "r": "half of the ECDSA signature pair",
          "s": "half of the ECDSA signature pair",
          "v": "the recovery byte of the signature"
        }
      },
      "safeTransferFrom(address,address,uint256,bytes)": {
        "details": "Called by token owner on his own or approved address,      an address approved earlier by token owner to      transfer some amount of tokens on its behalfThrows on any error like      * insufficient token balance or      * incorrect `_to` address:          * zero address or          * same as `_from` address (self transfer)          * smart contract which doesn't support ERC1363Receiver interfaceReturns true on success, throws otherwise",
        "params": {
          "_data": "[optional] additional data with no specified format,      sent in onTransferReceived call to `_to` in case if its a smart contract",
          "_from": "token owner which approved caller (transaction sender)      to transfer `_value` of tokens on its behalf",
          "_to": "an address to transfer tokens to,      must be either an external address or a smart contract,      implementing ERC1363Receiver",
          "_value": "amount of tokens to be transferred,, zero      value is allowed"
        },
        "returns": {
          "_0": "true unless throwing"
        }
      },
      "supportsInterface(bytes4)": {
        "details": "Interface identification is specified in ERC-165.      This function uses less than 30,000 gas.",
        "params": {
          "interfaceID": "The interface identifier, as specified in ERC-165"
        },
        "returns": {
          "_0": "`true` if the contract implements `interfaceID` and      `interfaceID` is not 0xffffffff, `false` otherwise"
        }
      },
      "totalSupplyAt(uint256)": {
        "details": "Throws if `_blockNum` is not in the past (not the finalized block)",
        "params": {
          "_blockNum": "block number to get the total token supply at"
        },
        "returns": {
          "_0": "past total token supply at block number `_blockNum`"
        }
      },
      "totalSupplyHistoryLength()": {
        "details": "Returns length of the total token supply history array;      useful since reading an entire array just to get its length is expensive (gas cost)",
        "returns": {
          "_0": "total token supply history array"
        }
      },
      "transfer(address,uint256)": {
        "details": "Called by token owner (an address which has a      positive token balance tracked by this smart contract)Throws on any error like      * insufficient token balance or      * incorrect `_to` address:          * zero address or          * self address or          * smart contract which doesn't support ERC20",
        "params": {
          "_to": "an address to transfer tokens to,      must be either an external address or a smart contract,      compliant with the ERC20 standard",
          "_value": "amount of tokens to be transferred,, zero      value is allowed"
        },
        "returns": {
          "success": "true on success, throws otherwise"
        }
      },
      "transferAndCall(address,uint256)": {
        "details": "Called by token owner (an address which has a      positive token balance tracked by this smart contract)Throws on any error like      * insufficient token balance or      * incorrect `_to` address:          * zero address or          * same as `_from` address (self transfer)          * EOA or smart contract which doesn't support ERC1363Receiver interfaceReturns true on success, throws otherwise",
        "params": {
          "_to": "an address to transfer tokens to,      must be a smart contract, implementing ERC1363Receiver",
          "_value": "amount of tokens to be transferred,, zero      value is allowed"
        },
        "returns": {
          "_0": "true unless throwing"
        }
      },
      "transferAndCall(address,uint256,bytes)": {
        "details": "Called by token owner (an address which has a      positive token balance tracked by this smart contract)Throws on any error like      * insufficient token balance or      * incorrect `_to` address:          * zero address or          * same as `_from` address (self transfer)          * EOA or smart contract which doesn't support ERC1363Receiver interfaceReturns true on success, throws otherwise",
        "params": {
          "_data": "[optional] additional data with no specified format,      sent in onTransferReceived call to `_to`",
          "_to": "an address to transfer tokens to,      must be a smart contract, implementing ERC1363Receiver",
          "_value": "amount of tokens to be transferred,, zero      value is allowed"
        },
        "returns": {
          "_0": "true unless throwing"
        }
      },
      "transferFrom(address,address,uint256)": {
        "details": "Called by token owner on his own or approved address,      an address approved earlier by token owner to      transfer some amount of tokens on its behalfThrows on any error like      * insufficient token balance or      * incorrect `_to` address:          * zero address or          * same as `_from` address (self transfer)          * smart contract which doesn't support ERC20",
        "params": {
          "_from": "token owner which approved caller (transaction sender)      to transfer `_value` of tokens on its behalf",
          "_to": "an address to transfer tokens to,      must be either an external address or a smart contract,      compliant with the ERC20 standard",
          "_value": "amount of tokens to be transferred,, zero      value is allowed"
        },
        "returns": {
          "success": "true on success, throws otherwise"
        }
      },
      "transferFromAndCall(address,address,uint256)": {
        "details": "Called by token owner on his own or approved address,      an address approved earlier by token owner to      transfer some amount of tokens on its behalfThrows on any error like      * insufficient token balance or      * incorrect `_to` address:          * zero address or          * same as `_from` address (self transfer)          * EOA or smart contract which doesn't support ERC1363Receiver interfaceReturns true on success, throws otherwise",
        "params": {
          "_from": "token owner which approved caller (transaction sender)      to transfer `_value` of tokens on its behalf",
          "_to": "an address to transfer tokens to,      must be a smart contract, implementing ERC1363Receiver",
          "_value": "amount of tokens to be transferred,, zero      value is allowed"
        },
        "returns": {
          "_0": "true unless throwing"
        }
      },
      "transferFromAndCall(address,address,uint256,bytes)": {
        "details": "Called by token owner on his own or approved address,      an address approved earlier by token owner to      transfer some amount of tokens on its behalfThrows on any error like      * insufficient token balance or      * incorrect `_to` address:          * zero address or          * same as `_from` address (self transfer)          * EOA or smart contract which doesn't support ERC1363Receiver interfaceReturns true on success, throws otherwise",
        "params": {
          "_data": "[optional] additional data with no specified format,      sent in onTransferReceived call to `_to`",
          "_from": "token owner which approved caller (transaction sender)      to transfer `_value` of tokens on its behalf",
          "_to": "an address to transfer tokens to,      must be a smart contract, implementing ERC1363Receiver",
          "_value": "amount of tokens to be transferred,, zero      value is allowed"
        },
        "returns": {
          "_0": "true unless throwing"
        }
      },
      "transferWithAuthorization(address,address,uint256,uint256,uint256,bytes32,uint8,bytes32,bytes32)": {
        "params": {
          "_from": "token sender and transaction authorizer",
          "_nonce": "unique random nonce",
          "_to": "token receiver",
          "_validAfter": "signature valid after time (unix timestamp)",
          "_validBefore": "signature valid before time (unix timestamp)",
          "_value": "amount to be transferred",
          "r": "half of the ECDSA signature pair",
          "s": "half of the ECDSA signature pair",
          "v": "the recovery byte of the signature"
        }
      },
      "unsafeTransferFrom(address,address,uint256)": {
        "details": "In contrast to `transferFromAndCall` doesn't check recipient      smart contract to support ERC20 tokens (ERC1363Receiver)Designed to be used by developers when the receiver is known      to support ERC20 tokens but doesn't implement ERC1363Receiver interfaceCalled by token owner on his own or approved address,      an address approved earlier by token owner to      transfer some amount of tokens on its behalfThrows on any error like      * insufficient token balance or      * incorrect `_to` address:          * zero address or          * same as `_from` address (self transfer)Returns silently on success, throws otherwise",
        "params": {
          "_from": "token sender, token owner which approved caller (transaction sender)      to transfer `_value` of tokens on its behalf",
          "_to": "token receiver, an address to transfer tokens to",
          "_value": "amount of tokens to be transferred,, zero      value is allowed"
        }
      },
      "updateFeatures(uint256)": {
        "details": "Requires transaction sender to have `ROLE_ACCESS_MANAGER` permissionFunction is left for backward compatibility with older versions",
        "params": {
          "_mask": "bitmask representing a set of features to enable/disable"
        }
      },
      "updateRole(address,uint256)": {
        "details": "Setting role to zero is equivalent to removing an all permissionsSetting role to `FULL_PRIVILEGES_MASK` is equivalent to      copying senders' permissions (role) to the userRequires transaction sender to have `ROLE_ACCESS_MANAGER` permission",
        "params": {
          "operator": "address of a user to alter permissions for or zero      to alter global features of the smart contract",
          "role": "bitmask representing a set of permissions to      enable/disable for a user specified"
        }
      },
      "votingPowerAt(address,uint256)": {
        "details": "Throws if `_blockNum` is not in the past (not the finalized block)",
        "params": {
          "_blockNum": "block number to get the voting power at",
          "_of": "the address of account to get voting power of"
        },
        "returns": {
          "_0": "past cumulative voting power of the account,      sum of token balances of all its voting delegators at block number `_blockNum`"
        }
      },
      "votingPowerHistoryLength(address)": {
        "details": "Returns length of the voting power history array for the delegate specified;      useful since reading an entire array just to get its length is expensive (gas cost)",
        "params": {
          "_of": "delegate to query voting power history length for"
        },
        "returns": {
          "_0": "voting power history array length for the delegate of interest"
        }
      },
      "votingPowerHistoryOf(address)": {
        "details": "Reads an entire voting power history array for the delegate specified",
        "params": {
          "_of": "delegate to query voting power history for"
        },
        "returns": {
          "_0": "voting power history array for the delegate of interest"
        }
      },
      "votingPowerOf(address)": {
        "params": {
          "_of": "the address of account to get voting power of"
        },
        "returns": {
          "_0": "current cumulative voting power of the account,      sum of token balances of all its voting delegators"
        }
      },
      "withdraw(uint256)": {
        "details": "Burns user's tokens;      this transaction will be verified when exiting on the root chain",
        "params": {
          "amount": "amount of tokens to withdraw"
        }
      }
    },
    "title": "Artificial Liquid Intelligence ERC20 Token (With Polygon Support)",
    "version": 1
  },
  "userdoc": {
    "kind": "user",
    "methods": {
      "CANCEL_AUTHORIZATION_TYPEHASH()": {
        "notice": "EIP-712 CancelAuthorization (EIP-3009) struct typeHash,      see https://eips.ethereum.org/EIPS/eip-712#rationale-for-typehash"
      },
      "DELEGATION_TYPEHASH()": {
        "notice": "EIP-712 delegation struct typeHash,      see https://eips.ethereum.org/EIPS/eip-712#rationale-for-typehash"
      },
      "DOMAIN_SEPARATOR()": {
        "notice": "EIP-712 contract's domain separator,      see https://eips.ethereum.org/EIPS/eip-712#definition-of-domainseparator"
      },
      "DOMAIN_TYPEHASH()": {
        "notice": "EIP-712 contract's domain typeHash,      see https://eips.ethereum.org/EIPS/eip-712#rationale-for-typehash"
      },
      "FEATURE_BURNS_ON_BEHALF()": {
        "notice": "Enables approved operators to burn tokens on behalf of their owners"
      },
      "FEATURE_DELEGATIONS()": {
        "notice": "Enables delegators to elect delegates"
      },
      "FEATURE_DELEGATIONS_ON_BEHALF()": {
        "notice": "Enables delegators to elect delegates on behalf      (via an EIP712 signature)"
      },
      "FEATURE_EIP2612_PERMITS()": {
        "notice": "Enables approvals on behalf (EIP2612 permits      via an EIP712 signature)"
      },
      "FEATURE_EIP3009_RECEPTIONS()": {
        "notice": "Enables meta transfers on behalf (EIP3009 transfers      via an EIP712 signature)"
      },
      "FEATURE_EIP3009_TRANSFERS()": {
        "notice": "Enables meta transfers on behalf (EIP3009 transfers      via an EIP712 signature)"
      },
      "FEATURE_ERC1363_APPROVALS()": {
        "notice": "Enables ERC-1363 approvals with callback"
      },
      "FEATURE_ERC1363_TRANSFERS()": {
        "notice": "Enables ERC-1363 transfers with callback"
      },
      "FEATURE_OWN_BURNS()": {
        "notice": "Enables token owners to burn their own tokens"
      },
      "FEATURE_TRANSFERS()": {
        "notice": "Enables ERC20 transfers of the tokens      (transfer by the token owner himself)"
      },
      "FEATURE_TRANSFERS_ON_BEHALF()": {
        "notice": "Enables ERC20 transfers on behalf      (transfer by someone else on behalf of token owner)"
      },
      "PERMIT_TYPEHASH()": {
        "notice": "EIP-712 permit (EIP-2612) struct typeHash,      see https://eips.ethereum.org/EIPS/eip-712#rationale-for-typehash"
      },
      "RECEIVE_WITH_AUTHORIZATION_TYPEHASH()": {
        "notice": "EIP-712 ReceiveWithAuthorization (EIP-3009) struct typeHash,      see https://eips.ethereum.org/EIPS/eip-712#rationale-for-typehash"
      },
      "ROLE_ACCESS_MANAGER()": {
        "notice": "Access manager is responsible for assigning the roles to users,      enabling/disabling global features of the smart contractAccess manager can add, remove and update user roles,      remove and update global features"
      },
      "ROLE_ERC20_RECEIVER()": {
        "notice": "ERC20 receivers are allowed to receive tokens without ERC20 safety checks,      which may be useful to simplify tokens transfers into \"legacy\" smart contracts"
      },
      "ROLE_ERC20_SENDER()": {
        "notice": "ERC20 senders are allowed to send tokens without ERC20 safety checks,      which may be useful to simplify tokens transfers into \"legacy\" smart contracts"
      },
      "ROLE_TOKEN_CREATOR()": {
        "notice": "Token creator is responsible for creating (minting)      tokens to an arbitrary address"
      },
      "ROLE_TOKEN_DESTROYER()": {
        "notice": "Token destroyer is responsible for destroying (burning)      tokens owned by an arbitrary address"
      },
      "TRANSFER_WITH_AUTHORIZATION_TYPEHASH()": {
        "notice": "EIP-712 TransferWithAuthorization (EIP-3009) struct typeHash,      see https://eips.ethereum.org/EIPS/eip-712#rationale-for-typehash"
      },
      "allowance(address,address)": {
        "notice": "Returns the amount which _spender is still allowed to withdraw from _owner."
      },
      "approve(address,uint256)": {
        "notice": "Approves address called `_spender` to transfer some amount      of tokens on behalf of the owner (transaction sender)"
      },
      "approveAndCall(address,uint256)": {
        "notice": "Approves address called `_spender` to transfer some amount      of tokens on behalf of the owner, then executes a `onApprovalReceived` callback on `_spender`"
      },
      "approveAndCall(address,uint256,bytes)": {
        "notice": "Approves address called `_spender` to transfer some amount      of tokens on behalf of the owner, then executes a callback on `_spender`"
      },
      "authorizationState(address,bytes32)": {
        "notice": "Checks if specified nonce was already used"
      },
      "balanceOf(address)": {
        "notice": "Gets the balance of a particular address"
      },
      "cancelAuthorization(address,bytes32,uint8,bytes32,bytes32)": {
        "notice": "Attempt to cancel an authorization"
      },
      "decimals()": {
        "notice": "Decimals of the token: 18"
      },
      "decreaseAllowance(address,uint256)": {
        "notice": "Decreases the allowance granted to `spender` by the caller."
      },
      "delegate(address)": {
        "notice": "Delegates voting power of the delegator `msg.sender` to the delegate `_to`"
      },
      "delegateWithAuthorization(address,bytes32,uint256,uint8,bytes32,bytes32)": {
        "notice": "Delegates voting power of the delegator (represented by its signature) to the delegate `_to`"
      },
      "deposit(address,bytes)": {
        "notice": "Executed by ChildChainManager when token is deposited on the root chain"
      },
      "evaluateBy(address,uint256,uint256)": {
        "notice": "Determines the permission bitmask an operator can set on the      target permission setUsed to calculate the permission bitmask to be set when requested     in `updateRole` and `updateFeatures` functions"
      },
      "features()": {
        "notice": "Retrieves globally set of features enabled"
      },
      "increaseAllowance(address,uint256)": {
        "notice": "Increases the allowance granted to `spender` by the transaction sender"
      },
      "isFeatureEnabled(uint256)": {
        "notice": "Checks if requested set of features is enabled globally on the contract"
      },
      "isOperatorInRole(address,uint256)": {
        "notice": "Checks if operator has all the permissions (role) required"
      },
      "isSenderInRole(uint256)": {
        "notice": "Checks if transaction sender `msg.sender` has all the permissions required"
      },
      "name()": {
        "notice": "Name of the token: Artificial Liquid Intelligence TokenERC20 name of the token (long name)"
      },
      "permit(address,address,uint256,uint256,uint8,bytes32,bytes32)": {
        "notice": "For all addresses owner, spender, uint256s value, deadline and nonce, uint8 v, bytes32 r and s,      a call to permit(owner, spender, value, deadline, v, r, s) will set approval[owner][spender] to value,      increment nonces[owner] by 1, and emit a corresponding Approval event,      if and only if the following conditions are met:        - The current blocktime is less than or equal to deadline.        - owner is not the zero address.        - nonces[owner] (before the state update) is equal to nonce.        - r, s and v is a valid secp256k1 signature from owner of the message:"
      },
      "receiveWithAuthorization(address,address,uint256,uint256,uint256,bytes32,uint8,bytes32,bytes32)": {
        "notice": "Receive a transfer with a signed authorization from the payer"
      },
      "safeTransferFrom(address,address,uint256,bytes)": {
        "notice": "Transfers some tokens on behalf of address `_from' (token owner)      to some other address `_to` and then executes `onTransferReceived` callback      on the receiver if it is a smart contract (not an EOA)"
      },
      "supportsInterface(bytes4)": {
        "notice": "Query if a contract implements an interface"
      },
      "symbol()": {
        "notice": "Symbol of the token: ALIERC20 symbol of that token (short name)"
      },
      "totalSupply()": {
        "notice": "Total supply of the token: initially 10,000,000,000,      with the potential to decline over time as some tokens may get burnt but not minted"
      },
      "totalSupplyAt(uint256)": {
        "notice": "Gets past total token supply value at some block `_blockNum`"
      },
      "totalSupplyHistory(uint256)": {
        "notice": "A record of total token supply historical data"
      },
      "transfer(address,uint256)": {
        "notice": "Transfers some tokens to an external address or a smart contract"
      },
      "transferAndCall(address,uint256)": {
        "notice": "Transfers some tokens and then executes `onTransferReceived` callback on the receiver"
      },
      "transferAndCall(address,uint256,bytes)": {
        "notice": "Transfers some tokens and then executes `onTransferReceived` callback on the receiver"
      },
      "transferFrom(address,address,uint256)": {
        "notice": "Transfers some tokens on behalf of address `_from' (token owner)      to some other address `_to`"
      },
      "transferFromAndCall(address,address,uint256)": {
        "notice": "Transfers some tokens on behalf of address `_from' (token owner)      to some other address `_to` and then executes `onTransferReceived` callback on the receiver"
      },
      "transferFromAndCall(address,address,uint256,bytes)": {
        "notice": "Transfers some tokens on behalf of address `_from' (token owner)      to some other address `_to` and then executes a `onTransferReceived` callback on the receiver"
      },
      "transferWithAuthorization(address,address,uint256,uint256,uint256,bytes32,uint8,bytes32,bytes32)": {
        "notice": "Execute a transfer with a signed authorization"
      },
      "unsafeTransferFrom(address,address,uint256)": {
        "notice": "Transfers some tokens on behalf of address `_from' (token owner)      to some other address `_to`"
      },
      "updateFeatures(uint256)": {
        "notice": "Updates set of the globally enabled features (`features`),      taking into account sender's permissions"
      },
      "updateRole(address,uint256)": {
        "notice": "Updates set of permissions (role) for a given user,      taking into account sender's permissions."
      },
      "userRoles(address)": {
        "notice": "Privileged addresses with defined roles/permissionsIn the context of ERC20/ERC721 tokens these can be permissions to      allow minting or burning tokens, transferring on behalf and so on"
      },
      "votingDelegates(address)": {
        "notice": "A record of each account's voting delegate"
      },
      "votingPowerAt(address,uint256)": {
        "notice": "Gets past voting power of the account `_of` at some block `_blockNum`"
      },
      "votingPowerHistory(address,uint256)": {
        "notice": "A record of each account's voting power historical data"
      },
      "votingPowerOf(address)": {
        "notice": "Gets current voting power of the account `_of`"
      },
      "withdraw(uint256)": {
        "notice": "Executed by the tokens owner when they want to withdraw tokens back to the root chain"
      }
    },
    "notice": "Polygon extension contract ads the functions required to bridge original      ALI token on Ethereum L1; these are mint and burn functions executed      when the tokens are deposited from from Ethereum L1 into Polygon L2 (mint),      and when the tokens are withdrawn back from Polygon L2 into Ethereum L1 (burn).Read more:      https://docs.polygon.technology/docs/develop/ethereum-polygon/mintable-assets",
    "version": 1
  },
  "storageLayout": {
    "storage": [
      {
        "astId": 2984,
        "contract": "contracts/token/PolygonAliERC20v2.sol:PolygonAliERC20v2",
        "label": "userRoles",
        "offset": 0,
        "slot": "0",
        "type": "t_mapping(t_address,t_uint256)"
      },
      {
        "astId": 604,
        "contract": "contracts/token/PolygonAliERC20v2.sol:PolygonAliERC20v2",
        "label": "totalSupply",
        "offset": 0,
        "slot": "1",
        "type": "t_uint256"
      },
      {
        "astId": 609,
        "contract": "contracts/token/PolygonAliERC20v2.sol:PolygonAliERC20v2",
        "label": "tokenBalances",
        "offset": 0,
        "slot": "2",
        "type": "t_mapping(t_address,t_uint256)"
      },
      {
        "astId": 614,
        "contract": "contracts/token/PolygonAliERC20v2.sol:PolygonAliERC20v2",
        "label": "votingDelegates",
        "offset": 0,
        "slot": "3",
        "type": "t_mapping(t_address,t_address)"
      },
      {
        "astId": 626,
        "contract": "contracts/token/PolygonAliERC20v2.sol:PolygonAliERC20v2",
        "label": "votingPowerHistory",
        "offset": 0,
        "slot": "4",
        "type": "t_mapping(t_address,t_array(t_struct(KV)619_storage)dyn_storage)"
      },
      {
        "astId": 631,
        "contract": "contracts/token/PolygonAliERC20v2.sol:PolygonAliERC20v2",
        "label": "totalSupplyHistory",
        "offset": 0,
        "slot": "5",
        "type": "t_array(t_struct(KV)619_storage)dyn_storage"
      },
      {
        "astId": 637,
        "contract": "contracts/token/PolygonAliERC20v2.sol:PolygonAliERC20v2",
        "label": "nonces",
        "offset": 0,
        "slot": "6",
        "type": "t_mapping(t_address,t_uint256)"
      },
      {
        "astId": 644,
        "contract": "contracts/token/PolygonAliERC20v2.sol:PolygonAliERC20v2",
        "label": "usedNonces",
        "offset": 0,
        "slot": "7",
        "type": "t_mapping(t_address,t_mapping(t_bytes32,t_bool))"
      },
      {
        "astId": 651,
        "contract": "contracts/token/PolygonAliERC20v2.sol:PolygonAliERC20v2",
        "label": "transferAllowances",
        "offset": 0,
        "slot": "8",
        "type": "t_mapping(t_address,t_mapping(t_address,t_uint256))"
      }
    ],
    "types": {
      "t_address": {
        "encoding": "inplace",
        "label": "address",
        "numberOfBytes": "20"
      },
      "t_array(t_struct(KV)619_storage)dyn_storage": {
        "base": "t_struct(KV)619_storage",
        "encoding": "dynamic_array",
        "label": "struct AliERC20v2Base.KV[]",
        "numberOfBytes": "32"
      },
      "t_bool": {
        "encoding": "inplace",
        "label": "bool",
        "numberOfBytes": "1"
      },
      "t_bytes32": {
        "encoding": "inplace",
        "label": "bytes32",
        "numberOfBytes": "32"
      },
      "t_mapping(t_address,t_address)": {
        "encoding": "mapping",
        "key": "t_address",
        "label": "mapping(address => address)",
        "numberOfBytes": "32",
        "value": "t_address"
      },
      "t_mapping(t_address,t_array(t_struct(KV)619_storage)dyn_storage)": {
        "encoding": "mapping",
        "key": "t_address",
        "label": "mapping(address => struct AliERC20v2Base.KV[])",
        "numberOfBytes": "32",
        "value": "t_array(t_struct(KV)619_storage)dyn_storage"
      },
      "t_mapping(t_address,t_mapping(t_address,t_uint256))": {
        "encoding": "mapping",
        "key": "t_address",
        "label": "mapping(address => mapping(address => uint256))",
        "numberOfBytes": "32",
        "value": "t_mapping(t_address,t_uint256)"
      },
      "t_mapping(t_address,t_mapping(t_bytes32,t_bool))": {
        "encoding": "mapping",
        "key": "t_address",
        "label": "mapping(address => mapping(bytes32 => bool))",
        "numberOfBytes": "32",
        "value": "t_mapping(t_bytes32,t_bool)"
      },
      "t_mapping(t_address,t_uint256)": {
        "encoding": "mapping",
        "key": "t_address",
        "label": "mapping(address => uint256)",
        "numberOfBytes": "32",
        "value": "t_uint256"
      },
      "t_mapping(t_bytes32,t_bool)": {
        "encoding": "mapping",
        "key": "t_bytes32",
        "label": "mapping(bytes32 => bool)",
        "numberOfBytes": "32",
        "value": "t_bool"
      },
      "t_struct(KV)619_storage": {
        "encoding": "inplace",
        "label": "struct AliERC20v2Base.KV",
        "members": [
          {
            "astId": 616,
            "contract": "contracts/token/PolygonAliERC20v2.sol:PolygonAliERC20v2",
            "label": "k",
            "offset": 0,
            "slot": "0",
            "type": "t_uint64"
          },
          {
            "astId": 618,
            "contract": "contracts/token/PolygonAliERC20v2.sol:PolygonAliERC20v2",
            "label": "v",
            "offset": 8,
            "slot": "0",
            "type": "t_uint192"
          }
        ],
        "numberOfBytes": "32"
      },
      "t_uint192": {
        "encoding": "inplace",
        "label": "uint192",
        "numberOfBytes": "24"
      },
      "t_uint256": {
        "encoding": "inplace",
        "label": "uint256",
        "numberOfBytes": "32"
      },
      "t_uint64": {
        "encoding": "inplace",
        "label": "uint64",
        "numberOfBytes": "8"
      }
    }
  }
}