{
  "address": "0xD97C19B5392873609B84Cb40bdde71646fe14C7A",
  "abi": [
    {
      "inputs": [
        {
          "internalType": "uint256",
          "name": "_totalSupplyHardcap",
          "type": "uint256"
        }
      ],
      "stateMutability": "nonpayable",
      "type": "constructor"
    },
    {
      "anonymous": false,
      "inputs": [
        {
          "indexed": true,
          "internalType": "address",
          "name": "authorizer",
          "type": "address"
        },
        {
          "indexed": true,
          "internalType": "bytes32",
          "name": "nonce",
          "type": "bytes32"
        }
      ],
      "name": "AuthorizationCanceled",
      "type": "event"
    },
    {
      "anonymous": false,
      "inputs": [
        {
          "indexed": true,
          "internalType": "address",
          "name": "authorizer",
          "type": "address"
        },
        {
          "indexed": true,
          "internalType": "bytes32",
          "name": "nonce",
          "type": "bytes32"
        }
      ],
      "name": "AuthorizationUsed",
      "type": "event"
    },
    {
      "anonymous": false,
      "inputs": [
        {
          "indexed": true,
          "internalType": "address",
          "name": "erc721Address",
          "type": "address"
        },
        {
          "indexed": true,
          "internalType": "address",
          "name": "to",
          "type": "address"
        },
        {
          "indexed": true,
          "internalType": "uint256",
          "name": "tokenId",
          "type": "uint256"
        }
      ],
      "name": "Minted",
      "type": "event"
    },
    {
      "anonymous": false,
      "inputs": [
        {
          "indexed": true,
          "internalType": "address",
          "name": "_by",
          "type": "address"
        },
        {
          "indexed": true,
          "internalType": "address",
          "name": "_to",
          "type": "address"
        },
        {
          "indexed": false,
          "internalType": "uint256",
          "name": "_requested",
          "type": "uint256"
        },
        {
          "indexed": false,
          "internalType": "uint256",
          "name": "_actual",
          "type": "uint256"
        }
      ],
      "name": "RoleUpdated",
      "type": "event"
    },
    {
      "inputs": [],
      "name": "CANCEL_AUTHORIZATION_TYPEHASH",
      "outputs": [
        {
          "internalType": "bytes32",
          "name": "",
          "type": "bytes32"
        }
      ],
      "stateMutability": "view",
      "type": "function"
    },
    {
      "inputs": [],
      "name": "DOMAIN_SEPARATOR",
      "outputs": [
        {
          "internalType": "bytes32",
          "name": "",
          "type": "bytes32"
        }
      ],
      "stateMutability": "view",
      "type": "function"
    },
    {
      "inputs": [],
      "name": "DOMAIN_TYPEHASH",
      "outputs": [
        {
          "internalType": "bytes32",
          "name": "",
          "type": "bytes32"
        }
      ],
      "stateMutability": "view",
      "type": "function"
    },
    {
      "inputs": [],
      "name": "FEATURE_MINTING_WITH_AUTH",
      "outputs": [
        {
          "internalType": "uint32",
          "name": "",
          "type": "uint32"
        }
      ],
      "stateMutability": "view",
      "type": "function"
    },
    {
      "inputs": [],
      "name": "MINT_WITH_AUTHORIZATION_TYPEHASH",
      "outputs": [
        {
          "internalType": "bytes32",
          "name": "",
          "type": "bytes32"
        }
      ],
      "stateMutability": "view",
      "type": "function"
    },
    {
      "inputs": [],
      "name": "ROLE_ACCESS_MANAGER",
      "outputs": [
        {
          "internalType": "uint256",
          "name": "",
          "type": "uint256"
        }
      ],
      "stateMutability": "view",
      "type": "function"
    },
    {
      "inputs": [],
      "name": "ROLE_FACTORY_MINTER",
      "outputs": [
        {
          "internalType": "uint32",
          "name": "",
          "type": "uint32"
        }
      ],
      "stateMutability": "view",
      "type": "function"
    },
    {
      "inputs": [
        {
          "internalType": "address",
          "name": "_authorizer",
          "type": "address"
        },
        {
          "internalType": "bytes32",
          "name": "_nonce",
          "type": "bytes32"
        }
      ],
      "name": "authorizationState",
      "outputs": [
        {
          "internalType": "bool",
          "name": "",
          "type": "bool"
        }
      ],
      "stateMutability": "view",
      "type": "function"
    },
    {
      "inputs": [
        {
          "internalType": "address",
          "name": "_authorizer",
          "type": "address"
        },
        {
          "internalType": "bytes32",
          "name": "_nonce",
          "type": "bytes32"
        },
        {
          "internalType": "uint8",
          "name": "v",
          "type": "uint8"
        },
        {
          "internalType": "bytes32",
          "name": "r",
          "type": "bytes32"
        },
        {
          "internalType": "bytes32",
          "name": "s",
          "type": "bytes32"
        }
      ],
      "name": "cancelAuthorization",
      "outputs": [],
      "stateMutability": "nonpayable",
      "type": "function"
    },
    {
      "inputs": [
        {
          "internalType": "bytes32",
          "name": "_nonce",
          "type": "bytes32"
        }
      ],
      "name": "cancelAuthorization",
      "outputs": [],
      "stateMutability": "nonpayable",
      "type": "function"
    },
    {
      "inputs": [
        {
          "internalType": "address",
          "name": "operator",
          "type": "address"
        },
        {
          "internalType": "uint256",
          "name": "target",
          "type": "uint256"
        },
        {
          "internalType": "uint256",
          "name": "desired",
          "type": "uint256"
        }
      ],
      "name": "evaluateBy",
      "outputs": [
        {
          "internalType": "uint256",
          "name": "",
          "type": "uint256"
        }
      ],
      "stateMutability": "view",
      "type": "function"
    },
    {
      "inputs": [],
      "name": "features",
      "outputs": [
        {
          "internalType": "uint256",
          "name": "",
          "type": "uint256"
        }
      ],
      "stateMutability": "view",
      "type": "function"
    },
    {
      "inputs": [
        {
          "internalType": "uint256",
          "name": "required",
          "type": "uint256"
        }
      ],
      "name": "isFeatureEnabled",
      "outputs": [
        {
          "internalType": "bool",
          "name": "",
          "type": "bool"
        }
      ],
      "stateMutability": "view",
      "type": "function"
    },
    {
      "inputs": [
        {
          "internalType": "address",
          "name": "operator",
          "type": "address"
        },
        {
          "internalType": "uint256",
          "name": "required",
          "type": "uint256"
        }
      ],
      "name": "isOperatorInRole",
      "outputs": [
        {
          "internalType": "bool",
          "name": "",
          "type": "bool"
        }
      ],
      "stateMutability": "view",
      "type": "function"
    },
    {
      "inputs": [
        {
          "internalType": "uint256",
          "name": "required",
          "type": "uint256"
        }
      ],
      "name": "isSenderInRole",
      "outputs": [
        {
          "internalType": "bool",
          "name": "",
          "type": "bool"
        }
      ],
      "stateMutability": "view",
      "type": "function"
    },
    {
      "inputs": [
        {
          "internalType": "address",
          "name": "_targetErc721",
          "type": "address"
        },
        {
          "internalType": "address",
          "name": "_to",
          "type": "address"
        },
        {
          "internalType": "uint256",
          "name": "_tokenId",
          "type": "uint256"
        }
      ],
      "name": "mint",
      "outputs": [],
      "stateMutability": "nonpayable",
      "type": "function"
    },
    {
      "inputs": [
        {
          "internalType": "address",
          "name": "_targetErc721",
          "type": "address"
        },
        {
          "internalType": "address",
          "name": "_to",
          "type": "address"
        },
        {
          "internalType": "uint256",
          "name": "_tokenId",
          "type": "uint256"
        },
        {
          "internalType": "uint256",
          "name": "_validAfter",
          "type": "uint256"
        },
        {
          "internalType": "uint256",
          "name": "_validBefore",
          "type": "uint256"
        },
        {
          "internalType": "bytes32",
          "name": "_nonce",
          "type": "bytes32"
        },
        {
          "internalType": "uint8",
          "name": "v",
          "type": "uint8"
        },
        {
          "internalType": "bytes32",
          "name": "r",
          "type": "bytes32"
        },
        {
          "internalType": "bytes32",
          "name": "s",
          "type": "bytes32"
        }
      ],
      "name": "mintWithAuthorization",
      "outputs": [],
      "stateMutability": "nonpayable",
      "type": "function"
    },
    {
      "inputs": [],
      "name": "totalSupplyHardcap",
      "outputs": [
        {
          "internalType": "uint256",
          "name": "",
          "type": "uint256"
        }
      ],
      "stateMutability": "view",
      "type": "function"
    },
    {
      "inputs": [
        {
          "internalType": "uint256",
          "name": "_mask",
          "type": "uint256"
        }
      ],
      "name": "updateFeatures",
      "outputs": [],
      "stateMutability": "nonpayable",
      "type": "function"
    },
    {
      "inputs": [
        {
          "internalType": "address",
          "name": "operator",
          "type": "address"
        },
        {
          "internalType": "uint256",
          "name": "role",
          "type": "uint256"
        }
      ],
      "name": "updateRole",
      "outputs": [],
      "stateMutability": "nonpayable",
      "type": "function"
    },
    {
      "inputs": [
        {
          "internalType": "address",
          "name": "",
          "type": "address"
        }
      ],
      "name": "userRoles",
      "outputs": [
        {
          "internalType": "uint256",
          "name": "",
          "type": "uint256"
        }
      ],
      "stateMutability": "view",
      "type": "function"
    }
  ],
  "transactionHash": "0xfcfbf240f94561855a907c5a9ff1a8386890ff322b2c88d48a0fb14187d3ce9d",
  "args": [
    10000
  ],
  "numDeployments": 1,
  "solcInputHash": "5ad636eb5ea81d8bb8b59f7ad25d3fd8",
  "bytecode": "0x60c060405234801561001057600080fd5b5060405161108838038061108883398101604081905261002f9161012a565b33600090815260208181526040808320600019905580518082018252600c81526b27232a2330b1ba37b93cab1960a11b9083015280517f8cad95687ba82c2ce50e74f7b754645e5117c3a5bec8151c0726d5857980a866818401527f4aed11fb738f74155282d61477b9b6c9e244010b152b933e9161d983e5289a9b81830152466060820152306080808301919091528251808303909101815260a09182019092528151919092012090528190036101225760405162461bcd60e51b81526020600482015260126024820152711a185c9918d85c081a5cc81b9bdd081cd95d60721b604482015260640160405180910390fd5b608052610143565b60006020828403121561013c57600080fd5b5051919050565b60805160a051610f1261017660003960008181610190015261075c0152600081816101b70152610a0d0152610f126000f3fe608060405234801561001057600080fd5b50600436106101375760003560e01c8063c4d029c6116100b8578063d5bb7f671161007c578063d5bb7f67146102c2578063d9169487146102d5578063e94a0102146102fc578063f822d5aa14610335578063fcc2c07814610348578063ff2642cf1461035b57600080fd5b8063c4d029c614610262578063c688d6931461027f578063c6c3bbe614610292578063ce8b3a58146102a5578063d1333c98146102af57600080fd5b8063725f3626116100ff578063725f3626146101ee57806374d5e10014610211578063845ab94f14610231578063ae5b102e14610244578063ae682e2e1461025757600080fd5b806320606b701461013c5780632b521416146101765780633644e5151461018b5780634869498b146101b25780635a049a70146101d9575b600080fd5b6101637f8cad95687ba82c2ce50e74f7b754645e5117c3a5bec8151c0726d5857980a86681565b6040519081526020015b60405180910390f35b30600090815260208190526040902054610163565b6101637f000000000000000000000000000000000000000000000000000000000000000081565b6101637f000000000000000000000000000000000000000000000000000000000000000081565b6101ec6101e7366004610d2a565b610382565b005b6102016101fc366004610d78565b610456565b604051901515815260200161016d565b61016361021f366004610d91565b60006020819052908152604090205481565b6101ec61023f366004610d78565b610471565b6101ec610252366004610dac565b610480565b610163600160ff1b81565b61026a600181565b60405163ffffffff909116815260200161016d565b61020161028d366004610dac565b61054a565b6101ec6102a0366004610dd6565b61056f565b61026a6201000081565b6101ec6102bd366004610e12565b610580565b6101ec6102d0366004610d78565b6106fe565b6101637f158b0a9edf7a828aad02f63cd515c68ef2f50ba807396f6d12842833a159742981565b61020161030a366004610dac565b6001600160a01b03919091166000908152600160209081526040808320938352929052205460ff1690565b610163610343366004610e90565b610708565b610201610356366004610d78565b610733565b6101637f495835d970a03ff092657fca9abde67d34a0bb73a0bba258a5fa90c4ce4340f681565b604080517f158b0a9edf7a828aad02f63cd515c68ef2f50ba807396f6d12842833a159742960208201526001600160a01b03871691810191909152606081018590526000906103e6906080015b60405160208183030381529060405285858561073f565b9050856001600160a01b0316816001600160a01b0316146104425760405162461bcd60e51b8152602060048201526011602482015270696e76616c6964207369676e617475726560781b60448201526064015b60405180910390fd5b61044e868660016107c1565b505050505050565b30600090815260208190526040812054821682145b92915050565b61047d338260016107c1565b50565b61048d600160ff1b610733565b6104c95760405162461bcd60e51b815260206004820152600d60248201526c1858d8d95cdcc819195b9a5959609a1b6044820152606401610439565b6001600160a01b0382166000908152602081905260409020546104ee90339083610708565b6001600160a01b03831660008181526020818152604091829020849055815185815290810193909352909133917f5a10526456f5116c0b7b80582c217d666243fd51b6a2d92c8011e601c2462e5f910160405180910390a35050565b6001600160a01b038216600090815260208190526040812054821682145b9392505050565b61057b338484846108d0565b505050565b61058a6001610456565b6105d65760405162461bcd60e51b815260206004820152601d60248201527f6d696e74696e67207769746820617574682069732064697361626c65640000006044820152606401610439565b604080517f495835d970a03ff092657fca9abde67d34a0bb73a0bba258a5fa90c4ce4340f660208201526001600160a01b03808c169282019290925290891660608201526080810188905260a0810187905260c0810186905260e0810185905260009061064690610100016103cf565b90508642116106975760405162461bcd60e51b815260206004820152601760248201527f7369676e6174757265206e6f74207965742076616c69640000000000000000006044820152606401610439565b8542106106da5760405162461bcd60e51b81526020600482015260116024820152701cda59db985d1d5c9948195e1c1a5c9959607a1b6044820152606401610439565b6106e6818660006107c1565b6106f2818b8b8b6108d0565b50505050505050505050565b61047d3082610480565b6001600160a01b03929092166000908152602081905260409020546000198084188216189216171690565b600061046b338361054a565b835160208086019190912060405161190160f01b928101929092527f0000000000000000000000000000000000000000000000000000000000000000602283015260428201819052600091829060620160405160208183030381529060405280519060200120905060006107b582888888610b76565b98975050505050505050565b6001600160a01b038316600090815260016020908152604080832085845290915290205460ff16156108255760405162461bcd60e51b815260206004820152600d60248201526c696e76616c6964206e6f6e636560981b6044820152606401610439565b6001600160a01b0383166000908152600160208181526040808420868552909152909120805460ff1916909117905580156108955760405182906001600160a01b038516907f1cdd46ff242716cdaa72d159d339a485b3438398348d68f09d7c8c0a59353d8190600090a3505050565b60405182906001600160a01b038516907f98de503528ee59b575ef0c0a2576a82497bfc029a5685b209e9ec333479b10a590600090a3505050565b6108dd846201000061054a565b6109195760405162461bcd60e51b815260206004820152600d60248201526c1858d8d95cdcc819195b9a5959609a1b6044820152606401610439565b6001600160a01b03831661096f5760405162461bcd60e51b815260206004820152601f60248201527f45524337323120696e7374616e63652061646472206973206e6f7420736574006044820152606401610439565b6001600160a01b0382166109c55760405162461bcd60e51b815260206004820152601c60248201527f4e46542072656365697665722061646472206973206e6f7420736574000000006044820152606401610439565b80600003610a0b5760405162461bcd60e51b81526020600482015260136024820152721d1bdad95b881251081a5cc81b9bdd081cd95d606a1b6044820152606401610439565b7f0000000000000000000000000000000000000000000000000000000000000000836001600160a01b03166318160ddd6040518163ffffffff1660e01b8152600401602060405180830381865afa158015610a6a573d6000803e3d6000fd5b505050506040513d601f19601f82011682018060405250810190610a8e9190610ec3565b10610acd5760405162461bcd60e51b815260206004820152600f60248201526e1a185c9918d85c081c995858da1959608a1b6044820152606401610439565b604051632851206560e21b81526001600160a01b0383811660048301526024820183905284169063a144819490604401600060405180830381600087803b158015610b1757600080fd5b505af1158015610b2b573d6000803e3d6000fd5b5050505080826001600160a01b0316846001600160a01b03167f9d228d69b5fdb8d273a2336f8fb8612d039631024ea9bf09c424a9503aa078f060405160405180910390a450505050565b60007f7fffffffffffffffffffffffffffffff5d576e7357a4501ddfe92f46681b20a0821115610be85760405162461bcd60e51b815260206004820152601b60248201527f696e76616c6964207369676e6174757265202773272076616c756500000000006044820152606401610439565b8360ff16601b1480610bfd57508360ff16601c145b610c495760405162461bcd60e51b815260206004820152601b60248201527f696e76616c6964207369676e6174757265202776272076616c756500000000006044820152606401610439565b6040805160008082526020820180845288905260ff871692820192909252606081018590526080810184905260019060a0016020604051602081039080840390855afa158015610c9d573d6000803e3d6000fd5b5050604051601f1901519150506001600160a01b038116610cf45760405162461bcd60e51b8152602060048201526011602482015270696e76616c6964207369676e617475726560781b6044820152606401610439565b95945050505050565b80356001600160a01b0381168114610d1457600080fd5b919050565b803560ff81168114610d1457600080fd5b600080600080600060a08688031215610d4257600080fd5b610d4b86610cfd565b945060208601359350610d6060408701610d19565b94979396509394606081013594506080013592915050565b600060208284031215610d8a57600080fd5b5035919050565b600060208284031215610da357600080fd5b61056882610cfd565b60008060408385031215610dbf57600080fd5b610dc883610cfd565b946020939093013593505050565b600080600060608486031215610deb57600080fd5b610df484610cfd565b9250610e0260208501610cfd565b9150604084013590509250925092565b60008060008060008060008060006101208a8c031215610e3157600080fd5b610e3a8a610cfd565b9850610e4860208b01610cfd565b975060408a0135965060608a0135955060808a0135945060a08a01359350610e7260c08b01610d19565b925060e08a013591506101008a013590509295985092959850929598565b600080600060608486031215610ea557600080fd5b610eae84610cfd565b95602085013595506040909401359392505050565b600060208284031215610ed557600080fd5b505191905056fea2646970667358221220d37dab20884d8e9a5fe44836f1cd914550899a474dd3f0ba044f80b0259c9eb764736f6c634300080f0033",
  "devdoc": {
    "details": "The signature is constructed via EIP-712 similar to EIP-2612, or EIP-3009Target ERC721 contract(s) must allow helper to mint the tokens, this should be configured      as part of the deployment or setup processesVersion 2 (NFTFactoryV2) adds total supply limiting feature allowing to set the NFT total     supply hardcap; factory stops minting when total supply of the ERC721 to mint reaches the hardcap",
    "events": {
      "AuthorizationCanceled(address,bytes32)": {
        "details": "Fired whenever the nonce gets cancelled (ex.: `cancelAuthorization`)Both `AuthorizationUsed` and `AuthorizationCanceled` imply the nonce      cannot be longer used, the only difference is that `AuthorizationCanceled`      implies no smart contract state change made (except the nonce marked as cancelled)",
        "params": {
          "authorizer": "an address which has cancelled the nonce",
          "nonce": "the nonce cancelled"
        }
      },
      "AuthorizationUsed(address,bytes32)": {
        "details": "Fired whenever the nonce gets used (ex.: `transferWithAuthorization`, `receiveWithAuthorization`)",
        "params": {
          "authorizer": "an address which has used the nonce",
          "nonce": "the nonce used"
        }
      },
      "Minted(address,address,uint256)": {
        "details": "Fired in mint() and mintWithAuthorization() after an NFT is minted",
        "params": {
          "erc721Address": "ERC721 contract address which was minted",
          "to": "an address NFT was minted to",
          "tokenId": "NFT ID which was minted"
        }
      }
    },
    "kind": "dev",
    "methods": {
      "authorizationState(address,bytes32)": {
        "details": "Nonces are expected to be client-side randomly generated 32-byte data      unique to the authorizer's address",
        "params": {
          "_authorizer": "Authorizer's address",
          "_nonce": "Nonce of the authorization"
        },
        "returns": {
          "_0": "true if the nonce is used"
        }
      },
      "cancelAuthorization(address,bytes32,uint8,bytes32,bytes32)": {
        "params": {
          "_authorizer": "transaction authorizer",
          "_nonce": "unique random nonce to cancel (mark as used)",
          "r": "half of the ECDSA signature pair",
          "s": "half of the ECDSA signature pair",
          "v": "the recovery byte of the signature"
        }
      },
      "cancelAuthorization(bytes32)": {
        "params": {
          "_nonce": "unique random nonce to cancel (mark as used)"
        }
      },
      "constructor": {
        "params": {
          "_totalSupplyHardcap": "ERC721 total supply limit, factory stops minting the ERC721      if its total supply (ERC721.totalSupply()) reaches the total supply had cap"
        }
      },
      "evaluateBy(address,uint256,uint256)": {
        "details": "Calculated based on:      1) operator's own permission set read from userRoles[operator]      2) target permission set - what is already set on the target      3) desired permission set - what do we want set target toCorner cases:      1) Operator is super admin and its permission set is `FULL_PRIVILEGES_MASK`:        `desired` bitset is returned regardless of the `target` permission set value        (what operator sets is what they get)      2) Operator with no permissions (zero bitset):        `target` bitset is returned regardless of the `desired` value        (operator has no authority and cannot modify anything)Example:      Consider an operator with the permissions bitmask     00001111      is about to modify the target permission set          01010101      Operator wants to set that permission set to          00110011      Based on their role, an operator has the permissions      to update only lowest 4 bits on the target, meaning that      high 4 bits of the target set in this example is left      unchanged and low 4 bits get changed as desired:      01010011",
        "params": {
          "desired": "desired set of permissions operator would like to set",
          "operator": "address of the contract operator which is about to set the permissions",
          "target": "input set of permissions to operator is going to modify"
        },
        "returns": {
          "_0": "resulting set of permissions given operator will set"
        }
      },
      "features()": {
        "details": "Effectively reads userRoles role for the contract itself",
        "returns": {
          "_0": "256-bit bitmask of the features enabled"
        }
      },
      "isFeatureEnabled(uint256)": {
        "params": {
          "required": "set of features to check against"
        },
        "returns": {
          "_0": "true if all the features requested are enabled, false otherwise"
        }
      },
      "isOperatorInRole(address,uint256)": {
        "params": {
          "operator": "address of the user to check role for",
          "required": "set of permissions (role) to check"
        },
        "returns": {
          "_0": "true if all the permissions requested are enabled, false otherwise"
        }
      },
      "isSenderInRole(uint256)": {
        "params": {
          "required": "set of permissions (role) to check against"
        },
        "returns": {
          "_0": "true if all the permissions requested are enabled, false otherwise"
        }
      },
      "mint(address,address,uint256)": {
        "details": "Doesn't allow minting the token with ID zeroRequires an executor to have ROLE_MINTER permissionRequires target ERC721 contract to be mintable (`MintableERC721`)Requires target ERC721 contract instance to allow minting via helper",
        "params": {
          "_targetErc721": "target ERC721 contract instance to mint token on,      compatible with `MintableERC721`",
          "_to": "an address to mint token to",
          "_tokenId": "target ERC721 token ID to mint"
        }
      },
      "mintWithAuthorization(address,address,uint256,uint256,uint256,bytes32,uint8,bytes32,bytes32)": {
        "params": {
          "_nonce": "unique random nonce",
          "_targetErc721": "target ERC721 contract instance to mint token on,      compatible with `MintableERC721`",
          "_to": "an address to mint token to",
          "_tokenId": "target ERC721 token ID to mint",
          "_validAfter": "signature valid after time (unix timestamp)",
          "_validBefore": "signature valid before time (unix timestamp)",
          "r": "half of the ECDSA signature pair",
          "s": "half of the ECDSA signature pair",
          "v": "the recovery byte of the signature"
        }
      },
      "updateFeatures(uint256)": {
        "details": "Requires transaction sender to have `ROLE_ACCESS_MANAGER` permissionFunction is left for backward compatibility with older versions",
        "params": {
          "_mask": "bitmask representing a set of features to enable/disable"
        }
      },
      "updateRole(address,uint256)": {
        "details": "Setting role to zero is equivalent to removing an all permissionsSetting role to `FULL_PRIVILEGES_MASK` is equivalent to      copying senders' permissions (role) to the userRequires transaction sender to have `ROLE_ACCESS_MANAGER` permission",
        "params": {
          "operator": "address of a user to alter permissions for or zero      to alter global features of the smart contract",
          "role": "bitmask representing a set of permissions to      enable/disable for a user specified"
        }
      }
    },
    "stateVariables": {
      "DOMAIN_TYPEHASH": {
        "details": "Note: we do not include version into the domain typehash/separator,      it is implied version is concatenated to the name field, like \"NFTFactoryV2\""
      },
      "FEATURE_MINTING_WITH_AUTH": {
        "details": "Feature FEATURE_MINTING_WITH_AUTH must be enabled in order for      `mintWithAuthorization()` function to succeed"
      },
      "ROLE_FACTORY_MINTER": {
        "details": "Role ROLE_FACTORY_MINTER allows minting tokens      (executing `mint` function)"
      },
      "totalSupplyHardcap": {
        "details": "The factory `mint` and `mintWithAuthorization` function throws      if target ERC721 `totalSupply` value is equal or bigger than `totalSupplyHardcap`"
      },
      "usedNonces": {
        "details": "A record of used nonces for EIP-712 transactionsA record of used nonces for signing/validating signatures      in `mintWithAuthorization` for every mintMaps authorizer address => nonce => true/false (used unused)"
      }
    },
    "title": "Alethea NFT Factory",
    "version": 1
  },
  "userdoc": {
    "kind": "user",
    "methods": {
      "CANCEL_AUTHORIZATION_TYPEHASH()": {
        "notice": "EIP-712 CancelAuthorization struct typeHash,      see https://eips.ethereum.org/EIPS/eip-712#rationale-for-typehash"
      },
      "DOMAIN_SEPARATOR()": {
        "notice": "EIP-712 contract's domain separator,      see https://eips.ethereum.org/EIPS/eip-712#definition-of-domainseparator"
      },
      "DOMAIN_TYPEHASH()": {
        "notice": "EIP-712 contract's domain typeHash,      see https://eips.ethereum.org/EIPS/eip-712#rationale-for-typehash"
      },
      "FEATURE_MINTING_WITH_AUTH()": {
        "notice": "Enables meta transaction minting (minting with an authorization      via an EIP712 signature)"
      },
      "MINT_WITH_AUTHORIZATION_TYPEHASH()": {
        "notice": "EIP-712 MintWithAuthorization struct typeHash,      see https://eips.ethereum.org/EIPS/eip-712#rationale-for-typehash"
      },
      "ROLE_ACCESS_MANAGER()": {
        "notice": "Access manager is responsible for assigning the roles to users,      enabling/disabling global features of the smart contractAccess manager can add, remove and update user roles,      remove and update global features"
      },
      "ROLE_FACTORY_MINTER()": {
        "notice": "Factory minter is responsible for creating (minting)      tokens to an arbitrary address"
      },
      "authorizationState(address,bytes32)": {
        "notice": "Returns the state of an authorization, more specifically      if the specified nonce was already used by the address specified"
      },
      "cancelAuthorization(address,bytes32,uint8,bytes32,bytes32)": {
        "notice": "Cancels the authorization (using EIP-712 signature)"
      },
      "cancelAuthorization(bytes32)": {
        "notice": "Cancels the authorization"
      },
      "constructor": {
        "notice": "Deploys the helper contract and initializes DOMAIN_SEPARATOR using the created smart contract address"
      },
      "evaluateBy(address,uint256,uint256)": {
        "notice": "Determines the permission bitmask an operator can set on the      target permission setUsed to calculate the permission bitmask to be set when requested     in `updateRole` and `updateFeatures` functions"
      },
      "features()": {
        "notice": "Retrieves globally set of features enabled"
      },
      "isFeatureEnabled(uint256)": {
        "notice": "Checks if requested set of features is enabled globally on the contract"
      },
      "isOperatorInRole(address,uint256)": {
        "notice": "Checks if operator has all the permissions (role) required"
      },
      "isSenderInRole(uint256)": {
        "notice": "Checks if transaction sender `msg.sender` has all the permissions required"
      },
      "mint(address,address,uint256)": {
        "notice": "Restricted access function to mint an NFT"
      },
      "mintWithAuthorization(address,address,uint256,uint256,uint256,bytes32,uint8,bytes32,bytes32)": {
        "notice": "Executes a mint function with a signed authorization"
      },
      "totalSupplyHardcap()": {
        "notice": "Total Supply Hardcap affects factory capability to mint: once      target ERC721 total supply reaches the hardcap, factory stops minting it"
      },
      "updateFeatures(uint256)": {
        "notice": "Updates set of the globally enabled features (`features`),      taking into account sender's permissions"
      },
      "updateRole(address,uint256)": {
        "notice": "Updates set of permissions (role) for a given user,      taking into account sender's permissions."
      },
      "userRoles(address)": {
        "notice": "Privileged addresses with defined roles/permissionsIn the context of ERC20/ERC721 tokens these can be permissions to      allow minting or burning tokens, transferring on behalf and so on"
      }
    },
    "notice": "NFT Factory is a helper smart contract responsible for minting arbitrary NFTsIt supports two mechanisms:      - minting delegation: authorized address executes mint function on the helper,        and helper executes minting function on the target ERC721 contract as an internal transaction      - meta transaction minting or minting with an authorization: authorized address signs        the minting authorization message and any address executes mint function on the helperSecond mechanism allows to shift the gas costs for the transaction to any address      (usually this is the NFT beneficiary - an address which receives an NFT)",
    "version": 1
  },
  "storageLayout": {
    "storage": [
      {
        "astId": 22239,
        "contract": "contracts/protocol/NFTFactoryV2.sol:NFTFactoryV2",
        "label": "userRoles",
        "offset": 0,
        "slot": "0",
        "type": "t_mapping(t_address,t_uint256)"
      },
      {
        "astId": 11934,
        "contract": "contracts/protocol/NFTFactoryV2.sol:NFTFactoryV2",
        "label": "usedNonces",
        "offset": 0,
        "slot": "1",
        "type": "t_mapping(t_address,t_mapping(t_bytes32,t_bool))"
      }
    ],
    "types": {
      "t_address": {
        "encoding": "inplace",
        "label": "address",
        "numberOfBytes": "20"
      },
      "t_bool": {
        "encoding": "inplace",
        "label": "bool",
        "numberOfBytes": "1"
      },
      "t_bytes32": {
        "encoding": "inplace",
        "label": "bytes32",
        "numberOfBytes": "32"
      },
      "t_mapping(t_address,t_mapping(t_bytes32,t_bool))": {
        "encoding": "mapping",
        "key": "t_address",
        "label": "mapping(address => mapping(bytes32 => bool))",
        "numberOfBytes": "32",
        "value": "t_mapping(t_bytes32,t_bool)"
      },
      "t_mapping(t_address,t_uint256)": {
        "encoding": "mapping",
        "key": "t_address",
        "label": "mapping(address => uint256)",
        "numberOfBytes": "32",
        "value": "t_uint256"
      },
      "t_mapping(t_bytes32,t_bool)": {
        "encoding": "mapping",
        "key": "t_bytes32",
        "label": "mapping(bytes32 => bool)",
        "numberOfBytes": "32",
        "value": "t_bool"
      },
      "t_uint256": {
        "encoding": "inplace",
        "label": "uint256",
        "numberOfBytes": "32"
      }
    }
  }
}