{
  "address": "0x415B0473e116FF6ce3731b2A37AfA9098b08B574",
  "abi": [
    {
      "anonymous": false,
      "inputs": [
        {
          "indexed": false,
          "internalType": "address",
          "name": "previousAdmin",
          "type": "address"
        },
        {
          "indexed": false,
          "internalType": "address",
          "name": "newAdmin",
          "type": "address"
        }
      ],
      "name": "AdminChanged",
      "type": "event"
    },
    {
      "anonymous": false,
      "inputs": [
        {
          "indexed": true,
          "internalType": "address",
          "name": "beacon",
          "type": "address"
        }
      ],
      "name": "BeaconUpgraded",
      "type": "event"
    },
    {
      "anonymous": false,
      "inputs": [
        {
          "indexed": true,
          "internalType": "address",
          "name": "paymentToken",
          "type": "address"
        },
        {
          "indexed": true,
          "internalType": "address",
          "name": "recipient",
          "type": "address"
        },
        {
          "indexed": false,
          "internalType": "uint256",
          "name": "amount",
          "type": "uint256"
        }
      ],
      "name": "ERC20Sent",
      "type": "event"
    },
    {
      "anonymous": false,
      "inputs": [
        {
          "indexed": true,
          "internalType": "address",
          "name": "from",
          "type": "address"
        },
        {
          "indexed": false,
          "internalType": "uint256",
          "name": "amount",
          "type": "uint256"
        }
      ],
      "name": "ETHReceived",
      "type": "event"
    },
    {
      "anonymous": false,
      "inputs": [
        {
          "indexed": true,
          "internalType": "address",
          "name": "recipient",
          "type": "address"
        },
        {
          "indexed": false,
          "internalType": "uint256",
          "name": "amount",
          "type": "uint256"
        }
      ],
      "name": "ETHSent",
      "type": "event"
    },
    {
      "anonymous": false,
      "inputs": [
        {
          "indexed": true,
          "internalType": "address",
          "name": "recipient",
          "type": "address"
        },
        {
          "indexed": false,
          "internalType": "uint32",
          "name": "allocation",
          "type": "uint32"
        }
      ],
      "name": "RecipientsListUpdated",
      "type": "event"
    },
    {
      "anonymous": false,
      "inputs": [
        {
          "indexed": true,
          "internalType": "address",
          "name": "operator",
          "type": "address"
        },
        {
          "indexed": false,
          "internalType": "uint256",
          "name": "requested",
          "type": "uint256"
        },
        {
          "indexed": false,
          "internalType": "uint256",
          "name": "assigned",
          "type": "uint256"
        }
      ],
      "name": "RoleUpdated",
      "type": "event"
    },
    {
      "anonymous": false,
      "inputs": [
        {
          "indexed": true,
          "internalType": "address",
          "name": "implementation",
          "type": "address"
        }
      ],
      "name": "Upgraded",
      "type": "event"
    },
    {
      "inputs": [],
      "name": "MAX_RECIPIENTS_ALLOWED",
      "outputs": [
        {
          "internalType": "uint8",
          "name": "",
          "type": "uint8"
        }
      ],
      "stateMutability": "view",
      "type": "function"
    },
    {
      "inputs": [],
      "name": "ROLE_ACCESS_MANAGER",
      "outputs": [
        {
          "internalType": "uint256",
          "name": "",
          "type": "uint256"
        }
      ],
      "stateMutability": "view",
      "type": "function"
    },
    {
      "inputs": [],
      "name": "ROLE_DISTRIBUTION_MANAGER",
      "outputs": [
        {
          "internalType": "uint32",
          "name": "",
          "type": "uint32"
        }
      ],
      "stateMutability": "view",
      "type": "function"
    },
    {
      "inputs": [],
      "name": "ROLE_RECIPIENT_LIST_MANAGER",
      "outputs": [
        {
          "internalType": "uint32",
          "name": "",
          "type": "uint32"
        }
      ],
      "stateMutability": "view",
      "type": "function"
    },
    {
      "inputs": [],
      "name": "ROLE_UPGRADE_MANAGER",
      "outputs": [
        {
          "internalType": "uint256",
          "name": "",
          "type": "uint256"
        }
      ],
      "stateMutability": "view",
      "type": "function"
    },
    {
      "inputs": [],
      "name": "distributeERC20",
      "outputs": [],
      "stateMutability": "nonpayable",
      "type": "function"
    },
    {
      "inputs": [],
      "name": "distributeETH",
      "outputs": [],
      "stateMutability": "payable",
      "type": "function"
    },
    {
      "inputs": [],
      "name": "features",
      "outputs": [
        {
          "internalType": "uint256",
          "name": "",
          "type": "uint256"
        }
      ],
      "stateMutability": "view",
      "type": "function"
    },
    {
      "inputs": [],
      "name": "getImplementation",
      "outputs": [
        {
          "internalType": "address",
          "name": "",
          "type": "address"
        }
      ],
      "stateMutability": "view",
      "type": "function"
    },
    {
      "inputs": [],
      "name": "getPaymentToken",
      "outputs": [
        {
          "internalType": "contract ERC20",
          "name": "",
          "type": "address"
        }
      ],
      "stateMutability": "view",
      "type": "function"
    },
    {
      "inputs": [
        {
          "internalType": "uint256",
          "name": "i",
          "type": "uint256"
        }
      ],
      "name": "getRecipient",
      "outputs": [
        {
          "components": [
            {
              "internalType": "address payable",
              "name": "recipient",
              "type": "address"
            },
            {
              "internalType": "uint32",
              "name": "allocationPercent",
              "type": "uint32"
            }
          ],
          "internalType": "struct ProtocolFeeDistributorV1.RecipientDetails",
          "name": "",
          "type": "tuple"
        }
      ],
      "stateMutability": "view",
      "type": "function"
    },
    {
      "inputs": [],
      "name": "getRecipients",
      "outputs": [
        {
          "components": [
            {
              "internalType": "address payable",
              "name": "recipient",
              "type": "address"
            },
            {
              "internalType": "uint32",
              "name": "allocationPercent",
              "type": "uint32"
            }
          ],
          "internalType": "struct ProtocolFeeDistributorV1.RecipientDetails[]",
          "name": "",
          "type": "tuple[]"
        }
      ],
      "stateMutability": "view",
      "type": "function"
    },
    {
      "inputs": [],
      "name": "getRecipientsLength",
      "outputs": [
        {
          "internalType": "uint8",
          "name": "",
          "type": "uint8"
        }
      ],
      "stateMutability": "view",
      "type": "function"
    },
    {
      "inputs": [
        {
          "internalType": "address",
          "name": "operator",
          "type": "address"
        }
      ],
      "name": "getRole",
      "outputs": [
        {
          "internalType": "uint256",
          "name": "",
          "type": "uint256"
        }
      ],
      "stateMutability": "view",
      "type": "function"
    },
    {
      "inputs": [
        {
          "internalType": "uint256",
          "name": "required",
          "type": "uint256"
        }
      ],
      "name": "isFeatureEnabled",
      "outputs": [
        {
          "internalType": "bool",
          "name": "",
          "type": "bool"
        }
      ],
      "stateMutability": "view",
      "type": "function"
    },
    {
      "inputs": [
        {
          "internalType": "address",
          "name": "operator",
          "type": "address"
        },
        {
          "internalType": "uint256",
          "name": "required",
          "type": "uint256"
        }
      ],
      "name": "isOperatorInRole",
      "outputs": [
        {
          "internalType": "bool",
          "name": "",
          "type": "bool"
        }
      ],
      "stateMutability": "view",
      "type": "function"
    },
    {
      "inputs": [
        {
          "internalType": "uint256",
          "name": "required",
          "type": "uint256"
        }
      ],
      "name": "isSenderInRole",
      "outputs": [
        {
          "internalType": "bool",
          "name": "",
          "type": "bool"
        }
      ],
      "stateMutability": "view",
      "type": "function"
    },
    {
      "inputs": [
        {
          "internalType": "address",
          "name": "_paymentToken",
          "type": "address"
        }
      ],
      "name": "postConstruct",
      "outputs": [],
      "stateMutability": "nonpayable",
      "type": "function"
    },
    {
      "inputs": [
        {
          "internalType": "uint256",
          "name": "_mask",
          "type": "uint256"
        }
      ],
      "name": "updateFeatures",
      "outputs": [],
      "stateMutability": "nonpayable",
      "type": "function"
    },
    {
      "inputs": [
        {
          "components": [
            {
              "internalType": "address payable",
              "name": "recipient",
              "type": "address"
            },
            {
              "internalType": "uint32",
              "name": "allocationPercent",
              "type": "uint32"
            }
          ],
          "internalType": "struct ProtocolFeeDistributorV1.RecipientDetails[]",
          "name": "_recipients",
          "type": "tuple[]"
        }
      ],
      "name": "updateRecipientsList",
      "outputs": [],
      "stateMutability": "nonpayable",
      "type": "function"
    },
    {
      "inputs": [
        {
          "internalType": "address",
          "name": "operator",
          "type": "address"
        },
        {
          "internalType": "uint256",
          "name": "role",
          "type": "uint256"
        }
      ],
      "name": "updateRole",
      "outputs": [],
      "stateMutability": "nonpayable",
      "type": "function"
    },
    {
      "inputs": [
        {
          "internalType": "address",
          "name": "newImplementation",
          "type": "address"
        }
      ],
      "name": "upgradeTo",
      "outputs": [],
      "stateMutability": "nonpayable",
      "type": "function"
    },
    {
      "inputs": [
        {
          "internalType": "address",
          "name": "newImplementation",
          "type": "address"
        },
        {
          "internalType": "bytes",
          "name": "data",
          "type": "bytes"
        }
      ],
      "name": "upgradeToAndCall",
      "outputs": [],
      "stateMutability": "payable",
      "type": "function"
    },
    {
      "stateMutability": "payable",
      "type": "receive"
    }
  ],
  "transactionHash": "0x2a65507bfafda00b99769c88936d70db674899dcdd7af4350a8807696b32d395",
  "args": [],
  "numDeployments": 1,
  "solcInputHash": "fd755eeeb691c3d1693c9680d5169e2e",
  "bytecode": "0x60a0604052306080523480156200001557600080fd5b50600054610100900460ff16620000335760005460ff16156200003d565b6200003d620000e2565b620000a55760405162461bcd60e51b815260206004820152602e60248201527f496e697469616c697a61626c653a20636f6e747261637420697320616c72656160448201526d191e481a5b9a5d1a585b1a5e995960921b606482015260840160405180910390fd5b600054610100900460ff16158015620000c8576000805461ffff19166101011790555b8015620000db576000805461ff00191690555b5062000106565b6000620000fa306200010060201b620010451760201c565b15905090565b3b151590565b608051611b4162000137600039600081816105c2015281816106020152818161068a01526106ca0152611b416000f3fe6080604052600436106101445760003560e01c8063ae5b102e116100b6578063d5bb7f671161006f578063d5bb7f67146103c2578063d748a56a146103e2578063d78d610b146103f9578063db92ec321461041b578063dbc3e35b1461044e578063fcc2c0781461046357600080fd5b8063ae5b102e1461032c578063ae60bda41461034c578063ae682e2e14610364578063b8b9b5491461037c578063c688d69314610384578063d41c3a65146103a457600080fd5b8063676c589911610108578063676c5899146102415780636d0cee751461026157806370a7d4301461028e578063725f3626146102ba5780639cf1001c146102ea578063aaf10f42146102ff57600080fd5b80632b5214161461018557806331576ad5146101b65780633659cfe6146101d857806344276733146101f85780634f1ef2861461022e57600080fd5b366101805760405134815233907fbfe611b001dfcd411432f7bf0d79b82b4b2ee81511edac123a3403c357fb972a9060200160405180910390a2005b600080fd5b34801561019157600080fd5b50306000908152600160205260409020545b6040519081526020015b60405180910390f35b3480156101c257600080fd5b506101d66101d13660046115c8565b610488565b005b3480156101e457600080fd5b506101d66101f33660046115c8565b6105b8565b34801561020457600080fd5b506101a36102133660046115c8565b6001600160a01b031660009081526001602052604090205490565b6101d661023c3660046115fb565b610680565b34801561024d57600080fd5b506101d661025c3660046116bf565b610735565b34801561026d57600080fd5b5061028161027c366004611734565b6109ed565b6040516101ad919061174d565b34801561029a57600080fd5b506102a56201000081565b60405163ffffffff90911681526020016101ad565b3480156102c657600080fd5b506102da6102d5366004611734565b610a52565b60405190151581526020016101ad565b3480156102f657600080fd5b506101d6610a74565b34801561030b57600080fd5b50610314610d6a565b6040516001600160a01b0390911681526020016101ad565b34801561033857600080fd5b506101d6610347366004611773565b610d74565b34801561035857600080fd5b506101a3600160fe1b81565b34801561037057600080fd5b506101a3600160ff1b81565b6101d6610df6565b34801561039057600080fd5b506102da61039f366004611773565b610f8d565b3480156103b057600080fd5b506098546001600160a01b0316610314565b3480156103ce57600080fd5b506101d66103dd366004611734565b610fb6565b3480156103ee57600080fd5b506102a56202000081565b34801561040557600080fd5b5061040e610fc0565b6040516101ad919061179f565b34801561042757600080fd5b5060985461043c90600160a01b900460ff1681565b60405160ff90911681526020016101ad565b34801561045a57600080fd5b5060975461043c565b34801561046f57600080fd5b506102da61047e366004611734565b611039565b905090565b600054610100900460ff166104a35760005460ff16156104a7565b303b155b61050f5760405162461bcd60e51b815260206004820152602e60248201527f496e697469616c697a61626c653a20636f6e747261637420697320616c72656160448201526d191e481a5b9a5d1a585b1a5e995960921b60648201526084015b60405180910390fd5b600054610100900460ff16158015610531576000805461ffff19166101011790555b61053a3361104b565b6001600160a01b03821661057f5760405162461bcd60e51b815260206004820152600c60248201526b7a65726f206164647265737360a01b6044820152606401610506565b60988054600560a01b6001600160a81b03199091166001600160a01b0385161717905580156105b4576000805461ff00191690555b5050565b6001600160a01b037f00000000000000000000000000000000000000000000000000000000000000001630036106005760405162461bcd60e51b815260040161050690611805565b7f00000000000000000000000000000000000000000000000000000000000000006001600160a01b03166106326110c3565b6001600160a01b0316146106585760405162461bcd60e51b815260040161050690611851565b610661816110f1565b6040805160008082526020820190925261067d9183919061111a565b50565b6001600160a01b037f00000000000000000000000000000000000000000000000000000000000000001630036106c85760405162461bcd60e51b815260040161050690611805565b7f00000000000000000000000000000000000000000000000000000000000000006001600160a01b03166106fa6110c3565b6001600160a01b0316146107205760405162461bcd60e51b815260040161050690611851565b610729826110f1565b6105b48282600161111a565b61074162010000611039565b61075d5760405162461bcd60e51b81526004016105069061189d565b8061077a5760405162461bcd60e51b8152600401610506906118c4565b609854600160a01b900460ff168111156107d65760405162461bcd60e51b815260206004820152601a60248201527f726563697069656e7473206c69737420697320746f6f206269670000000000006044820152606401610506565b6107e260976000611577565b6000805b60ff8116831115610995576000848460ff8416818110610808576108086118fb565b61081e92602060409092020190810191506115c8565b6001600160a01b0316036108655760405162461bcd60e51b815260206004820152600e60248201526d1e995c9bc81c9958da5c1a595b9d60921b6044820152606401610506565b83838260ff1681811061087a5761087a6118fb565b90506040020160200160208101906108929190611923565b6108a29063ffffffff1683611956565b9150609784848360ff168181106108bb576108bb6118fb565b835460018101855560009485526020909420604090910292909201929190910190506108e7828261196e565b505083838260ff168181106108fe576108fe6118fb565b61091492602060409092020190810191506115c8565b6001600160a01b03167f869c07dff90fe2ecd5757a73581f60ded7a70f9536a6596d7664d8d4198ed15985858460ff16818110610953576109536118fb565b905060400201602001602081019061096b9190611923565b60405163ffffffff909116815260200160405180910390a28061098d816119ca565b9150506107e6565b5080620f4240146109e85760405162461bcd60e51b815260206004820152601c60248201527f746f74616c416c6c6f636174696f6e206d7573742062652031303025000000006044820152606401610506565b505050565b604080518082019091526000808252602082015260978281548110610a1457610a146118fb565b6000918252602091829020604080518082019091529101546001600160a01b0381168252600160a01b900463ffffffff169181019190915292915050565b30600090815260016020526040812054610a6e905b8316831490565b92915050565b610a8062020000611039565b610a9c5760405162461bcd60e51b81526004016105069061189d565b6098546040516370a0823160e01b81523060048201526000916001600160a01b0316906370a0823190602401602060405180830381865afa158015610ae5573d6000803e3d6000fd5b505050506040513d601f19601f82011682018060405250810190610b0991906119e9565b11610b4e5760405162461bcd60e51b81526020600482015260156024820152746e6f7468696e6720746f206469737472696275746560581b6044820152606401610506565b609754610b6d5760405162461bcd60e51b8152600401610506906118c4565b6098546040516370a0823160e01b81523060048201526000916001600160a01b0316906370a0823190602401602060405180830381865afa158015610bb6573d6000803e3d6000fd5b505050506040513d601f19601f82011682018060405250810190610bda91906119e9565b90506000805b60975460ff821610156109e857620f424060978260ff1681548110610c0757610c076118fb565b600091825260209091200154610c2a90600160a01b900463ffffffff1685611a02565b610c349190611a21565b91508115610d5857609854609780546001600160a01b039092169163a9059cbb919060ff8516908110610c6957610c696118fb565b60009182526020909120015460405160e083901b6001600160e01b03191681526001600160a01b039091166004820152602481018590526044016020604051808303816000875af1158015610cc2573d6000803e3d6000fd5b505050506040513d601f19601f82011682018060405250810190610ce69190611a43565b610cef57600080fd5b60978160ff1681548110610d0557610d056118fb565b600091825260209182902001546098546040518581526001600160a01b039283169392909116917f66da13e293e415f961254bcbfc4a8ae83526d9f81561f059493541e4c5558b0b910160405180910390a35b80610d62816119ca565b915050610be0565b60006104836110c3565b610d81600160ff1b611039565b610d9d5760405162461bcd60e51b81526004016105069061189d565b6105b48282610df133610dc5876001600160a01b031660009081526001602052604090205490565b866001600160a01b03929092166000908152600160205260409020546000198084188216189216171690565b611265565b610e0262020000611039565b610e1e5760405162461bcd60e51b81526004016105069061189d565b60004711610e665760405162461bcd60e51b81526020600482015260156024820152746e6f7468696e6720746f206469737472696275746560581b6044820152606401610506565b609754610e855760405162461bcd60e51b8152600401610506906118c4565b476000805b60975460ff821610156109e857620f424060978260ff1681548110610eb157610eb16118fb565b600091825260209091200154610ed490600160a01b900463ffffffff1685611a02565b610ede9190611a21565b91508115610f7b57610f1a60978260ff1681548110610eff57610eff6118fb565b6000918252602090912001546001600160a01b0316836112bf565b60978160ff1681548110610f3057610f306118fb565b600091825260209182902001546040518481526001600160a01b03909116917f07e522f923c81306583f6ac561a0b016b750def4b9fba3fc2198249b036905e5910160405180910390a25b80610f85816119ca565b915050610e8a565b6001600160a01b038216600090815260016020526040812054610faf90610a67565b9392505050565b61067d3082610d74565b60606097805480602002602001604051908101604052809291908181526020016000905b8282101561103057600084815260209081902060408051808201909152908401546001600160a01b0381168252600160a01b900463ffffffff1681830152825260019092019101610fe4565b50505050905090565b6000610a6e3383610f8d565b3b151590565b600054610100900460ff166110b65760405162461bcd60e51b815260206004820152602b60248201527f496e697469616c697a61626c653a20636f6e7472616374206973206e6f74206960448201526a6e697469616c697a696e6760a81b6064820152608401610506565b61067d8160001980611265565b7f360894a13ba1a3210667c828492db98dca3e2076cc3735a920a3ca505d382bbc546001600160a01b031690565b6110fe600160fe1b611039565b61067d5760405162461bcd60e51b81526004016105069061189d565b60006111246110c3565b905061112f8461130c565b60008351118061113c5750815b1561114d5761114b84846113b1565b505b7f4910fdfa16fed3260ed0e7147f7cc6da11a60208b5b9406d12a635614ffd9143805460ff1661125e57805460ff191660011781556040516001600160a01b03831660248201526111cc90869060440160408051601f198184030181529190526020810180516001600160e01b0316631b2ce7f360e11b1790526113b1565b50805460ff191681556111dd6110c3565b6001600160a01b0316826001600160a01b0316146112555760405162461bcd60e51b815260206004820152602f60248201527f45524331393637557067726164653a207570677261646520627265616b73206660448201526e75727468657220757067726164657360881b6064820152608401610506565b61125e8561149c565b5050505050565b6001600160a01b03831660008181526001602090815260409182902084905581518581529081018490527fe9be537308880e0f56b7d7cfd7abf85f14c4934486d138f848b92a0cbaf659b4910160405180910390a2505050565b6112c982826114dc565b6105b45760405162461bcd60e51b81526020600482015260146024820152733330b4b632b2103a379039b2b7321032ba3432b960611b6044820152606401610506565b803b6113705760405162461bcd60e51b815260206004820152602d60248201527f455243313936373a206e657720696d706c656d656e746174696f6e206973206e60448201526c1bdd08184818dbdb9d1c9858dd609a1b6064820152608401610506565b7f360894a13ba1a3210667c828492db98dca3e2076cc3735a920a3ca505d382bbc80546001600160a01b0319166001600160a01b0392909216919091179055565b6060823b6114105760405162461bcd60e51b815260206004820152602660248201527f416464726573733a2064656c65676174652063616c6c20746f206e6f6e2d636f6044820152651b9d1c9858dd60d21b6064820152608401610506565b600080846001600160a01b03168460405161142b9190611a95565b600060405180830381855af49150503d8060008114611466576040519150601f19603f3d011682016040523d82523d6000602084013e61146b565b606091505b50915091506114938282604051806060016040528060278152602001611ae56027913961153e565b95945050505050565b6114a58161130c565b6040516001600160a01b038216907fbc7cd75a20ee27fd9adebab32041f755214dbc6bffa90cc0225b39da2e5c2d3b90600090a250565b600080836001600160a01b031661132484604051600060405180830381858888f193505050503d806000811461152e576040519150601f19603f3d011682016040523d82523d6000602084013e611533565b606091505b509095945050505050565b6060831561154d575081610faf565b82511561155d5782518084602001fd5b8160405162461bcd60e51b81526004016105069190611ab1565b508054600082559060005260206000209081019061067d91905b808211156115af5780546001600160c01b0319168155600101611591565b5090565b6001600160a01b038116811461067d57600080fd5b6000602082840312156115da57600080fd5b8135610faf816115b3565b634e487b7160e01b600052604160045260246000fd5b6000806040838503121561160e57600080fd5b8235611619816115b3565b9150602083013567ffffffffffffffff8082111561163657600080fd5b818501915085601f83011261164a57600080fd5b81358181111561165c5761165c6115e5565b604051601f8201601f19908116603f01168101908382118183101715611684576116846115e5565b8160405282815288602084870101111561169d57600080fd5b8260208601602083013760006020848301015280955050505050509250929050565b600080602083850312156116d257600080fd5b823567ffffffffffffffff808211156116ea57600080fd5b818501915085601f8301126116fe57600080fd5b81358181111561170d57600080fd5b8660208260061b850101111561172257600080fd5b60209290920196919550909350505050565b60006020828403121561174657600080fd5b5035919050565b81516001600160a01b0316815260208083015163ffffffff169082015260408101610a6e565b6000806040838503121561178657600080fd5b8235611791816115b3565b946020939093013593505050565b602080825282518282018190526000919060409081850190868401855b828110156117f8576117e884835180516001600160a01b0316825260209081015163ffffffff16910152565b92840192908501906001016117bc565b5091979650505050505050565b6020808252602c908201527f46756e6374696f6e206d7573742062652063616c6c6564207468726f7567682060408201526b19195b1959d85d1958d85b1b60a21b606082015260800190565b6020808252602c908201527f46756e6374696f6e206d7573742062652063616c6c6564207468726f7567682060408201526b6163746976652070726f787960a01b606082015260800190565b6020808252600d908201526c1858d8d95cdcc819195b9a5959609a1b604082015260600190565b60208082526018908201527f726563697069656e7473206c69737420697320656d7074790000000000000000604082015260600190565b634e487b7160e01b600052603260045260246000fd5b63ffffffff8116811461067d57600080fd5b60006020828403121561193557600080fd5b8135610faf81611911565b634e487b7160e01b600052601160045260246000fd5b6000821982111561196957611969611940565b500190565b8135611979816115b3565b81546001600160a01b031981166001600160a01b0392909216918217835560208401356119a581611911565b6001600160c01b03199190911690911760a09190911b63ffffffff60a01b1617905550565b600060ff821660ff81036119e0576119e0611940565b60010192915050565b6000602082840312156119fb57600080fd5b5051919050565b6000816000190483118215151615611a1c57611a1c611940565b500290565b600082611a3e57634e487b7160e01b600052601260045260246000fd5b500490565b600060208284031215611a5557600080fd5b81518015158114610faf57600080fd5b60005b83811015611a80578181015183820152602001611a68565b83811115611a8f576000848401525b50505050565b60008251611aa7818460208701611a65565b9190910192915050565b6020815260008251806020840152611ad0816040850160208701611a65565b601f01601f1916919091016040019291505056fe416464726573733a206c6f772d6c6576656c2064656c65676174652063616c6c206661696c6564a2646970667358221220410707caaf027c63b97070b67311e3475b366122ca963db3046013140b24c0f064736f6c634300080f0033",
  "devdoc": {
    "events": {
      "ERC20Sent(address,address,uint256)": {
        "details": "Fired in distributeERC20()",
        "params": {
          "amount": "amount of ERC20 payment token transferred",
          "paymentToken": "ERC20 payment token address",
          "recipient": "recipient address"
        }
      },
      "ETHReceived(address,uint256)": {
        "details": "Fired in receive()",
        "params": {
          "amount": "amount of ETH received",
          "from": "address of user/contract who has sent Ether"
        }
      },
      "ETHSent(address,uint256)": {
        "details": "Fired in distributeETH()",
        "params": {
          "amount": "amount of ETH transferred",
          "recipient": "recipient address"
        }
      },
      "RecipientsListUpdated(address,uint32)": {
        "details": "Fired in updateRecipientsList()",
        "params": {
          "allocation": "allocated in percentage with 4 decimal precision",
          "recipient": "recipient address"
        }
      }
    },
    "kind": "dev",
    "methods": {
      "distributeERC20()": {
        "details": "distributes ERC20 token to the recipients based on allocation of each recipient.Restricted access function which can only accessible to address having      ROLE_DISTRIBUTION_MANAGER role"
      },
      "distributeETH()": {
        "details": "distributes Ether to the recipients based on allocation of each recipient.Restricted access function which can only accessable to address having      ROLE_DISTRIBUTION_MANAGER role."
      },
      "features()": {
        "details": "Effectively reads userRoles role for the contract itself",
        "returns": {
          "_0": "256-bit bitmask of the features enabled"
        }
      },
      "getImplementation()": {
        "returns": {
          "_0": "the current implementation address"
        }
      },
      "getPaymentToken()": {
        "returns": {
          "_0": "ERC20 payment token"
        }
      },
      "getRecipient(uint256)": {
        "params": {
          "i": "zero-based index of the recipient"
        },
        "returns": {
          "_0": "recipient as RecipientDetails"
        }
      },
      "getRecipients()": {
        "returns": {
          "_0": "RecipientDetails[] recipients list array"
        }
      },
      "getRecipientsLength()": {
        "returns": {
          "_0": "total number of recipients"
        }
      },
      "getRole(address)": {
        "details": "Having a simple getter instead of making the mapping public      allows enforcing the encapsulation of the mapping and protects from      writing to it directly in the inheriting smart contracts",
        "params": {
          "operator": "address of a user to read permissions for,      or self address to read global features of the smart contract"
        }
      },
      "isFeatureEnabled(uint256)": {
        "params": {
          "required": "set of features to check against"
        },
        "returns": {
          "_0": "true if all the features requested are enabled, false otherwise"
        }
      },
      "isOperatorInRole(address,uint256)": {
        "params": {
          "operator": "address of the user to check role for",
          "required": "set of permissions (role) to check"
        },
        "returns": {
          "_0": "true if all the permissions requested are enabled, false otherwise"
        }
      },
      "isSenderInRole(uint256)": {
        "details": "Used in smart contracts only. Off-chain clients should use `isOperatorInRole`.",
        "params": {
          "required": "set of permissions (role) to check against"
        },
        "returns": {
          "_0": "true if all the permissions requested are enabled, false otherwise"
        }
      },
      "postConstruct(address)": {
        "details": "\"Constructor replacement\" for a smart contract with a delayed initialization (post-deployment initialization)",
        "params": {
          "_paymentToken": "ERC20 payment token address"
        }
      },
      "updateFeatures(uint256)": {
        "details": "Requires transaction sender to have `ROLE_ACCESS_MANAGER` permissionFunction is left for backward compatibility with older versions",
        "params": {
          "_mask": "bitmask representing a set of features to enable/disable"
        }
      },
      "updateRecipientsList((address,uint32)[])": {
        "details": "Restricted access function which can only accessible to address having      ROLE_RECIPIENT_LIST_MANAGER role.total recipient allocation of all recipients in the list must be 100%,      else transaction will be reverted",
        "params": {
          "_recipients": "array of the recipients containing addresses and allocations"
        }
      },
      "updateRole(address,uint256)": {
        "details": "Setting role to zero is equivalent to removing an all permissionsSetting role to `FULL_PRIVILEGES_MASK` is equivalent to      copying senders' permissions (role) to the userRequires transaction sender to have `ROLE_ACCESS_MANAGER` permission",
        "params": {
          "operator": "address of a user to alter permissions for,       or self address to alter global features of the smart contract",
          "role": "bitmask representing a set of permissions to      enable/disable for a user specified"
        }
      },
      "upgradeTo(address)": {
        "details": "Upgrade the implementation of the proxy to `newImplementation`. Calls {_authorizeUpgrade}. Emits an {Upgraded} event."
      },
      "upgradeToAndCall(address,bytes)": {
        "details": "Upgrade the implementation of the proxy to `newImplementation`, and subsequently execute the function call encoded in `data`. Calls {_authorizeUpgrade}. Emits an {Upgraded} event."
      }
    },
    "stateVariables": {
      "ROLE_DISTRIBUTION_MANAGER": {
        "details": "Role ROLE_DISTRIBUTION_MANAGER manager to distribute ETH/ERC20 to recipients"
      },
      "ROLE_RECIPIENT_LIST_MANAGER": {
        "details": "Role ROLE_RECIPIENT_LIST_MANAGER manager to add/update recipient details"
      }
    },
    "title": "Protocol Fee Distributor V1",
    "version": 1
  },
  "userdoc": {
    "kind": "user",
    "methods": {
      "ROLE_ACCESS_MANAGER()": {
        "notice": "Access manager is responsible for assigning the roles to users,      enabling/disabling global features of the smart contractAccess manager can add, remove and update user roles,      remove and update global features"
      },
      "ROLE_DISTRIBUTION_MANAGER()": {
        "notice": "Distribution manager having role can distributor protocol fees      to registered recipients"
      },
      "ROLE_RECIPIENT_LIST_MANAGER()": {
        "notice": "Recipient list manager having role can add/update recipient details"
      },
      "ROLE_UPGRADE_MANAGER()": {
        "notice": "Upgrade manager is responsible for smart contract upgrades,      see https://docs.openzeppelin.com/contracts/4.x/api/proxy#UUPSUpgradeable      see https://docs.openzeppelin.com/contracts/4.x/upgradeable"
      },
      "distributeERC20()": {
        "notice": "distribute ERC20 token to all added recipients"
      },
      "distributeETH()": {
        "notice": "distribute Ether to all added recipients"
      },
      "features()": {
        "notice": "Retrieves globally set of features enabled"
      },
      "getImplementation()": {
        "notice": "Returns an address of the implementation smart contract,      see ERC1967Upgrade._getImplementation()"
      },
      "getPaymentToken()": {
        "notice": "ERC20 payment token distributor is bound to"
      },
      "getRecipient(uint256)": {
        "notice": "Reads an element from the list of recipients"
      },
      "getRecipients()": {
        "notice": "Returns the entire recipients list"
      },
      "getRecipientsLength()": {
        "notice": "Number of recipients added to the contract      `getRecipient(i)` can be used to iterate the list, 0 <= i < getRecipientsLength()"
      },
      "getRole(address)": {
        "notice": "Reads the permissions (role) for a given user from the `userRoles` mapping      (privileged addresses with defined roles/permissions)In the context of ERC20/ERC721 tokens these can be permissions to      allow minting or burning tokens, transferring on behalf and so on"
      },
      "isFeatureEnabled(uint256)": {
        "notice": "Checks if requested set of features is enabled globally on the contract"
      },
      "isOperatorInRole(address,uint256)": {
        "notice": "Checks if operator has all the permissions (role) required"
      },
      "isSenderInRole(uint256)": {
        "notice": "Checks if transaction sender `msg.sender` has all the permissions required"
      },
      "updateFeatures(uint256)": {
        "notice": "Updates set of the globally enabled features (`features`),      taking into account sender's permissions"
      },
      "updateRecipientsList((address,uint32)[])": {
        "notice": "Add recipient address and allocation for each recipient"
      },
      "updateRole(address,uint256)": {
        "notice": "Updates set of permissions (role) for a given user,      taking into account sender's permissions."
      }
    },
    "notice": "Accepts protocol fees from the bonding curve contracts and distributes them      later to the list of recipients via the admin-push mechanismThe factory manages protocol fees of the deployed TradeableShares contract:      deployed contracts usually follow the protocol fees set on the factory",
    "version": 1
  },
  "storageLayout": {
    "storage": [
      {
        "astId": 414,
        "contract": "contracts/bonding_curves/ProtocolFeeDistributorV1.sol:ProtocolFeeDistributorV1",
        "label": "_initialized",
        "offset": 0,
        "slot": "0",
        "type": "t_bool"
      },
      {
        "astId": 417,
        "contract": "contracts/bonding_curves/ProtocolFeeDistributorV1.sol:ProtocolFeeDistributorV1",
        "label": "_initializing",
        "offset": 1,
        "slot": "0",
        "type": "t_bool"
      },
      {
        "astId": 8296,
        "contract": "contracts/bonding_curves/ProtocolFeeDistributorV1.sol:ProtocolFeeDistributorV1",
        "label": "userRoles",
        "offset": 0,
        "slot": "1",
        "type": "t_mapping(t_address,t_uint256)"
      },
      {
        "astId": 8301,
        "contract": "contracts/bonding_curves/ProtocolFeeDistributorV1.sol:ProtocolFeeDistributorV1",
        "label": "__gap",
        "offset": 0,
        "slot": "2",
        "type": "t_array(t_uint256)49_storage"
      },
      {
        "astId": 396,
        "contract": "contracts/bonding_curves/ProtocolFeeDistributorV1.sol:ProtocolFeeDistributorV1",
        "label": "__gap",
        "offset": 0,
        "slot": "51",
        "type": "t_array(t_uint256)50_storage"
      },
      {
        "astId": 591,
        "contract": "contracts/bonding_curves/ProtocolFeeDistributorV1.sol:ProtocolFeeDistributorV1",
        "label": "__gap",
        "offset": 0,
        "slot": "101",
        "type": "t_array(t_uint256)50_storage"
      },
      {
        "astId": 4797,
        "contract": "contracts/bonding_curves/ProtocolFeeDistributorV1.sol:ProtocolFeeDistributorV1",
        "label": "recipients",
        "offset": 0,
        "slot": "151",
        "type": "t_array(t_struct(RecipientDetails)4793_storage)dyn_storage"
      },
      {
        "astId": 4800,
        "contract": "contracts/bonding_curves/ProtocolFeeDistributorV1.sol:ProtocolFeeDistributorV1",
        "label": "paymentToken",
        "offset": 0,
        "slot": "152",
        "type": "t_contract(ERC20)7973"
      },
      {
        "astId": 4802,
        "contract": "contracts/bonding_curves/ProtocolFeeDistributorV1.sol:ProtocolFeeDistributorV1",
        "label": "MAX_RECIPIENTS_ALLOWED",
        "offset": 20,
        "slot": "152",
        "type": "t_uint8"
      }
    ],
    "types": {
      "t_address": {
        "encoding": "inplace",
        "label": "address",
        "numberOfBytes": "20"
      },
      "t_address_payable": {
        "encoding": "inplace",
        "label": "address payable",
        "numberOfBytes": "20"
      },
      "t_array(t_struct(RecipientDetails)4793_storage)dyn_storage": {
        "base": "t_struct(RecipientDetails)4793_storage",
        "encoding": "dynamic_array",
        "label": "struct ProtocolFeeDistributorV1.RecipientDetails[]",
        "numberOfBytes": "32"
      },
      "t_array(t_uint256)49_storage": {
        "base": "t_uint256",
        "encoding": "inplace",
        "label": "uint256[49]",
        "numberOfBytes": "1568"
      },
      "t_array(t_uint256)50_storage": {
        "base": "t_uint256",
        "encoding": "inplace",
        "label": "uint256[50]",
        "numberOfBytes": "1600"
      },
      "t_bool": {
        "encoding": "inplace",
        "label": "bool",
        "numberOfBytes": "1"
      },
      "t_contract(ERC20)7973": {
        "encoding": "inplace",
        "label": "contract ERC20",
        "numberOfBytes": "20"
      },
      "t_mapping(t_address,t_uint256)": {
        "encoding": "mapping",
        "key": "t_address",
        "label": "mapping(address => uint256)",
        "numberOfBytes": "32",
        "value": "t_uint256"
      },
      "t_struct(RecipientDetails)4793_storage": {
        "encoding": "inplace",
        "label": "struct ProtocolFeeDistributorV1.RecipientDetails",
        "members": [
          {
            "astId": 4790,
            "contract": "contracts/bonding_curves/ProtocolFeeDistributorV1.sol:ProtocolFeeDistributorV1",
            "label": "recipient",
            "offset": 0,
            "slot": "0",
            "type": "t_address_payable"
          },
          {
            "astId": 4792,
            "contract": "contracts/bonding_curves/ProtocolFeeDistributorV1.sol:ProtocolFeeDistributorV1",
            "label": "allocationPercent",
            "offset": 20,
            "slot": "0",
            "type": "t_uint32"
          }
        ],
        "numberOfBytes": "32"
      },
      "t_uint256": {
        "encoding": "inplace",
        "label": "uint256",
        "numberOfBytes": "32"
      },
      "t_uint32": {
        "encoding": "inplace",
        "label": "uint32",
        "numberOfBytes": "4"
      },
      "t_uint8": {
        "encoding": "inplace",
        "label": "uint8",
        "numberOfBytes": "1"
      }
    }
  }
}